:0400000032EF31F0BA
:1000080000C01EF001C01DF002C01CF003C01BF0B0
:1000180004C01AF005C019F008C018F009C017F09C
:100028000AC016F00BC015F0E1CF23F0E2CF24F0A0
:10003800E9CF21F0EACF22F0F3CF1FF0F4CF20F080
:10004800F2AA15D0F2A413D0F294C20ED76EF70E0E
:10005800D66E010E0101006F010E02015C25006ED3
:10006800000E5D21016E00C05CF201C05DF29DA032
:100078000DD09EA00BD002019E90FE0ECF6E0C0EEE
:10008800CE6E7D5302E08B7A01D08B9A9DAA88D0E0
:100098009EAA86D0ABA202D0AB98AB88AECF2BF588
:1000A80005012B513C0A02E10201696B0201300E85
:1000B800695D0FE2710EE16E030EE26E6951E12691
:1000C800D8B0E22A2BC5E6FF6951010F006E00C0C7
:1000D80069F205012B513E0A63E1050E0201695DD3
:1000E8005DE3030171513C0A59E102018A51010F94
:1000F800006E030E0014016E01C02AF50150891923
:100108004DE069C229F5800E000A006E800E005C81
:1001180003E105012951260803E20501260E296F8E
:100128000501286B2951285D22E2280E006E000E79
:10013800016E8AC204F0000E056E2EEC0EF0B10EB0
:100148000026020E012228510024E16E000E012033
:10015800E26E710EE96E030EEA6E2851E926D8B0F8
:10016800EA2AEECF00F000C0E6FF282BDBD7280EE6
:10017800006E000E016E8AC204F0000E056E2EECB1
:100188000EF0B10E0026020E012229510024E16E64
:10019800000E0120E26EE66A2AC58AF20201696B46
:1001A8001FC0F3FF20C0F4FF1EC000F01DC001F007
:1001B8001CC002F01BC003F01AC004F019C005F0FF
:1001C80018C008F017C009F016C00AF015C00BF0E7
:1001D80021C0E9FF22C0EAFF23C0E1FF24C0E2FFFB
:0201E800110004
:0801EA000AAE029E000E120095
:1001F2000B840BAE04EF01F0010E036E026A016A7A
:0A020200006A0A360232FF0E1200F5
:10020C000B820BAE10EF01F0036802680168006806
:08021C000A360232FF0E120047
:0E022400026A016A006A086A036A000E12008C
:100232000CB05BEF01F00CA201EF02F00E6A000EAF
:10024200026472EF01F0F00E0214D8A43DEF01F047
:10025200023A01380F0B02260138F00B016E00380A
:100262000F0B01260038F00B006E08380F0B00262A
:100272000838F00B086E0E84D89002BE56EF01F0DB
:1002820008360036013602360E2A02BE56EF01F05B
:1002920008360036013602360E2A02BE56EF01F04B
:1002A20008360036013602360E2A0E500364F7EF86
:1002B20001F0035E0BBC08AEFCEF01F0D880800EAB
:1002C20008640030000E002201220222D8A0FCEFB6
:1002D20001F0023201320032034A01EF02F0FCEF78
:1002E20001F001C002F000C001F008C000F0086A8D
:1002F200000E0E860264A9EF01F0F00E0214D8A4DB
:1003020091EF01F0023A01380F0B02260138F00B8F
:10031200016E00380F0B01260038F00B006E0E84C0
:10032200D89002BE56EF01F00036013602360E2A90
:1003320002BE56EF01F00036013602360E2A02BE28
:1003420056EF01F00036013602360E2A56EF01F062
:1003520001C002F000C001F0006A000E0E960E8885
:100362000264D6EF01F0F00E0214D8A4C1EF01F03E
:10037200023A01380F0B02260138F00B016E0E848F
:10038200D89002BE56EF01F0013602360E2A02BEA6
:1003920056EF01F0013602360E2A02BE56EF01F088
:1003A200013602360E2A56EF01F001C002F0016A50
:1003B200000E0E86026406EF02F0F00E0214D8A4BC
:1003C200E5EF01F0023A0E84D89002BE56EF01F03A
:1003D20002360E2A02BE56EF01F002360E2A02BE85
:1003E20056EF01F002360E2A56EF01F0010E0C6EA6
:1003F200FFDE09EF02F0020E0C6EF6DE09EF02F0EC
:10040200040E0C6E02DF09EF02F0080E0C6E09DF1B
:020412001200D6
:080414000B6A0B86FF0E1200BB
:10041C00086A096A000E0762036493EF02F0025047
:10042C0006180A6E075003267E0ED8A024EF02F0A1
:10043C00035ED8B097EF02F028EF02F0035ED8A06D
:10044C009BEF02F0028E068E02C00EF001C00BF084
:10045C0000C00DF000500402F4CF0CF00150050266
:10046C00F4CF00F0F3CF08F00402F3500C26F45054
:10047C000822000E00220D500502F3500C26F450F9
:10048C000822000E002202500402F3500826F450F9
:10049C00002202500502016A000E0122F3500026D0
:1004AC00F45001220D500602F3500826F45000229D
:1004BC00026A000E012202220B500602F3500026A3
:1004CC00F4500122000E02220E500602F3500126B7
:1004DC00F450022202BE7BEF02F0083600360136E1
:1004EC0002360306D8B49BEF02F08EEF02F0D880F0
:1004FC00800E08640030000E002201220222D8A0D7
:10050C008EEF02F0023201320032034A97EF02F012
:10051C000AAE029E000E9DEF02F0010E7DDE9DEFF5
:10052C0002F0020E6DDE9DEF02F0040E5CDE120096
:10053C000B800BAEAAEF02F0026A0AAEFF0E026E3F
:0C054C00016E006E0A360232FF0E120033
:10055800086A080E0C6E003408360450085ED8B0DD
:0E05680002D00826D89000360C2EF5D71200CF
:10057600025006180E6E086A096A0B6A0350076471
:10058600AEEF03F006500A6E068E028E03500B6E17
:100596000750036E000E0B64FEEF02F00B50075E71
:1005A600D8B49FEF03F0070E07646DEF03F0075E04
:1005B60000C008F001C000F002C001F0026A074E58
:1005C6009FEF03F0076442EF03F0075E00C008F0F8
:1005D60001C000F0016A074E9FEF03F0076420EFA9
:1005E60003F0075E00C008F0006A074E9FEF03F0B5
:1005F600076407EF03F00AC002F005C001F004C06B
:1006060000F0086AC8EF04F0030E076412EF03F067
:10061600075E08380F0B086E074E9FEF03F0D89061
:100626000832074E9FEF03F0D8900832074E9FEF2F
:1006360003F0D89008329FEF03F0030E076431EF02
:1006460003F0075E08380F0B086E0038F00B08261B
:1006560000380F0B006E074E9FEF03F0D890003264
:100666000832074E9FEF03F0D89000320832074E4B
:100676009FEF03F0D890003208329FEF03F0030E8D
:10068600076459EF03F0075E08380F0B086E003851
:10069600F00B082600380F0B006E0138F00B002611
:1006A60001380F0B016E074E9FEF03F0D890013211
:1006B60000320832074E9FEF03F0D8900132003225
:1006C6000832074E9FEF03F0D8900132003208320D
:1006D6009FEF03F0030E07648AEF03F0075E083806
:1006E6000F0B086E0038F00B082600380F0B006E53
:1006F6000138F00B002601380F0B016E0238F00BA3
:10070600012602380F0B026E074E9FEF03F0D890BA
:100716000232013200320832074E9FEF03F0D890C2
:100726000232013200320832074E9FEF03F0D890B2
:100736000232013200320832096A000E0EAE93EF21
:1007460004F0081E001E011E021E082A00220122B5
:10075600022293EF04F00750D8A4B4EF03F0C8EFD9
:1007660004F0096A02C00AF0028E068E0750035C86
:10077600076ED8B486EF04F0070E076454EF04F052
:10078600075E0450096E0550046E0650056E066A33
:10079600074E86EF04F0070E076429EF04F0075EA4
:1007A6000450096E0550046E056A074E86EF04F084
:1007B600070E076407EF04F0075E0450096E046A2B
:1007C600074E86EF04F0070E0764EEEF03F00AC04B
:1007D60002F0C8EF04F0030E0764F9EF03F0075EBA
:1007E60009380F0B096E074E86EF04F0D8900932D0
:1007F600074E86EF04F0D8900932074E86EF04F0D4
:10080600D890093286EF04F0030E076418EF04F05F
:10081600075E09380F0B096E0438F00B09260438F9
:100826000F0B046E074E86EF04F0D890043209329F
:10083600074E86EF04F0D89004320932074E86EF51
:1008460004F0D8900432093286EF04F0030E0764F0
:1008560040EF04F0075E09380F0B096E0438F00B01
:10086600092604380F0B046E0538F00B04260538EC
:100876000F0B056E074E86EF04F0D8900532043252
:100886000932074E86EF04F0D89005320432093259
:10089600074E86EF04F0D89005320432093286EF0F
:1008A60004F0030E076471EF04F0075E09380F0BBE
:1008B600096E0438F00B092604380F0B046E053850
:1008C600F00B042605380F0B056E0638F00B0526CF
:1008D60006380F0B066E074E86EF04F0D8900632E8
:1008E600053204320932074E86EF04F0D8900632FC
:1008F600053204320932074E86EF04F0D8900632EC
:10090600053204320932086A000E0EAE93EF04F087
:10091600091E041E051E061E092A04220522062299
:1009260009500826045000220550012206500222D2
:100936000EBEAAEF04F0D8A0B9EF04F002320132DD
:1009460000320832033EB9EF04F0C3EF04F0D8B02A
:10095600BEEF04F0000E081E001E011E021E082A2D
:100966000022012202220A7EBEEF04F0010E0C6E66
:100976005DDCCAEF04F0020E0C6E58DCCAEF04F020
:10098600040E0C6E40DCCAEF04F0000E0C6E120072
:100996000134083609360450085E0550D8A0053CD7
:1009A600095E003601360F0E0C6E01340836093624
:1009B600045000A006D0085E0550D8A0053C095E8C
:1009C60005D008260550D8B0053C09260036013664
:1009D6000C2EEBD700B006D0045008260550D8B030
:0809E600053C09260000120087
:1009EE000D6A086A0050D8B4000C04180A6E0ABECC
:1009FE000D1E0B6A04AE02D0041E042A00AE02D0F5
:100A0E00001E002A005004100A6E0ABE1FD00450A9
:100A1E00085E003600340836045008260036060EEE
:100A2E000C6E00340836045000B0085E00A0082694
:100A3E0000360C2EF6D700A008260BB015D00DAE42
:100A4E00000C001E002A081E082A000C04AE09D055
:100A5E0000BE04D00050086E006AF1D7006A002A6A
:100A6E00000C001E0B2AD3D7082A0450085CD8A409
:0E0A7E00E6D7086A002A00AEE2D7FF0C12008D
:0A0A8C00210E0D6E0D2EFED7120094
:100A960005012351390806E3300E235D03E3010EF9
:080AA600006E01D0006A12008D
:100AAE000A6A0350D8A40A800750D8A40A820A50B2
:100ABE00D8B4BAEF05F0030AD8B473EF05F00AB054
:100ACE006EEF05F006AEB8EF05F0B6EF05F002AE2C
:100ADE00B6EF05F0B8EF05F00250800B0A6E029EDD
:100AEE000650800B069E0A18D8B484EF05F00A5003
:100AFE00D8B4B6EF05F0B8EF05F00750035CD8B4E4
:100B0E008EEF05F0D8A0AAEF05F0B0EF05F0065075
:100B1E00025CD8B498EF05F0D8A0AAEF05F0B0EFBC
:100B2E0005F00550015CD8B4A2EF05F0D8A0AAEFED
:100B3E0005F0B0EF05F00450005CD8B4BAEF05F044
:100B4E00D8B0B0EF05F00A52D8B4B8EF05F0B6EF52
:100B5E0005F00A52D8B4B6EF05F0B8EF05F0D8801C
:0E0B6E001200D8901200D880D8841200120015
:100B7C000B6A0A6A096A086A0E6A0334083604505A
:100B8C00085E0550D8A0053C095E0650D8A0063C6E
:100B9C000A5E0750D8A0073C0B5EE86AD8A0010E8D
:100BAC000E5E0336070E0C6E0334083609360A3611
:100BBC000B360E36045003A012D0085E0550D8A098
:100BCC00053C095E0650D8A0063C0A5E0750D8A02A
:100BDC00073C0B5EE86AD8A0010E0E5E11D0082609
:100BEC000550D8B0053C09260650D8B0063C0A265C
:100BFC000750D8B0073C0B26E86AD8B0010E0E2679
:100C0C0003360C2ED1D70234083609360A360B3689
:100C1C000E36045003A012D0085E0550D8A0053C37
:100C2C00095E0650D8A0063C0A5E0750D8A0073CC7
:100C3C000B5EE86AD8A0010E0E5E11D00826055096
:100C4C00D8B0053C09260650D8B0063C0A260750F9
:100C5C00D8B0073C0B26E86AD8B0010E0E26023637
:100C6C00070E0C6E0234083609360A360B360E3671
:100C7C00045002A012D0085E0550D8A0053C095EB5
:100C8C000650D8A0063C0A5E0750D8A0073C0B5E65
:100C9C00E86AD8A0010E0E5E11D008260550D8B017
:100CAC00053C09260650D8B0063C0A260750D8B099
:100CBC00073C0B26E86AD8B0010E0E2602360C2E25
:100CCC00D1D70134083609360A360B360E360450A5
:100CDC0002A012D0085E0550D8A0053C095E065053
:100CEC00D8A0063C0A5E0750D8A0073C0B5EE86A09
:100CFC00D8A0010E0E5E11D008260550D8B0053CC8
:100D0C0009260650D8B0063C0A260750D8B0073C36
:100D1C000B26E86AD8B0010E0E260136070E0C6EB3
:100D2C000134083609360A360B360E36045001A04B
:100D3C0012D0085E0550D8A0053C095E0650D8A01C
:100D4C00063C0A5E0750D8A0073C0B5EE86AD8A0A8
:100D5C00010E0E5E11D008260550D8B0053C0926B0
:100D6C000650D8B0063C0A260750D8B0073C0B26D4
:100D7C00E86AD8B0010E0E2601360C2ED1D70034FD
:100D8C00083609360A360B360E36045001A012D03E
:100D9C00085E0550D8A0053C095E0650D8A0063C5C
:100DAC000A5E0750D8A0073C0B5EE86AD8A0010E7B
:100DBC000E5E11D008260550D8B0053C0926065009
:100DCC00D8B0063C0A260750D8B0073C0B26E86A78
:100DDC00D8B0010E0E260036070E0C6E0034083605
:100DEC0009360A360B360E36045000A012D0085EB7
:100DFC000550D8A0053C095E0650D8A0063C0A5EFA
:100E0C000750D8A0073C0B5EE86AD8A0010E0E5E16
:100E1C0011D008260550D8B0053C09260650D8B08C
:100E2C00063C0A260750D8B0073C0B26E86AD8B017
:100E3C00010E0E2600360C2ED1D700B00ED0045069
:100E4C0008260550D8B0053C09260650D8B0063CFB
:0C0E5C000A260750D8B0073C0B261200F5
:100E68000F0E0C6E470E0D6E0D2EFED70C2EFCD7F6
:060E780000000000120062
:060E7E000000000012005C
:100E840003500718D8A456EF07F002500618D8A448
:100E940056EF07F001500518D8A456EF07F000509C
:0E0EA4000418D8B4D8841200D894120012009A
:100EB2000B6A0C6A0A6A086A0350D8B4E1EF07F0B9
:100EC200028E9E0E035E03BE6CEF07F0D8B46CEF89
:100ED20007F0D1EF07F0036C080E035CD8A09EEF79
:100EE20007F0036E083600C008F001C000F002C02F
:100EF20001F0026A080E035CD8A09EEF07F0036EB1
:100F0200083600C008F001C000F0016A080E035C58
:100F1200D8A09EEF07F0036E083600C008F0006A02
:100F2200080E035CD8A09EEF07F0036E0836086A2D
:100F32000350D8A4D890AAEF07F00350D8B4AAEF70
:100F420007F0D8900232013200320832032EA2EFAB
:100F520007F00BBC08A0BBEF07F0D8A0BBEF07F06F
:100F6200082AD8B4002AD8B4012AD8B4022A02BE68
:100F7200E5EF07F00AAEE1EF07F0021E011E001EC8
:100F8200081E082AD8B4002AD8B4012AD8B4022AE2
:100F9200E1EF07F0026A016A006A086AE1EF07F00E
:100FA2000B800BAEEBEF07F0026A0AAEEBEF07F035
:100FB200026E016E006E086E0A360232EBEF07F027
:100FC200000E0C6AECEF07F0010E0C6E9EEC02F0C4
:100FD200ECEF07F0FF0E0250036E0150026E00505C
:080FE200016E0850006E1200C0
:100FEA00800E05012319006E800E000A005CD8B03D
:100FFA0068D123510008016E01C023F5800E011843
:10100A00006E800E6E0A005CD8A0BCD0640E046E1E
:10101A0023C500F0E7DC120E0024056E000E00BEA8
:10102A00FF0E066E000E062205C000F006C001F093
:10103A00000E06BEFF0E026E036E003600900136E9
:10104A0002360336003600900136023603368B0E1E
:10105A000024F66E6B0E0120F76E000E0220F86E69
:10106A000900F5CF24F50900F5CF25F50900F5CFDC
:10107A0026F50900F5CF27F5640E046E23C500F0A6
:10108A00B1DC08C000F00A0E046EACDC090E0024C4
:10109A00056E000E00BEFF0E066E000E062205C08B
:1010AA0000F006C001F0000E06BEFF0E026E036ECF
:1010BA0000360090013602360336003600900136BB
:1010CA00023603368B0E0024F66E6B0E0120F76E85
:1010DA00000E0220F86E0900F5CF00F00900F5CFE6
:1010EA0001F00900F5CF02F00900F5CF03F024C59D
:1010FA0004F025C505F026C506F027C507F00EEC55
:10110A0002F000C024F501C025F502C026F503C08F
:10111A0027F50A0E046E23C500F064DC08C000F04F
:10112A0000C001F0000E00BEFF0E026E036E046ED8
:10113A000136019002360336043601360190023632
:10114A00033604368B0E0124F66E6B0E0220F76E00
:10115A00000E0320F86E0900F5CF00F00900F5CF64
:10116A0001F00900F5CF02F00900F5CF03F024C51C
:10117A0004F025C505F026C506F027C507F00EECD4
:10118A0002F006D2800E0A0A006E800E2319005C55
:10119A0070E20A0E046E23C500F024DC090E002456
:1011AA00056E000E00BEFF0E066E000E062205C07A
:1011BA0000F006C001F0000E06BEFF0E026E036EBE
:1011CA0000360090013602360336003600900136AA
:1011DA00023603368B0E0024F66E6B0E0120F76E74
:1011EA00000E0220F86E0900F5CF24F50900F5CFAC
:1011FA0025F50900F5CF26F50900F5CF27F50A0EE2
:10120A00046E23C500F0F7EC04F008C000F000C03B
:10121A0001F0000E00BEFF0E026E036E046E013670
:10122A00019002360336043601360190023603363F
:10123A0004368B0E0124F66E6B0E0220F76E000E3A
:10124A000320F86E0900F5CF00F00900F5CF01F090
:10125A000900F5CF02F00900F5CF03F024C504F028
:10126A0025C505F026C506F027C507F00EEC02F0E5
:10127A008FD123C500F0000E23BFFF0E016E026E50
:10128A00036E0036009001360236033600360090AF
:10129A000136023603368B0E0024F66E6B0E0120E1
:1012AA00F76E000E0220F86E0900F5CF00F0090073
:1012BA00F5CF01F00900F5CF02F00900F5CF03F0F0
:1012CA0067D1800E2319006E800E6E0A005CD8A0CA
:1012DA00C0D0640E046E23C500F0F7EC04F0120EC1
:1012EA000024056E000E00BEFF0E066E000E0622DA
:1012FA0005C000F006C001F0000E06BEFF0E026E29
:10130A00036E00360090013602360336003600902E
:10131A00013602360336BF0E0024F66E6B0E01202C
:10132A00F76E000E0220F86E0900F5CF24F50900C9
:10133A00F5CF25F50900F5CF26F50900F5CF27F5F4
:10134A00640E046E23C500F0F7EC04F008C000F048
:10135A000A0E046EF7EC04F0090E0024056E000E66
:10136A0000BEFF0E066E000E062205C000F006C083
:10137A0001F0000E06BEFF0E026E036E00360090EC
:10138A00013602360336003600900136023603363D
:10139A00BF0E0024F66E6B0E0120F76E000E0220BF
:1013AA00F86E0900F5CF00F00900F5CF01F0090049
:1013BA00F5CF02F00900F5CF03F024C504F025C5E6
:1013CA0005F026C506F027C507F00EEC02F000C0AE
:1013DA0024F501C025F502C026F503C027F50A0E3B
:1013EA00046E23C500F0F7EC04F008C000F000C05A
:1013FA0001F0000E00BEFF0E026E036E046E01368F
:10140A00019002360336043601360190023603365D
:10141A000436BF0E0124F66E6B0E0220F76E000E24
:10142A000320F86E0900F5CF00F00900F5CF01F0AE
:10143A000900F5CF02F00900F5CF03F024C504F046
:10144A0025C505F026C506F027C507F00EEC02F003
:10145A009FD0800E0A0A006E800E2319005C71E28A
:10146A000A0E046E23C500F0F7EC04F0090E0024FE
:10147A00056E000E00BEFF0E066E000E062205C0A7
:10148A0000F006C001F0000E06BEFF0E026E036EEB
:10149A0000360090013602360336003600900136D7
:1014AA0002360336BF0E0024F66E6B0E0120F76E6D
:1014BA00000E0220F86E0900F5CF24F50900F5CFD9
:1014CA0025F50900F5CF26F50900F5CF27F50A0E0F
:1014DA00046E23C500F0F7EC04F008C000F000C069
:1014EA0001F0000E00BEFF0E026E036E046E01369E
:1014FA00019002360336043601360190023603366D
:10150A000436BF0E0124F66E6B0E0220F76E000E33
:10151A000320F86E0900F5CF00F00900F5CF01F0BD
:10152A000900F5CF02F00900F5CF03F024C504F055
:10153A0025C505F026C506F027C507F00EEC02F012
:10154A0027D023C500F0000E23BFFF0E016E026EE6
:10155A00036E0036009001360236033600360090DC
:10156A00013602360336BF0E0024F66E6B0E0120DA
:10157A00F76E000E0220F86E0900F5CF00F00900A0
:10158A00F5CF01F00900F5CF02F00900F5CF03F01D
:02159A0012003D
:10159C000450000A12E10550000A0FE10650000A3F
:1015AC000CE10750000A09E1FF0E006EFF0E016E00
:1015BC007F0E026EFF0E036EA8D0086A096A0750F0
:1015CC00D8B479EF0BF00350D8B47EEF0BF0025087
:1015DC0006180A6E028E068E0E6A02C008F001C052
:1015EC000CF000C00DF004500D5E0550D8A0053C69
:1015FC000C5E0650D8A0063C085E086A0C6A0D6AA0
:10160C00D8A010EF0BF0D890023201320032083221
:10161C00010E0E6E0750035ED8A01DEF0BF07E0E70
:10162C000E240326D8B083EF0BF023EF0BF07E0EC5
:10163C000E240326D8A088EF0BF0180E0B6E0D3677
:10164C000C3608360036013602360E360450005E73
:10165C000550D8A0053C015E0650D8A0063C025EA1
:10166C0006340E120EA03EEF0BF00D8049EF0BF07E
:10167C00045000260550D8B0053C01260650D8B0C1
:10168C00062802260D900B2E25EF0BF06FEF0BF0BA
:10169C00D8900036013602360E360450005E0550E6
:1016AC00D8A0053C015E0650D8A0063C025E06346C
:1016BC000E10010B0D26D8B00C2AD8B4082AD8A4C9
:1016CC006FEF0BF008320C320D32032AD8B483EFD3
:1016DC000BF00AAE089E0850026E0C50016E0D50B5
:1016EC00006E8BEF0BF0010E0AEC02F08BEF0BF09F
:1016FC00020E12EC01F08BEF0BF0040E06EC01F075
:0C170C008BEF0BF0080EF9EC00F012005F
:101718000450000A08E10550000A05E1FF0E006EBA
:101728007F0E016E58D00D6A096A086A01500010D0
:10173800D8B4000C015005180A6E0ABE0D1E0B6ABB
:1017480005AE05D0041E051E042AD8B4052A01AE2C
:1017580005D0001E011E002AD8B4012A0150051028
:101768000A6E0ABE10D0CBEC04F00BB020D00DAE40
:10177800000C001E011E002AD8B4012A081E091EEA
:10178800082AD8B4092A000C05AE0DD001BE07D02E
:101798000150096E0050086E016A006AE8D7016AB4
:1017A800006A002A000C011E001E0B2ADDD7082A39
:1017B800D8B4092A0450085CD8A4D9D70550095CC4
:1017C800D8A4D5D7096A086A002AD8B4012A01AE74
:0817D800CED70000FF0C120047
:0817E000067EBBEC02F01200D2
:1017E8000050086E0150006E0250016E0350026EE8
:1017F800036A0B6A0C6A9E0E036E0A6A020E0C6E6E
:0618080019EC01F01200D2
:10180E006E0E0501235DD8A0CAD0640E046E23C5EA
:10181E0000F0ACEC02F0120E0024056E066A000E0B
:10182E00062205C000F006C001F0000E06BEFF0E37
:10183E00026E036E00360090013602360336003615
:10184E0000900136023603368B0E0024F66E6B0EB8
:10185E000120F76E000E0220F86E0900F5CF00F0A1
:10186E000900F5CF01F00900F5CF02F00900F5CF20
:10187E0003F0000E046E000E056E000E066E7E0E58
:10188E00076E0EEC02F000C024F501C025F502C073
:10189E0026F503C027F5640E046E23C500F0ACECEC
:1018AE0002F008C000F00A0E046EACEC02F0090E55
:1018BE000024056E066A000E062205C000F006C062
:1018CE0001F0000E06BEFF0E026E036E0036009093
:1018DE0001360236033600360090013602360336E4
:1018EE008B0E0024F66E6B0E0120F76E000E02209A
:1018FE00F86E0900F5CF00F00900F5CF01F00900F0
:10190E00F5CF02F00900F5CF03F024C504F025C58C
:10191E0005F026C506F027C507F00EEC02F000C054
:10192E0024F501C025F502C026F503C027F50A0EE1
:10193E00046E23C500F0ACEC02F008C000F000C04D
:10194E0001F0000E026E036E046E01360190023637
:10195E0003360436013601900236033604368B0EFA
:10196E000124F66E6B0E0220F76E000E0320F86E49
:10197E000900F5CF00F00900F5CF01F00900F5CF11
:10198E0002F00900F5CF03F024C504F025C505F0DB
:10199E0026C506F027C507F00EEC02F0B1D0235194
:1019AE000A08D8B07ED00A0E046E23C500F0ACEC47
:1019BE0002F0090E0024056E066A000E062205C00E
:1019CE0000F006C001F0000E06BEFF0E026E036EA2
:1019DE00003600900136023603360036009001368E
:1019EE00023603368B0E0024F66E6B0E0120F76E58
:1019FE00000E0220F86E0900F5CF00F00900F5CFB9
:101A0E0001F00900F5CF02F00900F5CF03F0000E4A
:101A1E00046E000E056E000E066E7E0E076E0EEC48
:101A2E0002F000C024F501C025F502C026F503C062
:101A3E0027F50A0E046E23C500F0ACEC02F008C0C8
:101A4E0000F000C001F0000E026E036E046E01364F
:101A5E000190023603360436013601900236033603
:101A6E0004368B0E0124F66E6B0E0220F76E000EFE
:101A7E000320F86E0900F5CF00F00900F5CF01F054
:101A8E000900F5CF02F00900F5CF03F024C504F0EC
:101A9E0025C505F026C506F027C507F00EEC02F0A9
:101AAE002FD023C500F0000E016E026E036E0036BD
:101ABE0000900136023603360036009001360236AB
:101ACE0003368B0E0024F66E6B0E0120F76E000EA1
:101ADE000220F86E0900F5CF00F00900F5CF01F0F5
:101AEE000900F5CF02F00900F5CF03F0000E046EE9
:101AFE00000E056E000E066E7E0E076E0EEC02F0E8
:021B0E001200C3
:0E1B1000ACB202D00000FCD723C5ADFF12001E
:0C1B1E0072B201D0FDD723C573FF120086
:101B2A000B6A0C6A086A0350D8B419EF0EF002C0A7
:101B3A000AF0028E9E0E035E03AE09EF0EF0036CEE
:101B4A00080E035CD8A0D6EF0DF0036E083600C06D
:101B5A0008F001C000F002C001F0026A080E035C3E
:101B6A00D8A0D6EF0DF0036E083600C008F001C009
:101B7A0000F0016A080E035CD8A0D6EF0DF0036EE0
:101B8A00083600C008F0006A080E035CD8A0D6EF39
:101B9A000DF0036E0836086A0350D8A4D890E2EF15
:101BAA000DF00350D8B4E2EF0DF0D89002320132B2
:101BBA0000320832032EDAEF0DF00BBC08A0F3EF67
:101BCA000DF0D8A0F3EF0DF0082AD8B4002AD8B443
:101BDA00012AD8B4022A02BE1DEF0EF00AAE19EF8E
:101BEA000EF0021E011E001E081E082AD8B4002A82
:101BFA00D8B4012AD8B4022A19EF0EF0026A016A8F
:101C0A00006A086A19EF0EF00B800BAE24EF0EF093
:101C1A00026A0AAE24EF0EF0026E016E006E086EC2
:101C2A000A36023224EF0EF00C6A000E25EF0EF08F
:101C3A00010E0C6E000E9EEC02F025EF0EF0FF0E68
:101C4A000250036E0150026E0050016E0850006E81
:021C5A00120076
:101C5C000B6A0A6A096A00500402F4CF09F0F3CF48
:101C6C0008F001500502F4CF0BF0F3CF0AF000504E
:101C7C000502F3500926F4500A22E86A0B2201509F
:101C8C000402F3500926F4500A22E86A0B2208C019
:101C9C0000F009C001F00AC002F00BC003F0120002
:0C1CAC000E0E0D6E0D2EFED70000120073
:101CB8000401FBBF02D0819601D08186FBBD02D012
:101CC800819401D08184FBBB02D0819201D08182B2
:101CD800FBB902D0819001D081800201A4B102D069
:101CE800818801D08198818A3FEC07F0819A0401AC
:101CF800FBB702D0819601D08186FBB502D08194D2
:101D080001D08184FBB302D0819201D08182FBB1E2
:101D180002D0819001D081800201A4B102D08188D3
:101D280001D08198818A3FEC07F0819AA4A103D061
:0C1D380034EC07F002D046EC05F012007D
:101D4400C7B409D01F0EC514016E0150000A03E187
:0A1D5400010E006E01D0006A1200BB
:101D5E00F250026EF29E0500FF6A0150FE6E0050B8
:081D6E00FD6E02BEF28E1200B0
:101D760005011B6B1C6B0F6B106B03C500F004C5D4
:101D860001F005C502F0010E0327000E042305230A
:101D960000C0F6FF01C0F7FF02C0F8FF0900F5CF4B
:101DA60000F000C00CF50052D8B4D5EF1EF00C516F
:101DB600250A0BE001C5E1FF02C5E2FF0CC5E6FFFF
:101DC600014B022B1B4B1C2BD8D70D6B0E6B0F6BCD
:101DD600106B23D00F87010E0327000E0423052363
:101DE60059D00F81010E0327000E0423052352D07C
:101DF6000F83010E0327000E042305234BD0108703
:101E0600010E0327000E0423052344D00F85010E7F
:101E16000327000E042305233DD003C5F6FF04C5A2
:101E2600F7FF05C5F8FF0900F5CF01F001502D0AAF
:101E3600D1E003C5F6FF04C5F7FF05C5F8FF0900A5
:101E4600F5CF01F00150200ACCE003C5F6FF04C52A
:101E5600F7FF05C5F8FF0900F5CF01F001502B0A81
:101E6600C7E003C5F6FF04C5F7FF05C5F8FF09007F
:101E7600F5CF01F00150230AC2E003C5F6FF04C501
:101E8600F7FF05C5F8FF0900F5CF01F00150300A4C
:101E9600BDE001D09ED70FA301D00F910FA701D0AF
:101EA6000F9503C5F6FF04C5F7FF05C5F8FF090042
:101EB600F5CF00F0000E016E00C023F54BEC05F0E7
:101EC600005235E00D6B0E6B0DC500F00EC501F02E
:101ED6000A0E046E000E056EBEDE03C5F6FF04C5CF
:101EE600F7FF05C5F8FF0900F5CF02F00250002400
:101EF6000D6F000E01200E6F300E0D5F000E0E5B93
:101F0600010E0327000E0423052303C5F6FF04C5AF
:101F1600F7FF05C5F8FF0900F5CF00F0000E016ECA
:101F260000C023F54BEC05F00052CEE133D003C5DB
:101F3600F6FF04C5F7FF05C5F8FF0900F5CF01F068
:101F460001502A0A27E106C5E9FF07C5EAFFEECFD9
:101F560000F0EECF01F000C0E9FF01C0EAFFEECFCE
:101F66000DF5EECF0EF506C5E9FF07C5EAFF020E31
:101F7600EE24006E000EEE20016E06C5E1FF07C5D9
:101F8600E2FF00C0E6FF01C0E6FF010E0327000ED8
:101F96000423052303C5F6FF04C5F7FF05C5F8FFAF
:101FA6000900F5CF01F001502E0A6FE1010E03275B
:101FB600000E0423052303C5F6FF04C5F7FF05C578
:101FC600F8FF0900F5CF01F001502A0A28E106C5FD
:101FD600E9FF07C5EAFFEECF00F0EECF01F000C043
:101FE600E9FF01C0EAFFEECF0AF5EECF0BF506C515
:101FF600E9FF07C5EAFF020EEE24006E000EEE2092
:10200600016E06C5E1FF07C5E2FF00C0E6FF01C09D
:10201600E6FF010E0327000E0423052335D00A6BC5
:102026000B6B03C5F6FF04C5F7FF05C5F8FF0900EE
:10203600F5CF00F0000E016E00C023F54BEC05F065
:10204600005222E00AC500F00BC501F00A0E046E2C
:10205600000E056E00DE03C5F6FF04C5F7FF05C5D5
:10206600F8FF0900F5CF02F0025000240A6F000EB7
:1020760001200B6F300E0A5F000E0B5B010E03276B
:10208600000E04230523CDD703D00A6B0B6B1089F2
:1020960003C500F004C501F005C502F0010E0327D3
:1020A600000E0423052300C0F6FF01C0F7FF02C09F
:1020B600F8FF0900F5CF0CF5F9D01BC500F01CC5DB
:1020C60001F0D9EF1EF00F89E3D710852ED10F8BC3
:1020D60010812BD1108329D10F8D27D126D10F8BBB
:1020E6000F8F23D106C5E9FF07C5EAFFEECF00F043
:1020F600EECF01F000C0E9FF01C0EAFFEECF17F511
:10210600EECF18F506C5E9FF07C5EAFF020EEE2475
:10211600006E000EEE20016E06C5E1FF07C5E2FF68
:1021260000C0E6FF01C0E6FF000E181902E1000E2E
:10213600171904E16D0E176F020E186F196B1A6BE3
:1021460019511725E96E1A511821EA6EEE520BE065
:10215600010E1925006E000E1A21016E00C019F538
:1021660001C01AF5EDD70A510B110AE01A510B5DA1
:1021760002E119510A5D04E20AC519F50BC51AF503
:102186000E511A5D02E10D51195D05E219510D5FFF
:102196001A510E5B02D00D6B0E6B0FB716D00DC524
:1021A60000F00EC501F0010E0D5F000E0E5B005033
:1021B60001100BE001C5E1FF02C5E2FF200EE66E4D
:1021C600014B022B1B4B1C2BEAD719C502F01AC573
:1021D60003F0010E195D006E000E1A59016E00C063
:1021E60019F501C01AF50250031019E017C5E9FFE9
:1021F60018C5EAFF01C5E1FF02C5E2FFEECFE6FF23
:10220600014B022B010E1725006E000E1821016EE0
:1022160000C017F501C018F51B4B1C2BD6D70FA70E
:1022260016D00DC500F00EC501F0010E0D5F000EB3
:102236000E5B005001100BE001C5E1FF02C5E2FF95
:10224600200EE66E014B022B1B4B1C2BEAD795D5B5
:1022560006C5E9FF07C5EAFFEECF00F0EECF01F0B5
:1022660000C0E9FF01C0EAFFEECF0CF506C5E9FFA5
:1022760007C5EAFF020EEE24006E000EEE20016E88
:1022860006C5E1FF07C5E2FF00C0E6FF01C0E6FFA5
:102296000C0E176F050E186F010E196F000E1A6FD0
:1022A60062D7C00E0F13000E10133FD00C51000A58
:1022B600D8B403D70C516C0AD8B405D70C514C0AC4
:1022C600D8B401D70C51660AD8B4FFD60C51450ACA
:1022D600D8B4FDD60C51650AD8B4FAD60C51670AA3
:1022E600D8B4F8D60C516F0AD8B4F6D60C51640A95
:1022F600D8B4F4D60C51690AD8B4F0D60C51700A89
:10230600D8B4EDD60C51580AD8B4E9D60C51780A8F
:10231600D8B4E6D60C51730AD8B4E4D60C51630A85
:1023260097E00C51750ABDE0B3D7000E0F15006E8D
:102336001051070B016E00500110D8B479EF1AF056
:1023460010A904D0060E0A6F000E0B6F06C5E9FF32
:1023560007C5EAFFEECF00F0EECF01F000C0E9FFBF
:1023660001C0EAFFEECF11F5EECF12F5EECF13F571
:10237600EECF14F506C5E9FF07C5EAFF040EEE2405
:10238600006E000EEE20016E06C5E1FF07C5E2FFF6
:1023960000C0E6FF01C0E6FF046A056A066A076A2E
:1023A60011C500F012C501F013C502F014C503F003
:1023B60057EC05F0010ED8B0000E006E005205E095
:1023C600137F030E0F13000E1013156B166B11C53A
:1023D60000F012C501F013C502F014C503F0046A3B
:1023E600056A066A076A42EC07F0000ED8A4010ED9
:1023F600006E0052D8B489D014C500F0016A026A92
:10240600036AFF0E0016000E01167E0E005E000E19
:10241600015A00C015F501C016F5010E005E000E4A
:10242600015A00C015F501C016F5030E046E000E24
:10243600056E11DC00C015F501C016F50A0E046E16
:10244600000E056E8CEC0BF000C015F501C016F5FC
:10245600800E0118026E800E025C02E1000E005C26
:1024660005E2010E0501155F000E165B050115510B
:102476000008236FF5EC07F011C504F012C505F04E
:1024860013C506F014C507F00EEC02F000C017F5F0
:1024960001C018F502C019F503C01AF5000E046E46
:1024A600000E056E000E066E7F0E076E17C500F055
:1024B60018C501F019C502F01AC503F057EC05F06E
:1024C600010ED8B0000E006E005205E0010E155F39
:1024D600000E165B1AD0000E046E000E056E200E5E
:1024E600066E820E076E17C500F018C501F019C5F5
:1024F60002F01AC503F057EC05F0000ED8B0010E35
:10250600006E005202E0154B162B800E006E800EF8
:102516001619005C02E11551000803E3010E0C6F69
:1025260002D015C50CF510B118D010A315D0800E29
:102536001619006E7F0E005C02E1FC0E155D0BE3C2
:10254600800E1619006E800E0B19005C02E10A510E
:10255600155D01E201D001D0F5D30A510B1106E059
:1025660010A304D0010E0A5F000E0B5B0B5100088E
:1025760002E10A51080803E2080E0C6F02D00AC5F0
:102586000CF511C500F012C501F013C502F014C513
:1025960003F0046A056A066A076A42EC07F0000E51
:1025A600D8A4010E006E0052D8B44BD115C523F540
:1025B600F5EC07F000C004F001C005F002C006F01B
:1025C60003C007F011C500F012C501F013C502F0F3
:1025D60014C503F0CEEC0AF000C011F501C012F5E7
:1025E60002C013F503C014F505010C510008236F52
:1025F600F5EC07F000C004F001C005F002C006F0DB
:1026060003C007F011C500F012C501F013C502F0B2
:1026160014C503F0CEEC0AF000C01DF501C01EF58E
:1026260002C01FF503C020F51DC511F51EC512F524
:102636001FC513F520C514F51DC500F01EC501F014
:102646001FC502F020C503F059EC07F0F4EC0BF0BF
:1026560000C004F001C005F002C006F003C007F098
:102666001DC500F01EC501F01FC502F020C503F010
:10267600F0EC0BF0000E046E000E056E000E066EFA
:102686007E0E076E57EC05F0000ED8B0010E006EF8
:1026960000521AE011C500F012C501F013C502F090
:1026A60014C503F0000E046E000E056E000E066ED5
:1026B6007E0E076EBBEC02F000C011F501C012F5EC
:1026C60002C013F503C014F511C500F012C501F0E0
:1026D60013C502F014C503F059EC07F005010C51BF
:1026E600010F096E0A6A000E0A2209C004F00AC028
:1026F60005F0000E0ABEFF0E066E076E0436049045
:10270600053606360736043604900536063607368D
:10271600230E0424F66E6C0E0520F76E000E0620BE
:10272600F86E0900F5CF05F00900F5CF06F00900AF
:10273600F5CF07F00900F5CF08F00850035C08E173
:102746000750025C05E10650015C02E10550005CA1
:102756001EE3050111C500F012C501F013C502F014
:1027660014C503F0CD0E046ECC0E056E4C0E066E2F
:102776007B0E076E0EEC02F000C011F501C012F5DB
:1027860002C013F503C014F5154B162B5AD011C50C
:1027960000F012C501F013C502F014C503F059ECA0
:1027A60007F00CC504F0000E056E066E076E0436C3
:1027B6000490053606360736043604900536063686
:1027C6000736230E0424F66E6C0E0520F76E000EF7
:1027D6000620F86E0900F5CF05F00900F5CF06F0E2
:1027E6000900F5CF07F00900F5CF08F00850035CA3
:1027F60008E10750025C05E10650015C02E1055064
:10280600005C1FE2050111C500F012C501F013C5F9
:1028160002F014C503F0000E046E000E056E200EC5
:10282600066E820E076E0EEC02F000C011F501C0B6
:1028360012F502C013F503C014F5010E155F000E64
:10284600165B050110A393D010B791D0800E000A35
:10285600006E800E0B19005C02E10A510A0804E2C0
:102866000A0E0A6F000E0B6F11C500F012C501F0BB
:1028760013C502F014C503F059EC07F000C017F5B4
:1028860001C018F502C019F503C01AF51751181141
:1028960019111A1142E00A0E046E000E056E066E3C
:1028A600076E17C500F018C501F019C502F01AC564
:1028B60003F0BEEC05F008C000F009C001F00AC044
:1028C60002F00BC003F0000E046E031808E104507A
:1028D600021805E10450011802E10050000A1DE14A
:1028E600010E0A5F000E0B5B0A0E046E000E056EEB
:1028F600066E076E17C500F018C501F019C502F07F
:102906001AC503F0BEEC05F000C017F501C018F5B6
:1029160002C019F503C01AF5B9D7800E0B19006E5F
:10292600800E005C02E10C510A5D21E20A510C5D49
:10293600236FF5EC07F000C004F001C005F002C0FB
:1029460006F003C007F011C500F012C501F013C56B
:1029560002F014C503F0CEEC0AF000C011F501C078
:1029660012F502C013F503C014F50AC50CF5050EE1
:1029760005010A25006E000E0B21016E00500D5F49
:1029860001500E5B0A510B1103E110B701D004D0C0
:10299600010E0D5F000E0E5B030E0F15006E10C5C7
:1029A60001F0000E01160050011004E0010E0D5F4B
:1029B600000E0E5B0FA53CD00FA315D00FA104D0BF
:1029C6002D0E0401FB6F03D004012B0EFB6F01C516
:1029D600E1FF02C5E2FFFBC4E6FF0501014B022B46
:1029E6001B4B1C2B0CD00FA10AD001C5E1FF02C561
:1029F600E2FF200EE66E014B022B1B4B1C2B800EBA
:102A0600006E800E0E19005C02E10D5100080FE207
:102A160001C5E1FF02C5E2FF300EE66E014B022B57
:102A26001B4B1C2B010E0D5F000E0E5BE8D73DD035
:102A36000FB718D0800E006E800E0E19005C02E1F2
:102A46000D5100080FE201C5E1FF02C5E2FF200EAD
:102A5600E66E014B022B1B4B1C2B010E0D5F000E6D
:102A66000E5BE8D70FA315D00FA104D02D0E0401DD
:102A7600FC6F03D004012B0EFC6F01C5E1FF02C5FC
:102A8600E2FFFCC4E6FF0501014B022B1B4B1C2B8E
:102A96000CD00FA10AD001C5E1FF02C5E2FF200E4E
:102AA600E66E014B022B1B4B1C2B11C500F012C509
:102AB60001F013C502F014C503F059EC07F000C08D
:102AC60017F501C018F502C019F503C01AF50CC5B3
:102AD60000F0000E016E026E036E003600900136A5
:102AE6000236033600360090013602360336230ED0
:102AF6000024F66E6C0E0120F76E000E0220F86EB2
:102B06000900F5CF04F00900F5CF05F00900F5CF6F
:102B160006F00900F5CF07F017C500F018C501F05B
:102B260019C502F01AC503F0BEEC05F0300E0026FA
:102B360001C5E1FF02C5E2FF00C0E6FF014B022B23
:102B46001B4B1C2B0A510B1103E110B701D06FD0A0
:102B560001C5E1FF02C5E2FF2E0EE66E014B022B18
:102B66001B4B1C2B0C510A5F000E0B5B0C534DE0EC
:102B76000C070CC500F0000E016E026E036E0036E7
:102B860000900136023603360036009001360236D2
:102B96000336230E0024F66E6C0E0120F76E000E2F
:102BA6000220F86E0900F5CF04F00900F5CF05F014
:102BB6000900F5CF06F00900F5CF07F017C500F0BC
:102BC60018C501F019C502F01AC503F0BEEC05F0F0
:102BD6000A0E046E000E056E066E076EBEEC05F05C
:102BE60008C000F009C001F00AC002F00BC003F0F3
:102BF600300E002601C5E1FF02C5E2FF00C0E6FF78
:102C0600014B022B1B4B1C2BB1D70A510B110FE0AA
:102C160001C5E1FF02C5E2FF300EE66E014B022B55
:102C26001B4B1C2B010E0A5F000E0B5BEED70FAB86
:102C36000BD001C5E1FF02C5E2FF450EE66E014B72
:102C4600022B1B4B1C2B0AD001C5E1FF02C5E2FF7C
:102C5600650EE66E014B022B1B4B1C2B800E1619C4
:102C6600006E800E005C02E1000E155D11E215514A
:102C76000008156F1651000E165701C5E1FF02C573
:102C8600E2FF2D0EE66E014B022B1B4B1C2B0AD0CE
:102C960001C5E1FF02C5E2FF2B0EE66E014B022BDA
:102CA6001B4B1C2B0A0E046E000E056E15C500F09C
:102CB60016C501F08CEC0BF0300E002601C5E1FFC5
:102CC60002C5E2FF00C0E6FF0501014B022B1B4BCC
:102CD6001C2B0A0E046E000E056E15C500F016C5F7
:102CE60001F08CEC0BF008C000F009C001F0300ECA
:102CF600002601C5E1FF02C5E2FF00C0E6FF0501AF
:102D0600014B022B1B4B1C2B0FA71AD0800E006EFB
:102D1600800E0E19005C02E10D51000811E201C59A
:102D2600E1FF02C5E2FF200EE66E014B022B1B4BB4
:102D36001C2B010E0D5F000E0E5B0D510E11EFE107
:102D4600C0EF0EF010A3F3D0800E1619006E800EA1
:102D5600005C02E1000E155D0AE2010E155D006ED3
:102D6600000E1659016E00500A5F01500B5B11C52B
:102D760000F012C501F013C502F014C503F059ECBA
:102D860007F000C017F501C018F502C019F503C019
:102D96001AF5010E0C6F0C510A0A34E00CC500F04E
:102DA600000E016E026E036E00360090013602368A
:102DB600033600360090013602360336230E002411
:102DC600F66E6C0E0120F76E000E0220F86E0900FA
:102DD600F5CF01F00900F5CF02F00900F5CF03F0B9
:102DE6000900F5CF04F004501A5D08E10350195D9F
:102DF60005E10250185D02E10150175D01E202D0C3
:102E06000C2BC9D70C510A5D216F000E0B59226F8E
:102E160021C50AF522C50BF517C500F018C501F046
:102E260019C502F01AC503F0F4EC0BF000C004F06B
:102E360001C005F002C006F003C007F011C500F09E
:102E460012C501F013C502F014C503F0F0EC0BF047
:102E560000C01DF501C01EF502C01FF503C020F518
:102E660021C523F5F5EC07F01DC504F01EC505F0D8
:102E76001FC506F020C507F00EEC02F0000E046E2A
:102E8600000E056E000E066E7E0E076EBBEC02F09F
:102E960059EC07F000C017F501C018F502C019F586
:102EA60003C01AF50A510B1142E00A0E046E000E19
:102EB600056E066E076E17C500F018C501F019C538
:102EC60002F01AC503F0BEEC05F008C000F009C018
:102ED60001F00AC002F00BC003F0000E046E0318E6
:102EE60008E10450021805E10450011802E10050FF
:102EF600000A1DE10A0E046E000E056E066E076ED0
:102F060017C500F018C501F019C502F01AC503F07F
:102F1600BEEC05F000C017F501C018F502C019F5A2
:102F260003C01AF5010E0A5F000E0B5BBBD7800EBD
:102F3600006E800E0B19005C02E10A510C0816E3C4
:102F46000AC523F507EC0CF011C504F012C505F00F
:102F560013C506F014C507F0BBEC02F000C011F56E
:102F660001C012F502C013F503C014F511C500F037
:102F760012C501F013C502F014C503F0046A056A10
:102F8600066A076A42EC07F0000ED8A4010E006E2E
:102F96000052D8B477D011C500F012C501F013C5A0
:102FA60002F014C503F059EC07F0000E046E031886
:102FB60008E10450021805E10450011802E100502E
:102FC600000A60E1800E006E800E1619005C02E1B8
:102FD6001551010857E215C523F5F5EC07F000C0B9
:102FE60004F001C005F002C006F003C007F011C5E9
:102FF60000F012C501F013C502F014C503F0CEECC3
:103006000AF05F0E046E700E056E090E066E810ED6
:10301600076E57EC05F0010ED8B0000E006E005298
:1030260006E0090E0501155F000E165B05D00501C9
:10303600080E155F000E165B15C523F5F5EC07F0B7
:1030460000C004F001C005F002C006F003C007F09E
:1030560011C500F012C501F013C502F014C503F046
:10306600CEEC0AF059EC07F000C017F501C018F5D0
:1030760002C019F503C01AF50501116B126B136B2B
:10308600146B38D011C500F012C501F013C502F05B
:1030960014C503F059EC07F000C017F501C018F588
:1030A60002C019F503C01AF517C500F018C501F0DE
:1030B60019C502F01AC503F0F4EC0BF000C004F0D9
:1030C60001C005F002C006F003C007F011C500F00C
:1030D60012C501F013C502F014C503F0F0EC0BF0B5
:1030E60000C011F501C012F502C013F503C014F5B6
:1030F600156B166B010E0C6F0C510A0A34E00CC5E9
:1031060000F0000E016E026E036E0036009001366E
:103116000236033600360090013602360336230E99
:103126000024F66E6C0E0120F76E000E0220F86E7B
:103136000900F5CF01F00900F5CF02F00900F5CF3F
:1031460003F00900F5CF04F004501A5D08E10350BE
:10315600195D05E10250185D02E10150175D01E2BB
:1031660002D00C2BC9D70C510A25006E000E0B217C
:10317600016E155100261651012200500D5F0150B7
:103186000E5B10B704D00A510B1101E104D0010EF9
:103196000D5F000E0E5B030E0F15006E10C501F0DD
:1031A600000E01160050011004E0010E0D5F000E26
:1031B6000E5B0FA53CD00FA315D00FA104D02D0E8A
:1031C6000401FD6F03D004012B0EFD6F01C5E1FF65
:1031D60002C5E2FFFDC4E6FF0501014B022B1B4BB6
:1031E6001C2B0CD00FA10AD001C5E1FF02C5E2FFDE
:1031F600200EE66E014B022B1B4B1C2B800E006E25
:10320600800E0E19005C02E10D5100080FE201C5A7
:10321600E1FF02C5E2FF300EE66E014B022B1B4BAF
:103226001C2B010E0D5F000E0E5BE8D73DD00FB7CD
:1032360018D0800E006E800E0E19005C02E10D5152
:1032460000080FE201C5E1FF02C5E2FF200EE66EAF
:10325600014B022B1B4B1C2B010E0D5F000E0E5B50
:10326600E8D70FA315D00FA104D02D0E0401FE6FD1
:1032760003D004012B0EFE6F01C5E1FF02C5E2FF7C
:10328600FEC4E6FF0501014B022B1B4B1C2B0CD089
:103296000FA10AD001C5E1FF02C5E2FF200EE66ECE
:1032A600014B022B1B4B1C2B0CC500F00C070052CC
:1032B6004CE00CC500F0000E016E026E036E003687
:1032C600009001360236033600360090013602368B
:1032D6000336230E0024F66E6C0E0120F76E000EE8
:1032E6000220F86E0900F5CF04F00900F5CF05F0CD
:1032F6000900F5CF06F00900F5CF07F017C500F075
:1033060018C501F019C502F01AC503F0BEEC05F0A8
:103316000A0E046E000E056E066E076EBEEC05F014
:1033260008C000F009C001F00AC002F00BC003F0AB
:10333600300E002601C5E1FF02C5E2FF00C0E6FF30
:10334600014B022B1B4B1C2BAFD7800E006E800E41
:103356001619005C02E1155100080FE201C5E1FFF4
:1033660002C5E2FF300EE66E014B022B1B4B1C2BF7
:10337600010E155F000E165BE8D7800E000A006E80
:10338600800E0B19005C02E10A51080803E2080EE0
:103396000C6F02D00AC50CF50C510A5F000E0B5BD0
:1033A6000C5303E110B701D00AD001C5E1FF02C5F5
:1033B600E2FF2E0EE66E014B022B1B4B1C2B0CC59F
:1033C60023F5F5EC07F011C504F012C505F013C599
:1033D60006F014C507F00EEC02F095EC0DF000C0F7
:1033E60017F501C018F502C019F503C01AF50C53FC
:1033F6004DE00C070CC500F0000E016E026E036E68
:10340600003600900136023603360036009001364B
:1034160002360336230E0024F66E6C0E0120F76E7C
:10342600000E0220F86E0900F5CF04F00900F5CF72
:1034360005F00900F5CF06F00900F5CF07F017C52E
:1034460000F018C501F019C502F01AC503F0BEEC6C
:1034560005F00A0E046E000E056E066E076EBEECD3
:1034660005F008C000F009C001F00AC002F00BC068
:1034760003F0300E002601C5E1FF02C5E2FF00C0E1
:10348600E6FF014B022B1B4B1C2BB1D70A510B112C
:103496000FE001C5E1FF02C5E2FF300EE66E014B0B
:1034A600022B1B4B1C2B010E0A5F000E0B5BEED78B
:1034B6000FA71AD0800E006E800E0E19005C02E176
:1034C6000D51000811E201C5E1FF02C5E2FF200E21
:1034D600E66E014B022B1B4B1C2B010E0D5F000EE3
:1034E6000E5B0D510E11EFE1C0EF0EF0C00E0F1581
:1034F600016E10C502F0000E0216000E021802E15F
:10350600000E0118D8A480D00FA927D006C5E9FF60
:1035160007C5EAFFEECF00F0EECF01F000C0E9FFED
:1035260001C0EAFFEECF17F5EECF18F5EECF19F58D
:10353600EECF1AF506C5E9FF07C5EAFF040EEE242D
:10354600006E000EEE20016E06C5E1FF07C5E2FF24
:1035560000C0E6FF01C0E6FF2FD006C5E9FF07C59C
:10356600EAFFEECF00F0EECF01F000C0E9FF01C0A8
:10357600EAFFEECF00F0EECF01F0000E01BEFF0E27
:10358600026E036E00C017F501C018F502C019F5EA
:1035960003C01AF506C5E9FF07C5EAFF020EEE24C9
:1035A600006E000EEE20016E06C5E1FF07C5E2FFC4
:1035B60000C0E6FF01C0E6FF800E1A19006E800EFD
:1035C600005C08E1000E195D05E1000E185D02E1E0
:1035D600000E175D18E2030E0F13000E1013006A9B
:1035E600016A026A036A1751005E1851015A19519D
:1035F600025A1A51035A00C017F501C018F502C045
:1036060019F503C01AF54ED00FA927D006C5E9FF54
:1036160007C5EAFFEECF00F0EECF01F000C0E9FFEC
:1036260001C0EAFFEECF17F5EECF18F5EECF19F58C
:10363600EECF1AF506C5E9FF07C5EAFF040EEE242C
:10364600006E000EEE20016E06C5E1FF07C5E2FF23
:1036560000C0E6FF01C0E6FF25D006C5E9FF07C5A5
:10366600EAFFEECF00F0EECF01F000C0E9FF01C0A7
:10367600EAFFEECF17F5EECF18F5000E196F1A6FA9
:1036860006C5E9FF07C5EAFF020EEE24006E000E2E
:10369600EE20016E06C5E1FF07C5E2FF00C0E6FFAA
:1036A60001C0E6FF000E0B1902E1000E0A190FE138
:1036B600000E006E1A1908E10050191905E10050B4
:1036C600181902E11751000A02E10A4B0B2BC00E32
:1036D6000F15006E00C005F0AED0010E0C6F0C5138
:1036E6000A0A34E00CC500F0000E016E026E036E8D
:1036F6000036009001360236033600360090013659
:1037060002360336230E0024F66E6C0E0120F76E89
:10371600000E0220F86E0900F5CF01F00900F5CF82
:1037260002F00900F5CF03F00900F5CF04F00450CC
:103736001A5D08E10350195D05E10250185D02E1CA
:103746000150175D01E202D00C2BC9D782D0010EC1
:103756000C6F0C51080A34E00CC500F0000E016E27
:10376600026E036E003600900136023603360036CE
:1037760000900136023603366E0E0024F66E6C0E8D
:103786000120F76E000E0220F86E0900F5CF01F059
:103796000900F5CF02F00900F5CF03F00900F5CFD7
:1037A60004F004501A5D08E10350195D05E102506A
:1037B600185D02E10150175D01E202D00C2BC9D75A
:1037C60048D0010E0C6F0C510C0A34E00CC500F009
:1037D600000E016E026E036E003600900136023650
:1037E600033600360090013602360336F30E002407
:1037F600F66E6B0E0120F76E000E0220F86E0900C1
:10380600F5CF01F00900F5CF02F00900F5CF03F07E
:103816000900F5CF04F004501A5D08E10350195D64
:1038260005E10250185D02E10150175D01E202D088
:103836000C2BC9D70ED00550000AD8B44ED7055068
:10384600C00AD8B44AD70550800A81E00550400A1C
:10385600B8E0800E006E800E0B19005C02E10A5182
:103866000C5D03E20AC50CF50DD0800E0B19006E37
:10387600800E005C02E10C510A5D04E20CC50AF5FB
:10388600000E0B6F0D510E110EE0030E0F15006E9C
:1038960010C501F0000E01160050011004E0010EE3
:1038A6000D5F000E0E5B800E0B19006E800E0E195A
:1038B600005C02E10D510A5D05E20A510D5F0B51F4
:1038C6000E5B02D00D6B0E6BC40E0F15016E105100
:1038D600080B026E0250080A02E1400E011808E1C8
:1038E6000D510E1104E0010E0D5F000E0E5B1CD093
:1038F600C00E0F15016E1051080B026E0250080A19
:1039060002E1800E011810E1800E006E800E0E1985
:10391600005C02E10D51020805E2020E0D5F000E89
:103926000E5B02D00D6B0E6B0FA560D00FA315D0EA
:103936000FA104D02D0E0401FF6F03D004012B0E3E
:10394600FF6F01C5E1FF02C5E2FFFFC4E6FF050107
:10395600014B022B1B4B1C2B34D00FA10BD001C5E6
:10396600E1FF02C5E2FF200EE66E014B022B1B4B68
:103976001C2B27D0C00E0F15016E1051080B026EBE
:103986000250080A02E1800E01181BE101C5E1FFA1
:1039960002C5E2FF300EE66E014B022B1B4B1C2BC1
:1039A6000FAB03D0580E006F02D0780E006F01C522
:1039B600E1FF02C5E2FF00C5E6FF014B022B1B4BF0
:1039C6001C2B0D510E1111E001C5E1FF02C5E2FFEE
:1039D600300EE66E014B022B1B4B1C2B010E0D5FAE
:1039E600000E0E5B0D510E11EFE174D00D510E114C
:1039F60013E00FB711D001C5E1FF02C5E2FF200EAB
:103A0600E66E014B022B1B4B1C2B010E0D5F000EAD
:103A16000E5B0D510E11EFE10FA312D00FA103D0D3
:103A26002D0E086F02D02B0E086F01C5E1FF02C5EF
:103A3600E2FF08C5E6FF014B022B1B4B1C2B0CD0EB
:103A46000FA10AD001C5E1FF02C5E2FF200EE66E16
:103A5600014B022B1B4B1C2BC00E0F15016E105178
:103A6600080B026E0250080A02E1400E01180BE133
:103A760001C5E1FF02C5E2FF300EE66E014B022BE7
:103A86001B4B1C2B27D0C00E0F15016E1051080BB7
:103A9600026E0250080A02E1800E01181BE101C500
:103AA600E1FF02C5E2FF300EE66E014B022B1B4B17
:103AB6001C2B0FAB03D0580E096F02D0780E096F7E
:103AC60001C5E1FF02C5E2FF09C5E6FF014B022B76
:103AD6001B4B1C2B800E006E800E0B19005C02E146
:103AE6000A510C5D0BE201C5E1FF02C5E2FF300E93
:103AF600E66E014B022B1B4B1C2BECD70AC500F0C4
:103B06000BC501F0010E0A5F000E0B5B00500110A1
:103B1600D8B42AD1C00E0F15006E00C01DF50AD10B
:103B26000AC500F00BC501F0000E0BBFFF0E026EBA
:103B3600036E0036009001360236033600360090DA
:103B4600013602360336230E0024F66E6C0E012073
:103B5600F76E000E0220F86E0900F5CF04F009009A
:103B6600F5CF05F00900F5CF06F00900F5CF07F00F
:103B760017C500F018C501F019C502F01AC503F003
:103B8600BEEC05F00A0E046E000E056E066E076E9C
:103B9600BEEC05F008C000F009C001F00AC002F052
:103BA6000BC003F0300E00240C6FD3D00FAB45D002
:103BB6000AC500F00BC501F0000E0BBFFF0E026E2A
:103BC600036E00360090013602360336003600904A
:103BD6000136023603366E0E0024F66E6C0E012098
:103BE600F76E000E0220F86E0900F5CF04F009000A
:103BF600F5CF05F00900F5CF06F00900F5CF07F07F
:103C060017C500F018C501F019C502F01AC503F072
:103C1600BEEC05F00F0E0016000E01160216031676
:103C2600E50E0024F66E6C0E0120F76E000E0220E3
:103C3600F86E0900F5CF0CF544D00AC500F00BC5A7
:103C460001F0000E0BBFFF0E026E036E00360090F1
:103C56000136023603360036009001360236033648
:103C66006E0E0024F66E6C0E0120F76E000E02201A
:103C7600F86E0900F5CF04F00900F5CF05F009004C
:103C8600F5CF06F00900F5CF07F017C500F018C507
:103C960001F019C502F01AC503F0BEEC05F00F0ECF
:103CA6000016000E011602160316C30E0024F66E49
:103CB6006C0E0120F76E000E0220F86E0900F5CF9B
:103CC6000CF547D00AC500F00BC501F0000E0BBF7E
:103CD600FF0E026E036E0036009001360236033682
:103CE60000360090013602360336F30E0024F66ED7
:103CF6006B0E0120F76E000E0220F86E0900F5CF5C
:103D060004F00900F5CF05F00900F5CF06F009002B
:103D1600F5CF07F017C500F018C501F019C502F078
:103D26001AC503F0BEEC05F0070E00140C6F300E3A
:103D36000C270FD01D51000AD8B4F2D61D51C00A67
:103D4600D8B4EED61D51800AD8B430D71D51400ADA
:103D5600B9E001C5E1FF02C5E2FF0CC5E6FF014B74
:103D6600022B1B4B1C2BCAD60FA71AD0800E006E37
:103D7600800E0E19005C02E10D51000811E201C52A
:103D8600E1FF02C5E2FF200EE66E014B022B1B4B44
:103D96001C2B010E0D5F000E0E5B0D510E11EFE197
:0E3DA600C0EF0EF01BC500F01CC501F01200AE
:103DB4000201A491E0C4FBF45CEC0EF0A4811200B7
:103DC400220E0C6E086A096A0A6A0B6A0C06D8B4D9
:103DD4001FD0D8900B320A32093208320332023231
:103DE40001320032D8A0F2D70C06D8B409D004505E
:103DF40008260550092206500A2207500B22EAD74A
:103E0400045008260550092206500A2207500B22A6
:023E140012009A
:103E1600E50E0401F96F040EFA6FE0C401F5E1C482
:103E260002F5E2C403F5E3C404F5E4C405F5F90EAE
:103E36000501066F040E076FBBEC0EF000C0F7F429
:103E460001C0F8F400500401E025E16E0150E121C3
:0E3E5600E26EE66AF7C400F0F8C401F0120054
:103E6400086A096A100E0C6E0134083609360450CB
:103E7400085E0550D8A0053C095ED8B007D00450B0
:103E840008260550D8B0053C0926D89000360136DE
:063E94000C2EEAD712001B
:103E9A0002016B530CE0615303E0010E006E01D086
:103EAA00006A00B002D0899401D089840BD0625391
:103EBA0003E0010E016E01D0016A01B002D08994BB
:103ECA0001D08984765305E18B5303E17D5301E1E7
:103EDA0003D0010E026E01D0026A02B002D08996A6
:063EEA0001D089861200E0
:103EF0000401E36BE0C4E9FFE1C4EAFFEECFE2F4C2
:103F0000E251000A0FE0E2C423F588EC0DF0040151
:103F1000E32BE351E025E96E000EE121EA6EEECFDE
:063F2000E2F4EED71200EE
:043F2600C58412003C
:103F2A009E96E0C4C9FF25C0E1F426C0E2F427C08A
:103F3A00E3F428C0E4F4C7A422D0255026102710A1
:103F4A0028101CE00401E151E211E311E4110FE130
:103F5A009AC2E1FF9BC2E2FF040EE66E98C200F02D
:103F6A0099C201F0AFEC0EF0010E006E3BD0010ECB
:103F7A000401E15F000EE25BE35BE45BDCD725C092
:103F8A00E1F426C0E2F427C0E3F428C0E4F49EB6C4
:103F9A0022D025502610271028101CE00401E151D8
:103FAA00E211E311E4110FE19AC2E1FF9BC2E2FFC1
:103FBA00040EE66E98C200F099C201F0AFEC0EF062
:103FCA00010E006E0FD0010E0401E15F000EE25BEC
:103FDA00E35BE45BDCD7C5BC02D0006A03D0C584CE
:063FEA00020E006E120041
:103FF00025C0E2F426C0E3F427C0E4F428C0E5F4C9
:104000000401E06BE16BE151120802E1E0518E081E
:1040100009E3A2EC0EF0005201E004D00401E04BF1
:10402000E12BF1D70401120EE15D02E18F0EE05D9C
:1040300003E37B0E006E25D0C580C5A021D025509E
:104040002610271028101BE0E251E311E411E511BE
:104050000FE19AC2E1FF9BC2E2FF050EE66E98C235
:1040600000F099C201F0AFEC0EF0010E006E09D025
:10407000010E0401E25F000EE35BE45BE55BDDD76C
:04408000006A1200C0
:10408400BB50010F006E016A000E0122E0C404F06F
:10409400000E056E2EEC0EF0060E026E00C004F04B
:1040A40001C005F0025005E005320432059EFF0F01
:1040B400FAD7040E016E04C000F0015004E000368B
:1040C4000090FF0FFBD7300E0014036E04C000F005
:1040D40005C001F001320032019E01320032019E1E
:0E40E40000C0BEFF0F0EBD160350BD1212002D
:1040F200C26A0001971D006E0050C1160F0EC01259
:10410200C08EE0C400F000360090003600900050EF
:10411200C212C28056EC0EF0C282C2A201D0FDD7FA
:10412200C4CF01F0006A00C0E1F401C0E2F4C35060
:104132000012000E011200C0E1F401C0E2F4C290CC
:10414200000E0014026E0150800B036E000E031865
:1041520002E1000E021803E00401E16BE26BE1C42C
:0841620000F0E2C401F01200BC
:10416A0042DFA00E0401E06FDBDE82C4E0F4D8DE99
:10417A0083C4E0F4D5DED2DE1A0E0C6EF80E0D6E94
:0C418A000D2EFED70C2EFCD700001200FA
:104196000401856B866B876B886B000E80B0010E01
:1041A6000201616F010E0401E06FA0DF0401846B60
:1041B600080E845D0DE2010EE06F98DF00500401E9
:1041C600852701508623000E87238823842BF0D76A
:1041D600030E006E85C401F086C402F087C403F0A6
:1041E60088C404F0005007E0043203320232013280
:1041F600049EFF0FF8D701C082F402C083F4025078
:10420600030802E10150840804E2840E826F030E63
:10421600836F82C400F083C401F0000E026E036E49
:10422600840E046E030E056E000E066E000E076EFB
:10423600C6DD840E046E030E056E000E066E076E56
:0E424600BEEC05F000C07AF201C07BF212005F
:1042540082C4E9FF83C4EAFFEE500401841905E136
:1042640082C400F083C401F010D082C400F083C47F
:1042740001F0824B832B00C0E9FF01C0EAFFEECFBF
:0C42840000F00052E5E1006A016A12003F
:1042900082C402F083C403F002C000F003C001F046
:1042A000024A032A00C0E9FF01C0EAFFEE5201E022
:1042B000F3D704018251025C006E83510358016EF2
:0A42C000010E005E000E015A12000C
:1042CA00020178517B5D02E177517A5D04E3010EC8
:1042DA000401836F02D00401836B83C476F2825394
:0C42EA0003E0FF0E0201796FD3DD12002B
:0E42F6007E0E0401E06F020EE16FF7DD120094
:104304006AC200F0000E016EFF0E046E000E056E10
:104314002EEC0EF0640E046E000E056EA1DD00C0DE
:104324006CF2640E005C03E2640E02016C6F120016
:1043340074C286F475C287F482C4E1FF83C4E2FFC9
:10434400200EE66E010E04018225E16E000E83212B
:10435400E26E200EE66E020E8225E16E000E8321CF
:10436400E26E4D0EE66E030E8225E16E000E832191
:10437400E26E410EE66E040E8225E16E000E83218C
:10438400E26E580EE66E050E8225E16E000E832164
:10439400E26E3A0EE66E060E8225886F000E8321C9
:1043A400896F000E875D02E1640E865D0DE3640E85
:1043B400046E000E056E86C400F087C401F050DD63
:1043C4000050300F846F02D0200E846F88C4E1FF48
:1043D40089C4E2FF84C4E6FF070E8225886F000EBD
:1043E4008321896F000E875D02E10A0E865D16E364
:1043F4000A0E046E000E056E86C400F087C401F038
:104404002FDD0A0E046E000E056E2ADD08C000F0D2
:1044140009C001F00050300F856F02D0200E856F67
:1044240088C4E1FF89C4E2FF85C4E6FF080E822543
:10443400886F000E8321896F0A0E046E000E056ECC
:1044440086C400F087C401F00BDD08C000F009C089
:1044540001F0300E002688C4E1FF89C4E2FF00C0E9
:10446400E6FF090E8225E16E000E8321E26E200E26
:10447400E66E0A0E8225E16E000E8321E26E6B0E5B
:10448400E66E0B0E8225E16E000E8321E26E670E4E
:10449400E66E0C0E8225E16E000E8321E26E200E84
:1044A400E66E0D0E8225E16E000E8321E26E200E73
:1044B400E66E0E0E8225E16E000E8321E26E200E62
:1044C400E66E0F0E8225E16E000E8321E26E200E51
:1044D400E66E100E8225E16E000E8321E26EE66A1E
:0244E4001200C4
:1044E60010D0800E0401826F1AD0C00E826F17D0D2
:1044F600940E826F14D0D40E826F11D0800E826F0C
:104506000ED004018251010AECE08251020AEDE06C
:104516008251030AEDE08251040AEDE0EFD78305EC
:10452600006E8251002600C082F400C0FBF45CECF1
:104536000EF0A4910401866B86518425E96E000E67
:104546008521EA6EEE520CE086518425E96E000E56
:104556008521EA6EEECFE0F42ADC0401862BECD747
:064566000201A481120015
:10456C0082C4E0F489DD02016C5100081FE26C5139
:10457C000401825D03E36AC27CF217D06AC200F0C8
:10458C00000E016E026E036E82C404F0000E056E06
:10459C00066E076E11DC6CC204F0000E056E066E22
:1045AC00076EBEEC05F000C07CF202D002017C6B01
:0245BC001200EB
:1045BE0086C400F004018607005228E082C4E9FF99
:1045CE0083C4EAFFEE50000A0CE082C4E9FF83C404
:1045DE00EAFF84C4D9FF85C4DAFFEE50DE1801E18C
:1045EE000FD082C4E9FF83C4EAFF84C4D9FF85C417
:1045FE00DAFFDE50EE5C006E016A000E015A08D042
:10460E000401824B832B844B852BD2D7006A016A1F
:02461E00120088
:1046200002016B5303E061C201F002D062C201F0EB
:10463000015203E04F0E026E02D0460E026E02C01F
:0446400000F0120074
:1046440002015F51000805E25F05006E00C05FF2E1
:1046540060D06851550A04E1010E0401DF6F0AD0ED
:1046640002016851440A04E1020E0401DF6F02D022
:104674000401DF6B02016B530BE0615304E0010E94
:104684000401826F02D00401826B82C483F40BD0D4
:104694000201625304E0010E0401846F02D004019C
:1046A400846B84C483F4850EE06F040EE16F470EBF
:1046B400E26F6B0EE36F000EE46F65C2E5F4000E6B
:1046C400E66FDFC4E7F4000EE86F7AC2E9F47BC258
:1046D400EAF483C4EBF4000EEC6F7DC2EDF4000E3B
:1046E400EE6F8BC2EFF4000EF06F8CC2F1F48DC24A
:1046F400F2F47CC2F3F4000EF46F8EC2F5F48FC2B0
:10470400F6F40BEC1FF0850EE06F040EE16F78EC0D
:044714001FF0120080
:10471800000E0401471902E1000E461934E046C4B0
:10472800E9FF47C4EAFFEE522EE048C482F449C4C8
:1047380083F4AADD00C086F446C482F447C483F437
:1047480048C484F449C485F436DF000E011802E138
:10475800000E001805E146C400F047C401F015D06A
:10476800010E04014625826F000E4721836F48C45D
:10477800E9FF49C4EAFFEECF84F468DD00C046F4DF
:0C47880001C047F4C5D7006A016A1200A6
:1047940025C046F426C047F427C048F428C049F48D
:1047A400C582C5A220D025502610271028101AE053
:1047B400040146514711481149110DE19AC2E1FF24
:1047C4009BC2E2FF060EE66E98C200F099C201F0A9
:1047D400AFEC0EF008D0010E0401465F000E475BFB
:0847E400485B495BDED71200BF
:1047EC000101185315E0010E0401826F010E836F55
:1047FC00660E846F010E856F70DE020E0401826FEF
:10480C00010E836F980E846F000E856F66DEA4D048
:10481C0002018B531EE17D531CE176531AE04E0EC0
:10482C000401826F040E836F7FDD010E826F010E17
:10483C00836FA90E846F000E856F4FDE020E04018C
:10484C00826F010E836F4E0E846F040E856F45DEF2
:10485C0083D06B530BE0410E0401496F750E4A6F08
:10486C00740E4B6F6F0E4C6F4D6B0AD004014D0ED6
:10487C00496F610E4A6F6E0E4B6F750E4C6F4D6B20
:10488C000001D4532EE002016851550A07E1550E80
:10489C000401466F500E476F486B06D00401440E5E
:1048AC00466F4E0E476F486B510EE06F030EE16F73
:1048BC00D40EE26F6C0EE36F000EE46F65C2E5F48C
:1048CC00000EE66F66C2E7F4000EE86F460EE96F65
:1048DC00040EEA6F490EEB6F040EEC6F0BEC1FF03D
:1048EC0015D00401510EE06F030EE16FF60EE26F6E
:1048FC006C0EE36F000EE46F65C2E5F4000EE66F1C
:10490C00490EE76F040EE86F0BEC1FF0010E826F7F
:10491C00010E836F510E846F030E856FDEDD7ADE20
:10492C0000C0E7F4A70E0401E06F030EE16F8E0EDA
:10493C00E26F6C0EE36F000EE46F7AC2E5F47BC29B
:10494C00E6F40BEC1FF0020E826F010E836FA70EC4
:0A495C00846F030E856FC1DD1200A9
:1049660046C482F448C400F0016A00C083F4B5EC82
:1049760020F004014651010F826FFF0E4715836F29
:06498600B5EC20F0120068
:10498C00020189518A1902E1006A41D0F29E0401A8
:10499C00486B800E006E800E000A005C02E1270E50
:1049AC00485D24E248514625496F000E47214A6F65
:1049BC00280E006E000E016E89C204F0000E056E0A
:1049CC002EEC0EF0B10E0026020E012248510024EE
:1049DC00E96E000E0120EA6EEECF00F049C4E1FF53
:1049EC004AC4E2FF00C0E6FF482BD3D7270E46256A
:1049FC00E16E000E4721E26EE66A02018951010F59
:104A0C00006E030E0014896FF28E010E006E120000
:104A1C0025C048F426C049F427C04AF428C04BF4FA
:104A2C009E96C5869EB620D025502610271028109D
:104A3C001AE00401485149114A114B110DE19AC277
:104A4C00E1FF9BC2E2FF030EE66E98C200F099C232
:104A5C0001F0AFEC0EF008D0010E0401485F000E1F
:104A6C00495B4A5B4B5BDED70401C9CF47F4465127
:104A7C00000A02E1C58A01D0C59A9E96C58825C058
:104A8C0048F426C049F427C04AF428C04BF49EB61B
:104A9C0020D025502610271028101AE00401485168
:104AAC0049114A114B110DE19AC2E1FF9BC2E2FF81
:104ABC00030EE66E98C200F099C201F0AFEC0EF056
:104ACC0008D0010E0401485F000E495B4A5B4B5B4A
:084ADC00DED747C400F0120010
:104AE40002016851550A07E1550E0401466F500E44
:104AF400476F486B06D00401440E466F4E0E476F55
:104B0400486B02016B530BE0410E0401496F750EB3
:104B14004A6F740E4B6F6F0E4C6F4D6B0AD00401CD
:104B24004D0E496F610E4A6F6E0E4B6F750E4C6FD2
:104B34004D6B510EE06F030EE16FB20EE26F6C0E1F
:104B4400E36F000EE46F65C2E5F4000EE66F66C223
:104B5400E7F4000EE86F460EE96F040EEA6F490EA3
:104B6400EB6F040EEC6F0BEC1FF0010E826F010E65
:104B7400836F510E846F030E856FB3DC4FDD00C06D
:104B8400E7F4A70E0401E06F030EE16FA00EE26FDD
:104B94006C0EE36F000EE46F7AC2E5F47BC2E6F4B8
:104BA4000BEC1FF0020E826F010E836FA70E846F51
:084BB400030E856F96DC120070
:104BBC000401466B4651060858E381AC1ED0020135
:104BCC008B531BE1340E0C6EF10E0D6E0D2EFED7B9
:104BDC000C2EFCD70000000081AC0FD08B908B9278
:104BEC000401E06B42EC20F002015E6B7C6B010E69
:104BFC008B6F8986010E0001D36F0001D35303E143
:104C0C00D25301E10AD08B908B920401E06B42EC01
:104C1C0020F002015E6B7C6B28D00201500E6C5DA3
:104C2C00006E016A000E015A46C404F0000E056EB7
:104C3C002EEC0EF0060E046E000E056E32EC1FF01C
:104C4C00500E0026000E012200C082F489DCF4DC38
:104C5C00340E0C6EF10E0D6E0D2EFED70C2EFCD7F5
:0C4C6C00000000000401462BA5D7120038
:104C780004014651640802E2640E466F0A0E465D5E
:104C880002E20A0E466F46C46AF246C460F282EC3B
:104C980021F0030E0401826F60C283F4B5EC20F0AA
:104CA80002015E5303E06CC282F45CDC010E020177
:0A4CB8005F6F7BEC21F0C2DC1200FC
:104CC200010E02015F6F460E0401E06F040EE16FF8
:104CD2004B0EE26F6C0EE36F000EE46F63C2E5F4FD
:104CE20064C2E6F467C2E7F4000EE86F60C2E9F45A
:104CF200000EEA6F0BEC1FF0460EE06F040EE16F40
:064D020078EC1FF0120026
:104D0800000E0401475D02E1010E465D04E2010E5A
:104D1800466F000E476F4751030802E14651E70806
:104D280004E2E70E466F030E476F46C474F247C4A9
:104D380075F246C477F247C478F2CBEC20F0010E46
:0E4D4800826F65EC21F07BEC21F078DC12002C
:0A4D56009494BA840C0EBD121200F2
:104D60000201636B646B676B640E606F640E6A6F45
:104D700082EC21F00401826B836BB5EC20F0010E14
:104D80000401826F836BB5EC20F0020E0401826F88
:104D9000836BB5EC20F0030E0401826F640E836F09
:104DA000B5EC20F0040E0401826F836BB5EC20F0AB
:0E4DB000050E0401826F836BB5EC20F012003B
:104DBE00F40E0401E06F000EE16F78EC1FF01200AC
:104DCE0002018C4B8D2B634B642B65C267F2040181
:104DDE00466B63C247F464C248F4BEDD020E0401A2
:0C4DEE00826F67C283F4B5EC20F0120065
:0E4DFA00010E0401FB6F5CEC0EF0F3DC120006
:104E08000401446B456B0A51455D02E10951445D5B
:104E1800D8B00FD281AC1ED002018B531BE1340EE7
:104E28000C6EF10E0D6E0D2EFED70C2EFCD7000069
:104E3800000081AC0FD08B908B920401E06B42ECA8
:104E480020F002015E6B7C6B010E8B6F8986010E70
:104E58000001D36F0001D35303E1D25301E101D024
:104E6800E8D10C0E0401466F040E476F8BDD00522B
:104E7800D8B473D10C0E0401466F040E476FD50EDB
:104E8800486F000E496F44DC0050011015E08B900C
:104E98008B920401E06B42EC20F002015E6B7C6BAC
:104EA800010E8B6F530E686F0001D46B8986010E5B
:104EB800D36F7BEC21F051D104010C0E466F040E28
:104EC800476FC30E486F000E496F22DC0050011077
:104ED8000EE10C0E0401466F040E476FBA0E486FC0
:104EE800000E496F15DC0050011001E10FD08B90C6
:104EF8008B920401E06B42EC20F002015E6B7C6B4C
:104F0800010E0001D26F7BEC21F027D104010C0EB9
:104F1800466F040E476FCC0E486F000E496F8CEC3D
:104F280023F0005001100AE0010E02017D6F010E0E
:104F38000001CB6F89867BEC21F00FD104010C0EA8
:104F4800466F040E476FDE0E486F000E496F8CECFB
:104F580023F000C03EF401C03FF4000E011802E146
:104F6800000E00183FE0050E04013E25E96E000E14
:104F78003F21EA6E300EEE5C016E01C043F4040E70
:104F8800015C2EE202017D532BE1765329E1685141
:104F9800550A11E1040143510201655D0CE2070E57
:104FA800E16E010EE26E04014351E126D8B0E22A17
:104FB800010EE66E12D002016851440A0EE16551F5
:104FC8000401435D0AE2070EE16E010EE26E4351F1
:104FD800E126D8B0E22A010EE66E7BEC21F001D082
:104FE800EADEBBD004010C0E466F040E476F010EBB
:104FF800486F010E496F8CEC23F000C03EF401C0ED
:105008003FF4000E011802E1000E001838E0040118
:10501800406B416B050E3E27000E3F233EC4E9FF5F
:105028003FC4EAFF300EEE5C24E33EC4E9FF3FC410
:10503800EAFFEE5039081DE340C400F041C401F016
:105048000A0E046E000E056E2EEC0EF03EC4E9FF4B
:105058003FC4EAFF300EEE5C026E036A000E035A8C
:1050680002500024406F03500120416F3E4B3F2BFC
:10507800D5D740C446F441C447F442DE6ED00C0E86
:105088000401466F040E476F130E486F010E496FF7
:105098008CEC23F000C03EF401C03FF4000E011870
:1050A80002E1000E001828E00401426B040E3E27BE
:1050B800000E3F233EC4E9FF3FC4EAFF300EEE5C1A
:1050C80017E33EC4E9FF3FC4EAFFEE50390810E396
:1050D8000A0E4203F3CF42F43EC4E9FF3FC4EAFF9D
:1050E800300EEE5C006E005042273E4B3F2BE2D75D
:1050F80042C446F4BDDD31D00C0E0401466F040EE7
:10510800476F0B0E486F010E496F8CEC23F000506F
:10511800011002E0D2DD21D004010C0E466F040E0E
:10512800476FEC0E486F000E496F8CEC23F000506F
:1051380001100FE10C0E0401466F040E476FE40ED8
:10514800486F000E496F8CEC23F00050011001E10C
:1051580004D002DE7BEC21F0B0DD0001D35303E183
:10516800D25301E101D065D004010B6B040E0B5D35
:105178003EE20BC402F0010E006E000E016E0250FA
:1051880005E0003600900136FF0FFAD7835000166D
:10519800000E01160050011027E002016851550A5F
:1051A80011E104010B510201655D0CE2070EE16E8D
:1051B800010EE26E04010B51E126D8B0E22A010E7D
:1051C800E66E12D002016851440A0EE165510401ED
:1051D8000B5D0AE2070EE16E010EE26E0B51E1264D
:1051E800D8B0E22A010EE66E04010B2BBFD70101ED
:1051F80000530FE0006BCBEC20F0826B65EC21F0E4
:1052080022EC23F002015E5302E068DC02D0F6ECE7
:1052180023F0340E0C6EF10E0D6E0D2EFED70C2EF3
:10522800FCD700000000140E04014427000E45239B
:04523800EAD51200A1
:10523C00F8EC1FF0A00E0401E06F95EC1FF009C410
:10524C00E0F495EC1FF0CAEC23F0A10E0401E06F22
:10525C0095EC1FF00401466B0EEC25F000C00AF42F
:0A526C0093EC1FF00AC400F01200DA
:1052760004010951550A06E18B808B92010E020149
:105286005E6F05D002018B908B82010E5E6F500E11
:0E5296000401826FB6EC22F05BDD8DDC1200AD
:1052A400060E0401096F095100085CE281AC1ED0AE
:1052B40002018B531BE1340E0C6EF10E0D6E0D2E9C
:1052C400FED70C2EFCD70000000081AC0FD08B90D1
:1052D4008B920401E06B42EC20F002015E6B7C6B6C
:1052E400010E8B6F8986010E0001D36F0001D35329
:1052F40003E1D25301E10AD08B908B920401E06B5D
:1053040042EC20F002015E6B7C6B34D00201500E43
:105314006C5D046E056A000E055A04010905006EF1
:10532400016A000E015A2EEC0EF0060E046E000EF9
:10533400056E32EC1FF0500E0026000E012200C054
:1053440082F4B6EC22F022EC23F0340E0C6EF10E53
:105354000D6E0D2EFED70C2EFCD7000000000401AC
:105364000907A1D78B908B92E06B42EC20F00201ED
:065374005E6B7C6B120071
:10537A00FFC309F45EDF00C001F4000E0401026FEE
:10538A000301FF51010F0401096F53DF00C003F04D
:10539A00000E046E01C401F0006A035000120450AA
:0453AA0001121200DA
:1053AE000301FF510201651904E00001D35301E12D
:1053BE0001D065D10001D26B0301FF510201655D81
:1053CE0004E2550E0401006F03D00401440E006F79
:1053DE0000C403F400C468F2FFC366F2010E0001BC
:1053EE00D46FCBEC20F0010E826F65EC21F0FEDC69
:1053FE0022EC23F05CC207F45DC208F4320E040105
:10540E00096F000E0A6FF9DC0001D35303E1D2538A
:10541E0001E101D0E9D00301FF510201655D08E20F
:10542E0065510301FF5D0401016F000E026F08D08C
:10543E000301FF510201655D0401016F000E026F51
:10544E0001C404F403C409F40FDF72EC25F0040167
:10545E00056B0451055DD8B0C7D00001D35303E1ED
:10546E00D25301E101D0C0D004010405006E016ADF
:10547E00000E015A000E011802E100500519010E2E
:10548E00D8A4000E066F6CC282F4B6EC22F00401B2
:10549E000653D8A476D0010E02015B6FF40E040100
:1054AE00096F010E0A6FA9DC0001D35303E1D25339
:1054BE0001E101D099D002015B6B04010351550A41
:1054CE0003E10201652B02D002016507CBEC20F04F
:1054DE00826B65EC21F072EC25F022EC23F0070EC6
:1054EE00E96E010EEA6E02016551E926D8B0EA2A8C
:1054FE00EE5246E0070EE16E010EE26E6551E126B8
:10550E00D8B0E22AE66AC7DE0001D35303E1D253D4
:10551E0001E101D069D0D46B530E0201686F65C2F0
:10552E0066F2CBEC20F0010E826F65EC21F05EDCB2
:10553E0022EC23F0F40E0401096F010E0A6F5DDCFC
:10554E000001D35303E1D25301E101D04DD003C486
:10555E0068F2FFC366F2010ED46F48DC320E04010E
:10556E00096F000E0A6F49DC0001D35303E1D253D9
:10557E0001E101D039D003C409F476DE72EC25F0D6
:10558E0030D00201010E5B6F04010451010A06E1E5
:10559E007C0E096F010E0A6F30DC06D0F40E04018A
:1055AE00096F010E0A6F29DC0001D35303E1D253B8
:1055BE0001E101D019D002015B6B6DDE0001D35306
:1055CE0003E1D25301E104D0010E0101186F0CD09A
:1055DE0004010351550A03E10201652B02D00201B9
:1055EE0065070401052B35D704018B908B92E06B78
:1055FE0042EC20F002015E6B7C6B0001D35303E1A1
:10560E00D25301E108D002015B5305E0010E010106
:10561E00186F02015B6B0401075102015C5D8E6F16
:10562E000401085102015D598F6F0001D46B530EB6
:10563E000201686F65C266F2FF0E796F0001D353E7
:10564E0004E1D25302E10101186BCBEC20F0010E04
:10565E00826F65EC21F0FDEC26F022EC23F00001C8
:10566E00D3530BE1D25309E1E7EC26F0640E0401AB
:10567E00096F000E0A6F04EC27F00001D26B1200C6
:10568E000900F5CFE6FF0006FBE10106F9E1120085
:10569E00FF0E0201AD6FFF0EAE6FFF0EAF6FFF0E6E
:1056AE00B06FC26A0001971D006E0050C1160F0E3A
:0856BE00C012C08EC280120070
:0856C600BE6ABD98BD9A1200F6
:1056CE00440E02019C6F1D0E9D6F000E9E6F000E0C
:1056DE009F6FF00E906F3F0E916F000E926F000E47
:1056EE00936F940E946F470E956F000E966F000E8B
:1056FE00976F1C0EA56F4A0EA66F460EA76F040E6F
:10570E00A86F2A0EA96F3F0EAA6FE00EAB6F040EA4
:10571E00AC6F260EA06F3F0EA16F000EA26F000E93
:10572E00A36F949894968B988B9694889486C79E24
:08573E00C79C380EC66E120074
:105746000301FF6B17DE00C0F3F301C0F4F3020E92
:105756000401096F70DD00C067F2030E0401096FD2
:105766006ADD00C0F5F30301F451FF0A02E1FF0E02
:10577600F3190AE10201636B646B0401466B476B24
:10578600486BB3EC24F004D0F3C363F2F4C364F2C1
:1057960002016751FF0A07E1676B020E0401826F7F
:1057A600836BB5EC20F00301F551FF0A04E0F551D7
:1057B600000A01E00DD0640E0201606F640E6A6F8C
:1057C600030E0401826F640E836FB5EC20F004D0E3
:1057D600F5C360F2F5C36AF2760E0201746F020E2B
:1057E600756F760E776F020E786F766B796B82EC3B
:0457F60021F012008C
:1057FA00100E0301A36F1B0EA46F230EA56F050ED7
:10580A00A66FFF0E696FFF0E6A6F000E6B6F000EB8
:10581A006C6FFF0E656FFF0E666F000E676F000EEE
:10582A00686FFF0E6D6FFF0E6E6F000E6F6F000ECA
:10583A00706FAC8A900EAB6E948E949C9EAA03D025
:08584A00AECF00F0FBD7120005
:10585200016A040E015C0BE2070EE16E010EE26EBC
:105862000150E126D8B0E22AE66A012AF2D71200F4
:1058720083A003D0010E0101076F83A203D00101AF
:10588200010E086F83A403D00101010E096F83A6E4
:0A58920003D00101010E0A6F12009D
:10589C00F3C346F4F4C347F4210E0401486F020E1F
:1058AC00496F8CEC23F000C0F9F301C0FAF30050FF
:1058BC00011027E0050E0301F925E96E000EFA210F
:1058CC00EA6E300EEE5C016E01C0FBF3040E015C5F
:1058DC0015E202016B5312E07D5310E176530EE199
:1058EC00070EE16E010EE26E0301FB51E126D8B00A
:1058FC00E22A010EE66E7BEC21F002D0DFEC26F002
:10590C0066D30401F3C346F4F4C347F4180E486F8E
:10591C00020E496F8CEC23F00050011017E08B90B5
:10592C008B920401E06B42EC20F002015E6B7C6B0D
:10593C00010E8B6F530E686F0001D46B8986010EBC
:10594C00D36F7BEC21F022EC23F041D3F3C346F46C
:10595C00F4C347F4310E0401486F020E496F8CEC0E
:10596C0023F0005001102CE081AC03D0DFEC26F0CA
:10597C0026D002018B531BE08B6B7D6B0001D36B2C
:10598C000101186B530E0201686F0001D46BFF0EFE
:10599C000201796FCBEC20F0010E826F65EC21F0E7
:1059AC00FDEC26F07BEC21F022EC23F008D0020178
:1059BC00765303E0DFEC26F002D07BEC21F007D32A
:1059CC000401F3C346F4F4C347F4270E486F020EE8
:1059DC00496F8CEC23F00050011017E0010E02010E
:1059EC006B6F530E686F0001D46BFF0E0201796F61
:1059FC00CBEC20F0010E826F65EC21F0FDEC26F073
:105A0C007BEC21F022EC23F0E2D2F3C346F4F4C396
:105A1C0047F4370E0401486F010E496F8CEC23F0EC
:105A2C00005001101EE002016B6B530E686F0001F9
