:04000000C9EF1EF036
:1000080000C016F001C015F0F2AA13D0F2A411D066
:10001800F294C20ED76EF70ED66E010E2F6E010E39
:100028002D24006E000E2E20016E00C02DF001C0A0
:100038002EF09DA00CD09EA00AD09E90FE0ECF6EF2
:100048000C0ECE6E285202E08B7A01D08B9A16C025
:0800580000F015C001F01100D9
:100060000B820BAE3AEF00F003680268016800688B
:080070000A360232FF0E1200F5
:0E007800026A016A006A086A036A000E12003A
:100086000B840BAE4EEF00F0010E036E026A016A9E
:0A009600006A0A360232FF0E120063
:0800A0000AAE029E000E1200E0
:1000A8000CB096EF00F00CA23CEF01F00E6A000EC7
:1000B8000264ADEF00F0F00E0214D8A478EF00F05F
:1000C800023A01380F0B02260138F00B016E003896
:1000D8000F0B01260038F00B006E08380F0B0026B6
:1000E8000838F00B086E0E84D89002BE91EF00F02D
:1000F80008360036013602360E2A02BE91EF00F0AD
:1001080008360036013602360E2A02BE91EF00F09C
:1001180008360036013602360E2A0E50036432EFD6
:1001280001F0035E0BBC08AE37EF01F0D880800EFB
:1001380008640030000E002201220222D8A037EF06
:1001480001F0023201320032034A3CEF01F037EF8E
:1001580001F001C002F000C001F008C000F0086A18
:10016800000E0E860264E4EF00F0F00E0214D8A42C
:10017800CCEF00F0023A01380F0B02260138F00BE1
:10018800016E00380F0B01260038F00B006E0E844C
:10019800D89002BE91EF00F00036013602360E2AE2
:1001A80002BE91EF00F00036013602360E2A02BE7A
:1001B80091EF00F00036013602360E2A91EF00F07A
:1001C80001C002F000C001F0006A000E0E960E8811
:1001D800026411EF01F0F00E0214D8A4FCEF00F055
:1001E800023A01380F0B02260138F00B016E0E841B
:1001F800D89002BE91EF00F0013602360E2A02BEF8
:1002080091EF00F0013602360E2A02BE91EF00F09F
:10021800013602360E2A91EF00F001C002F0016AA1
:10022800000E0E86026441EF01F0F00E0214D8A40D
:1002380020EF01F0023A0E84D89002BE91EF00F050
:1002480002360E2A02BE91EF00F002360E2A02BED6
:1002580091EF00F002360E2A91EF00F0010E0C6EBD
:100268000EDF44EF01F0020E0C6E16DF44EF01F0D2
:10027800040E0C6EF1DE44EF01F0080E0C6EF8DE91
:02028800120062
:10028A000134083609360450085E0550D8A0053CEA
:10029A00095E003601360F0E0C6E01340836093637
:1002AA00045000A006D0085E0550D8A0053C095E9F
:1002BA0005D008260550D8B0053C09260036013677
:1002CA000C2EEBD700B006D0045008260550D8B043
:0802DA00053C0926000012009A
:1002E200025006180E6E086A096A0B6A0350076408
:1002F20064EF02F006500A6E068E028E03500B6EF9
:100302000750036E000E0B64B4EF01F00B50075E52
:10031200D8B455EF02F0070E076423EF02F0075E30
:1003220000C008F001C000F002C001F0026A074EEE
:1003320055EF02F00764F8EF01F0075E00C008F025
:1003420001C000F0016A074E55EF02F00764D6EFD4
:1003520001F0075E00C008F0006A074E55EF02F098
:100362000764BDEF01F00AC002F005C001F004C04D
:1003720000F0086A7EEF03F0030E0764C8EF01F095
:10038200075E08380F0B086E074E55EF02F0D89043
:100392000832074E55EF02F0D8900832074E55EF5B
:1003A20002F0D890083255EF02F0030E0764E7EF2F
:1003B20001F0075E08380F0B086E0038F00B0826B4
:1003C20000380F0B006E074E55EF02F0D890003246
:1003D2000832074E55EF02F0D89000320832074E2D
:1003E20055EF02F0D8900032083255EF02F0030EBA
:1003F20007640FEF02F0075E08380F0B086E003833
:10040200F00B082600380F0B006E0138F00B0026A7
:1004120001380F0B016E074E55EF02F0D8900132F2
:1004220000320832074E55EF02F0D8900132003206
:100432000832074E55EF02F0D890013200320832EE
:1004420055EF02F0030E076440EF02F0075E083832
:100452000F0B086E0038F00B082600380F0B006EE9
:100462000138F00B002601380F0B016E0238F00B39
:10047200012602380F0B026E074E55EF02F0D8909C
:100482000232013200320832074E55EF02F0D890A4
:100492000232013200320832074E55EF02F0D89094
:1004A2000232013200320832096A000E0EAE49EF02
:1004B20003F0081E001E011E021E082A002201224D
:1004C200022249EF03F00750D8A46AEF02F07EEF50
:1004D20003F0096A02C00AF0028E068E0750035C1E
:1004E200076ED8B43CEF03F0070E07640AEF03F07F
:1004F200075E0450096E0550046E0650056E066ACA
:10050200074E3CEF03F0070E0764DFEF02F0075ED1
:100512000450096E0550046E056A074E3CEF03F065
:10052200070E0764BDEF02F0075E0450096E046A0D
:10053200074E3CEF03F0070E0764A4EF02F00AC077
:1005420002F07EEF03F0030E0764AFEF02F0075EE6
:1005520009380F0B096E074E3CEF03F0D8900932B1
:10056200074E3CEF03F0D8900932074E3CEF03F000
:10057200D89009323CEF03F0030E0764CEEF02F08D
:10058200075E09380F0B096E0438F00B0926043890
:100592000F0B046E074E3CEF03F0D8900432093281
:1005A200074E3CEF03F0D89004320932074E3CEF7D
:1005B20003F0D890043209323CEF03F0030E0764D3
:1005C200F6EF02F0075E09380F0B096E0438F00BE4
:1005D200092604380F0B046E0538F00B0426053883
:1005E2000F0B056E074E3CEF03F0D8900532043234
:1005F2000932074E3CEF03F0D8900532043209323B
:10060200074E3CEF03F0D8900532043209323CEF3A
:1006120003F0030E076427EF03F0075E09380F0BA0
:10062200096E0438F00B092604380F0B046E0538E6
:10063200F00B042605380F0B056E0638F00B052665
:1006420006380F0B066E074E3CEF03F0D8900632C9
:10065200053204320932074E3CEF03F0D8900632DD
:10066200053204320932074E3CEF03F0D8900632CD
:10067200053204320932086A000E0EAE49EF03F069
:10068200091E041E051E061E092A04220522062230
:100692000950082604500022055001220650022269
:1006A2000EBE60EF03F0D8A06FEF03F0023201320A
:1006B20000320832033E6FEF03F079EF03F0D8B057
:1006C20074EF03F0000E081E001E011E021E082A0F
:1006D2000022012202220A7E74EF03F0010E0C6E48
:1006E200E2DC80EF03F0020E0C6EDDDC80EF03F043
:1006F200040E0C6EB4DC80EF03F0000E0C6E1200E0
:100702000B800BAE8DEF03F0026A0AAEFF0E026E93
:0C071200016E006E0A360232FF0E12006B
:10071E00086A096A000E0762036414EF04F00250BF
:10072E0006180A6E075003267E0ED8A0A5EF03F01A
:10073E00035ED8B018EF04F0A9EF03F0035ED8A063
:10074E001CEF04F0028E068E02C00EF001C00BF0FC
:10075E0000C00DF000500402F4CF0CF00150050261
:10076E00F4CF00F0F3CF08F00402F3500C26F4504F
:10077E000822000E00220D500502F3500C26F450F4
:10078E000822000E002202500402F3500826F450F4
:10079E00002202500502016A000E0122F3500026CB
:1007AE00F45001220D500602F3500826F450002298
:1007BE00026A000E012202220B500602F35000269E
:1007CE00F4500122000E02220E500602F3500126B2
:1007DE00F450022202BEFCEF03F00836003601365A
:1007EE0002360306D8B41CEF04F00FEF04F0D880E5
:1007FE00800E08640030000E002201220222D8A0D2
:10080E000FEF04F0023201320032034A18EF04F007
:10081E000AAE029E000E1EEF04F0010E26DC1EEF45
:10082E0004F0020E16DC1EEF04F0040E25DC12009E
:08083E000B6A0B86FF0E12008D
:100846000D6A086A0050D8B4000C04180A6E0ABE75
:100856000D1E0B6A04AE02D0041E042A00AE02D09E
:10086600001E002A005004100A6E0ABE1FD0045053
:10087600085E003600340836045008260036060E98
:100886000C6E00340836045000B0085E00A008263E
:1008960000360C2EF6D700A008260BB015D00DAEEC
:1008A600000C001E002A081E082A000C04AE09D0FF
:1008B60000BE04D00050086E006AF1D7006A002A14
:1008C600000C001E0B2AD3D7082A0450085CD8A4B3
:0E08D600E6D7086A002A00AEE2D7FF0C120037
:1008E400086A080E0C6E003408360450085ED8B04E
:0E08F40002D00826D89000360C2EF5D7120040
:100902000050086E0150006E0250016E0350026EDC
:10091200036A0B6A0C6A9E0E036E0A6A020E0C6E62
:0609220054EC00F012008D
:100928000B6A0C6A0A6A086A0350D8B41CEF05F00F
:10093800028E9E0E035E03BEA7EF04F0D8B4A7EFA5
:1009480004F00CEF05F0036C080E035CD8A0D9EF97
:1009580004F0036E083600C008F001C000F002C0C1
:1009680001F0026A080E035CD8A0D9EF04F0036E08
:10097800083600C008F001C000F0016A080E035CE8
:10098800D8A0D9EF04F0036E083600C008F0006A5A
:10099800080E035CD8A0D9EF04F0036E0836086A85
:1009A8000350D8A4D890E5EF04F00350D8B4E5EF8D
:1009B80004F0D8900232013200320832032EDDEF03
:1009C80004F00BBC08A0F6EF04F0D8A0F6EF04F092
:1009D800082AD8B4002AD8B4012AD8B4022A02BEF8
:1009E80020EF05F00AAE1CEF05F0021E011E001EE6
:1009F800081E082AD8B4002AD8B4012AD8B4022A72
:100A08001CEF05F0026A016A006A086A1CEF05F02B
:100A18000B800BAE25EF05F0026A0AAE25EF05F054
:100A2800026E016E006E086E0A36023225EF05F07E
:100A3800000E0C6A26EF05F0010E0C6E5EDE26EF46
:100A480005F0FF0E0250036E0150026E0050016E59
:060A58000850006E1200C0
:100A5E006E0E0101205DD8A0C3D0640E046E20C1BD
:100A6E0000F039DF120E0024056E066A000E062213
:100A7E0005C000F006C001F0000E06BEFF0E026EAD
:100A8E00036E0036009001360236033600360090B3
:100A9E00013602360336100E0024F66E400E01208B
:100AAE00F76E000E0220F86E0900F5CF00F0090077
:100ABE00F5CF01F00900F5CF02F00900F5CF03F0F4
:100ACE00000E046E000E056E000E066E7E0E076E94
:100ADE001FDE00C021F101C022F102C023F103C0CC
:100AEE0024F1640E046E20C100F0F5DE08C000F0A3
:100AFE000A0E046EF0DE090E0024056E066A000E64
:100B0E00062205C000F006C001F0000E06BEFF0E64
:100B1E00026E036E00360090013602360336003642
:100B2E000090013602360336100E0024F66E400E8B
:100B3E000120F76E000E0220F86E0900F5CF00F0CE
:100B4E000900F5CF01F00900F5CF02F00900F5CF4D
:100B5E0003F021C104F022C105F023C106F024C127
:100B6E0007F0D6DD00C021F101C022F102C023F151
:100B7E0003C024F10A0E046E20C100F0ACDE08C0E2
:100B8E0000F000C001F0000E026E036E046E01361E
:100B9E0001900236033604360136019002360336D2
:100BAE000436100E0124F66E400E0220F76E000E73
:100BBE000320F86E0900F5CF00F00900F5CF01F023
:100BCE000900F5CF02F00900F5CF03F021C104F0C2
:100BDE0022C105F023C106F024C107F099DDACD087
:100BEE0020510A08D8B07AD00A0E046E20C100F047
:100BFE0072DE090E0024056E066A000E062205C07E
:100C0E0000F006C001F0000E06BEFF0E026E036E6F
:100C1E00003600900136023603360036009001365B
:100C2E0002360336100E0024F66E400E0120F76ECB
:100C3E00000E0220F86E0900F5CF00F00900F5CF86
:100C4E0001F00900F5CF02F00900F5CF03F0000E18
:100C5E00046E000E056E000E066E7E0E076E58DDDB
:100C6E0000C021F101C022F102C023F103C024F122
:100C7E000A0E046E20C100F02EDE08C000F000C087
:100C8E0001F0000E026E036E046E01360190023604
:100C9E000336043601360190023603360436100E42
:100CAE000124F66E400E0220F76E000E0320F86E41
:100CBE000900F5CF00F00900F5CF01F00900F5CFDE
:100CCE0002F00900F5CF03F021C104F022C105F0B6
:100CDE0023C106F024C107F01BDD2ED020C100F089
:100CEE00000E016E026E036E003600900136023663
:100CFE00033600360090013602360336100E0024FD
:100D0E00F66E400E0120F76E000E0220F86E0900FE
:100D1E00F5CF00F00900F5CF01F00900F5CF02F094
:100D2E000900F5CF03F0000E046E000E056E000EE6
:0A0D3E00066E7E0E076EECDC12005C
:080D4800067E71EC01F01200BF
:100D50000B6A0C6A086A0350D8B42CEF07F002C083
:100D60000AF0028E9E0E035E03AE1CEF07F0036CCA
:100D7000080E035CD8A0E9EF06F0036E083600C049
:100D800008F001C000F002C001F0026A080E035C26
:100D9000D8A0E9EF06F0036E083600C008F001C0E5
:100DA00000F0016A080E035CD8A0E9EF06F0036EBC
:100DB000083600C008F0006A080E035CD8A0E9EF0E
:100DC00006F0036E0836086A0350D8A4D890F5EFF1
:100DD00006F00350D8B4F5EF06F0D8900232013295
:100DE00000320832032EEDEF06F00BBC08A006EF30
:100DF00007F0D8A006EF07F0082AD8B4002AD8B424
:100E0000012AD8B4022A02BE30EF07F00AAE2CEF56
:100E100007F0021E011E001E081E082AD8B4002A70
:100E2000D8B4012AD8B4022A2CEF07F0026A016A6A
:100E3000006A086A2CEF07F00B800BAE36EF07F064
:100E4000026A0AAE36EF07F0026E016E006E086E9F
:100E50000A36023236EF07F00C6A000E37EF07F061
:100E6000010E0C6E000E4DDC37EF07F0FF0E025046
:100E7000036E0150026E0050016E0850006E1200A9
:100E8000800E01012019006E800E000A005CD8B0AF
:100E900068D120510008016E01C020F1800E0118B8
:100EA000006E800E6E0A005CD8A0BCD0640E046E8A
:100EB00020C100F0C8DC120E0024056E000E00BE3A
:100EC000FF0E066E000E062205C000F006C001F0FF
:100ED000000E06BEFF0E026E036E00360090013655
:100EE0000236033600360090013602360336100E05
:100EF0000024F66E400E0120F76E000E0220F86E00
:100F00000900F5CF21F10900F5CF22F10900F5CF55
:100F100023F10900F5CF24F1640E046E20C100F026
:100F200092DC08C000F00A0E046E8DDC090E00246D
:100F3000056E000E00BEFF0E066E000E062205C0F6
:100F400000F006C001F0000E06BEFF0E026E036E3A
:100F50000036009001360236033600360090013626
:100F600002360336100E0024F66E400E0120F76E96
:100F7000000E0220F86E0900F5CF00F00900F5CF51
:100F800001F00900F5CF02F00900F5CF03F021C10F
:100F900004F022C105F023C106F024C107F08FEC54
:100FA00003F000C021F101C022F102C023F103C00F
:100FB00024F10A0E046E20C100F045DC08C000F0E8
:100FC00000C001F0000E00BEFF0E026E036E046E44
:100FD000013601900236033604360136019002369E
:100FE00003360436100E0124F66E400E0220F76E12
:100FF000000E0320F86E0900F5CF00F00900F5CFD0
:1010000001F00900F5CF02F00900F5CF03F021C18E
:1010100004F022C105F023C106F024C107F08FECD3
:1010200003F006D2800E0A0A006E800E2019005CC2
:1010300070E20A0E046E20C100F005DC090E0024E7
:10104000056E000E00BEFF0E066E000E062205C0E5
:1010500000F006C001F0000E06BEFF0E026E036E29
:101060000036009001360236033600360090013615
:1010700002360336100E0024F66E400E0120F76E85
:10108000000E0220F86E0900F5CF21F10900F5CF1E
:1010900022F10900F5CF23F10900F5CF24F10A0E62
:1010A000046E20C100F023EC04F008C000F000C082
:1010B00001F0000E00BEFF0E026E036E046E0136DC
:1010C00001900236033604360136019002360336AB
:1010D0000436100E0124F66E400E0220F76E000E4C
:1010E0000320F86E0900F5CF00F00900F5CF01F0FC
:1010F0000900F5CF02F00900F5CF03F021C104F09B
:1011000022C105F023C106F024C107F08FEC03F0E3
:101110008FD120C100F0000E20BFFF0E016E026EC5
:10112000036E00360090013602360336003600901A
:10113000013602360336100E0024F66E400E0120F2
:10114000F76E000E0220F86E0900F5CF00F00900DE
:10115000F5CF01F00900F5CF02F00900F5CF03F05B
:1011600067D1800E2019006E800E6E0A005CD8A038
:10117000C0D0640E046E20C100F023EC04F0120E07
:101180000024056E000E00BEFF0E066E000E062245
:1011900005C000F006C001F0000E06BEFF0E026E94
:1011A000036E00360090013602360336003600909A
:1011B000013602360336DC0E0024F66E3F0E0120A7
:1011C000F76E000E0220F86E0900F5CF21F109003C
:1011D000F5CF22F10900F5CF23F10900F5CF24F175
:1011E000640E046E20C100F023EC04F008C000F08F
:1011F0000A0E046E23EC04F0090E0024056E000EA6
:1012000000BEFF0E066E000E062205C000F006C0EE
:1012100001F0000E06BEFF0E026E036E0036009057
:1012200001360236033600360090013602360336A8
:10123000DC0E0024F66E3F0E0120F76E000E022039
:10124000F86E0900F5CF00F00900F5CF01F00900B4
:10125000F5CF02F00900F5CF03F021C104F022C15F
:1012600005F023C106F024C107F08FEC03F000C0A5
:1012700021F101C022F102C023F103C024F10A0EC2
:10128000046E20C100F023EC04F008C000F000C0A0
:1012900001F0000E00BEFF0E026E036E046E0136FA
:1012A00001900236033604360136019002360336C9
:1012B0000436DC0E0124F66E3F0E0220F76E000E9F
:1012C0000320F86E0900F5CF00F00900F5CF01F01A
:1012D0000900F5CF02F00900F5CF03F021C104F0B9
:1012E00022C105F023C106F024C107F08FEC03F002
:1012F0009FD0800E0A0A006E800E2019005C71E2F9
:101300000A0E046E20C100F023EC04F0090E002444
:10131000056E000E00BEFF0E066E000E062205C012
:1013200000F006C001F0000E06BEFF0E026E036E56
:101330000036009001360236033600360090013642
:1013400002360336DC0E0024F66E3F0E0120F76EE7
:10135000000E0220F86E0900F5CF21F10900F5CF4B
:1013600022F10900F5CF23F10900F5CF24F10A0E8F
:10137000046E20C100F023EC04F008C000F000C0AF
:1013800001F0000E00BEFF0E026E036E046E013609
:1013900001900236033604360136019002360336D8
:1013A0000436DC0E0124F66E3F0E0220F76E000EAE
:1013B0000320F86E0900F5CF00F00900F5CF01F029
:1013C0000900F5CF02F00900F5CF03F021C104F0C8
:1013D00022C105F023C106F024C107F08FEC03F011
:1013E00027D020C100F0000E20BFFF0E016E026E5C
:1013F000036E003600900136023603360036009048
:10140000013602360336DC0E0024F66E3F0E012054
:10141000F76E000E0220F86E0900F5CF00F009000B
:10142000F5CF01F00900F5CF02F00900F5CF03F088
:021430001200A8
:101432000450000A08E10550000A05E1FF0E006EA3
:101442007F0E016E58D00D6A096A086A01500010B9
:10145200D8B4000C015005180A6E0ABE0D1E0B6AA4
:1014620005AE05D0041E051E042AD8B4052A01AE15
:1014720005D0001E011E002AD8B4012A0150051011
:101482000A6E0ABE10D045EC01F00BB020D00DAEB2
:10149200000C001E011E002AD8B4012A081E091ED3
:1014A200082AD8B4092A000C05AE0DD001BE07D017
:1014B2000150096E0050086E016A006AE8D7016A9D
:1014C200006A002A000C011E001E0B2ADDD7082A22
:1014D200D8B4092A0450085CD8A4D9D70550095CAD
:1014E200D8A4D5D7096A086A002AD8B4012A01AE5D
:0814F200CED70000FF0C120030
:1014FA0001012051390806E3300E205D03E3010E95
:08150A00006E01D0006A12001E
:101512000B6A0A6A096A00500402F4CF09F0F3CF99
:1015220008F001500502F4CF0BF0F3CF0AF000509F
:101532000502F3500926F4500A22E86A0B220150F0
:101542000402F3500926F4500A22E86A0B2208C06A
:1015520000F009C001F00AC002F00BC003F0120053
:101562000B6A0A6A096A086A0E6A0334083604506A
:10157200085E0550D8A0053C095E0650D8A0063C7E
:101582000A5E0750D8A0073C0B5EE86AD8A0010E9D
:101592000E5E0336070E0C6E0334083609360A3621
:1015A2000B360E36045003A012D0085E0550D8A0A8
:1015B200053C095E0650D8A0063C0A5E0750D8A03A
:1015C200073C0B5EE86AD8A0010E0E5E11D0082619
:1015D2000550D8B0053C09260650D8B0063C0A266C
:1015E2000750D8B0073C0B26E86AD8B0010E0E2689
:1015F20003360C2ED1D70234083609360A360B369A
:101602000E36045003A012D0085E0550D8A0053C47
:10161200095E0650D8A0063C0A5E0750D8A0073CD7
:101622000B5EE86AD8A0010E0E5E11D008260550A6
:10163200D8B0053C09260650D8B0063C0A26075009
:10164200D8B0073C0B26E86AD8B0010E0E26023647
:10165200070E0C6E0234083609360A360B360E3681
:10166200045002A012D0085E0550D8A0053C095EC5
:101672000650D8A0063C0A5E0750D8A0073C0B5E75
:10168200E86AD8A0010E0E5E11D008260550D8B027
:10169200053C09260650D8B0063C0A260750D8B0A9
:1016A200073C0B26E86AD8B0010E0E2602360C2E35
:1016B200D1D70134083609360A360B360E360450B5
:1016C20002A012D0085E0550D8A0053C095E065063
:1016D200D8A0063C0A5E0750D8A0073C0B5EE86A19
:1016E200D8A0010E0E5E11D008260550D8B0053CD8
:1016F20009260650D8B0063C0A260750D8B0073C47
:101702000B26E86AD8B0010E0E260136070E0C6EC3
:101712000134083609360A360B360E36045001A05B
:1017220012D0085E0550D8A0053C095E0650D8A02C
:10173200063C0A5E0750D8A0073C0B5EE86AD8A0B8
:10174200010E0E5E11D008260550D8B0053C0926C0
:101752000650D8B0063C0A260750D8B0073C0B26E4
:10176200E86AD8B0010E0E2601360C2ED1D700340D
:10177200083609360A360B360E36045001A012D04E
:10178200085E0550D8A0053C095E0650D8A0063C6C
:101792000A5E0750D8A0073C0B5EE86AD8A0010E8B
:1017A2000E5E11D008260550D8B0053C0926065019
:1017B200D8B0063C0A260750D8B0073C0B26E86A88
:1017C200D8B0010E0E260036070E0C6E0034083615
:1017D20009360A360B360E36045000A012D0085EC7
:1017E2000550D8A0053C095E0650D8A0063C0A5E0A
:1017F2000750D8A0073C0B5EE86AD8A0010E0E5E27
:1018020011D008260550D8B0053C09260650D8B09C
:10181200063C0A260750D8B0073C0B26E86AD8B027
:10182200010E0E2600360C2ED1D700B00ED0045079
:1018320008260550D8B0053C09260650D8B0063C0B
:0C1842000A260750D8B0073C0B26120005
:10184E000450000A12E10550000A0FE10650000A8A
:10185E000CE10750000A09E1FF0E006EFF0E016E4B
:10186E007F0E026EFF0E036EA8D0086A096A07503B
:10187E00D8B4D2EF0CF00350D8B4D7EF0CF002501E
:10188E0006180A6E028E068E0E6A02C008F001C09D
:10189E000CF000C00DF004500D5E0550D8A0053CB4
:1018AE000C5E0650D8A0063C085E086A0C6A0D6AEB
:1018BE00D8A069EF0CF0D890023201320032083213
:1018CE00010E0E6E0750035ED8A076EF0CF07E0E62
:1018DE000E240326D8B0DCEF0CF07CEF0CF07E0E5D
:1018EE000E240326D8A0E1EF0CF0180E0B6E0D3669
:1018FE000C3608360036013602360E360450005EBF
:10190E000550D8A0053C015E0650D8A0063C025EEC
:10191E0006340E120EA097EF0CF00D80A2EF0CF015
:10192E00045000260550D8B0053C01260650D8B00C
:10193E00062802260D900B2E7EEF0CF0C8EF0CF051
:10194E00D8900036013602360E360450005E055031
:10195E00D8A0053C015E0650D8A0063C025E0634B7
:10196E000E10010B0D26D8B00C2AD8B4082AD8A414
:10197E00C8EF0CF008320C320D32032AD8B4DCEF6B
:10198E000CF00AAE089E0850026E0C50016E0D50FF
:10199E00006EE4EF0CF0010E1FEC04F0E4EF0CF01F
:1019AE00020E3CEC00F0E4EF0CF0040E30EC00F014
:0C19BE00E4EF0CF0080E43EC00F0120007
:1019CA0003500718D8A4F9EF0CF002500618D8A44F
:1019DA00F9EF0CF001500518D8A4F9EF0CF00050FB
:0E19EA000418D8B4D8841200D8941200120049
:1019F8000A6A0350D8A40A800750D8A40A820A5059
:101A0800D8B45FEF0DF0030AD8B418EF0DF00AB0A0
:101A180013EF0DF006AE5DEF0DF05BEF0DF002AECB
:101A28005BEF0DF05DEF0DF00250800B0A6E029E29
:101A38000650800B069E0A18D8B429EF0DF00A50FC
:101A4800D8B45BEF0DF05DEF0DF00750035CD8B430
:101A580033EF0DF0D8A04FEF0DF055EF0DF0065015
:101A6800025CD8B43DEF0DF0D8A04FEF0DF055EF64
:101A78000DF00550015CD8B447EF0DF0D8A04FEF3A
:101A88000DF055EF0DF00450005CD8B45FEF0DF089
:101A9800D8B055EF0DF00A52D8B45DEF0DF05BEFFA
:101AA8000DF00A52D8B45BEF0DF05DEF0DF0D88061
:0E1AB8001200D8901200D880D88412001200BC
:101AC6000101186B196B0C6B0D6BFAC000F0FBC0B3
:101AD60001F0FCC002F0010E0001FA27000EFB2304
:101AE600FC2300C0F6FF01C0F7FF02C0F8FF0900A3
:101AF600F5CF00F000C009F10052D8B4E0EF1DF0B8
:101B060001010951250A0DE0F8C0E1FFF9C0E2FF25
:101B160009C1E6FF0001F84BF92B0101184B192BFF
:101B2600D4D70A6B0B6B0C6B0D6B2DD001010C8798
:101B3600010E0001FA27000EFB23FC2361D00101F0
:101B46000C81010E0001FA27000EFB23FC2358D05E
:101B560001010C83010E0001FA27000EFB23FC2372
:101B66004FD001010D87010E0001FA27000EFB235D
:101B7600FC2346D001010C85010E0001FA27000E58
:101B8600FB23FC233DD0FAC0F6FFFBC0F7FFFCC0E9
:101B9600F8FF0900F5CF01F001502D0AC7E0FAC0A1
:101BA600F6FFFBC0F7FFFCC0F8FF0900F5CF01F018
:101BB6000150200AC4E0FAC0F6FFFBC0F7FFFCC0E4
:101BC600F8FF0900F5CF01F001502B0AC1E0FAC079
:101BD600F6FFFBC0F7FFFCC0F8FF0900F5CF01F0E8
:101BE6000150230ABEE0FAC0F6FFFBC0F7FFFCC0B7
:101BF600F8FF0900F5CF01F00150300ABBE001D033
:101C060094D701010CA301D00C910CA701D00C951F
:101C1600FAC0F6FFFBC0F7FFFCC0F8FF0900F5CFDE
:101C260000F0000E016E00C020F164DC005235E0C9
:101C36000A6B0B6B0AC100F00BC101F00A0E046EB1
:101C4600000E056E63DCFAC0F6FFFBC0F7FFFCC0B2
:101C5600F8FF0900F5CF02F0025000240A6F000ECB
:101C660001200B6F300E0A5F000E0B5B010E0001A8
:101C7600FA27000EFB23FC23FAC0F6FFFBC0F7FF92
:101C8600FCC0F8FF0900F5CF00F0000E016E00C0A1
:101C960020F130DC0052CEE134D0FAC0F6FFFBC0B2
:101CA600F7FFFCC0F8FF0900F5CF01F001502A0A42
:101CB60028E1FDC0E9FFFEC0EAFFEECF00F0EECF5F
:101CC60001F000C0E9FF01C0EAFFEECF0AF1EECF56
:101CD6000BF1FDC0E9FFFEC0EAFF020EEE24006E26
:101CE600000EEE20016EFDC0E1FFFEC0E2FF00C067
:101CF600E6FF01C0E6FF010E0001FA27000EFB23F6
:101D0600FC23FAC0F6FFFBC0F7FFFCC0F8FF090092
:101D1600F5CF01F001502E0A73E10001010EFA27FA
:101D2600000EFB23FC23FAC0F6FFFBC0F7FFFCC046
:101D3600F8FF0900F5CF01F001502A0A28E1FDC09D
:101D4600E9FFFEC0EAFFEECF00F0EECF01F000C0E3
:101D5600E9FF01C0EAFFEECF07F1EECF08F1FDC0C3
:101D6600E9FFFEC0EAFF020EEE24006E000EEE2032
:101D7600016EFDC0E1FFFEC0E2FF00C0E6FF01C04C
:101D8600E6FF010EFA27000EFB23FC2338D00101E3
:101D9600076B086BFAC0F6FFFBC0F7FFFCC0F8FF45
:101DA6000900F5CF00F0000E016E00C020F17DECB9
:101DB6000AF0005224E007C100F008C101F00A0E43
:101DC600046E000E056E89EC0AF0FAC0F6FFFBC041
:101DD600F7FFFCC0F8FF0900F5CF02F0025000241F
:101DE600076F000E0120086F300E075F000E085BBC
:101DF600010E0001FA27000EFB23FC23CBD704D0EB
:101E06000101076B086B0D89FAC000F0FBC001F0F9
:101E1600FCC002F0010E0001FA27000EFB23FC2392
:101E260000C0F6FF01C0F7FF02C0F8FF0900F5CFBA
:101E360009F100D118C100F019C101F0E4EF1DF05D
:101E460001010C89E1D70D8535D10C8B0D8132D17D
:101E56000D8330D10C8D2ED12DD10C8B0C8F2AD128
:101E6600FDC0E9FFFEC0EAFFEECF00F0EECF01F0C5
:101E760000C0E9FF01C0EAFFEECF14F1EECF15F185
:101E8600FDC0E9FFFEC0EAFF020EEE24006E000E62
:101E9600EE20016EFDC0E1FFFEC0E2FF00C0E6FFDE
:101EA60001C0E6FF000E151902E1000E141904E147
:101EB6001C0E146F000E156F166B176B165114253A
:101EC600E96E17511521EA6EEE520BE0010E16254A
:101ED600006E000E1721016E00C016F101C017F149
:101EE600EDD7075108110AE01751085D02E11651B6
:101EF600075D04E207C116F108C117F10B51175D22
:101F060002E10A51165D05E216510A5F17510B5B95
:101F160002D00A6B0B6B0CB718D00AC100F00BC1CC
:101F260001F0010E0A5F000E0B5B005001100DE080
:101F3600F8C0E1FFF9C0E2FF200EE66E0001F84BA3
:101F4600F92B0101184B192BE8D716C102F017C15E
:101F560003F0010E165D006E000E1759016E00C0EB
:101F660016F101C017F1025003101BE014C1E9FF7E
:101F760015C1EAFFF8C0E1FFF9C0E2FFEECFE6FFC8
:101F86000001F84BF92B010E01011425006E000E1D
:101F96001521016E00C014F101C015F1184B192B63
:101FA600D4D70CA718D00AC100F00BC101F0010E5E
:101FB6000A5F000E0B5B005001100DE0F8C0E1FF58
:101FC600F9C0E2FF200EE66E0001F84BF92B010185
:101FD600184B192BE8D779D5FDC0E9FFFEC0EAFFFB
:101FE600EECF00F0EECF01F000C0E9FF01C0EAFF3E
:101FF600EECF09F1FDC0E9FFFEC0EAFF020EEE24B6
:10200600006E000EEE20016EFDC0E1FFFEC0E2FF95
:1020160000C0E6FF01C0E6FF090E146F010E156F42
:10202600010E166F000E176F5CD7C00E0C13000E54
:102036000D1340D001010951000AD8B4FBD609514D
:102046006C0AD8B4FDD609514C0AD8B4F9D6095150
:10205600660AD8B4F8D60951450AD8B4F6D6095155
:10206600650AD8B4F3D60951670AD8B4F1D609512E
:102076006F0AD8B4EFD60951640AD8B4EDD609511F
:10208600690AD8B4E9D60951700AD8B4E6D6095116
:10209600580AD8B4E2D60951780AD8B4DFD609511D
:1020A600730AD8B4DDD60951630A96E00951750A58
:1020B600BCE0B2D7000E0C15006E0D51070B016E79
:1020C60000500110D8B46BEF19F00DA904D0060E1C
:1020D600076F000E086FFDC0E9FFFEC0EAFFEECFF6
:1020E60000F0EECF01F000C0E9FF01C0EAFFEECF3D
:1020F6000EF1EECF0FF1EECF10F1EECF11F1FDC0E4
:10210600E9FFFEC0EAFF040EEE24006E000EEE208C
:10211600016EFDC0E1FFFEC0E2FF00C0E6FF01C0A8
:10212600E6FF046A056A066A076A0EC100F00FC177
:1021360001F010C102F011C103F05BDC010ED8B052
:10214600000E006E005205E0107F030E0C13000E09
:102156000D13126B136B0EC100F00FC101F010C10D
:1021660002F011C103F0046A056A066A076A2ADCEE
:10217600000ED8A4010E006E0052D8B48AD011C148
:1021860000F0016A026A036AFF0E0016000E0116CD
:102196007E0E005E000E015A00C012F101C013F15E
:1021A600010E005E000E015A00C012F101C013F1CB
:1021B600030E046E000E056E89EC0AF000C012F1E3
:1021C60001C013F10A0E046E000E056E19EC0AF03A
:1021D60000C012F101C013F1800E0118026E800ECC
:1021E600025C02E1000E005C05E2010E0101125FD5
:1021F600000E135B010112510008206F40EC07F03E
:102206000EC104F00FC105F010C106F011C107F0B0
:102216008FEC03F000C014F101C015F102C016F1F5
:1022260003C017F1000E046E000E056E000E066E5A
:102236007F0E076E14C100F015C101F016C102F041
:1022460017C103F0FCEC0CF0010ED8B0000E006EC6
:10225600005205E0010E125F000E135B1AD0000E4D
:10226600046E000E056E200E066E820E076E14C1F9
:1022760000F015C101F016C102F017C103F0FCEC25
:102286000CF0000ED8B0010E006E005202E0124BA8
:10229600132B800E006E800E1319005C02E11251A2
:1022A600000803E3010E096F02D012C109F10DB156
:1022B60019D00DA315D0800E1319006E7F0E005C89
:1022C60002E1FC0E125D0BE3800E1319006E800E08
:1022D6000819005C02E10751125D01E201D002D04B
:1022E60085EF15F00751081106E00DA304D0010E85
:1022F600075F000E085B0851000802E10751080855
:1023060003E2080E096F02D007C109F10EC100F001
:102316000FC101F010C102F011C103F0046A056A91
:10232600066A076AE5EC0CF0000ED8A4010E006EF2
:102336000052D8B44BD112C120F140EC07F000C0D6
:1023460004F001C005F002C006F003C007F00EC19C
:1023560000F00FC101F010C102F011C103F027EC2B
:102366000CF000C00EF101C00FF102C010F103C065
:1023760011F1010109510008206F40EC07F000C07F
:1023860004F001C005F002C006F003C007F00EC15C
:1023960000F00FC101F010C102F011C103F027ECEB
:1023A6000CF000C01AF101C01BF102C01CF103C001
:1023B6001DF11AC10EF11BC10FF11CC110F11DC197
:1023C60011F11AC100F01BC101F01CC102F01DC1C0
:1023D60003F094EC04F081EC04F000C004F001C0BA
:1023E60005F002C006F003C007F01AC100F01BC1D9
:1023F60001F01CC102F01DC103F0A4EC06F0000EB2
:10240600046E000E056E000E066E7E0E076EFCEC68
:102416000CF0000ED8B0010E006E00521AE00EC18C
:1024260000F00FC101F010C102F011C103F0000E5F
:10243600046E000E056E000E066E7E0E076E71ECC3
:1024460001F000C00EF101C00FF102C010F103C08F
:1024560011F10EC100F00FC101F010C102F011C15F
:1024660003F094EC04F001010951010F096E0A6AA8
:10247600000E0A2209C004F00AC005F0000E0ABECA
:10248600FF0E066E076E04360490053606360736CE
:1024960004360490053606360736740E0424F66EA6
:1024A600400E0520F76E000E0620F86E0900F5CFE7
:1024B60005F00900F5CF06F00900F5CF07F0090091
:1024C600F5CF08F00850035C08E10750025C05E10F
:1024D6000650015C02E10550005C1EE301010EC1DD
:1024E60000F00FC101F010C102F011C103F0CD0ED2
:1024F600046ECC0E056E4C0E066E7B0E076E8FECD0
:1025060003F000C00EF101C00FF102C010F103C0CC
:1025160011F1124B132B5AD00EC100F00FC101F06E
:1025260010C102F011C103F094EC04F009C104F0EB
:10253600000E056E066E076E0436049005360636E6
:10254600073604360490053606360736740E04241C
:10255600F66E400E0520F76E000E0620F86E090096
:10256600F5CF05F00900F5CF06F00900F5CF07F025
:102576000900F5CF08F00850035C08E10750025C3B
:1025860005E10650015C02E10550005C1FE2010115
:102596000EC100F00FC101F010C102F011C103F02D
:1025A600000E046E000E056E200E066E820E076E7D
:1025B6008FEC03F000C00EF101C00FF102C010F164
:1025C60003C011F1010E125F000E135B01010DA392
:1025D60093D00DB791D0800E000A006E800E0819B8
:1025E600005C02E107510A0804E20A0E076F000EBA
:1025F600086F0EC100F00FC101F010C102F011C149
:1026060003F094EC04F000C014F101C015F102C00F
:1026160016F103C017F1145115111611171142E0E6
:102626000A0E046E000E056E066E076E14C100F0EB
:1026360015C101F016C102F017C103F0B1EC0AF0A2
:1026460008C000F009C001F00AC002F00BC003F098
:10265600000E046E031808E10450021805E1045048
:10266600011802E10050000A1DE1010E075F000E8D
:10267600085B0A0E046E000E056E066E076E14C128
:1026860000F015C101F016C102F017C103F0B1EC5C
:102696000AF000C014F101C015F102C016F103C022
:1026A60017F1B9D7800E0819006E800E005C02E1A2
:1026B6000951075D21E20751095D206F40EC07F0E3
:1026C60000C004F001C005F002C006F003C007F028
:1026D6000EC100F00FC101F010C102F011C103F0EC
:1026E60027EC0CF000C00EF101C00FF102C010F192
:1026F60003C011F107C109F1050E01010725006E9E
:10270600000E0821016E00500A5F01500B5B075155
:10271600081103E10DB701D004D0010E0A5F000EC7
:102726000B5B030E0C15006E0DC101F0000E0116B9
:102736000050011004E0010E0A5F000E0B5B0CA5B1
:1027460040D00CA315D00CA104D02D0E0001FF6FB4
:1027560003D000012B0EFF6FF8C0E1FFF9C0E2FFC6
:10276600FFC0E6FFF84BF92B0101184B192B0ED0D1
:102776000CA10CD0F8C0E1FFF9C0E2FF200EE66E16
:102786000001F84BF92B0101184B192B800E006E36
:10279600800E0B19005C02E10A51000811E2F8C034
:1027A600E1FFF9C0E2FF300EE66E0001F84BF92BAF
:1027B6000101184B192B010E0A5F000E0B5BE6D7C1
:1027C60040D00CB71AD0800E006E800E0B19005C3C
:1027D60002E10A51000811E2F8C0E1FFF9C0E2FF88
:1027E600200EE66E0001F84BF92B0101184B192B50
:1027F600010E0A5F000E0B5BE6D70CA314D00CA1EA
:1028060003D02D0E006F02D02B0E006FF8C0E1FF33
:10281600F9C0E2FF00C1E6FF0001F84BF92B010108
:10282600184B192B0ED00CA10CD0F8C0E1FFF9C043
:10283600E2FF200EE66E0001F84BF92B0101184B62
:10284600192B0EC100F00FC101F010C102F011C129
:1028560003F094EC04F000C014F101C015F102C0BD
:1028660016F103C017F109C100F0000E016E026EE9
:10287600036E0036009001360236033600360090AD
:10288600013602360336740E0024F66E400E012021
:10289600F76E000E0220F86E0900F5CF04F009006D
:1028A600F5CF05F00900F5CF06F00900F5CF07F0E2
:1028B60014C100F015C101F016C102F017C103F0F2
:1028C600B1EC0AF0300E0026F8C0E1FFF9C0E2FFD5
:1028D60000C0E6FF0001F84BF92B0101184B192B3C
:1028E6000751081103E10DB701D075D0F8C0E1FF1B
:1028F600F9C0E2FF2E0EE66E0001F84BF92B01013E
:10290600184B192B0951075F000E085B09534FE05E
:10291600090709C100F0000E016E026E036E003653
:102926000090013602360336003600900136023634
:102936000336740E0024F66E400E0120F76E000E6C
:102946000220F86E0900F5CF04F00900F5CF05F076
:102956000900F5CF06F00900F5CF07F014C100F025
:1029660015C101F016C102F017C103F0B1EC0AF06F
:102976000A0E046E000E056E066E076EB1EC0AF0C6
:1029860008C000F009C001F00AC002F00BC003F055
:10299600300E0026F8C0E1FFF9C0E2FF00C0E6FFF6
:1029A6000001F84BF92B0101184B192BAFD7075132
:1029B600081111E0F8C0E1FFF9C0E2FF300EE66E43
:1029C6000001F84BF92B0101184B192B010E075F7B
:1029D600000E085BECD70CAB0DD0F8C0E1FFF9C0D8
:1029E600E2FF450EE66E0001F84BF92B0101184B8C
:1029F600192B0CD0F8C0E1FFF9C0E2FF650EE66EB8
:102A06000001F84BF92B0101184B192B800E1319F5
:102A1600006E800E005C02E1000E125D13E21251A0
:102A26000008126F1351000E1357F8C0E1FFF9C0EA
:102A3600E2FF2D0EE66E0001F84BF92B0101184B53
:102A4600192B0CD0F8C0E1FFF9C0E2FF2B0EE66EA1
:102A56000001F84BF92B0101184B192B0A0E046ED5
:102A6600000E056E12C100F013C101F019EC0AF058
:102A7600300E0026F8C0E1FFF9C0E2FF00C0E6FF15
:102A86000001F84BF92B0101184B192B0A0E046EA5
:102A9600000E056E12C100F013C101F019EC0AF028
:102AA60008C000F009C001F0300E0026F8C0E1FFB2
:102AB600F9C0E2FF00C0E6FF0001F84BF92B010167
:102AC600184B192B0CA71CD0800E006E800E0B190C
:102AD600005C02E10A51000813E2F8C0E1FFF9C008
:102AE600E2FF200EE66E0001F84BF92B0101184BB0
:102AF600192B010E0A5F000E0B5B0A510B11EDE15B
:102B060068EF0DF00DA3F3D0800E1319006E800E42
:102B1600005C02E1000E125D0AE2010E125D006E1B
:102B2600000E1359016E0050075F0150085B0EC17D
:102B360000F00FC101F010C102F011C103F094ECD6
:102B460004F000C014F101C015F102C016F103C073
:102B560017F1010E096F09510A0A34E009C100F0A4
:102B6600000E016E026E036E0036009001360236CC
:102B7600033600360090013602360336740E002402
:102B8600F66E400E0120F76E000E0220F86E090068
:102B9600F5CF01F00900F5CF02F00900F5CF03F0FB
:102BA6000900F5CF04F00450175D08E10350165DE7
:102BB60005E10250155D02E10150145D01E202D00B
:102BC600092BC9D70951075D1E6F000E08591F6FE3
:102BD6001EC107F11FC108F114C100F015C101F0B3
:102BE60016C102F017C103F081EC04F000C004F036
:102BF60001C005F002C006F003C007F00EC100F0E8
:102C06000FC101F010C102F011C103F0A4EC06F0EF
:102C160000C01AF101C01BF102C01CF103C01DF176
:102C26001EC120F140EC07F01AC104F01BC105F0EB
:102C36001CC106F01DC107F08FEC03F0000E046EF8
:102C4600000E056E000E066E7E0E076E71EC01F02C
:102C560094EC04F000C014F101C015F102C016F1A5
:102C660003C017F10751081142E00A0E046E000E68
:102C7600056E066E076E14C100F015C101F016C18F
:102C860002F017C103F0B1EC0AF008C000F009C069
:102C960001F00AC002F00BC003F0000E046E031828
:102CA60008E10450021805E10450011802E1005041
:102CB600000A1DE10A0E046E000E056E066E076E12
:102CC60014C100F015C101F016C102F017C103F0DE
:102CD600B1EC0AF000C014F101C015F102C016F102
:102CE60003C017F1010E075F000E085BBBD7800E0D
:102CF600006E800E0819005C02E107510C0816E30D
:102D060007C120F12FEC05F00EC104F00FC105F04C
:102D160010C106F011C107F071EC01F000C00EF110
:102D260001C00FF102C010F103C011F10EC100F095
:102D36000FC101F010C102F011C103F0046A056A67
:102D4600066A076AE5EC0CF0000ED8A4010E006EC8
:102D56000052D8B477D00EC100F00FC101F010C1F7
:102D660002F011C103F094EC04F0000E046E031897
:102D760008E10450021805E10450011802E1005070
:102D8600000A60E1800E006E800E1319005C02E1FD
:102D96001251010857E212C120F140EC07F000C0C1
:102DA60004F001C005F002C006F003C007F00EC132
:102DB60000F00FC101F010C102F011C103F027ECC1
:102DC6000CF05F0E046E700E056E090E066E810E17
:102DD600076EFCEC0CF0010ED8B0000E006E00522F
:102DE60006E0090E0101125F000E135B05D001011A
:102DF600080E125F000E135B12C120F140EC07F0C3
:102E060000C004F001C005F002C006F003C007F0E0
:102E16000EC100F00FC101F010C102F011C103F0A4
:102E260027EC0CF094EC04F000C014F101C015F18D
:102E360002C016F103C017F101010E6B0F6B106B88
:102E4600116B38D00EC100F00FC101F010C102F0B5
:102E560011C103F094EC04F000C014F101C015F1A7
:102E660002C016F103C017F114C100F015C101F03C
:102E760016C102F017C103F081EC04F000C004F0A3
:102E860001C005F002C006F003C007F00EC100F055
:102E96000FC101F010C102F011C103F0A4EC06F05D
:102EA60000C00EF101C00FF102C010F103C011F114
:102EB600126B136B010E096F09510A0A34E009C13E
:102EC60000F0000E016E026E036E003600900136B1
:102ED6000236033600360090013602360336740E8B
:102EE6000024F66E400E0120F76E000E0220F86EEA
:102EF6000900F5CF01F00900F5CF02F00900F5CF82
:102F060003F00900F5CF04F00450175D08E1035003
:102F1600165D05E10250155D02E10150145D01E206
:102F260002D0092BC9D709510725006E000E0821CA
:102F3600016E125100261351012200500A5F015002
:102F46000B5B0DB704D00751081101E104D0010E47
:102F56000A5F000E0B5B030E0C15006E0DC101F02F
:102F6600000E01160050011004E0010E0A5F000E6B
:102F76000B5B0CA53FD00CA314D00CA103D02D0ED7
:102F8600016F02D02B0E016FF8C0E1FFF9C0E2FF1E
:102F960001C1E6FF0001F84BF92B0101184B192B73
:102FA6000ED00CA10CD0F8C0E1FFF9C0E2FF200E54
:102FB600E66E0001F84BF92B0101184B192B800E18
:102FC600006E800E0B19005C02E10A51000811E246
:102FD600F8C0E1FFF9C0E2FF300EE66E0001F84BE3
:102FE600F92B0101184B192B010E0A5F000E0B5B22
:102FF600E6D740D00CB71AD0800E006E800E0B19A3
:10300600005C02E10A51000811E2F8C0E1FFF9C0D4
:10301600E2FF200EE66E0001F84BF92B0101184B7A
:10302600192B010E0A5F000E0B5BE6D70CA314D01A
:103036000CA103D02D0E026F02D02B0E026FF8C02A
:10304600E1FFF9C0E2FF02C1E6FF0001F84BF92BF0
:103056000101184B192B0ED00CA10CD0F8C0E1FFC2
:10306600F9C0E2FF200EE66E0001F84BF92B0101D4
:10307600184B192B09C100F0090700524EE009C18F
:1030860000F0000E016E026E036E003600900136EF
:103096000236033600360090013602360336740EC9
:1030A6000024F66E400E0120F76E000E0220F86E28
:1030B6000900F5CF04F00900F5CF05F00900F5CFBA
:1030C60006F00900F5CF07F014C100F015C101F0B4
:1030D60016C102F017C103F0B1EC0AF00A0E046E35
:1030E600000E056E066E076EB1EC0AF008C000F021
:1030F60009C001F00AC002F00BC003F0300E002632
:10310600F8C0E1FFF9C0E2FF00C0E6FF0001F84B9E
:10311600F92B0101184B192BADD7800E006E800ECE
:103126001319005C02E11251000811E2F8C0E1FF38
:10313600F9C0E2FF300EE66E0001F84BF92B0101F3
:10314600184B192B010E125F000E135BE6D7800E8B
:10315600000A006E800E0819005C02E1075108089B
:1031660003E2080E096F02D007C109F10951075F92
:10317600000E085B095303E10DB701D00CD0F8C06F
:10318600E1FFF9C0E2FF2E0EE66E0001F84BF92BC7
:103196000101184B192B09C120F140EC07F00EC1B3
:1031A60004F00FC105F010C106F011C107F08FEC55
:1031B60003F0A8EC06F000C014F101C015F102C03E
:1031C60016F103C017F109534FE0090709C100F0D2
:1031D600000E016E026E036E003600900136023656
:1031E600033600360090013602360336740E00248C
:1031F600F66E400E0120F76E000E0220F86E0900F2
:10320600F5CF04F00900F5CF05F00900F5CF06F07B
:103216000900F5CF07F014C100F015C101F016C181
:1032260002F017C103F0B1EC0AF00A0E046E000EAC
:10323600056E066E076EB1EC0AF008C000F009C014
:1032460001F00AC002F00BC003F0300E0026F8C0F1
:10325600E1FFF9C0E2FF00C0E6FF0001F84BF92BE1
:103266000101184B192BAFD70751081111E0F8C00F
:10327600E1FFF9C0E2FF300EE66E0001F84BF92BD4
:103286000101184B192B010E075F000E085BECD7E6
:103296000CA71CD0800E006E800E0B19005C02E19C
:1032A6000A51000813E2F8C0E1FFF9C0E2FF200E60
:1032B600E66E0001F84BF92B0101184B192B010E94
:1032C6000A5F000E0B5B0A510B11EDE168EF0DF082
:1032D600C00E0C15016E0DC102F0000E0216000E96
:1032E600021802E1000E0118D8A480D00CA927D03C
:1032F600FDC0E9FFFEC0EAFFEECF00F0EECF01F021
:1033060000C0E9FF01C0EAFFEECF14F1EECF15F1E0
:10331600EECF16F1EECF17F1FDC0E9FFFEC0EAFFD2
:10332600040EEE24006E000EEE20016EFDC0E1FFDD
:10333600FEC0E2FF00C0E6FF01C0E6FF2FD0FDC0E1
:10334600E9FFFEC0EAFFEECF00F0EECF01F000C0CD
:10335600E9FF01C0EAFFEECF00F0EECF01F0000E6C
:1033660001BEFF0E026E036E00C014F101C015F11E
:1033760002C016F103C017F1FDC0E9FFFEC0EAFF67
:10338600020EEE24006E000EEE20016EFDC0E1FF7F
:10339600FEC0E2FF00C0E6FF01C0E6FF800E17197F
:1033A600006E800E005C08E1000E165D05E1000E61
:1033B600155D02E1000E145D18E2030E0C13000EFB
:1033C6000D13006A016A026A036A1451005E155100
:1033D600015A1651025A1751035A00C014F101C07E
:1033E60015F102C016F103C017F14ED00CA927D073
:1033F600FDC0E9FFFEC0EAFFEECF00F0EECF01F020
:1034060000C0E9FF01C0EAFFEECF14F1EECF15F1DF
:10341600EECF16F1EECF17F1FDC0E9FFFEC0EAFFD1
:10342600040EEE24006E000EEE20016EFDC0E1FFDC
:10343600FEC0E2FF00C0E6FF01C0E6FF25D0FDC0EA
:10344600E9FFFEC0EAFFEECF00F0EECF01F000C0CC
:10345600E9FF01C0EAFFEECF14F1EECF15F1000E41
:10346600166F176FFDC0E9FFFEC0EAFF020EEE24DD
:10347600006E000EEE20016EFDC0E1FFFEC0E2FF11
:1034860000C0E6FF01C0E6FF000E081902E1000ECB
:1034960007190FE1000E006E171908E10050161902
:1034A60005E10050151902E11451000A02E1074B2B
:1034B600082BC00E0C15006E00C005F0AED0010E34
:1034C600096F09510A0A34E009C100F0000E016EC5
:1034D600026E036E00360090013602360336003661
:1034E6000090013602360336740E0024F66E400E46
:1034F6000120F76E000E0220F86E0900F5CF01F0EC
:103506000900F5CF02F00900F5CF03F00900F5CF69
:1035160004F00450175D08E10350165D05E1025002
:10352600155D02E10150145D01E202D0092BC9D7F5
:1035360082D0010E096F0951080A34E009C100F072
:10354600000E016E026E036E0036009001360236E2
:103556000336003600900136023603369C0E0024F0
:10356600F66E400E0120F76E000E0220F86E09007E
:10357600F5CF01F00900F5CF02F00900F5CF03F011
:103586000900F5CF04F00450175D08E10350165DFD
:1035960005E10250155D02E10150145D01E202D021
:1035A600092BC9D748D0010E096F09510C0A34E01E
:1035B60009C100F0000E016E026E036E0036009027
:1035C60001360236033600360090013602360336DF
:1035D600440E0024F66E400E0120F76E000E022007
:1035E600F86E0900F5CF01F00900F5CF02F00900E9
:1035F600F5CF03F00900F5CF04F00450175D08E19C
:103606000350165D05E10250155D02E10150145D9F
:1036160001E202D0092BC9D70ED00550000AD8B452
:103626004ED70550C00AD8B44AD70550800A81E063
:103636000550400AB8E0800E006E800E0819005C46
:1036460002E10751095D03E207C109F10DD0800EC1
:103656000819006E800E005C02E10951075D04E264
:1036660009C107F1000E086F0A510B110EE0030E97
:103676000C15006E0DC101F0000E01160050011070
:1036860004E0010E0A5F000E0B5B800E0819006E47
:10369600800E0B19005C02E10A51075D05E2075135
:1036A6000A5F08510B5B02D00A6B0B6BC40E0C153C
:1036B600016E0D51080B026E0250080A02E1400E1F
:1036C600011808E10A510B1104E0010E0A5F000E11
:1036D6000B5B1CD0C00E0C15016E0D51080B026E53
:1036E6000250080A02E1800E011810E1800E006EF9
:1036F600800E0B19005C02E10A51020805E2020E77
:103706000A5F000E0B5B02D00A6B0B6B0CA567D031
:103716000CA314D00CA103D02D0E036F02D02B0ED8
:10372600036FF8C0E1FFF9C0E2FF03C1E6FF000145
:10373600F84BF92B0101184B192B3AD00CA10DD0DF
:10374600F8C0E1FFF9C0E2FF200EE66E0001F84B7B
:10375600F92B0101184B192B2BD0C00E0C15016E3D
:103766000D51080B026E0250080A02E1800E011884
:103776001FE1F8C0E1FFF9C0E2FF300EE66E00017E
:10378600F84BF92B0101184B192B0CAB03D0580E33
:10379600046F02D0780E046FF8C0E1FFF9C0E2FFB3
:1037A60004C1E6FF0001F84BF92B0101184B192B58
:1037B6000A510B1113E0F8C0E1FFF9C0E2FF300E29
:1037C600E66E0001F84BF92B0101184B192B010E7F
:1037D6000A5F000E0B5B0A510B11EDE180D00A5116
:1037E6000B1115E00CB713D0F8C0E1FFF9C0E2FFEA
:1037F600200EE66E0001F84BF92B0101184B192B30
:10380600010E0A5F000E0B5B0A510B11EDE10CA3D2
:1038160014D00CA103D02D0E056F02D02B0E056F10
:10382600F8C0E1FFF9C0E2FF05C1E6FF0001F84B71
:10383600F92B0101184B192B0ED00CA10CD0F8C096
:10384600E1FFF9C0E2FF200EE66E0001F84BF92B0E
:103856000101184B192BC00E0C15016E0D51080BEA
:10386600026E0250080A02E1400E01180DE1F8C08E
:10387600E1FFF9C0E2FF300EE66E0001F84BF92BCE
:103886000101184B192B2BD0C00E0C15016E0D51D2
:10389600080B026E0250080A02E1800E01181FE1B1
:1038A600F8C0E1FFF9C0E2FF300EE66E0001F84B0A
:1038B600F92B0101184B192B0CAB03D0580E066FD0
:1038C60002D0780E066FF8C0E1FFF9C0E2FF06C12C
:1038D600E6FF0001F84BF92B0101184B192B800E5E
:1038E600006E800E0819005C02E10751095D0DE2C9
:1038F600F8C0E1FFF9C0E2FF300EE66E0001F84BBA
:10390600F92B0101184B192BEAD707C100F008C1A2
:1039160001F0010E075F000E085B00500110D8B4DD
:103926002CD1C00E0C15006E00C01AF10AD107C1C9
:1039360000F008C101F0000E08BFFF0E026E036E14
:103946000036009001360236033600360090013606
:1039560002360336740E0024F66E400E0120F76E12
:10396600000E0220F86E0900F5CF04F00900F5CF2D
:1039760005F00900F5CF06F00900F5CF07F014C1F0
:1039860000F015C101F016C102F017C103F0B1EC49
:103996000AF00A0E046E000E056E066E076EB1EC96
:1039A6000AF008C000F009C001F00AC002F00BC01E
:1039B60003F0300E0024096FD3D00CAB45D007C1FD
:1039C60000F008C101F0000E08BFFF0E026E036E84
:1039D6000036009001360236033600360090013676
:1039E600023603369C0E0024F66E400E0120F76E5A
:1039F600000E0220F86E0900F5CF04F00900F5CF9D
:103A060005F00900F5CF06F00900F5CF07F014C15F
:103A160000F015C101F016C102F017C103F0B1ECB8
:103A26000AF00F0E0016000E011602160316CD0E32
:103A36000024F66E400E0120F76E000E0220F86E8E
:103A46000900F5CF09F144D007C100F008C101F023
:103A5600000E08BFFF0E026E036E003600900136A0
:103A660002360336003600900136023603369C0EC7
:103A76000024F66E400E0120F76E000E0220F86E4E
:103A86000900F5CF04F00900F5CF05F00900F5CFE0
:103A960006F00900F5CF07F014C100F015C101F0DA
:103AA60016C102F017C103F0B1EC0AF00F0E0016B2
:103AB600000E011602160316BC0E0024F66E400E0A
:103AC6000120F76E000E0220F86E0900F5CF09F10D
:103AD60047D007C100F008C101F0000E08BFFF0E75
:103AE600026E036E0036009001360236033600364B
:103AF6000090013602360336440E0024F66E400E60
:103B06000120F76E000E0220F86E0900F5CF04F0D2
:103B16000900F5CF05F00900F5CF06F00900F5CF4D
:103B260007F014C100F015C101F016C102F017C16B
:103B360003F0B1EC0AF0070E0014096F300E0927E6
:103B46000FD01A51000AD8B4F2D61A51C00AD8B406
:103B5600EED61A51800AD8B430D71A51400AB9E0C5
:103B6600F8C0E1FFF9C0E2FF09C1E6FF0001F84B2A
:103B7600F92B0101184B192BC8D60CA71CD0800EA7
:103B8600006E800E0B19005C02E10A51000813E278
:103B9600F8C0E1FFF9C0E2FF200EE66E0001F84B27
:103BA600F92B0101184B192B010E0A5F000E0B5B56
:103BB6000A510B11EDE168EF0DF018C100F019C1C3
:043BC60001F01200F8
:0E3BCA00ACB202D00000FCD7F8C0ADFF120074
:103BD800E20E0001F66F000EF76FDDC0F8F0DEC0F0
:103BE800F9F0DFC0FAF0E0C0FBF0E1C0FCF0F60E3F
:103BF800FD6F000EFE6F63EC0DF000C0F4F001C025
:103C0800F5F000500001DD25E16E0150DE21E26E85
:0C3C1800E66AF4C000F0F5C001F01200F4
:103C24000001E06BDDC0E9FFDEC0EAFFEECFDFF0AC
:103C3400DF51000A0EE0DFC0F8F0C5DF0001E02B21
:103C4400E051DD25E96E000EDE21EA6EEECFDFF0F5
:043C5400EFD7120094
:103C5800CA0E0001796F3B0E7A6FF80E7B6F000E6B
:103C68007C6FFF0E6D6FFF0E6E6F000E6F6F000E94
:103C7800706FFF0E716FFF0E726F000E736F000E84
:103C8800746FFF0E756FFF0E766F000E776F000E64
:103C9800786FAC8A900EAB6E948E949C9EAA03D0DB
:083CA800AECF00F0FBD71200C3
:103CB0000900F5CFE6FF0006FBE10106F9E112007D
:103CC0002350000805E22304006E00C023F057D003
:103CD0002A50550A04E1010E0001DC6F09D02A5078
:103CE000440A04E10001020EDC6F02D00001DC6B2B
:103CF000295209E02C5203E0010E7F6F01D07F6B47
:103D00007FC080F008D02B5203E0010E816F01D0FC
:103D1000816B81C080F0820EDD6F000EDE6F980E29
:103D2000DF6F3F0EE06F000EE16F26C0E2F0000E85
:103D3000E36FDCC0E4F0000EE56F24C0E6F025C0C0
:103D4000E7F080C0E8F0000EE96F28C0EAF0000E4E
:103D5000EB6F27C0ECF0000EED6F19C0EEF01AC04B
:103D6000EFF01BC0F0F0000EF16F17C0F2F018C0BA
:103D7000F3F032DF820EDD6F000EDE6F53DF1200D4
:103D8000CD6AFE0ECF6E0C0ECE6E9E909D80CD80C5
:023D900012001F
:103D92006FEC20F00F01386B92968996396B938CF9
:103DA200938EF18E3A6B949A949C948E8B9A3B6B81
:103DB2009588B886B06ACF0EAF6EAC844CDF020E27
:103DC2000B6E040E0C6EBA0E0D6E0D2EFED70C2E5F
:103DD200FCD70B2EFAD70000070ED56EC20ED76E97
:103DE200F70ED66EF294F28ACADFF28CF28E870E4A
:103DF200D56E320EDD6F000EDE6F13DF81AC13D095
:103E0200275211E1340E0C6EF10E0D6E0D2EFED7FF
:103E12000C2EFCD70000000081AC05D0010E276EED
:103E22008986010E306E305239E0306A48DF000177
:103E32007D6B00017D51000A20E1340E0C6EF10E03
:103E42000D6E0D2EFED70C2EFCD7000000002F5257
:103E520002E02F6A34DF83A80FD081BC0DD0820E1E
:103E62000C6EDD0E0D6E0D2EFED70C2EFCD7000053
:103E72000000010E00017D6FDCD7030E0B6E080EF1
:103E82000C6E770E0D6E0D2EFED70C2EFCD70B2E60
:103E9200FAD7276A286A316A899611DF315235E0EA
:103EA200316A0DDF00017E6B00017E51000A1EE1C6
:103EB200340E0C6EF10E0D6E0D2EFED70C2EFCD7AD
:103EC200000000002F5202E02F6AF9DE83A80DD015
:103ED200820E0C6EDD0E0D6E0D2EFED70C2EFCD753
:103EE20000000000010E00017E6FDED7030E0B6E94
:103EF200080E0C6E770E0D6E0D2EFED70C2EFCD713
:103F02000B2EFAD7286A8996DADE81AE13D02852B0
:103F120011E1340E0C6EF10E0D6E0D2EFED70C2E2D
:103F2200FCD70000000081AE05D0010E286E010E04
:103F3200316E89862F5202E02F6AC1DE5FD7FFD72A
:1040DE0010EE17F0560E006E010E016E420EF66EC9
:0E40EE003F0EF76E000EF86E58EC1EF012003A
:023F420000007D
:023F440000007B
:013F4600007A
:073F4700286E756C6C290067
:013F4E000072
:023F4F00000070
:013F5100006F
:013F5200006E
:013F5300006D
:013F5400016B
:013F55005318
:013F5600006A
:013F57000069
:023F5800000067
:013F5A000066
:013F5B000065
:013F5C000064
:103F5D003C444154412C45543A302C4449523A305A
:103F6D002C50543A302C5052543A302C414C3A305B
:103F7D002C5552473A302C4E423A302C50574D3A30
:0B3F8D00302C5450533A303E0D0A0017
:103F98003C444154412C45543A25642C4449523AF6
:103FA80025642C50543A25642C5052543A25642CDC
:103FB800414C3A25642C5552473A25642C4E423AD6
:103FC80025642C50574D3A25642C5450533A256497
:043FD8003E0D0A0090
:103FDC000000007F000020820000488500007A88E5
:103FEC0000401C8C0050438F0024749280961896CD
:103FFC0020BC3E99286B6E9CF90215A0EC782DC163
:04400C00CAF249E2C9
:104010000000007FCDCC4C7B0AD723786F1203754C
:1040200017B75171ACC5276EBD37066B95BF566784
:1040300077CC2B645F700961FFE65B5D08E53C3C73
:044040006042221B9D
:104044000100000008000000400000000002000021
:1040540000100000008000000000040000002000A8
:104064000000000100000008000000400000000003
:10407400010000000A00000064000000E8030000E2
:1040840010270000A086010040420F00809698008F
:0840940000E1F50500CA9A3BAA
:10409C0001000000100000000001000000100000F2
:1040AC0000000100000010000000000100000010E2
:1040BC003031323334353637383961626364656692
:0140CC0000F3
:1040CD003031323334353637383941424344454641
:0140DD0000E2
:020000040030CA
:0D000100231F3CFFBF81FF0FC00FE00F4029
:00000001FF
