:040000001FEF31F0CD
:1000080000C01EF001C01DF002C01CF003C01BF0B0
:1000180004C01AF005C019F008C018F009C017F09C
:100028000AC016F00BC015F0E1CF23F0E2CF24F0A0
:10003800E9CF21F0EACF22F0F3CF1FF0F4CF20F080
:10004800F2AA14D0F2A412D0F294E10ED76E7C0E6C
:10005800D66E010E0001B36F010EE625006E000E8C
:10006800E721016E00C0E6F001C0E7F0F2A627D054
:10007800F2A025D081CF28F5F290050128AD0DD04A
:10008800020173530AE18B908B92726B686B010EBD
:10009800736F846B8986010E636F050128AF0FD0DB
:1000A800020187530CE18B908B92726B686B010E87
:1000B800876F010E0001A06F0201846B89869DAADB
:1000C80088D09EAA86D0ABA202D0AB98AB88AECF20
:1000D8002CF505012C513C0A02E10201886B020152
:1000E800300E885D0FE2890EE16E030EE26E8851D4
:1000F800E126D8B0E22A2CC5E6FF8851010F006E30
:1001080000C088F205012C513E0A63E1050E020188
:10011800885D5DE3030189513C0A59E12950010FCB
:10012800006E030E0014016E01C02BF50150000192
:100138007D194DE088C22AF5800E000A006E800EF7
:10014800005C03E105012A51260803E20501260E99
:100158002A6F0501296B2A51295D22E2280E006EBB
:10016800000E016E29C004F0000E056E47EC0EF07B
:100178009C0E0026020E012229510024E16E000E79
:100188000120E26E890EE96E030EEA6E2951E92616
:10019800D8B0EA2AEECF00F000C0E6FF292BDBD763
:1001A800280E006E000E016E29C004F0000E056EC8
:1001B80047EC0EF09C0E0026020E01222A51002464
:1001C800E16E000E0120E26EE66A2BC529F00201FD
:1001D800886B1FC0F3FF20C0F4FF1EC000F01DC0D5
:1001E80001F01CC002F01BC003F01AC004F019C0D3
:1001F80005F018C008F017C009F016C00AF015C0BD
:100208000BF021C0E9FF22C0EAFF23C0E1FF24C0B0
:04021800E2FF1100F0
:08021C000AAE029E000E120062
:100224000B840BAE1DEF01F0010E036E026A016A2E
:0A023400006A0A360232FF0E1200C3
:10023E000B820BAE29EF01F00368026801680068BB
:08024E000A360232FF0E120015
:0E025600026A016A006A086A036A000E12005A
:100264000CB074EF01F00CA21AEF02F00E6A000E4B
:1002740002648BEF01F0F00E0214D8A456EF01F0E3
:10028400023A01380F0B02260138F00B016E0038D8
:100294000F0B01260038F00B006E08380F0B0026F8
:1002A4000838F00B086E0E84D89002BE6FEF01F090
:1002B40008360036013602360E2A02BE6FEF01F010
:1002C40008360036013602360E2A02BE6FEF01F000
:1002D40008360036013602360E2A0E50036410EF3B
:1002E40002F0035E0BBC08AE15EF02F0D880800E5E
:1002F40008640030000E002201220222D8A015EF6B
:1003040002F0023201320032034A1AEF02F015EF12
:1003140002F001C002F000C001F008C000F0086A59
:10032400000E0E860264C2EF01F0F00E0214D8A48F
:10033400AAEF01F0023A01380F0B02260138F00B44
:10034400016E00380F0B01260038F00B006E0E848E
:10035400D89002BE6FEF01F00036013602360E2A45
:1003640002BE6FEF01F00036013602360E2A02BEDD
:100374006FEF01F00036013602360E2A6FEF01F0FE
:1003840001C002F000C001F0006A000E0E960E8853
:100394000264EFEF01F0F00E0214D8A4DAEF01F0DA
:1003A400023A01380F0B02260138F00B016E0E845D
:1003B400D89002BE6FEF01F0013602360E2A02BE5B
:1003C4006FEF01F0013602360E2A02BE6FEF01F024
:1003D400013602360E2A6FEF01F001C002F0016A05
:1003E400000E0E8602641FEF02F0F00E0214D8A471
:1003F400FEEF01F0023A0E84D89002BE6FEF01F0D6
:1004040002360E2A02BE6FEF01F002360E2A02BE39
:100414006FEF01F002360E2A6FEF01F0010E0C6E41
:10042400FFDE22EF02F0020E0C6EF6DE22EF02F087
:10043400040E0C6E02DF22EF02F0080E0C6E09DFD0
:020444001200A4
:080446000B6A0B86FF0E120089
:10044E00086A096A000E07620364ACEF02F00250FC
:10045E0006180A6E075003267E0ED8A03DEF02F056
:10046E00035ED8B0B0EF02F041EF02F0035ED8A009
:10047E00B4EF02F0028E068E02C00EF001C00BF039
:10048E0000C00DF000500402F4CF0CF00150050234
:10049E00F4CF00F0F3CF08F00402F3500C26F45022
:1004AE000822000E00220D500502F3500C26F450C7
:1004BE000822000E002202500402F3500826F450C7
:1004CE00002202500502016A000E0122F35000269E
:1004DE00F45001220D500602F3500826F45000226B
:1004EE00026A000E012202220B500602F350002671
:1004FE00F4500122000E02220E500602F350012685
:10050E00F450022202BE94EF02F008360036013695
:10051E0002360306D8B4B4EF02F0A7EF02F0D8808B
:10052E00800E08640030000E002201220222D8A0A4
:10053E00A7EF02F0023201320032034AB0EF02F0AE
:10054E000AAE029E000EB6EF02F0010E7DDEB6EF91
:10055E0002F0020E6DDEB6EF02F0040E5CDE12004B
:10056E000B800BAEC3EF02F0026A0AAEFF0E026EF4
:0C057E00016E006E0A360232FF0E120001
:10058A00086A080E0C6E003408360450085ED8B0AB
:0E059A0002D00826D89000360C2EF5D712009D
:1005A800025006180E6E086A096A0B6A035007643F
:1005B800C7EF03F006500A6E068E028E03500B6ECC
:1005C8000750036E000E0B6417EF03F00B50075E25
:1005D800D8B4B8EF03F0070E076486EF03F0075EA0
:1005E80000C008F001C000F002C001F0026A074E26
:1005F800B8EF03F007645BEF03F0075E00C008F094
:1006080001C000F0016A074EB8EF03F0076439EF44
:1006180003F0075E00C008F0006A074EB8EF03F069
:10062800076420EF03F00AC002F005C001F004C01F
:1006380000F0086AE1EF04F0030E07642BEF03F003
:10064800075E08380F0B086E074EB8EF03F0D89016
:100658000832074EB8EF03F0D8900832074EB8EFCB
:1006680003F0D8900832B8EF03F0030E07644AEF9E
:1006780003F0075E08380F0B086E0038F00B0826E9
:1006880000380F0B006E074EB8EF03F0D890003219
:100698000832074EB8EF03F0D89000320832074E00
:1006A800B8EF03F0D89000320832B8EF03F0030E29
:1006B800076472EF03F0075E08380F0B086E003806
:1006C800F00B082600380F0B006E0138F00B0026DF
:1006D80001380F0B016E074EB8EF03F0D8900132C6
:1006E80000320832074EB8EF03F0D89001320032DA
:1006F8000832074EB8EF03F0D890013200320832C2
:10070800B8EF03F0030E0764A3EF03F0075E0838A1
:100718000F0B086E0038F00B082600380F0B006E20
:100728000138F00B002601380F0B016E0238F00B70
:10073800012602380F0B026E074EB8EF03F0D8906F
:100748000232013200320832074EB8EF03F0D89077
:100758000232013200320832074EB8EF03F0D89067
:100768000232013200320832096A000E0EAEACEFD6
:1007780004F0081E001E011E021E082A0022012283
:100788000222ACEF04F00750D8A4CDEF03F0E1EF5C
:1007980004F0096A02C00AF0028E068E0750035C54
:1007A800076ED8B49FEF04F0070E07646DEF04F0EE
:1007B800075E0450096E0550046E0650056E066A01
:1007C800074E9FEF04F0070E076442EF04F0075E40
:1007D8000450096E0550046E056A074E9FEF04F039
:1007E800070E076420EF04F0075E0450096E046AE0
:1007F800074E9FEF04F0070E076407EF04F00AC0E6
:1008080002F0E1EF04F0030E076412EF04F0075E54
:1008180009380F0B096E074E9FEF04F0D890093284
:10082800074E9FEF04F0D8900932074E9FEF04F06F
:10083800D89009329FEF04F0030E076431EF04F0FB
:10084800075E09380F0B096E0438F00B09260438C7
:100858000F0B046E074E9FEF04F0D8900432093254
:10086800074E9FEF04F0D89004320932074E9FEFED
:1008780004F0D890043209329FEF04F0030E0764A5
:1008880059EF04F0075E09380F0B096E0438F00BB6
:10089800092604380F0B046E0538F00B04260538BA
:1008A8000F0B056E074E9FEF04F0D8900532043207
:1008B8000932074E9FEF04F0D8900532043209320E
:1008C800074E9FEF04F0D8900532043209329FEFAB
:1008D80004F0030E07648AEF04F0075E09380F0B73
:1008E800096E0438F00B092604380F0B046E05381E
:1008F800F00B042605380F0B056E0638F00B05269D
:1009080006380F0B066E074E9FEF04F0D89006329C
:10091800053204320932074E9FEF04F0D8900632B0
:10092800053204320932074E9FEF04F0D8900632A0
:10093800053204320932086A000E0EAEACEF04F03C
:10094800091E041E051E061E092A04220522062267
:1009580009500826045000220550012206500222A0
:100968000EBEC3EF04F0D8A0D2EF04F00232013279
:1009780000320832033ED2EF04F0DCEF04F0D8B0C6
:10098800D7EF04F0000E081E001E011E021E082AE2
:100998000022012202220A7ED7EF04F0010E0C6E1B
:1009A8005DDCE3EF04F0020E0C6E58DCE3EF04F0BC
:1009B800040E0C6E40DCE3EF04F0000E0C6E120027
:1009C8000134083609360450085E0550D8A0053CA5
:1009D800095E003601360F0E0C6E013408360936F2
:1009E800045000A006D0085E0550D8A0053C095E5A
:1009F80005D008260550D8B0053C09260036013632
:100A08000C2EEBD700B006D0045008260550D8B0FD
:080A1800053C09260000120054
:100A20000D6A086A0050D8B4000C04180A6E0ABE99
:100A30000D1E0B6A04AE02D0041E042A00AE02D0C2
:100A4000001E002A005004100A6E0ABE1FD0045077
:100A5000085E003600340836045008260036060EBC
:100A60000C6E00340836045000B0085E00A0082662
:100A700000360C2EF6D700A008260BB015D00DAE10
:100A8000000C001E002A081E082A000C04AE09D023
:100A900000BE04D00050086E006AF1D7006A002A38
:100AA000000C001E0B2AD3D7082A0450085CD8A4D7
:0E0AB000E6D7086A002A00AEE2D7FF0C12005B
:0A0ABE00210E0D6E0D2EFED7120062
:100AC80005012351390806E3300E235D03E3010EC7
:080AD800006E01D0006A12005B
:100AE0000A6A0350D8A40A800750D8A40A820A5080
:100AF000D8B4D3EF05F0030AD8B48CEF05F00AB0F0
:100B000087EF05F006AED1EF05F0CFEF05F002AEAE
:100B1000CFEF05F0D1EF05F00250800B0A6E029E78
:100B20000650800B069E0A18D8B49DEF05F00A50B7
:100B3000D8B4CFEF05F0D1EF05F00750035CD8B47F
:100B4000A7EF05F0D8A0C3EF05F0C9EF05F00650F8
:100B5000025CD8B4B1EF05F0D8A0C3EF05F0C9EF3F
:100B600005F00550015CD8B4BBEF05F0D8A0C3EF89
:100B700005F0C9EF05F00450005CD8B4D3EF05F0E0
:100B8000D8B0C9EF05F00A52D8B4D1EF05F0CFEFD5
:100B900005F00A52D8B4CFEF05F0D1EF05F0D880B8
:0E0BA0001200D8901200D880D88412001200E3
:100BAE000B6A0A6A096A086A0E6A03340836045028
:100BBE00085E0550D8A0053C095E0650D8A0063C3C
:100BCE000A5E0750D8A0073C0B5EE86AD8A0010E5B
:100BDE000E5E0336070E0C6E0334083609360A36DF
:100BEE000B360E36045003A012D0085E0550D8A066
:100BFE00053C095E0650D8A0063C0A5E0750D8A0F8
:100C0E00073C0B5EE86AD8A0010E0E5E11D00826D6
:100C1E000550D8B0053C09260650D8B0063C0A2629
:100C2E000750D8B0073C0B26E86AD8B0010E0E2646
:100C3E0003360C2ED1D70234083609360A360B3657
:100C4E000E36045003A012D0085E0550D8A0053C05
:100C5E00095E0650D8A0063C0A5E0750D8A0073C95
:100C6E000B5EE86AD8A0010E0E5E11D00826055064
:100C7E00D8B0053C09260650D8B0063C0A260750C7
:100C8E00D8B0073C0B26E86AD8B0010E0E26023605
:100C9E00070E0C6E0234083609360A360B360E363F
:100CAE00045002A012D0085E0550D8A0053C095E83
:100CBE000650D8A0063C0A5E0750D8A0073C0B5E33
:100CCE00E86AD8A0010E0E5E11D008260550D8B0E5
:100CDE00053C09260650D8B0063C0A260750D8B067
:100CEE00073C0B26E86AD8B0010E0E2602360C2EF3
:100CFE00D1D70134083609360A360B360E36045073
:100D0E0002A012D0085E0550D8A0053C095E065020
:100D1E00D8A0063C0A5E0750D8A0073C0B5EE86AD6
:100D2E00D8A0010E0E5E11D008260550D8B0053C95
:100D3E0009260650D8B0063C0A260750D8B0073C04
:100D4E000B26E86AD8B0010E0E260136070E0C6E81
:100D5E000134083609360A360B360E36045001A019
:100D6E0012D0085E0550D8A0053C095E0650D8A0EA
:100D7E00063C0A5E0750D8A0073C0B5EE86AD8A076
:100D8E00010E0E5E11D008260550D8B0053C09267E
:100D9E000650D8B0063C0A260750D8B0073C0B26A2
:100DAE00E86AD8B0010E0E2601360C2ED1D70034CB
:100DBE00083609360A360B360E36045001A012D00C
:100DCE00085E0550D8A0053C095E0650D8A0063C2A
:100DDE000A5E0750D8A0073C0B5EE86AD8A0010E49
:100DEE000E5E11D008260550D8B0053C09260650D7
:100DFE00D8B0063C0A260750D8B0073C0B26E86A46
:100E0E00D8B0010E0E260036070E0C6E00340836D2
:100E1E0009360A360B360E36045000A012D0085E84
:100E2E000550D8A0053C095E0650D8A0063C0A5EC7
:100E3E000750D8A0073C0B5EE86AD8A0010E0E5EE4
:100E4E0011D008260550D8B0053C09260650D8B05A
:100E5E00063C0A260750D8B0073C0B26E86AD8B0E5
:100E6E00010E0E2600360C2ED1D700B00ED0045037
:100E7E0008260550D8B0053C09260650D8B0063CC9
:0C0E8E000A260750D8B0073C0B261200C3
:100E9A000F0E0C6E470E0D6E0D2EFED70C2EFCD7C4
:060EAA0000000000120030
:060EB0000000000012002A
:100EB60003500718D8A46FEF07F002500618D8A4FD
:100EC6006FEF07F001500518D8A46FEF07F0005038
:0E0ED6000418D8B4D8841200D8941200120068
:100EE4000B6A0C6A0A6A086A0350D8B4FAEF07F06E
:100EF400028E9E0E035E03BE85EF07F0D8B485EF25
:100F040007F0EAEF07F0036C080E035CD8A0B7EF14
:100F140007F0036E083600C008F001C000F002C0FC
:100F240001F0026A080E035CD8A0B7EF07F0036E65
:100F3400083600C008F001C000F0016A080E035C26
:100F4400D8A0B7EF07F0036E083600C008F0006AB7
:100F5400080E035CD8A0B7EF07F0036E0836086AE2
:100F64000350D8A4D890C3EF07F00350D8B4C3EF0C
:100F740007F0D8900232013200320832032EBBEF60
:100F840007F00BBC08A0D4EF07F0D8A0D4EF07F00B
:100F9400082AD8B4002AD8B4012AD8B4022A02BE36
:100FA400FEEF07F00AAEFAEF07F0021E011E001E64
:100FB400081E082AD8B4002AD8B4012AD8B4022AB0
:100FC400FAEF07F0026A016A006A086AFAEF07F0AA
:100FD4000B800BAE04EF08F0026A0AAE04EF08F0CF
:100FE400026E016E006E086E0A36023204EF08F0DB
:100FF400000E0C6A05EF08F0010E0C6EB7EC02F05F
:1010040005EF08F0FF0E0250036E0150026E00500F
:08101400016E0850006E12008D
:10101C00800E05012319006E800E000A005CD8B00A
:10102C0068D123510008016E01C023F5800E011810
:10103C00006E800E6E0A005CD8A0BCD0640E046EEC
:10104C0023C500F0E7DC120E0024056E000E00BE76
:10105C00FF0E066E000E062205C000F006C001F061
:10106C00000E06BEFF0E026E036E003600900136B7
:10107C0002360336003600900136023603364D0E2A
:10108C000024F66E6B0E0120F76E000E0220F86E37
:10109C000900F5CF24F50900F5CF25F50900F5CFAA
:1010AC0026F50900F5CF27F5640E046E23C500F074
:1010BC00B1DC08C000F00A0E046EACDC090E002492
:1010CC00056E000E00BEFF0E066E000E062205C059
:1010DC0000F006C001F0000E06BEFF0E026E036E9D
:1010EC000036009001360236033600360090013689
:1010FC00023603364D0E0024F66E6B0E0120F76E91
:10110C00000E0220F86E0900F5CF00F00900F5CFB3
:10111C0001F00900F5CF02F00900F5CF03F024C56A
:10112C0004F025C505F026C506F027C507F027EC09
:10113C0002F000C024F501C025F502C026F503C05D
:10114C0027F50A0E046E23C500F064DC08C000F01D
:10115C0000C001F0000E00BEFF0E026E036E046EA6
:10116C000136019002360336043601360190023600
:10117C00033604364D0E0124F66E6B0E0220F76E0C
:10118C00000E0320F86E0900F5CF00F00900F5CF32
:10119C0001F00900F5CF02F00900F5CF03F024C5EA
:1011AC0004F025C505F026C506F027C507F027EC89
:1011BC0002F006D2800E0A0A006E800E2319005C23
:1011CC0070E20A0E046E23C500F024DC090E002424
:1011DC00056E000E00BEFF0E066E000E062205C048
:1011EC0000F006C001F0000E06BEFF0E026E036E8C
:1011FC000036009001360236033600360090013678
:10120C00023603364D0E0024F66E6B0E0120F76E7F
:10121C00000E0220F86E0900F5CF24F50900F5CF79
:10122C0025F50900F5CF26F50900F5CF27F50A0EAF
:10123C00046E23C500F010EC05F008C000F000C0EF
:10124C0001F0000E00BEFF0E026E036E046E01363E
:10125C00019002360336043601360190023603360D
:10126C0004364D0E0124F66E6B0E0220F76E000E46
:10127C000320F86E0900F5CF00F00900F5CF01F05E
:10128C000900F5CF02F00900F5CF03F024C504F0F6
:10129C0025C505F026C506F027C507F027EC02F09A
:1012AC008FD123C500F0000E23BFFF0E016E026E1E
:1012BC00036E00360090013602360336003600907D
:1012CC000136023603364D0E0024F66E6B0E0120ED
:1012DC00F76E000E0220F86E0900F5CF00F0090041
:1012EC00F5CF01F00900F5CF02F00900F5CF03F0BE
:1012FC0067D1800E2319006E800E6E0A005CD8A098
:10130C00C0D0640E046E23C500F010EC05F0120E74
:10131C000024056E000E00BEFF0E066E000E0622A7
:10132C0005C000F006C001F0000E06BEFF0E026EF6
:10133C00036E0036009001360236033600360090FC
:10134C00013602360336810E0024F66E6B0E012038
:10135C00F76E000E0220F86E0900F5CF24F5090097
:10136C00F5CF25F50900F5CF26F50900F5CF27F5C2
:10137C00640E046E23C500F010EC05F008C000F0FC
:10138C000A0E046E10EC05F0090E0024056E000E1A
:10139C0000BEFF0E066E000E062205C000F006C051
:1013AC0001F0000E06BEFF0E026E036E00360090BA
:1013BC00013602360336003600900136023603360B
:1013CC00810E0024F66E6B0E0120F76E000E0220CB
:1013DC00F86E0900F5CF00F00900F5CF01F0090017
:1013EC00F5CF02F00900F5CF03F024C504F025C5B4
:1013FC0005F026C506F027C507F027EC02F000C063
:10140C0024F501C025F502C026F503C027F50A0E08
:10141C00046E23C500F010EC05F008C000F000C00D
:10142C0001F0000E00BEFF0E026E036E046E01365C
:10143C00019002360336043601360190023603362B
:10144C000436810E0124F66E6B0E0220F76E000E30
:10145C000320F86E0900F5CF00F00900F5CF01F07C
:10146C000900F5CF02F00900F5CF03F024C504F014
:10147C0025C505F026C506F027C507F027EC02F0B8
:10148C009FD0800E0A0A006E800E2319005C71E258
:10149C000A0E046E23C500F010EC05F0090E0024B2
:1014AC00056E000E00BEFF0E066E000E062205C075
:1014BC0000F006C001F0000E06BEFF0E026E036EB9
:1014CC0000360090013602360336003600900136A5
:1014DC0002360336810E0024F66E6B0E0120F76E79
:1014EC00000E0220F86E0900F5CF24F50900F5CFA7
:1014FC0025F50900F5CF26F50900F5CF27F50A0EDD
:10150C00046E23C500F010EC05F008C000F000C01C
:10151C0001F0000E00BEFF0E026E036E046E01366B
:10152C00019002360336043601360190023603363A
:10153C000436810E0124F66E6B0E0220F76E000E3F
:10154C000320F86E0900F5CF00F00900F5CF01F08B
:10155C000900F5CF02F00900F5CF03F024C504F023
:10156C0025C505F026C506F027C507F027EC02F0C7
:10157C0027D023C500F0000E23BFFF0E016E026EB4
:10158C00036E0036009001360236033600360090AA
:10159C00013602360336810E0024F66E6B0E0120E6
:1015AC00F76E000E0220F86E0900F5CF00F009006E
:1015BC00F5CF01F00900F5CF02F00900F5CF03F0EB
:0215CC0012000B
:1015CE000450000A12E10550000A0FE10650000A0D
:1015DE000CE10750000A09E1FF0E006EFF0E016ECE
:1015EE007F0E026EFF0E036EA8D0086A096A0750BE
:1015FE00D8B492EF0BF00350D8B497EF0BF0025023
:10160E0006180A6E028E068E0E6A02C008F001C01F
:10161E000CF000C00DF004500D5E0550D8A0053C36
:10162E000C5E0650D8A0063C085E086A0C6A0D6A6D
:10163E00D8A029EF0BF0D8900232013200320832D6
:10164E00010E0E6E0750035ED8A036EF0BF07E0E25
:10165E000E240326D8B09CEF0BF03CEF0BF07E0E61
:10166E000E240326D8A0A1EF0BF0180E0B6E0D362C
:10167E000C3608360036013602360E360450005E41
:10168E000550D8A0053C015E0650D8A0063C025E6F
:10169E0006340E120EA057EF0BF00D8062EF0BF01A
:1016AE00045000260550D8B0053C01260650D8B08F
:1016BE00062802260D900B2E3EEF0BF088EF0BF056
:1016CE00D8900036013602360E360450005E0550B4
:1016DE00D8A0053C015E0650D8A0063C025E06343A
:1016EE000E10010B0D26D8B00C2AD8B4082AD8A497
:1016FE0088EF0BF008320C320D32032AD8B49CEF6F
:10170E000BF00AAE089E0850026E0C50016E0D5082
:10171E00006EA4EF0BF0010E23EC02F0A4EF0BF021
:10172E00020E2BEC01F0A4EF0BF0040E1FEC01F0F7
:0C173E00A4EF0BF0080E12EC01F01200FA
:10174A000450000A08E10550000A05E1FF0E006E88
:10175A007F0E016E58D00D6A096A086A015000109E
:10176A00D8B4000C015005180A6E0ABE0D1E0B6A89
:10177A0005AE05D0041E051E042AD8B4052A01AEFA
:10178A0005D0001E011E002AD8B4012A01500510F6
:10179A000A6E0ABE10D0E4EC04F00BB020D00DAEF5
:1017AA00000C001E011E002AD8B4012A081E091EB8
:1017BA00082AD8B4092A000C05AE0DD001BE07D0FC
:1017CA000150096E0050086E016A006AE8D7016A82
:1017DA00006A002A000C011E001E0B2ADDD7082A07
:1017EA00D8B4092A0450085CD8A4D9D70550095C92
:1017FA00D8A4D5D7096A086A002AD8B4012A01AE42
:08180A00CED70000FF0C120014
:08181200067ED4EC02F0120086
:10181A000050086E0150006E0250016E0350026EB5
:10182A00036A0B6A0C6A9E0E036E0A6A020E0C6E3B
:06183A0032EC01F0120087
:101840006E0E0501235DD8A0CAD0640E046E23C5B8
:1018500000F0C5EC02F0120E0024056E066A000EC0
:10186000062205C000F006C001F0000E06BEFF0E05
:10187000026E036E003600900136023603360036E3
:1018800000900136023603364D0E0024F66E6B0EC4
:101890000120F76E000E0220F86E0900F5CF00F06F
:1018A0000900F5CF01F00900F5CF02F00900F5CFEE
:1018B00003F0000E046E000E056E000E066E7E0E26
:1018C000076E27EC02F000C024F501C025F502C028
:1018D00026F503C027F5640E046E23C500F0C5ECA1
:1018E00002F008C000F00A0E046EC5EC02F0090E0A
:1018F0000024056E066A000E062205C000F006C030
:1019000001F0000E06BEFF0E026E036E0036009060
:1019100001360236033600360090013602360336B1
:101920004D0E0024F66E6B0E0120F76E000E0220A5
:10193000F86E0900F5CF00F00900F5CF01F00900BD
:10194000F5CF02F00900F5CF03F024C504F025C55A
:1019500005F026C506F027C507F027EC02F000C009
:1019600024F501C025F502C026F503C027F50A0EAF
:10197000046E23C500F0C5EC02F008C000F000C002
:1019800001F0000E026E036E046E01360190023605
:1019900003360436013601900236033604364D0E06
:1019A0000124F66E6B0E0220F76E000E0320F86E17
:1019B0000900F5CF00F00900F5CF01F00900F5CFDF
:1019C00002F00900F5CF03F024C504F025C505F0A9
:1019D00026C506F027C507F027EC02F0B1D0235149
:1019E0000A08D8B07ED00A0E046E23C500F0C5ECFC
:1019F00002F0090E0024056E066A000E062205C0DC
:101A000000F006C001F0000E06BEFF0E026E036E6F
:101A1000003600900136023603360036009001365B
:101A2000023603364D0E0024F66E6B0E0120F76E63
:101A3000000E0220F86E0900F5CF00F00900F5CF86
:101A400001F00900F5CF02F00900F5CF03F0000E18
:101A5000046E000E056E000E066E7E0E076E27ECFD
:101A600002F000C024F501C025F502C026F503C030
:101A700027F50A0E046E23C500F0C5EC02F008C07D
:101A800000F000C001F0000E026E036E046E01361D
:101A900001900236033604360136019002360336D1
:101AA00004364D0E0124F66E6B0E0220F76E000E0A
:101AB0000320F86E0900F5CF00F00900F5CF01F022
:101AC0000900F5CF02F00900F5CF03F024C504F0BA
:101AD00025C505F026C506F027C507F027EC02F05E
:101AE0002FD023C500F0000E016E026E036E00368B
:101AF0000090013602360336003600900136023679
:101B000003364D0E0024F66E6B0E0120F76E000EAC
:101B10000220F86E0900F5CF00F00900F5CF01F0C2
:101B20000900F5CF02F00900F5CF03F0000E046EB6
:101B3000000E056E000E066E7E0E076E27EC02F09C
:021B4000120091
:0E1B4200ACB202D00000FCD723C5ADFF1200EC
:0C1B500072B201D0FDD723C573FF120054
:101B5C000B6A0C6A086A0350D8B432EF0EF002C05C
:101B6C000AF0028E9E0E035E03AE22EF0EF0036CA3
:101B7C00080E035CD8A0EFEF0DF0036E083600C022
:101B8C0008F001C000F002C001F0026A080E035C0C
:101B9C00D8A0EFEF0DF0036E083600C008F001C0BE
:101BAC0000F0016A080E035CD8A0EFEF0DF0036E95
:101BBC00083600C008F0006A080E035CD8A0EFEFEE
:101BCC000DF0036E0836086A0350D8A4D890FBEFCA
:101BDC000DF00350D8B4FBEF0DF0D8900232013267
:101BEC0000320832032EF3EF0DF00BBC08A00CEF03
:101BFC000EF0D8A00CEF0EF0082AD8B4002AD8B4F6
:101C0C00012AD8B4022A02BE36EF0EF00AAE32EF29
:101C1C000EF0021E011E001E081E082AD8B4002A4F
:101C2C00D8B4012AD8B4022A32EF0EF0026A016A43
:101C3C00006A086A32EF0EF00B800BAE3DEF0EF02F
:101C4C00026A0AAE3DEF0EF0026E016E006E086E77
:101C5C000A3602323DEF0EF00C6A000E3EEF0EF02B
:101C6C00010E0C6E000EB7EC02F03EEF0EF0FF0E04
:101C7C000250036E0150026E0050016E0850006E4F
:021C8C00120044
:101C8E000B6A0A6A096A00500402F4CF09F0F3CF16
:101C9E0008F001500502F4CF0BF0F3CF0AF000501C
:101CAE000502F3500926F4500A22E86A0B2201506D
:101CBE000402F3500926F4500A22E86A0B2208C0E7
:101CCE0000F009C001F00AC002F00BC003F01200D0
:101CDE000401FBBF02D0819601D08186FBBD02D0EC
:101CEE00819401D08184FBBB02D0819201D081828C
:101CFE00FBB902D0819001D0818003014CB102D09A
:101D0E00818801D08198818A58EC07F0819A04016C
:101D1E00FBB702D0819601D08186FBB502D08194AB
:101D2E0001D08184FBB302D0819201D08182FBB1BC
:101D3E0002D0819001D0818003014CB102D0818804
:101D4E0001D08198818A58EC07F0819A4CA103D07A
:0C1D5E004DEC07F002D05FEC05F0120025
:0C1D6A000E0E0D6E0D2EFED700001200B4
:101D7600F250026EF29E0500FF6A0150FE6E0050A0
:081D8600FD6E02BEF28E120098
:101D8E0005011B6B1C6B0F6B106B03C500F004C5BC
:101D9E0001F005C502F0010E0327000E04230523F2
:101DAE0000C0F6FF01C0F7FF02C0F8FF0900F5CF33
:101DBE0000F000C00CF50052D8B4E1EF1EF00C514B
:101DCE00250A0BE001C5E1FF02C5E2FF0CC5E6FFE7
:101DDE00014B022B1B4B1C2BD8D70D6B0E6B0F6BB5
:101DEE00106B23D00F87010E0327000E042305234B
:101DFE0059D00F81010E0327000E0423052352D064
:101E0E000F83010E0327000E042305234BD01087EA
:101E1E00010E0327000E0423052344D00F85010E67
:101E2E000327000E042305233DD003C5F6FF04C58A
:101E3E00F7FF05C5F8FF0900F5CF01F001502D0A97
:101E4E00D1E003C5F6FF04C5F7FF05C5F8FF09008D
:101E5E00F5CF01F00150200ACCE003C5F6FF04C512
:101E6E00F7FF05C5F8FF0900F5CF01F001502B0A69
:101E7E00C7E003C5F6FF04C5F7FF05C5F8FF090067
:101E8E00F5CF01F00150230AC2E003C5F6FF04C5E9
:101E9E00F7FF05C5F8FF0900F5CF01F00150300A34
:101EAE00BDE001D09ED70FA301D00F910FA701D097
:101EBE000F9503C5F6FF04C5F7FF05C5F8FF09002A
:101ECE00F5CF00F0000E016E00C023F564EC05F0B6
:101EDE00005235E00D6B0E6B0DC500F00EC501F016
:101EEE000A0E046E000E056ECBDE03C5F6FF04C5AA
:101EFE00F7FF05C5F8FF0900F5CF02F002500024E8
:101F0E000D6F000E01200E6F300E0D5F000E0E5B7A
:101F1E00010E0327000E0423052303C5F6FF04C597
:101F2E00F7FF05C5F8FF0900F5CF00F0000E016EB2
:101F3E0000C023F564EC05F00052CEE133D003C5AA
:101F4E00F6FF04C5F7FF05C5F8FF0900F5CF01F050
:101F5E0001502A0A27E106C5E9FF07C5EAFFEECFC1
:101F6E0000F0EECF01F000C0E9FF01C0EAFFEECFB6
:101F7E000DF5EECF0EF506C5E9FF07C5EAFF020E19
:101F8E00EE24006E000EEE20016E06C5E1FF07C5C1
:101F9E00E2FF00C0E6FF01C0E6FF010E0327000EC0
:101FAE000423052303C5F6FF04C5F7FF05C5F8FF97
:101FBE000900F5CF01F001502E0A6FE1010E032743
:101FCE00000E0423052303C5F6FF04C5F7FF05C560
:101FDE00F8FF0900F5CF01F001502A0A28E106C5E5
:101FEE00E9FF07C5EAFFEECF00F0EECF01F000C02B
:101FFE00E9FF01C0EAFFEECF0AF5EECF0BF506C5FD
:10200E00E9FF07C5EAFF020EEE24006E000EEE2079
:10201E00016E06C5E1FF07C5E2FF00C0E6FF01C085
:10202E00E6FF010E0327000E0423052335D00A6BAD
:10203E000B6B03C5F6FF04C5F7FF05C5F8FF0900D6
:10204E00F5CF00F0000E016E00C023F564EC05F034
:10205E00005222E00AC500F00BC501F00A0E046E14
:10206E00000E056E0DDE03C5F6FF04C5F7FF05C5B0
:10207E00F8FF0900F5CF02F0025000240A6F000E9F
:10208E0001200B6F300E0A5F000E0B5B010E032753
:10209E00000E04230523CDD703D00A6B0B6B1089DA
:1020AE0003C500F004C501F005C502F0010E0327BB
:1020BE00000E0423052300C0F6FF01C0F7FF02C087
:1020CE00F8FF0900F5CF0CF5F9D01BC500F01CC5C3
:1020DE0001F0E5EF1EF00F89E3D710852ED10F8B9F
:1020EE0010812BD1108329D10F8D27D126D10F8BA3
:1020FE000F8F23D106C5E9FF07C5EAFFEECF00F02B
:10210E00EECF01F000C0E9FF01C0EAFFEECF17F5F8
:10211E00EECF18F506C5E9FF07C5EAFF020EEE245D
:10212E00006E000EEE20016E06C5E1FF07C5E2FF50
:10213E0000C0E6FF01C0E6FF000E181902E1000E16
:10214E00171904E16B0E176F020E186F196B1A6BCD
:10215E0019511725E96E1A511821EA6EEE520BE04D
:10216E00010E1925006E000E1A21016E00C019F520
:10217E0001C01AF5EDD70A510B110AE01A510B5D89
:10218E0002E119510A5D04E20AC519F50BC51AF5EB
:10219E000E511A5D02E10D51195D05E219510D5FE7
:1021AE001A510E5B02D00D6B0E6B0FB716D00DC50C
:1021BE0000F00EC501F0010E0D5F000E0E5B00501B
:1021CE0001100BE001C5E1FF02C5E2FF200EE66E35
:1021DE00014B022B1B4B1C2BEAD719C502F01AC55B
:1021EE0003F0010E195D006E000E1A59016E00C04B
:1021FE0019F501C01AF50250031019E017C5E9FFD1
:10220E0018C5EAFF01C5E1FF02C5E2FFEECFE6FF0A
:10221E00014B022B010E1725006E000E1821016EC8
:10222E0000C017F501C018F51B4B1C2BD6D70FA7F6
:10223E0016D00DC500F00EC501F0010E0D5F000E9B
:10224E000E5B005001100BE001C5E1FF02C5E2FF7D
:10225E00200EE66E014B022B1B4B1C2BEAD795D59D
:10226E0006C5E9FF07C5EAFFEECF00F0EECF01F09D
:10227E0000C0E9FF01C0EAFFEECF0CF506C5E9FF8D
:10228E0007C5EAFF020EEE24006E000EEE20016E70
:10229E0006C5E1FF07C5E2FF00C0E6FF01C0E6FF8D
:1022AE000C0E176F050E186F010E196F000E1A6FB8
:1022BE0062D7C00E0F13000E10133FD00C51000A40
:1022CE00D8B403D70C516C0AD8B405D70C514C0AAC
:1022DE00D8B401D70C51660AD8B4FFD60C51450AB2
:1022EE00D8B4FDD60C51650AD8B4FAD60C51670A8B
:1022FE00D8B4F8D60C516F0AD8B4F6D60C51640A7D
:10230E00D8B4F4D60C51690AD8B4F0D60C51700A70
:10231E00D8B4EDD60C51580AD8B4E9D60C51780A77
:10232E00D8B4E6D60C51730AD8B4E4D60C51630A6D
:10233E0097E00C51750ABDE0B3D7000E0F15006E75
:10234E001051070B016E00500110D8B485EF1AF032
:10235E0010A904D0060E0A6F000E0B6F06C5E9FF1A
:10236E0007C5EAFFEECF00F0EECF01F000C0E9FFA7
:10237E0001C0EAFFEECF11F5EECF12F5EECF13F559
:10238E00EECF14F506C5E9FF07C5EAFF040EEE24ED
:10239E00006E000EEE20016E06C5E1FF07C5E2FFDE
:1023AE0000C0E6FF01C0E6FF046A056A066A076A16
:1023BE0011C500F012C501F013C502F014C503F0EB
:1023CE0070EC05F0010ED8B0000E006E005205E064
:1023DE00137F030E0F13000E1013156B166B11C522
:1023EE0000F012C501F013C502F014C503F0046A23
:1023FE00056A066A076A5BEC07F0000ED8A4010EA8
:10240E00006E0052D8B489D014C500F0016A026A79
:10241E00036AFF0E0016000E01167E0E005E000E01
:10242E00015A00C015F501C016F5010E005E000E32
:10243E00015A00C015F501C016F5030E046E000E0C
:10244E00056E1EDC00C015F501C016F50A0E046EF1
:10245E00000E056EA5EC0BF000C015F501C016F5CB
:10246E00800E0118026E800E025C02E1000E005C0E
:10247E0005E2010E0501155F000E165B05011551F3
:10248E000008236F0EEC08F011C504F012C505F01C
:10249E0013C506F014C507F027EC02F000C017F5BF
:1024AE0001C018F502C019F503C01AF5000E046E2E
:1024BE00000E056E000E066E7F0E076E17C500F03D
:1024CE0018C501F019C502F01AC503F070EC05F03D
:1024DE00010ED8B0000E006E005205E0010E155F21
:1024EE00000E165B1AD0000E046E000E056E200E46
:1024FE00066E820E076E17C500F018C501F019C5DD
:10250E0002F01AC503F070EC05F0000ED8B0010E03
:10251E00006E005202E0154B162B800E006E800EE0
:10252E001619005C02E11551000803E3010E0C6F51
:10253E0002D015C50CF510B118D010A315D0800E11
:10254E001619006E7F0E005C02E1FC0E155D0BE3AA
:10255E00800E1619006E800E0B19005C02E10A51F6
:10256E00155D01E201D001D0F5D30A510B1106E041
:10257E0010A304D0010E0A5F000E0B5B0B51000876
:10258E0002E10A51080803E2080E0C6F02D00AC5D8
:10259E000CF511C500F012C501F013C502F014C5FB
:1025AE0003F0046A056A066A076A5BEC07F0000E20
:1025BE00D8A4010E006E0052D8B44BD115C523F528
:1025CE000EEC08F000C004F001C005F002C006F0E9
:1025DE0003C007F011C500F012C501F013C502F0DB
:1025EE0014C503F0E7EC0AF000C011F501C012F5B6
:1025FE0002C013F503C014F505010C510008236F3A
:10260E000EEC08F000C004F001C005F002C006F0A8
:10261E0003C007F011C500F012C501F013C502F09A
:10262E0014C503F0E7EC0AF000C01DF501C01EF55D
:10263E0002C01FF503C020F51DC511F51EC512F50C
:10264E001FC513F520C514F51DC500F01EC501F0FC
:10265E001FC502F020C503F072EC07F00DEC0CF074
:10266E0000C004F001C005F002C006F003C007F080
:10267E001DC500F01EC501F01FC502F020C503F0F8
:10268E0009EC0CF0000E046E000E056E000E066EC8
:10269E007E0E076E70EC05F0000ED8B0010E006EC7
:1026AE0000521AE011C500F012C501F013C502F078
:1026BE0014C503F0000E046E000E056E000E066EBD
:1026CE007E0E076ED4EC02F000C011F501C012F5BB
:1026DE0002C013F503C014F511C500F012C501F0C8
:1026EE0013C502F014C503F072EC07F005010C518E
:1026FE00010F096E0A6A000E0A2209C004F00AC010
:10270E0005F0000E0ABEFF0E066E076E043604902C
:10271E000536063607360436049005360636073675
:10272E00E50E0424F66E6B0E0520F76E000E0620E5
:10273E00F86E0900F5CF05F00900F5CF06F0090097
:10274E00F5CF07F00900F5CF08F00850035C08E15B
:10275E000750025C05E10650015C02E10550005C89
:10276E001EE3050111C500F012C501F013C502F0FC
:10277E0014C503F0CD0E046ECC0E056E4C0E066E17
:10278E007B0E076E27EC02F000C011F501C012F5AA
:10279E0002C013F503C014F5154B162B5AD011C5F4
:1027AE0000F012C501F013C502F014C503F072EC6F
:1027BE0007F00CC504F0000E056E066E076E0436AB
:1027CE00049005360636073604360490053606366E
:1027DE000736E50E0424F66E6B0E0520F76E000E1E
:1027EE000620F86E0900F5CF05F00900F5CF06F0CA
:1027FE000900F5CF07F00900F5CF08F00850035C8B
:10280E0008E10750025C05E10650015C02E105504B
:10281E00005C1FE2050111C500F012C501F013C5E1
:10282E0002F014C503F0000E046E000E056E200EAD
:10283E00066E820E076E27EC02F000C011F501C085
:10284E0012F502C013F503C014F5010E155F000E4C
:10285E00165B050110A393D010B791D0800E000A1D
:10286E00006E800E0B19005C02E10A510A0804E2A8
:10287E000A0E0A6F000E0B6F11C500F012C501F0A3
:10288E0013C502F014C503F072EC07F000C017F583
:10289E0001C018F502C019F503C01AF51751181129
:1028AE0019111A1142E00A0E046E000E056E066E24
:1028BE00076E17C500F018C501F019C502F01AC54C
:1028CE0003F0D7EC05F008C000F009C001F00AC013
:1028DE0002F00BC003F0000E046E031808E1045062
:1028EE00021805E10450011802E10050000A1DE132
:1028FE00010E0A5F000E0B5B0A0E046E000E056ED3
:10290E00066E076E17C500F018C501F019C502F066
:10291E001AC503F0D7EC05F000C017F501C018F585
:10292E0002C019F503C01AF5B9D7800E0B19006E47
:10293E00800E005C02E10C510A5D21E20A510C5D31
:10294E00236F0EEC08F000C004F001C005F002C0C9
:10295E0006F003C007F011C500F012C501F013C553
:10296E0002F014C503F0E7EC0AF000C011F501C047
:10297E0012F502C013F503C014F50AC50CF5050EC9
:10298E0005010A25006E000E0B21016E00500D5F31
:10299E0001500E5B0A510B1103E110B701D004D0A8
:1029AE00010E0D5F000E0E5B030E0F15006E10C5AF
:1029BE0001F0000E01160050011004E0010E0D5F33
:1029CE00000E0E5B0FA53CD00FA315D00FA104D0A7
:1029DE002D0E0401FB6F03D004012B0EFB6F01C5FE
:1029EE00E1FF02C5E2FFFBC4E6FF0501014B022B2E
:1029FE001B4B1C2B0CD00FA10AD001C5E1FF02C549
:102A0E00E2FF200EE66E014B022B1B4B1C2B800EA1
:102A1E00006E800E0E19005C02E10D5100080FE2EF
:102A2E0001C5E1FF02C5E2FF300EE66E014B022B3F
:102A3E001B4B1C2B010E0D5F000E0E5BE8D73DD01D
:102A4E000FB718D0800E006E800E0E19005C02E1DA
:102A5E000D5100080FE201C5E1FF02C5E2FF200E95
:102A6E00E66E014B022B1B4B1C2B010E0D5F000E55
:102A7E000E5BE8D70FA315D00FA104D02D0E0401C5
:102A8E00FC6F03D004012B0EFC6F01C5E1FF02C5E4
:102A9E00E2FFFCC4E6FF0501014B022B1B4B1C2B76
:102AAE000CD00FA10AD001C5E1FF02C5E2FF200E36
:102ABE00E66E014B022B1B4B1C2B11C500F012C5F1
:102ACE0001F013C502F014C503F072EC07F000C05C
:102ADE0017F501C018F502C019F503C01AF50CC59B
:102AEE0000F0000E016E026E036E0036009001368D
:102AFE000236033600360090013602360336E50EF6
:102B0E000024F66E6B0E0120F76E000E0220F86E9A
:102B1E000900F5CF04F00900F5CF05F00900F5CF57
:102B2E0006F00900F5CF07F017C500F018C501F043
:102B3E0019C502F01AC503F0D7EC05F0300E0026C9
:102B4E0001C5E1FF02C5E2FF00C0E6FF014B022B0B
:102B5E001B4B1C2B0A510B1103E110B701D06FD088
:102B6E0001C5E1FF02C5E2FF2E0EE66E014B022B00
:102B7E001B4B1C2B0C510A5F000E0B5B0C534DE0D4
:102B8E000C070CC500F0000E016E026E036E0036CF
:102B9E0000900136023603360036009001360236BA
:102BAE000336E50E0024F66E6B0E0120F76E000E56
:102BBE000220F86E0900F5CF04F00900F5CF05F0FC
:102BCE000900F5CF06F00900F5CF07F017C500F0A4
:102BDE0018C501F019C502F01AC503F0D7EC05F0BF
:102BEE000A0E046E000E056E066E076ED7EC05F02B
:102BFE0008C000F009C001F00AC002F00BC003F0DB
:102C0E00300E002601C5E1FF02C5E2FF00C0E6FF5F
:102C1E00014B022B1B4B1C2BB1D70A510B110FE092
:102C2E0001C5E1FF02C5E2FF300EE66E014B022B3D
:102C3E001B4B1C2B010E0A5F000E0B5BEED70FAB6E
:102C4E000BD001C5E1FF02C5E2FF450EE66E014B5A
:102C5E00022B1B4B1C2B0AD001C5E1FF02C5E2FF64
:102C6E00650EE66E014B022B1B4B1C2B800E1619AC
:102C7E00006E800E005C02E1000E155D11E2155132
:102C8E000008156F1651000E165701C5E1FF02C55B
:102C9E00E2FF2D0EE66E014B022B1B4B1C2B0AD0B6
:102CAE0001C5E1FF02C5E2FF2B0EE66E014B022BC2
:102CBE001B4B1C2B0A0E046E000E056E15C500F084
:102CCE0016C501F0A5EC0BF0300E002601C5E1FF94
:102CDE0002C5E2FF00C0E6FF0501014B022B1B4BB4
:102CEE001C2B0A0E046E000E056E15C500F016C5DF
:102CFE0001F0A5EC0BF008C000F009C001F0300E99
:102D0E00002601C5E1FF02C5E2FF00C0E6FF050196
:102D1E00014B022B1B4B1C2B0FA71AD0800E006EE3
:102D2E00800E0E19005C02E10D51000811E201C582
:102D3E00E1FF02C5E2FF200EE66E014B022B1B4B9C
:102D4E001C2B010E0D5F000E0E5B0D510E11EFE1EF
:102D5E00CCEF0EF010A3F3D0800E1619006E800E7D
:102D6E00005C02E1000E155D0AE2010E155D006EBB
:102D7E00000E1659016E00500A5F01500B5B11C513
:102D8E0000F012C501F013C502F014C503F072EC89
:102D9E0007F000C017F501C018F502C019F503C001
:102DAE001AF5010E0C6F0C510A0A34E00CC500F036
:102DBE00000E016E026E036E003600900136023672
:102DCE00033600360090013602360336E50E002437
:102DDE00F66E6B0E0120F76E000E0220F86E0900E3
:102DEE00F5CF01F00900F5CF02F00900F5CF03F0A1
:102DFE000900F5CF04F004501A5D08E10350195D87
:102E0E0005E10250185D02E10150175D01E202D0AA
:102E1E000C2BC9D70C510A5D216F000E0B59226F76
:102E2E0021C50AF522C50BF517C500F018C501F02E
:102E3E0019C502F01AC503F00DEC0CF000C004F039
:102E4E0001C005F002C006F003C007F011C500F086
:102E5E0012C501F013C502F014C503F009EC0CF015
:102E6E0000C01DF501C01EF502C01FF503C020F500
:102E7E0021C523F50EEC08F01DC504F01EC505F0A6
:102E8E001FC506F020C507F027EC02F0000E046EF9
:102E9E00000E056E000E066E7E0E076ED4EC02F06E
:102EAE0072EC07F000C017F501C018F502C019F555
:102EBE0003C01AF50A510B1142E00A0E046E000E01
:102ECE00056E066E076E17C500F018C501F019C520
:102EDE0002F01AC503F0D7EC05F008C000F009C0E7
:102EEE0001F00AC002F00BC003F0000E046E0318CE
:102EFE0008E10450021805E10450011802E10050E7
:102F0E00000A1DE10A0E046E000E056E066E076EB7
:102F1E0017C500F018C501F019C502F01AC503F067
:102F2E00D7EC05F000C017F501C018F502C019F571
:102F3E0003C01AF5010E0A5F000E0B5BBBD7800EA5
:102F4E00006E800E0B19005C02E10A510C0816E3AC
:102F5E000AC523F520EC0CF011C504F012C505F0DE
:102F6E0013C506F014C507F0D4EC02F000C011F53D
:102F7E0001C012F502C013F503C014F511C500F01F
:102F8E0012C501F013C502F014C503F0046A056AF8
:102F9E00066A076A5BEC07F0000ED8A4010E006EFD
:102FAE000052D8B477D011C500F012C501F013C588
:102FBE0002F014C503F072EC07F0000E046E031855
:102FCE0008E10450021805E10450011802E1005016
:102FDE00000A60E1800E006E800E1619005C02E1A0
:102FEE001551010857E215C523F50EEC08F000C087
:102FFE0004F001C005F002C006F003C007F011C5D1
:10300E0000F012C501F013C502F014C503F0E7EC91
:10301E000AF05F0E046E700E056E090E066E810EBE
:10302E00076E70EC05F0010ED8B0000E006E005267
:10303E0006E0090E0501155F000E165B05D00501B1
:10304E00080E155F000E165B15C523F50EEC08F085
:10305E0000C004F001C005F002C006F003C007F086
:10306E0011C500F012C501F013C502F014C503F02E
:10307E00E7EC0AF072EC07F000C017F501C018F586
:10308E0002C019F503C01AF50501116B126B136B13
:10309E00146B38D011C500F012C501F013C502F043
:1030AE0014C503F072EC07F000C017F501C018F557
:1030BE0002C019F503C01AF517C500F018C501F0C6
:1030CE0019C502F01AC503F00DEC0CF000C004F0A7
:1030DE0001C005F002C006F003C007F011C500F0F4
:1030EE0012C501F013C502F014C503F009EC0CF083
:1030FE0000C011F501C012F502C013F503C014F59E
:10310E00156B166B010E0C6F0C510A0A34E00CC5D0
:10311E0000F0000E016E026E036E00360090013656
:10312E000236033600360090013602360336E50EBF
:10313E000024F66E6B0E0120F76E000E0220F86E64
:10314E000900F5CF01F00900F5CF02F00900F5CF27
:10315E0003F00900F5CF04F004501A5D08E10350A6
:10316E00195D05E10250185D02E10150175D01E2A3
:10317E0002D00C2BC9D70C510A25006E000E0B2164
:10318E00016E155100261651012200500D5F01509F
:10319E000E5B10B704D00A510B1101E104D0010EE1
:1031AE000D5F000E0E5B030E0F15006E10C501F0C5
:1031BE00000E01160050011004E0010E0D5F000E0E
:1031CE000E5B0FA53CD00FA315D00FA104D02D0E72
:1031DE000401FD6F03D004012B0EFD6F01C5E1FF4D
:1031EE0002C5E2FFFDC4E6FF0501014B022B1B4B9E
:1031FE001C2B0CD00FA10AD001C5E1FF02C5E2FFC6
:10320E00200EE66E014B022B1B4B1C2B800E006E0C
:10321E00800E0E19005C02E10D5100080FE201C58F
:10322E00E1FF02C5E2FF300EE66E014B022B1B4B97
:10323E001C2B010E0D5F000E0E5BE8D73DD00FB7B5
:10324E0018D0800E006E800E0E19005C02E10D513A
:10325E0000080FE201C5E1FF02C5E2FF200EE66E97
:10326E00014B022B1B4B1C2B010E0D5F000E0E5B38
:10327E00E8D70FA315D00FA104D02D0E0401FE6FB9
:10328E0003D004012B0EFE6F01C5E1FF02C5E2FF64
:10329E00FEC4E6FF0501014B022B1B4B1C2B0CD071
:1032AE000FA10AD001C5E1FF02C5E2FF200EE66EB6
:1032BE00014B022B1B4B1C2B0CC500F00C070052B4
:1032CE004CE00CC500F0000E016E026E036E00366F
:1032DE000090013602360336003600900136023673
:1032EE000336E50E0024F66E6B0E0120F76E000E0F
:1032FE000220F86E0900F5CF04F00900F5CF05F0B5
:10330E000900F5CF06F00900F5CF07F017C500F05C
:10331E0018C501F019C502F01AC503F0D7EC05F077
:10332E000A0E046E000E056E066E076ED7EC05F0E3
:10333E0008C000F009C001F00AC002F00BC003F093
:10334E00300E002601C5E1FF02C5E2FF00C0E6FF18
:10335E00014B022B1B4B1C2BAFD7800E006E800E29
:10336E001619005C02E1155100080FE201C5E1FFDC
:10337E0002C5E2FF300EE66E014B022B1B4B1C2BDF
:10338E00010E155F000E165BE8D7800E000A006E68
:10339E00800E0B19005C02E10A51080803E2080EC8
:1033AE000C6F02D00AC50CF50C510A5F000E0B5BB8
:1033BE000C5303E110B701D00AD001C5E1FF02C5DD
:1033CE00E2FF2E0EE66E014B022B1B4B1C2B0CC587
:1033DE0023F50EEC08F011C504F012C505F013C567
:1033EE0006F014C507F027EC02F0AEEC0DF000C0AD
:1033FE0017F501C018F502C019F503C01AF50C53E4
:10340E004DE00C070CC500F0000E016E026E036E4F
:10341E000036009001360236033600360090013633
:10342E0002360336E50E0024F66E6B0E0120F76EA3
:10343E00000E0220F86E0900F5CF04F00900F5CF5A
:10344E0005F00900F5CF06F00900F5CF07F017C516
:10345E0000F018C501F019C502F01AC503F0D7EC3B
:10346E0005F00A0E046E000E056E066E076ED7ECA2
:10347E0005F008C000F009C001F00AC002F00BC050
:10348E0003F0300E002601C5E1FF02C5E2FF00C0C9
:10349E00E6FF014B022B1B4B1C2BB1D70A510B1114
:1034AE000FE001C5E1FF02C5E2FF300EE66E014BF3
:1034BE00022B1B4B1C2B010E0A5F000E0B5BEED773
:1034CE000FA71AD0800E006E800E0E19005C02E15E
:1034DE000D51000811E201C5E1FF02C5E2FF200E09
:1034EE00E66E014B022B1B4B1C2B010E0D5F000ECB
:1034FE000E5B0D510E11EFE1CCEF0EF0C00E0F155D
:10350E00016E10C502F0000E0216000E021802E146
:10351E00000E0118D8A480D00FA927D006C5E9FF48
:10352E0007C5EAFFEECF00F0EECF01F000C0E9FFD5
:10353E0001C0EAFFEECF17F5EECF18F5EECF19F575
:10354E00EECF1AF506C5E9FF07C5EAFF040EEE2415
:10355E00006E000EEE20016E06C5E1FF07C5E2FF0C
:10356E0000C0E6FF01C0E6FF2FD006C5E9FF07C584
:10357E00EAFFEECF00F0EECF01F000C0E9FF01C090
:10358E00EAFFEECF00F0EECF01F0000E01BEFF0E0F
:10359E00026E036E00C017F501C018F502C019F5D2
:1035AE0003C01AF506C5E9FF07C5EAFF020EEE24B1
:1035BE00006E000EEE20016E06C5E1FF07C5E2FFAC
:1035CE0000C0E6FF01C0E6FF800E1A19006E800EE5
:1035DE00005C08E1000E195D05E1000E185D02E1C8
:1035EE00000E175D18E2030E0F13000E1013006A83
:1035FE00016A026A036A1751005E1851015A195185
:10360E00025A1A51035A00C017F501C018F502C02C
:10361E0019F503C01AF54ED00FA927D006C5E9FF3C
:10362E0007C5EAFFEECF00F0EECF01F000C0E9FFD4
:10363E0001C0EAFFEECF17F5EECF18F5EECF19F574
:10364E00EECF1AF506C5E9FF07C5EAFF040EEE2414
:10365E00006E000EEE20016E06C5E1FF07C5E2FF0B
:10366E0000C0E6FF01C0E6FF25D006C5E9FF07C58D
:10367E00EAFFEECF00F0EECF01F000C0E9FF01C08F
:10368E00EAFFEECF17F5EECF18F5000E196F1A6F91
:10369E0006C5E9FF07C5EAFF020EEE24006E000E16
:1036AE00EE20016E06C5E1FF07C5E2FF00C0E6FF92
:1036BE0001C0E6FF000E0B1902E1000E0A190FE120
:1036CE00000E006E1A1908E10050191905E100509C
:1036DE00181902E11751000A02E10A4B0B2BC00E1A
:1036EE000F15006E00C005F0AED0010E0C6F0C5120
:1036FE000A0A34E00CC500F0000E016E026E036E75
:10370E000036009001360236033600360090013640
:10371E0002360336E50E0024F66E6B0E0120F76EB0
:10372E00000E0220F86E0900F5CF01F00900F5CF6A
:10373E0002F00900F5CF03F00900F5CF04F00450B4
:10374E001A5D08E10350195D05E10250185D02E1B2
:10375E000150175D01E202D00C2BC9D782D0010EA9
:10376E000C6F0C51080A34E00CC500F0000E016E0F
:10377E00026E036E003600900136023603360036B6
:10378E000090013602360336300E0024F66E6C0EB3
:10379E000120F76E000E0220F86E0900F5CF01F041
:1037AE000900F5CF02F00900F5CF03F00900F5CFBF
:1037BE0004F004501A5D08E10350195D05E1025052
:1037CE00185D02E10150175D01E202D00C2BC9D742
:1037DE0048D0010E0C6F0C510C0A34E00CC500F0F1
:1037EE00000E016E026E036E003600900136023638
:1037FE00033600360090013602360336B50E00242D
:10380E00F66E6B0E0120F76E000E0220F86E0900A8
:10381E00F5CF01F00900F5CF02F00900F5CF03F066
:10382E000900F5CF04F004501A5D08E10350195D4C
:10383E0005E10250185D02E10150175D01E202D070
:10384E000C2BC9D70ED00550000AD8B44ED7055050
:10385E00C00AD8B44AD70550800A81E00550400A04
:10386E00B8E0800E006E800E0B19005C02E10A516A
:10387E000C5D03E20AC50CF50DD0800E0B19006E1F
:10388E00800E005C02E10C510A5D04E20CC50AF5E3
:10389E00000E0B6F0D510E110EE0030E0F15006E84
:1038AE0010C501F0000E01160050011004E0010ECB
:1038BE000D5F000E0E5B800E0B19006E800E0E1942
:1038CE00005C02E10D510A5D05E20A510D5F0B51DC
:1038DE000E5B02D00D6B0E6BC40E0F15016E1051E8
:1038EE00080B026E0250080A02E1400E011808E1B0
:1038FE000D510E1104E0010E0D5F000E0E5B1CD07B
:10390E00C00E0F15016E1051080B026E0250080A00
:10391E0002E1800E011810E1800E006E800E0E196D
:10392E00005C02E10D51020805E2020E0D5F000E71
:10393E000E5B02D00D6B0E6B0FA560D00FA315D0D2
:10394E000FA104D02D0E0401FF6F03D004012B0E26
:10395E00FF6F01C5E1FF02C5E2FFFFC4E6FF0501EF
:10396E00014B022B1B4B1C2B34D00FA10BD001C5CE
:10397E00E1FF02C5E2FF200EE66E014B022B1B4B50
:10398E001C2B27D0C00E0F15016E1051080B026EA6
:10399E000250080A02E1800E01181BE101C5E1FF89
:1039AE0002C5E2FF300EE66E014B022B1B4B1C2BA9
:1039BE000FAB03D0580E006F02D0780E006F01C50A
:1039CE00E1FF02C5E2FF00C5E6FF014B022B1B4BD8
:1039DE001C2B0D510E1111E001C5E1FF02C5E2FFD6
:1039EE00300EE66E014B022B1B4B1C2B010E0D5F96
:1039FE00000E0E5B0D510E11EFE174D00D510E1134
:103A0E0013E00FB711D001C5E1FF02C5E2FF200E92
:103A1E00E66E014B022B1B4B1C2B010E0D5F000E95
:103A2E000E5B0D510E11EFE10FA312D00FA103D0BB
:103A3E002D0E086F02D02B0E086F01C5E1FF02C5D7
:103A4E00E2FF08C5E6FF014B022B1B4B1C2B0CD0D3
:103A5E000FA10AD001C5E1FF02C5E2FF200EE66EFE
:103A6E00014B022B1B4B1C2BC00E0F15016E105160
:103A7E00080B026E0250080A02E1400E01180BE11B
:103A8E0001C5E1FF02C5E2FF300EE66E014B022BCF
:103A9E001B4B1C2B27D0C00E0F15016E1051080B9F
:103AAE00026E0250080A02E1800E01181BE101C5E8
:103ABE00E1FF02C5E2FF300EE66E014B022B1B4BFF
:103ACE001C2B0FAB03D0580E096F02D0780E096F66
:103ADE0001C5E1FF02C5E2FF09C5E6FF014B022B5E
:103AEE001B4B1C2B800E006E800E0B19005C02E12E
:103AFE000A510C5D0BE201C5E1FF02C5E2FF300E7B
:103B0E00E66E014B022B1B4B1C2BECD70AC500F0AB
:103B1E000BC501F0010E0A5F000E0B5B0050011089
:103B2E00D8B42AD1C00E0F15006E00C01DF50AD1F3
:103B3E000AC500F00BC501F0000E0BBFFF0E026EA2
:103B4E00036E0036009001360236033600360090C2
:103B5E00013602360336E50E0024F66E6B0E01209A
:103B6E00F76E000E0220F86E0900F5CF04F0090082
:103B7E00F5CF05F00900F5CF06F00900F5CF07F0F7
:103B8E0017C500F018C501F019C502F01AC503F0EB
:103B9E00D7EC05F00A0E046E000E056E066E076E6B
:103BAE00D7EC05F008C000F009C001F00AC002F021
:103BBE000BC003F0300E00240C6FD3D00FAB45D0EA
:103BCE000AC500F00BC501F0000E0BBFFF0E026E12
:103BDE00036E003600900136023603360036009032
:103BEE00013602360336300E0024F66E6C0E0120BE
:103BFE00F76E000E0220F86E0900F5CF04F00900F2
:103C0E00F5CF05F00900F5CF06F00900F5CF07F066
:103C1E0017C500F018C501F019C502F01AC503F05A
:103C2E00D7EC05F00F0E0016000E01160216031645
:103C3E00A70E0024F66E6C0E0120F76E000E022009
:103C4E00F86E0900F5CF0CF544D00AC500F00BC58F
:103C5E0001F0000E0BBFFF0E026E036E00360090D9
:103C6E000136023603360036009001360236033630
:103C7E00300E0024F66E6C0E0120F76E000E022040
:103C8E00F86E0900F5CF04F00900F5CF05F0090034
:103C9E00F5CF06F00900F5CF07F017C500F018C5EF
:103CAE0001F019C502F01AC503F0D7EC05F00F0E9E
:103CBE000016000E011602160316850E0024F66E6F
:103CCE006C0E0120F76E000E0220F86E0900F5CF83
:103CDE000CF547D00AC500F00BC501F0000E0BBF66
:103CEE00FF0E026E036E003600900136023603366A
:103CFE0000360090013602360336B50E0024F66EFD
:103D0E006B0E0120F76E000E0220F86E0900F5CF43
:103D1E0004F00900F5CF05F00900F5CF06F0090013
:103D2E00F5CF07F017C500F018C501F019C502F060
:103D3E001AC503F0D7EC05F0070E00140C6F300E09
:103D4E000C270FD01D51000AD8B4F2D61D51C00A4F
:103D5E00D8B4EED61D51800AD8B430D71D51400AC2
:103D6E00B9E001C5E1FF02C5E2FF0CC5E6FF014B5C
:103D7E00022B1B4B1C2BCAD60FA71AD0800E006E1F
:103D8E00800E0E19005C02E10D51000811E201C512
:103D9E00E1FF02C5E2FF200EE66E014B022B1B4B2C
:103DAE001C2B010E0D5F000E0E5B0D510E11EFE17F
:0E3DBE00CCEF0EF01BC500F01CC501F012008A
:103DCC00C7B409D01F0EC514016E0150000A03E1DF
:0A3DDC00010E006E01D0006A120013
:103DE600E50E0401F96F040EFA6FE0C401F5E1C4B3
:103DF60002F5E2C403F5E3C404F5E4C405F5F90EDF
:103E06000501066F040E076FC7EC0EF000C0F7F44D
:103E160001C0F8F400500401E025E16E0150E121F3
:0E3E2600E26EE66AF7C400F0F8C401F0120084
:103E3400086A096A100E0C6E0134083609360450FB
:103E4400085E0550D8A0053C095ED8B007D00450E0
:103E540008260550D8B0053C0926D890003601360E
:063E64000C2EEAD712004B
:103E6A00220E0C6E086A096A0A6A0B6A0C06D8B432
:103E7A001FD0D8900B320A3209320832033202328A
:103E8A0001320032D8A0F2D70C06D8B409D00450B7
:103E9A0008260550092206500A2207500B22EAD7A3
:103EAA00045008260550092206500A2207500B2200
:023EBA001200F4
:103EBC000401E36BE0C4E9FFE1C4EAFFEECFE2F4F6
:103ECC00E251000A0FE0E2C423F5A1EC0DF004016D
:103EDC00E32BE351E025E96E000EE121EA6EEECF13
:063EEC00E2F4EED7120023
:103EF200C26A5A1C006E0050C1160F0EC012C08E4C
:103F0200E0C400F000360090003600900050C2126B
:103F1200C280B5EC0EF0C282C2A201D0FDD7C4CFDE
:103F220001F0006A00C0E1F401C0E2F4C3500012E3
:103F3200000E011200C0E1F401C0E2F4C290000ED2
:103F42000014026E0150800B036E000E031802E192
:103F5200000E021803E00401E16BE26BE1C400F021
:063F6200E2C401F01200B0
:103F680003014C91E0C4FBF46FEC0EF04C8112009D
:103F7800020165530CE0665303E0010E006E01D0A8
:103F8800006A00B002D0899401D089840BD08B5389
:103F980003E0010E016E01D0016A01B002D08994DC
:103FA80001D0898400017E5306E10201735303E1C5
:103FB800875301E103D0010E026E01D0026A02B0FC
:0A3FC80002D0899601D0898612000C
:103FD2009E96E0C4C9FF25C0E1F426C0E2F427C0E2
:103FE200E3F428C0E4F4C7A422D0255026102710F9
:103FF20028101CE00401E151E211E311E4110FE188
:1040020092C2E1FF93C2E2FF040EE66E90C200F09C
:1040120091C201F0BBEC0EF0010E006E3BD0010E1E
:104022000401E15F000EE25BE35BE45BDCD725C0E9
:10403200E1F426C0E2F427C0E3F428C0E4F49EB61B
:1040420022D025502610271028101CE00401E1512F
:10405200E211E311E4110FE192C2E1FF93C2E2FF28
:10406200040EE66E90C200F091C201F0BBEC0EF0BD
:10407200010E006E0FD0010E0401E15F000EE25B43
:10408200E35BE45BDCD7C5BC02D0006A03D0C58425
:06409200020E006E120098
:1040980025C0E2F426C0E3F427C0E4F428C0E5F420
:1040A8000401E06BE16BE151120802E1E0518E0876
:1040B80008E388DE005201E004D00401E04BE12B64
:1040C800F2D70401120EE15D02E18F0EE05D03E319
:1040D8007B0E006E25D0C580C5A021D025502610A6
:1040E800271028101BE0E251E311E411E5110FE15C
:1040F80092C2E1FF93C2E2FF050EE66E90C200F0A5
:1041080091C201F0BBEC0EF0010E006E09D0010E59
:104118000401E25F000EE35BE45BE55BDDD7006A68
:02412800120083
:04412A00C584120036
:10412E00BB50010F006E016A000E0122E0C404F0C4
:10413E00000E056E47EC0EF0060E026E00C004F087
:10414E0001C005F0025005E005320432059EFF0F56
:10415E00FAD7040E016E04C000F0015004E00036E0
:10416E000090FF0FFBD7300E0014036E04C000F05A
:10417E0005C001F001320032019E01320032019E73
:0E418E0000C0BEFF0F0EBD160350BD12120082
:10419C0069C286F46AC287F482C4E1FF83C4E2FF79
:1041AC00200EE66E010E04018225E16E000E8321C5
:1041BC00E26E200EE66E020E8225E16E000E832169
:1041CC00E26E4D0EE66E030E8225E16E000E83212B
:1041DC00E26E410EE66E040E8225E16E000E832126
:1041EC00E26E580EE66E050E8225E16E000E8321FE
:1041FC00E26E3A0EE66E060E8225886F000E832163
:10420C00896F000E875D02E1640E865D0DE3640E1E
:10421C00046E000E056E86C400F087C401F004DE47
:10422C000050300F846F02D0200E846F88C4E1FFE1
:10423C0089C4E2FF84C4E6FF070E8225886F000E56
:10424C008321896F000E875D02E10A0E865D16E3FD
:10425C000A0E046E000E056E86C400F087C401F0D1
:10426C00E3DD0A0E046E000E056EDEDD08C000F004
:10427C0009C001F00050300F856F02D0200E856F01
:10428C0088C4E1FF89C4E2FF85C4E6FF080E8225DD
:10429C00886F000E8321896F0A0E046E000E056E66
:1042AC0086C400F087C401F0BFDD08C000F009C06F
:1042BC0001F0300E002688C4E1FF89C4E2FF00C083
:1042CC00E6FF090E8225E16E000E8321E26E200EC0
:1042DC00E66E0A0E8225E16E000E8321E26E6B0EF5
:1042EC00E66E0B0E8225E16E000E8321E26E670EE8
:1042FC00E66E0C0E8225E16E000E8321E26E200E1E
:10430C00E66E0D0E8225E16E000E8321E26E200E0C
:10431C00E66E0E0E8225E16E000E8321E26E200EFB
:10432C00E66E0F0E8225E16E000E8321E26E200EEA
:10433C00E66E100E8225E16E000E8321E26EE66AB7
:02434C0012005D
:10434E0082C4E9FF83C4EAFFEE500401841905E13B
:10435E0082C400F083C401F010D082C400F083C484
:10436E0001F0824B832B00C0E9FF01C0EAFFEECFC4
:0C437E0000F00052E5E1006A016A120044
:10438A0086C400F004018607005228E082C4E9FFCF
:10439A0083C4EAFFEE50000A0CE082C4E9FF83C43A
:1043AA00EAFF84C4D9FF85C4DAFFEE50DE1801E1C2
:1043BA000FD082C4E9FF83C4EAFF84C4D9FF85C44D
:1043CA00DAFFDE50EE5C006E016A000E015A08D078
:1043DA000401824B832B844B852BD2D7006A016A56
:0243EA001200BF
:1043EC000001C0510201755D04E10001BF510201E1
:1043FC00745D04E3010E0401836F02D00401836B2E
:10440C0083C47EF0825302E0FF0E2A6EAFDD1200F1
:10441C000401856B866B876B886B000E80B0010E78
:10442C000201666F010E0401E06F5DDD0401846B17
:10443C00080E845D0DE2010EE06F55DD00500401A5
:10444C00852701508623000E87238823842BF0D7E1
:10445C00030E006E85C401F086C402F087C403F01D
:10446C0088C404F0005007E00432033202320132F7
:10447C00049EFF0FF8D701C082F402C083F40250EF
:10448C00030802E10150840804E2840E826F030EDB
:10449C00836F82C400F083C401F0000E026E036EC1
:1044AC00840E046E030E056E000E066E000E076E73
:1044BC00D6DC840E046E030E056E000E066E076EBF
:0E44CC00D7EC05F000C074F201C075F21200CA
:1044DA000201655303E066C201F002D08BC201F00B
:1044EA00015203E04F0E026E02D0460E026E02C067
:0444FA0000F01200BC
:1044FE0085C200F0000E016EFF0E046E000E056EFA
:10450E0047EC0EF0640E046E000E056E8CDC00C0DF
:10451E0067F2640E005C03E2640E0201676F120024
:10452E0002018651000805E28605006E00C086F283
:10453E005FD07751550A04E1010E0401DF6F0AD0F6
:10454E0002017751440A04E1020E0401DF6F02D02A
:10455E000401DF6B020165530BE0665304E0010EAC
:10456E000401826F02D00401826B82C483F40BD0EB
:10457E0002018B5304E0010E0401846F02D004018A
:10458E00846B84C483F4850EE06F040EE16F090E14
:10459E00E26F6B0EE36F000EE46F8AC2E5F4000E5D
:1045AE00E66FDFC4E7F4000EE86F74C2E9F475C27B
:1045BE00EAF483C4EBF4000EEC6F87C2EDF4000E48
:1045CE00EE6F73C2EFF4000EF06F8CC2F1F48DC279
:1045DE00F2F468C2F3F4000EF46F79C2F5F47AC205
:1045EE00F6F4F3EC1EF0850EE06F040EE16F5FDC67
:0245FE001200A9
:0E460000B40E0401E06F000EE16F58DC1200F2
:10460E0010D0800E0401826F1AD0C00E826F17D0A8
:10461E00940E826F14D0D40E826F11D0800E826FE2
:10462E000ED004018251010AECE08251020AEDE043
:10463E008251030AEDE08251040AEDE0EFD78305C3
:10464E00006E8251002600C082F400C0FBF46FECB5
:10465E000EF04C910401866B86518425E96E000E96
:10466E008521EA6EEE520CE086518425E96E000E2D
:10467E008521EA6EEECFE0F470DC0401862BECD7D8
:06468E0003014C81120043
:1046940082C402F083C403F002C000F003C001F03E
:1046A400024A032A00C0E9FF01C0EAFFEE5201E01A
:1046B400F3D704018251025C006E83510358016EEA
:0A46C400010E005E000E015A120004
:1046CE00E4DCA00E0401E06F7DDC82C4E0F47ADC51
:1046DE0083C4E0F477DC22DD1A0E0C6EF80E0D6E3C
:0C46EE000D2EFED70C2EFCD70000120091
:1046FA0082C4E0F417DD02016751000820E2675125
:10470A000401825D03E385C268F218D085C200F015
:10471A00000E016E026E036E82C404F0000E056E76
:10472A00066E076E35EC1FF067C204F0000E056EC8
:10473A00066E076ED7EC05F000C068F202D00201DF
:04474A00686B120086
:10474E0025C048F426C049F427C04AF428C04BF4CB
:10475E009E96C5869EB620D025502610271028106E
:10476E001AE00401485149114A114B110DE192C250
:10477E00E1FF93C2E2FF030EE66E90C200F091C21B
:10478E0001F0BBEC0EF008D0010E0401485F000EE4
:10479E00495B4A5B4B5BDED70401C9CF47F44651F8
:1047AE00000A02E1C58A01D0C59A9E96C58825C029
:1047BE0048F426C049F427C04AF428C04BF49EB6EC
:1047CE0020D025502610271028101AE00401485139
:1047DE0049114A114B110DE192C2E1FF93C2E2FF62
:1047EE00030EE66E90C200F091C201F0BBEC0EF02B
:1047FE0008D0010E0401485F000E495B4A5B4B5B1B
:08480E00DED747C400F01200E0
:104816000201625315E0010E0401826F010E836FDF
:104826005B0E846F000E856FEFDE020E0401826F51
:10483600010E836F6C0E846F000E856FE5DEA5D0CA
:10484600020173531FE187531DE100017E531AE0F5
:104856004E0E0401826F040E836F9DDC010E826F83
:10486600010E836F490E846F000E856FCDDE020E3A
:104876000401826F010E836F4E0E846F040E856FE6
:10488600C3DE83D0020165530BE0410E0401496F7C
:10489600750E4A6F740E4B6F6F0E4C6F4D6B0AD0D0
:1048A60004014D0E496F610E4A6F6E0E4B6F750E09
:1048B6004C6F4D6B020184532DE07751550A07E189
:1048C600550E0401466F500E476F486B06D0040123
:1048D600440E466F4E0E476F486B750EE06F030E23
:1048E600E16F960EE26F6C0EE36F000EE46F8AC204
:1048F600E5F4000EE66F78C2E7F4000EE86F460EA8
:10490600E96F040EEA6F490EEB6F040EEC6FF3ECE1
:104916001EF015D00401750EE06F030EE16FB80EA0
:10492600E26F6C0EE36F000EE46F8AC2E5F4000ED0
:10493600E66F490EE76F040EE86FF3EC1EF0010E0A
:10494600826F010E836F750E846F030E856F5CDEBA
:10495600C1DD00C0E7F4610E0401E06F030EE16FF4
:10496600500EE26F6C0EE36F000EE46F74C2E5F456
:1049760075C2E6F4F3EC1EF0020E826F010E836F31
:0C498600610E846F030E856F3FDE12008F
:1049920000017D51291802E1006A41D0F29E040112
:1049A200486B800E006E800E000A005C02E1270E4A
:1049B200485D24E248514625496F000E47214A6F5F
:1049C200280E006E000E016E7DC004F0000E056E12
:1049D20047EC0EF09C0E0026020E012248510024E4
:1049E200E96E000E0120EA6EEECF00F049C4E1FF4D
:1049F2004AC4E2FF00C0E6FF482BD3D7270E462564
:104A0200E16E000E4721E26EE66A00017D51010F60
:104A1200006E030E00147D6FF28E010E006E120006
:104A220025C046F426C047F427C048F428C049F4FC
:104A3200C582C5A220D025502610271028101AE0C2
:104A4200040146514711481149110DE192C2E1FF9B
:104A520093C2E2FF060EE66E90C200F091C201F030
:104A6200BBEC0EF008D0010E0401465F000E475B5E
:084A7200485B495BDED712002E
:104A7A0046C482F448C400F0016A00C083F422DE0E
:104A8A0004014651010F826FFF0E4715836F1ADE2C
:024A9A00120008
:104A9C0004014651640802E2640E466F0A0E465D3C
:104AAC0002E20A0E466F46C485F246C476F221DD58
:104ABC00030E0401826F76C283F403DE020172538B
:104ACC0003E067C282F413DE010E0201866F92DDF1
:044ADC0028DD1200BF
:104AE000000E0401471902E1000E461934E046C4E5
:104AF000E9FF47C4EAFFEE522EE048C482F449C4FD
:104B000083F4C8DD00C086F446C482F447C483F44D
:104B100048C484F449C485F438DC000E011802E16D
:104B2000000E001805E146C400F047C401F015D09E
:104B3000010E04014625826F000E4721836F48C491
:104B4000E9FF49C4EAFFEECF84F401DC00C046F47B
:0C4B500001C047F4C5D7006A016A1200DA
:104B5C000401466B4651060856E381AC1DD0020198
:104B6C0073531AE1340E0C6EF10E0D6E0D2EFED732
:104B7C000C2EFCD70000000081AC0ED08B908B92D9
:104B8C000401E06B97EC20F00201726B686B010E74
:104B9C00736F8986010E636F0201635303E16453E3
:104BAC0001E10AD08B908B920401E06B97EC20F022
:104BBC000201726B686B27D0500E675D006E016A44
:104BCC00000E015A46C404F0000E056E47EC0EF0C0
:104BDC00060E046E000E056E1AEC1FF0500E002629
:104BEC00000E012200C082F482DD9BDC340E0C6EC0
:104BFC00F10E0D6E0D2EFED70C2EFCD70000000012
:084C0C000401462BA7D712009A
:104C140002017751550A07E1550E0401466F500E03
:104C2400476F486B06D00401440E466F4E0E476F23
:104C3400486B020165530BE0410E0401496F750E88
:104C44004A6F740E4B6F6F0E4C6F4D6B0AD004019C
:104C54004D0E496F610E4A6F6E0E4B6F750E4C6FA1
:104C64004D6B750EE06F030EE16F740EE26F6C0E08
:104C7400E36F000EE46F8AC2E5F4000EE66F78C2BB
:104C8400E7F4000EE86F460EE96F040EEA6F490E72
:104C9400EB6F040EEC6FF3EC1EF0010E826F010E4D
:104CA400836F750E846F030E856FAFDC14DC00C058
:104CB400E7F4610E0401E06F030EE16F620EE26F30
:104CC4006C0EE36F000EE46F74C2E5F475C2E6F493
:104CD400F3EC1EF0020E826F010E836F610E846F7F
:084CE400030E856F92DC120043
:104CEC00010E0201866F460E0401E06F040EE16FA7
:104CFC000D0EE26F6C0EE36F000EE46F8EC2E5F4E6
:104D0C008FC2E6F489C2E7F4000EE86F76C2E9F4CC
:104D1C00000EEA6FF3EC1EF0460EE06F040EE16F2E
:064D2C005EEC1FF0120016
:104D3200000E0401475D02E1010E465D04E2010E30
:104D4200466F000E476F4751030802E14651E708DC
:104D520004E2E70E466F030E476F46C469F247C48A
:104D62006AF246C4BFF047C4C0F00EEC22F0010E56
:0E4D7200826FF6EC21F043DC97EC22F0120089
:104D800002018E6B8F6B896B640E766F640E856F7C
:104D90007FEC22F00401826B836B99DC010E04012D
:104DA000826F836B94DC020E0401826F836B8FDC55
:104DB000030E0401826F640E836F89DC040E04010C
:104DC000826F836B84DC050E0401826F836B7FDC52
:024DD0001200CF
:104DD200A70E0401E06F000EE16F5EEC1FF01200FF
:0A4DE2009494BA840C0EBD12120066
:104DEC0004010951550A06E18B808B92010E0201D8
:104DFC00726F05D002018B908B82010E726F500E78
:0C4E0C000401826F74DCE7DFA3DE1200FB
:104E18004CEC20F0A00E0401E06FE9EC1FF009C48F
:104E2800E0F4E9EC1FF0F9DDA10E0401E06FE9EC14
:104E38001FF00401466B87DC00C00AF495EC20F0F3
:064E48000AC400F0120094
:0E4E4E00010E0401FB6F6FEC0EF0DEDC1200B3
:104E5C000401446B456B0A51455D02E10951445D07
:104E6C00D8B007D281AC1DD0020173531AE1340EB5
:104E7C000C6EF10E0D6E0D2EFED70C2EFCD7000015
:104E8C00000081AC0ED08B908B920401E06B97EC00
:104E9C0020F00201726B686B010E736F8986010E34
:104EAC00636F0201635303E1645301E101D0E1D16B
:104EBC000C0E0401466F040E476F65DD0052D8B42A
:104ECC006CD10C0E0401466F040E476F7B0E486FBD
:104EDC00020E496FFFDD0050011014E08B908B9295
:104EEC000401E06B97EC20F00201726B686B010E11
:104EFC00736F530E776F846B8986010E636F00ECB2
:104F0C0023F04BD104010C0E466F040E476F980E24
:104F1C00486F000E496FDEDD005001100EE10C0EE3
:104F2C000401466F040E476F8F0E486F000E496FD9
:104F3C00D1DD0050011001E10ED08B908B92040159
:104F4C00E06B97EC20F00201726B686B010E646FE2
:104F5C0000EC23F022D104010C0E466F040E476FB7
:104F6C00A10E486F000E496FB5DD005001100AE02C
:104F7C00010E0201876F010E0001A06F898600EC03
:104F8C0023F00BD104010C0E466F040E476F7F0EFD
:104F9C00486F000E496F9EDD00C03EF401C03FF427
:104FAC00000E011802E1000E001841E0050E04018C
:104FBC003E25E96E000E3F21EA6E300EEE5C016E6E
:104FCC0001C043F4040E015C30E2020187532DE171
:104FDC0000017E532AE102017751550A11E10401C7
:104FEC00435102018A5D0CE28B0EE16E000EE26E03
:104FFC0004014351E126D8B0E22A010EE66E12D02C
:10500C0002017751440A0EE18A510401435D0AE220
:10501C008B0EE16E000EE26E4351E126D8B0E22A0F
:10502C00010EE66E00EC23F001D0CDDEB6D004010B
:10503C000C0E466F040E476F850E486F000E496FBD
:10504C0049DD00C03EF401C03FF4000E011802E13E
:10505C00000E001838E00401406B416B050E3E2732
:10506C00000E3F233EC4E9FF3FC4EAFF300EEE5C66
:10507C0024E33EC4E9FF3FC4EAFFEE5039081DE3C8
:10508C0040C400F041C401F00A0E046E000E056E1F
:10509C0047EC0EF03EC4E9FF3FC4EAFF300EEE5C75
:1050AC00026E036A000E035A02500024406F035034
:1050BC000120416F3E4B3F2BD5D740C446F441C431
:1050CC0047F431DE6AD00C0E0401466F040E476FB4
:1050DC00C90E486F000E496FFDDC00C03EF401C0E4
:1050EC003FF4000E011802E1000E001828E0040144
:1050FC00426B040E3E27000E3F233EC4E9FF3FC423
:10510C00EAFF300EEE5C17E33EC4E9FF3FC4EAFF52
:10511C00EE50390810E30A0E4203F3CF42F43EC4BA
:10512C00E9FF3FC4EAFF300EEE5C006E00504227F0
:10513C003E4B3F2BE2D742C446F4AADC2ED00C0ED9
:10514C000401466F040E476FC10E486F000E496F85
:10515C00C1DC0050011002E0C3DD1FD004010C0EB5
:10516C00466F040E476FD60E486F000E496FB2DCC7
:10517C00005001100EE10C0E0401466F040E476F37
:10518C00CE0E486F000E496FA5DC0050011001E1F6
:10519C0004D0F0DD00EC23F0A3DD0201635303E146
:1051AC00645301E101D065D004010B6B040E0B5D5F
:1051BC003EE20BC402F0010E006E000E016E0250B6
:1051CC0005E0003600900136FF0FFAD78350001629
:1051DC00000E01160050011027E002017751550A0C
:1051EC0011E104010B5102018A5D0CE28B0EE16EA0
:1051FC00000EE26E04010B51E126D8B0E22A010E3A
:10520C00E66E12D002017751440A0EE18A51040174
:10521C000B5D0AE28B0EE16E000EE26E0B51E12685
:10522C00D8B0E22A010EE66E04010B2BBFD70001A9
:10523C00B3530FE0B36B0EEC22F0826BF6EC21F063
:10524C0097EC22F00201725302E0DEDC02D00BEC90
:10525C0024F0340E0C6EF10E0D6E0D2EFED70C2EAE
:10526C00FCD700000000140E04014427000E452357
:04527C00F2D5120055
:1052800002018C4B8D2B8E4B8F2B8AC289F204012D
:10529000466B8EC247F48FC248F43DEC25F0020EF7
:0E52A0000401826F89C283F467EC23F01200D0
:1052AE00060E0401096F095100085AE281AC1DD0A7
:1052BE00020173531AE1340E0C6EF10E0D6E0D2EAB
:1052CE00FED70C2EFCD70000000081AC0ED08B90C8
:1052DE008B920401E06B97EC20F00201726B686B0D
:1052EE00010E736F8986010E636F0201635303E132
:1052FE00645301E10AD08B908B920401E06B97EC22
:10530E0020F00201726B686B33D0500E675D046E35
:10531E00056A000E055A04010905006E016A000EA9
:10532E00015A47EC0EF0060E046E000E056E1AECD6
:10533E001FF0500E0026000E012200C082F47DECFC
:10534E0023F097EC22F0340E0C6EF10E0D6E0D2E36
:10535E00FED70C2EFCD70000000004010907A3D7CE
:10536E008B908B92E06B97EC20F00201726B686B66
:02537E0012001B
:105380000301FF5102018A1903E0635301E101D0D7
:105390005AD1646B0301FF5102018A5D04E2550E8C
:1053A0000401006F03D00401440E006F00C403F435
:1053B00000C477F2FFC378F2010E0201846F0EEC95
:1053C00022F0010E826FF6EC21F041DD97EC22F025
:1053D000E6C007F4E7C008F4320E0401096F000EBE
:1053E0000A6F3CDD0201635303E1645301E101D024
:1053F000E5D00301FF5102018A5D08E28A510301F1
:10540000FF5D0401016F000E026F08D00301FF5120
:1054100002018A5D0401016F000E026F01C404F4F1
:1054200003C409F4E3DC0AEC26F00401056B045123
:10543000055DD8B0C3D00201635303E1645301E1B9
:1054400001D0BCD004010405006E016A000E015AAF
:10545000000E011802E100500519010ED8A4000E3B
:10546000066F67C282F47DEC23F004010653D8A4D2
:1054700074D0010E0001FF6FF40E0401096F010EDC
:105480000A6FECDC0201635303E1645301E101D0D4
:1054900095D00001FF6B04010351550A03E102019D
:1054A0008A2B02D002018A070EEC22F0826BF6EC06
:1054B00021F00AEC26F097EC22F08B0EE96E000E3C
:1054C000EA6E02018A51E926D8B0EA2AEE5244E097
:1054D0008B0EE16E000EE26E8A51E126D8B0E22A10
:1054E000E66AE5DE635303E1645301E101D066D06F
:1054F000846B530E776F8AC278F20EEC22F0010EA5
:10550000826FF6EC21F0A3DC97EC22F0F40E04019C
:10551000096F010E0A6FA2DC0201635303E16453B9
:1055200001E101D04BD003C477F2FFC378F2010E42
:10553000846F8DDC320E0401096F000E0A6F8EDC61
:105540000201635303E1645301E101D037D003C486
:1055500009F44CDC0AEC26F02ED0010E0001FF6F9E
:1055600004010451010A06E17C0E096F010E0A6F65
:1055700075DC06D0F40E0401096F010E0A6F6EDCB3
:105580000201635303E1645301E101D017D000012C
:10559000FF6B8DDE635303E1645301E103D0010E21
:1055A000626F0CD004010351550A03E102018A2BFA
:1055B00002D002018A070401052B39D704018B9020
:1055C0008B92E06B97EC20F00201726B686B635377
:1055D00003E1645301E108D00001FF5305E0010E2F
:1055E0000201626F0001FF6B040107510001E65DDB
:1055F0000201796F040108510001E75902017A6F35
:10560000846B530E776F8AC278F2FF0E2A6E635353
:1056100003E16453D8B4626B0EEC22F0010E826F8A
:10562000F6EC21F014DC97EC22F00201635309E15F
:10563000645307E125DE640E0401096F000E0A6F52
:085640000DDC0201646B120095
:10564800FFC309F40CEC27F000C001F4000E0401BC
:10565800026F0301FF51010F0401096F0CEC27F0E1
:1056680000C003F0000E046E01C401F0006A03508C
:0856780000120450011212009F
:10568000FF0E0201986FFF0E996FFF0E9A6FFF0ECB
:105690009B6FC26A5A1C006E0050C1160F0EC012DA
:0656A000C08EC280120062
:1056A6000301FF6BCEDF00C0F3F301C0F4F3020E7B
:1056B6000401096F0CEC27F000C089F2030E040107
:1056C600096F0CEC27F000C0F5F30301F451FF0A53
:1056D60002E1FF0EF3190AE102018E6B8F6B0401E2
:1056E600466B476B486B3DEC25F004D0F3C38EF256
:1056F600F4C38FF202018951FF0A07E1896B020E9A
:105706000401826F836B67EC23F00301F551FF0AF6
:1057160004E0F551000A01E00DD0640E0201766F37
:10572600640E856F030E0401826F640E836F67EC4F
:1057360023F004D0F5C376F2F5C385F2760E0201A6
:10574600696F020E6A6F760E0001BF6F020EC06FA0
:0A5756007E6B2A6A7FEC22F012003D
:10576000420E0301556F1B0E566F230E576F050E29
:10577000586FFF0E5D6FFF0E5E6F000E5F6F000EC5
:10578000606FFF0E596FFF0E5A6F000E5B6F000EB9
:105790005C6FFF0E446FFF0E456F000E466F000EEC
:1057A000476FAC8A900EAB6E948E949C9EAA03D0E9
:0857B000AECF00F0FBD71200A0
:1057B8000900F5CFE6FF0006FBE10106F9E112005A
:1057C800CC0E0201946F3D0E956F000E966F000E81
:1057D800976F980E03013C6F400E3D6F000E3E6FB1
:1057E800000E3F6F220E516F4A0E526F000E536F1C
:1057F800000E546F4E0E4D6F470E4E6F460E4F6F94
:10580800040E506FD20E486F3F0E496FE00E4A6F7C
:10581800040E4B6F2A0E406F410E416F000E426F0F
:10582800000E436F949894968B988B9694889486E0
:0A583800C79EC79C380EC66E120012
:08584200BE6ABD98BD9A120078
:10584A0083A003D0010E00018B6F83A203D0000155
:10585A00010E8C6F83A403D00001010E8D6F83A605
:0A586A0003D00001010E8E6F120042
:105874008B0EE16E000EE26E02018A51E126D8B071
:10588400E22AE66A7751550A3BE18A51010F046E18
:10589400040E045C18E28B0EE96E000EEA6E0450EE
:1058A400E926D8B0EA2AEE520CE08B0EE16E000E27
:1058B400E26E0450E126D8B0E22AE66A04C000F0A1
:1058C400AED0042AE5D7046A8A51045C18E28B0E30
:1058D400E96E000EEA6E0450E926D8B0EA2AEE52C8
:1058E4000CE08B0EE16E000EE26E0450E126D8B09F
:1058F400E22AE66A04C000F092D0042AE5D78DD0EB
:105904007751440A42E18AC204F0045000081EE2BE
:105914000404006E016A000E015A8B0E0024E96E25
:10592400000E0120EA6EEE520FE00404006E016ADC
:10593400000E015A8B0E0024E16E000E0120E26E6F
:10594400E66A0404006E6BD00406DFD78A51010FA7
:10595400046E040E045C18E28B0EE96E000EEA6E0F
:105964000450E926D8B0EA2AEE520CE08B0EE16E20
:10597400000EE26E0450E126D8B0E22AE66A04C0C2
:1059840000F04DD0042AE5D748D0FF0E056E0A0E6C
:10599400086E000E096E046A040E045C2FE28B0E7E
:1059A400E96E000EEA6E0450E926D8B0EA2AEECF7A
:1059B40000F0005201E120D08A51045C07E38A51CF
:1059C400045C026E036A000E035A06D004508A5D1A
:1059D400026E036A000E035A02C006F003C007F009
:1059E4000950035C02E10850025C06E206C008F0BC
:1059F40007C009F004C005F0042ACED70550FF0AF9
:105A04000CE08B0EE16E000EE26E0550E126D8B07C
:105A1400E22AE66A05C000F002D0FF0E006E120012
:105A2400F3C346F4F4C347F4F90E0401486F000EBF
