:04000000F8EF20F005
:1000080000C01EF001C01DF002C01CF003C01BF0B0
:1000180004C01AF005C019F008C018F009C017F09C
:100028000AC016F00BC015F0E1CF23F0E2CF24F0A0
:10003800E9CF21F0EACF22F0F3CF1FF0F4CF20F080
:10004800F2AA14D0F2A412D0F294C20ED76EF70E10
:10005800D66E010E0001C06F010ED025006E000E95
:10006800D121016E00C0D0F001C0D1F09DA00DD00B
:100078009EA00BD000019E90FE0ECF6E0C0ECE6E91
:10008800665302E08B7A01D08B9A9DAA88D09EAAEB
:1000980086D0ABA202D0AB98AB88AECFB1F202014A
:1000A800B1513C0A02E10001D26B0001300ED25D71
:1000B8000FE29D0EE16E010EE26ED251E126D8B03C
:1000C800E22AB1C2E6FFD251010F006E00C0D2F0A1
:1000D8000201B1513E0A63E1050E0001D25D5DE304
:1000E80001019D513C0A59E10001D451010F006EF4
:1000F800030E0014016E01C0B0F20150D3194DE097
:10010800D2C0AFF2800E000A006E800E005C03E1E0
:100118000201AF51260803E20201260EAF6F020169
:10012800AE6BAF51AE5D22E2280E006E000E016E7E
:10013800D4C004F0000E056EA1EC08F0ED0E002608
:10014800000E0122AE510024E16E000E0120E26E85
:100158009D0EE96E010EEA6EAE51E926D8B0EA2A84
:10016800EECF00F000C0E6FFAE2BDBD7280E006E06
:10017800000E016ED4C004F0000E056EA1EC08F06C
:10018800ED0E0026000E0122AF510024E16E000E94
:100198000120E26EE66AB0C2D4F00001D26B1FC043
:1001A800F3FF20C0F4FF1EC000F01DC001F01CC00A
:1001B80002F01BC003F01AC004F019C005F018C003
:1001C80008F017C009F016C00AF015C00BF021C0DE
:1001D800E9FF22C0EAFF23C0E1FF24C0E2FF1100CB
:1001E8000B820BAEFEEF00F003680268016800683E
:0801F8000A360232FF0E12006C
:0E020000026A016A006A086A036A000E1200B0
:10020E000B840BAE12EF01F0010E036E026A016A4F
:0A021E00006A0A360232FF0E1200D9
:080228000AAE029E000E120056
:100230000CB05AEF01F00CA200EF02F00E6A000EB3
:10024000026471EF01F0F00E0214D8A43CEF01F04B
:10025000023A01380F0B02260138F00B016E00380C
:100260000F0B01260038F00B006E08380F0B00262C
:100270000838F00B086E0E84D89002BE55EF01F0DE
:1002800008360036013602360E2A02BE55EF01F05E
:1002900008360036013602360E2A02BE55EF01F04E
:1002A00008360036013602360E2A0E500364F6EF89
:1002B00001F0035E0BBC08AEFBEF01F0D880800EAE
:1002C00008640030000E002201220222D8A0FBEFB9
:1002D00001F0023201320032034A00EF02F0FBEF7C
:1002E00001F001C002F000C001F008C000F0086A8F
:1002F000000E0E860264A8EF01F0F00E0214D8A4DE
:1003000090EF01F0023A01380F0B02260138F00B92
:10031000016E00380F0B01260038F00B006E0E84C2
:10032000D89002BE55EF01F00036013602360E2A93
:1003300002BE55EF01F00036013602360E2A02BE2B
:1003400055EF01F00036013602360E2A55EF01F066
:1003500001C002F000C001F0006A000E0E960E8887
:100360000264D5EF01F0F00E0214D8A4C0EF01F042
:10037000023A01380F0B02260138F00B016E0E8491
:10038000D89002BE55EF01F0013602360E2A02BEA9
:1003900055EF01F0013602360E2A02BE55EF01F08C
:1003A000013602360E2A55EF01F001C002F0016A53
:1003B000000E0E86026405EF02F0F00E0214D8A4BF
:1003C000E4EF01F0023A0E84D89002BE55EF01F03E
:1003D00002360E2A02BE55EF01F002360E2A02BE88
:1003E00055EF01F002360E2A55EF01F0010E0C6EAA
:1003F0000EDF08EF02F0020E0C6E16DF08EF02F0BF
:10040000040E0C6EF1DE08EF02F0080E0C6EF8DE42
:020410001200D8
:100412000B800BAE15EF02F0026A0AAEFF0E026EFF
:0C042200016E006E0A360232FF0E12005E
:10042E000134083609360450085E0550D8A0053C44
:10043E00095E003601360F0E0C6E01340836093691
:10044E00045000A006D0085E0550D8A0053C095EF9
:10045E0005D008260550D8B0053C092600360136D1
:10046E000C2EEBD700B006D0045008260550D8B09D
:08047E00053C092600001200F4
:10048600086A096A000E07620364C8EF02F00250A8
:1004960006180A6E075003267E0ED8A059EF02F002
:1004A600035ED8B0CCEF02F05DEF02F0035ED8A099
:1004B600D0EF02F0028E068E02C00EF001C00BF0E5
:1004C60000C00DF000500402F4CF0CF001500502FC
:1004D600F4CF00F0F3CF08F00402F3500C26F450EA
:1004E6000822000E00220D500502F3500C26F4508F
:1004F6000822000E002202500402F3500826F4508F
:10050600002202500502016A000E0122F350002665
:10051600F45001220D500602F3500826F450002232
:10052600026A000E012202220B500602F350002638
:10053600F4500122000E02220E500602F35001264C
:10054600F450022202BEB0EF02F008360036013641
:1005560002360306D8B4D0EF02F0C3EF02F0D8801B
:10056600800E08640030000E002201220222D8A06C
:10057600C3EF02F0023201320032034ACCEF02F03E
:100586000AAE029E000ED2EF02F0010E36DED2EF68
:1005960002F0020E26DED2EF02F0040E35DE120065
:0805A6000B6A0B86FF0E120028
:1005AE000D6A086A0050D8B4000C04180A6E0ABE10
:1005BE000D1E0B6A04AE02D0041E042A00AE02D039
:1005CE00001E002A005004100A6E0ABE1FD00450EE
:1005DE00085E003600340836045008260036060E33
:1005EE000C6E00340836045000B0085E00A00826D9
:1005FE0000360C2EF6D700A008260BB015D00DAE87
:10060E00000C001E002A081E082A000C04AE09D099
:10061E0000BE04D00050086E006AF1D7006A002AAE
:10062E00000C001E0B2AD3D7082A0450085CD8A44D
:0E063E00E6D7086A002A00AEE2D7FF0C1200D1
:10064C00025006180E6E086A096A0B6A035007649A
:10065C0019EF04F006500A6E068E028E03500B6ED4
:10066C000750036E000E0B6469EF03F00B50075E2E
:10067C00D8B40AEF04F0070E0764D8EF03F0075E56
:10068C0000C008F001C000F002C001F0026A074E81
:10069C000AEF04F00764ADEF03F0075E00C008F04A
:1006AC0001C000F0016A074E0AEF04F007648BEFFB
:1006BC0003F0075E00C008F0006A074E0AEF04F072
:1006CC00076472EF03F00AC002F005C001F004C029
:1006DC0000F0086A36EF05F0030E07647DEF03F0B7
:1006EC00075E08380F0B086E074E0AEF04F0D8901F
:1006FC000832074E0AEF04F0D8900832074E0AEF82
:10070C0004F0D89008320AEF04F0030E07649CEF53
:10071C0003F0075E08380F0B086E0038F00B082644
:10072C0000380F0B006E074E0AEF04F0D890003221
:10073C000832074E0AEF04F0D89000320832074E08
:10074C000AEF04F0D890003208320AEF04F0030EDE
:10075C000764C4EF03F0075E08380F0B086E00380F
:10076C00F00B082600380F0B006E0138F00B00263A
:10077C0001380F0B016E074E0AEF04F0D8900132CE
:10078C0000320832074E0AEF04F0D89001320032E2
:10079C000832074E0AEF04F0D890013200320832CA
:1007AC000AEF04F0030E0764F5EF03F0075E083858
:1007BC000F0B086E0038F00B082600380F0B006E7C
:1007CC000138F00B002601380F0B016E0238F00BCC
:1007DC00012602380F0B026E074E0AEF04F0D89078
:1007EC000232013200320832074E0AEF04F0D89080
:1007FC000232013200320832074E0AEF04F0D89070
:10080C000232013200320832096A000E0EAEFEEFDF
:10081C0004F0081E001E011E021E082A00220122DE
:10082C000222FEEF04F00750D8A41FEF04F036EFBD
:10083C0005F0096A02C00AF0028E068E0750035CAE
:10084C00076ED8B4F1EF04F0070E0764BFEF04F0A5
:10085C00075E0450096E0550046E0650056E066A5C
:10086C00074EF1EF04F0070E076494EF04F0075EF7
:10087C000450096E0550046E056A074EF1EF04F042
:10088C00070E076472EF04F0075E0450096E046AE9
:10089C00074EF1EF04F0070E076459EF04F00AC09D
:1008AC0002F036EF05F0030E076464EF04F0075E08
:1008BC0009380F0B096E074EF1EF04F0D89009328E
:1008CC00074EF1EF04F0D8900932074EF1EF04F027
:1008DC00D8900932F1EF04F0030E076483EF04F0B3
:1008EC00075E09380F0B096E0438F00B0926043823
:1008FC000F0B046E074EF1EF04F0D890043209325E
:10090C00074EF1EF04F0D89004320932074EF1EFA4
:10091C0004F0D89004320932F1EF04F0030E0764AE
:10092C00ABEF04F0075E09380F0B096E0438F00BBF
:10093C00092604380F0B046E0538F00B0426053815
:10094C000F0B056E074EF1EF04F0D8900532043210
:10095C000932074EF1EF04F0D89005320432093217
:10096C00074EF1EF04F0D890053204320932F1EF62
:10097C0004F0030E0764DCEF04F0075E09380F0B7C
:10098C00096E0438F00B092604380F0B046E053879
:10099C00F00B042605380F0B056E0638F00B0526F8
:1009AC0006380F0B066E074EF1EF04F0D8900632A6
:1009BC00053204320932074EF1EF04F0D8900632BA
:1009CC00053204320932074EF1EF04F0D8900632AA
:1009DC00053204320932086A000E0EAEFEEF04F046
:1009EC00091E041E051E061E092A042205220622C3
:1009FC0009500826045000220550012206500222FC
:100A0C000EBE15EF05F0D8A024EF05F0023201322E
:100A1C0000320832033E24EF05F030EF05F0D8B079
:100A2C002AEF05F0000E081E001E011E021E082AE9
:100A3C000022012202220A7E2AEF05F0010E0C6E22
:100A4C0018EC01F038EF05F0020E0C6E18EC01F00A
:100A5C0038EF05F0040E0C6EF4EC00F038EF05F0F6
:060A6C00000E0C6E1200EA
:100A7200086A080E0C6E003408360450085ED8B0BE
:0E0A820002D00826D89000360C2EF5D71200B0
:100A90006E0E0201A95DD8A0C3D0640E046EA9C277
:100AA00000F0E7DF120E0024056E066A000E062233
:100AB00005C000F006C001F0000E06BEFF0E026E7B
:100AC000036E003600900136023603360036009081
:100AD000013602360336720E0024F66E450E0120F2
:100AE000F76E000E0220F86E0900F5CF00F0090045
:100AF000F5CF01F00900F5CF02F00900F5CF03F0C2
:100B0000000E046E000E056E000E066E7E0E076E61
:100B1000BADC00C0AAF201C0ABF202C0ACF203C062
:100B2000ADF2640E046EA9C200F0A3DF08C000F0AD
:100B30000A0E046E9EDF090E0024056E066A000E82
:100B4000062205C000F006C001F0000E06BEFF0E32
:100B5000026E036E00360090013602360336003610
:100B60000090013602360336720E0024F66E450EF2
:100B70000120F76E000E0220F86E0900F5CF00F09C
:100B80000900F5CF01F00900F5CF02F00900F5CF1B
:100B900003F0AAC204F0ABC205F0ACC206F0ADC2CD
:100BA00007F071DC00C0AAF201C0ABF202C0ACF2E7
:100BB00003C0ADF20A0E046EA9C200F05ADF08C0ED
:100BC00000F000C001F0000E026E036E046E0136EC
:100BD00001900236033604360136019002360336A0
:100BE0000436720E0124F66E450E0220F76E000EDA
:100BF0000320F86E0900F5CF00F00900F5CF01F0F1
:100C00000900F5CF02F00900F5CF03F0AAC204F005
:100C1000ABC205F0ACC206F0ADC207F034DCAFD019
:100C2000A9510A08D8B07CD00A0E046EA9C200F0FF
:100C300020DF090E0024056E066A000E062205C09C
:100C400000F006C001F0000E06BEFF0E026E036E3D
:100C50000036009001360236033600360090013629
:100C600002360336720E0024F66E450E0120F76E32
:100C7000000E0220F86E0900F5CF00F00900F5CF54
:100C800001F00900F5CF02F00900F5CF03F0000EE6
:100C9000046E000E056E000E066E7E0E076E43ECAF
:100CA00002F000C0AAF201C0ABF202C0ACF203C075
:100CB000ADF20A0E046EA9C200F0DBDE08C000F03F
:100CC00000C001F0000E026E036E046E013601904A
:100CD00002360336043601360190023603360436F6
:100CE000720E0124F66E450E0220F76E000E0320F0
:100CF000F86E0900F5CF00F00900F5CF01F009000A
:100D0000F5CF02F00900F5CF03F0AAC204F0ABC2A0
:100D100005F0ACC206F0ADC207F043EC02F02FD0F4
:100D2000A9C200F0000E016E026E036E0036009044
:100D3000013602360336003600900136023603369D
:100D4000720E0024F66E450E0120F76E000E022092
:100D5000F86E0900F5CF00F00900F5CF01F00900A9
:100D6000F5CF02F00900F5CF03F0000E046E000E7F
:100D7000056E000E066E7E0E076E43EC02F012004A
:100D80000B6A0C6A0A6A086A0350D8B448EF07F085
:100D9000028E9E0E035E03BED3EF06F0D8B4D3EFEF
:100DA00006F038EF07F0036C080E035CD8A005EFDF
:100DB00007F0036E083600C008F001C000F002C062
:100DC00001F0026A080E035CD8A005EF07F0036E7D
:100DD000083600C008F001C000F0016A080E035C8C
:100DE000D8A005EF07F0036E083600C008F0006ACF
:100DF000080E035CD8A005EF07F0036E0836086AFA
:100E00000350D8A4D89011EF07F00350D8B411EFD5
:100E100007F0D8900232013200320832032E09EF77
:100E200007F00BBC08A022EF07F0D8A022EF07F0D4
:100E3000082AD8B4002AD8B4012AD8B4022A02BE9B
:100E40004CEF07F00AAE48EF07F0021E011E001E2D
:100E5000081E082AD8B4002AD8B4012AD8B4022A15
:100E600048EF07F0026A016A006A086A48EF07F073
:100E70000B800BAE52EF07F0026A0AAE52EF07F09A
:100E8000026E016E006E086E0A36023252EF07F0F3
:100E9000000E0C6A53EF07F0010E0C6E09EC02F025
:100EA00053EF07F0FF0E0250036E0150026E005028
:080EB000016E0850006E1200F3
:100EB8000450000A08E10550000A05E1FF0E006E23
:100EC8007F0E016E58D00D6A096A086A0150001039
:100ED800D8B4000C015005180A6E0ABE0D1E0B6A24
:100EE80005AE05D0041E051E042AD8B4052A01AE95
:100EF80005D0001E011E002AD8B4012A0150051091
:100F08000A6E0ABE10D017EC02F00BB020D00DAE5E
:100F1800000C001E011E002AD8B4012A081E091E52
:100F2800082AD8B4092A000C05AE0DD001BE07D096
:100F38000150096E0050086E016A006AE8D7016A1C
:100F4800006A002A000C011E001E0B2ADDD7082AA1
:100F5800D8B4092A0450085CD8A4D9D70550095C2C
:100F6800D8A4D5D7096A086A002AD8B4012A01AEDC
:080F7800CED70000FF0C1200AF
:100F80000201A951390806E3300EA95D03E3010E01
:080F9000006E01D0006A12009E
:100F98000050086E0150006E0250016E0350026E40
:100FA800036A0B6A0C6A9E0E036E0A6A020E0C6EC6
:060FB80018EC01F012002C
:080FBE00067E26EC03F0120090
:100FC6000450000A12E10550000A0FE10650000A1B
:100FD6000CE10750000A09E1FF0E006EFF0E016EDC
:100FE6007F0E026EFF0E036EA8D0086A096A0750CC
:100FF600D8B48EEF08F00350D8B493EF08F002503F
:1010060006180A6E028E068E0E6A02C008F001C02D
:101016000CF000C00DF004500D5E0550D8A0053C44
:101026000C5E0650D8A0063C085E086A0C6A0D6A7B
:10103600D8A025EF08F0D8900232013200320832EB
:10104600010E0E6E0750035ED8A032EF08F07E0E3A
:101056000E240326D8B098EF08F038EF08F07E0E7D
:101066000E240326D8A09DEF08F0180E0B6E0D3641
:101076000C3608360036013602360E360450005E4F
:101086000550D8A0053C015E0650D8A0063C025E7D
:1010960006340E120EA053EF08F00D805EEF08F036
:1010A600045000260550D8B0053C01260650D8B09D
:1010B600062802260D900B2E3AEF08F084EF08F072
:1010C600D8900036013602360E360450005E0550C2
:1010D600D8A0053C015E0650D8A0063C025E063448
:1010E6000E10010B0D26D8B00C2AD8B4082AD8A4A5
:1010F60084EF08F008320C320D32032AD8B498EF88
:1011060008F00AAE089E0850026E0C50016E0D5093
:10111600006EA0EF08F0010ED3EC02F0A0EF08F08D
:10112600020E00EC01F0A0EF08F0040EF4EC00F063
:0C113600A0EF08F0080E07EC01F012001A
:101142000B6A0A6A096A00500402F4CF09F0F3CF6D
:1011520008F001500502F4CF0BF0F3CF0AF0005073
:101162000502F3500926F4500A22E86A0B220150C4
:101172000402F3500926F4500A22E86A0B2208C03E
:1011820000F009C001F00AC002F00BC003F0120027
:101192000B6A0C6A086A0350D8B44DEF09F002C01A
:1011A2000AF0028E9E0E035E03AE3DEF09F0036C61
:1011B200080E035CD8A00AEF09F0036E083600C0DF
:1011C20008F001C000F002C001F0026A080E035CE0
:1011D200D8A00AEF09F0036E083600C008F001C07B
:1011E20000F0016A080E035CD8A00AEF09F0036E52
:1011F200083600C008F0006A080E035CD8A00AEFA7
:1012020009F0036E0836086A0350D8A4D89016EF86
:1012120009F00350D8B416EF09F0D8900232013227
:1012220000320832032E0EEF09F00BBC08A027EFA4
:1012320009F0D8A027EF09F0082AD8B4002AD8B4B8
:10124200012AD8B4022A02BE51EF09F00AAE4DEFCC
:1012520009F0021E011E001E081E082AD8B4002A28
:10126200D8B4012AD8B4022A4DEF09F0026A016A01
:10127200006A086A4DEF09F00B800BAE58EF09F0D7
:10128200026A0AAE58EF09F0026E016E006E086E35
:101292000A36023258EF09F00C6A000E59EF09F0D3
:1012A200010E0C6E000E09EC02F059EF09F0FF0E70
:1012B2000250036E0150026E0050016E0850006E23
:0212C200120018
:1012C40003500718D8A476EF09F002500618D8A4E2
:1012D40076EF09F001500518D8A476EF09F0005014
:0E12E4000418D8B4D8841200D8941200120056
:1012F200800E0201A919006E800E000A005CD8B0AF
:101302006DD1A9510008016E01C0A9F2800E011829
:10131200006E800E6E0A005CD8A0C0D0640E046E0F
:10132200A9C200F0D7EC02F0120E0024056E000EE6
:1013320000BEFF0E066E000E062205C000F006C0BB
:1013420001F0000E06BEFF0E026E036E0036009024
:101352000136023603360036009001360236033675
:10136200720E0024F66E450E0120F76E000E02206A
:10137200F86E0900F5CFAAF20900F5CFABF2090029
:10138200F5CFACF20900F5CFADF2640E046EA9C23E
:1013920000F0D7EC02F008C000F00A0E046ED7ECA1
:1013A20002F0090E0024056E000E00BEFF0E066E4E
:1013B200000E062205C000F006C001F0000E06BEB7
:1013C200FF0E026E036E00360090013602360336BF
:1013D20000360090013602360336720E0024F66E95
:1013E200450E0120F76E000E0220F86E0900F5CFBF
:1013F20000F00900F5CF01F00900F5CF02F0090075
:10140200F5CF03F0AAC204F0ABC205F0ACC206F0FD
:10141200ADC207F043EC02F000C0AAF201C0ABF289
:1014220002C0ACF203C0ADF20A0E046EA9C200F013
:10143200D7EC02F008C000F000C001F0000E00BEC0
:10144200FF0E026E036E046E013601900236033601
:10145200043601360190023603360436720E012438
:10146200F66E450E0220F76E000E0320F86E09009C
:10147200F5CF00F00900F5CF01F00900F5CF02F039
:101482000900F5CF03F0AAC204F0ABC205F0ACC26A
:1014920006F0ADC207F043EC02F007D2800E0A0A52
:1014A200006E800EA919005C71E20A0E046EA9C2D8
:1014B20000F0D7EC02F0090E0024056E000E00BE0B
:1014C200FF0E066E000E062205C000F006C001F0F7
:1014D200000E06BEFF0E026E036E0036009001364D
:1014E2000236033600360090013602360336720E9B
:1014F2000024F66E450E0120F76E000E0220F86EF3
:101502000900F5CFAAF20900F5CFABF20900F5CF39
:10151200ACF20900F5CFADF20A0E046EA9C200F0DA
:10152200D7EC02F008C000F000C001F0000E00BECF
:10153200FF0E026E036E046E013601900236033610
:10154200043601360190023603360436720E012447
:10155200F66E450E0220F76E000E0320F86E0900AB
:10156200F5CF00F00900F5CF01F00900F5CF02F048
:101572000900F5CF03F0AAC204F0ABC205F0ACC279
:1015820006F0ADC207F043EC02F08FD1A9C200F021
:10159200000EA9BFFF0E016E026E036E00360090B0
:1015A2000136023603360036009001360236033623
:1015B200720E0024F66E450E0120F76E000E022018
:1015C200F86E0900F5CF00F00900F5CF01F009002F
:1015D200F5CF02F00900F5CF03F067D1800EA9190B
:1015E200006E800E6E0A005CD8A0C0D0640E046E3D
:1015F200A9C200F0D7EC02F0120E0024056E000E14
:1016020000BEFF0E066E000E062205C000F006C0E8
:1016120001F0000E06BEFF0E026E036E0036009051
:1016220001360236033600360090013602360336A2
:101632003E0E0024F66E450E0120F76E000E0220CB
:10164200F86E0900F5CFAAF20900F5CFABF2090056
:10165200F5CFACF20900F5CFADF2640E046EA9C26B
:1016620000F0D7EC02F008C000F00A0E046ED7ECCE
:1016720002F0090E0024056E000E00BEFF0E066E7B
:10168200000E062205C000F006C001F0000E06BEE4
:10169200FF0E026E036E00360090013602360336EC
:1016A200003600900136023603363E0E0024F66EF6
:1016B200450E0120F76E000E0220F86E0900F5CFEC
:1016C20000F00900F5CF01F00900F5CF02F00900A2
:1016D200F5CF03F0AAC204F0ABC205F0ACC206F02B
:1016E200ADC207F043EC02F000C0AAF201C0ABF2B7
:1016F20002C0ACF203C0ADF20A0E046EA9C200F041
:10170200D7EC02F008C000F000C001F0000E00BEED
:10171200FF0E026E036E046E01360190023603362E
:101722000436013601900236033604363E0E012499
:10173200F66E450E0220F76E000E0320F86E0900C9
:10174200F5CF00F00900F5CF01F00900F5CF02F066
:101752000900F5CF03F0AAC204F0ABC205F0ACC297
:1017620006F0ADC207F043EC02F09FD0800E0A0AE9
:10177200006E800EA919005C71E20A0E046EA9C205
:1017820000F0D7EC02F0090E0024056E000E00BE38
:10179200FF0E066E000E062205C000F006C001F024
:1017A200000E06BEFF0E026E036E0036009001367A
:1017B20002360336003600900136023603363E0EFC
:1017C2000024F66E450E0120F76E000E0220F86E20
:1017D2000900F5CFAAF20900F5CFABF20900F5CF67
:1017E200ACF20900F5CFADF20A0E046EA9C200F008
:1017F200D7EC02F008C000F000C001F0000E00BEFD
:10180200FF0E026E036E046E01360190023603363D
:101812000436013601900236033604363E0E0124A8
:10182200F66E450E0220F76E000E0320F86E0900D8
:10183200F5CF00F00900F5CF01F00900F5CF02F075
:101842000900F5CF03F0AAC204F0ABC205F0ACC2A6
:1018520006F0ADC207F043EC02F027D0A9C200F0B7
:10186200000EA9BFFF0E016E026E036E00360090DD
:101872000136023603360036009001360236033650
:101882003E0E0024F66E450E0120F76E000E022079
:10189200F86E0900F5CF00F00900F5CF01F009005C
:0C18A200F5CF02F00900F5CF03F01200B2
:1018AE000A6A0350D8A40A800750D8A40A820A50A4
:1018BE00D8B4BAEF0CF0030AD8B473EF0CF00AB038
:1018CE006EEF0CF006AEB8EF0CF0B6EF0CF002AE09
:1018DE00B6EF0CF0B8EF0CF00250800B0A6E029EC1
:1018EE000650800B069E0A18D8B484EF0CF00A50EE
:1018FE00D8B4B6EF0CF0B8EF0CF00750035CD8B4C8
:10190E008EEF0CF0D8A0AAEF0CF0B0EF0CF0065052
:10191E00025CD8B498EF0CF0D8A0AAEF0CF0B0EFA0
:10192E000CF00550015CD8B4A2EF0CF0D8A0AAEFD1
:10193E000CF0B0EF0CF00450005CD8B4BAEF0CF021
:10194E00D8B0B0EF0CF00A52D8B4B8EF0CF0B6EF36
:10195E000CF00A52D8B4B6EF0CF0B8EF0CF0D880F9
:0E196E001200D8901200D880D8841200120007
:10197C000B6A0A6A096A086A0E6A0334083604504C
:10198C00085E0550D8A0053C095E0650D8A0063C60
:10199C000A5E0750D8A0073C0B5EE86AD8A0010E7F
:1019AC000E5E0336070E0C6E0334083609360A3603
:1019BC000B360E36045003A012D0085E0550D8A08A
:1019CC00053C095E0650D8A0063C0A5E0750D8A01C
:1019DC00073C0B5EE86AD8A0010E0E5E11D00826FB
:1019EC000550D8B0053C09260650D8B0063C0A264E
:1019FC000750D8B0073C0B26E86AD8B0010E0E266B
:101A0C0003360C2ED1D70234083609360A360B367B
:101A1C000E36045003A012D0085E0550D8A0053C29
:101A2C00095E0650D8A0063C0A5E0750D8A0073CB9
:101A3C000B5EE86AD8A0010E0E5E11D00826055088
:101A4C00D8B0053C09260650D8B0063C0A260750EB
:101A5C00D8B0073C0B26E86AD8B0010E0E26023629
:101A6C00070E0C6E0234083609360A360B360E3663
:101A7C00045002A012D0085E0550D8A0053C095EA7
:101A8C000650D8A0063C0A5E0750D8A0073C0B5E57
:101A9C00E86AD8A0010E0E5E11D008260550D8B009
:101AAC00053C09260650D8B0063C0A260750D8B08B
:101ABC00073C0B26E86AD8B0010E0E2602360C2E17
:101ACC00D1D70134083609360A360B360E36045097
:101ADC0002A012D0085E0550D8A0053C095E065045
:101AEC00D8A0063C0A5E0750D8A0073C0B5EE86AFB
:101AFC00D8A0010E0E5E11D008260550D8B0053CBA
:101B0C0009260650D8B0063C0A260750D8B0073C28
:101B1C000B26E86AD8B0010E0E260136070E0C6EA5
:101B2C000134083609360A360B360E36045001A03D
:101B3C0012D0085E0550D8A0053C095E0650D8A00E
:101B4C00063C0A5E0750D8A0073C0B5EE86AD8A09A
:101B5C00010E0E5E11D008260550D8B0053C0926A2
:101B6C000650D8B0063C0A260750D8B0073C0B26C6
:101B7C00E86AD8B0010E0E2601360C2ED1D70034EF
:101B8C00083609360A360B360E36045001A012D030
:101B9C00085E0550D8A0053C095E0650D8A0063C4E
:101BAC000A5E0750D8A0073C0B5EE86AD8A0010E6D
:101BBC000E5E11D008260550D8B0053C09260650FB
:101BCC00D8B0063C0A260750D8B0073C0B26E86A6A
:101BDC00D8B0010E0E260036070E0C6E00340836F7
:101BEC0009360A360B360E36045000A012D0085EA9
:101BFC000550D8A0053C095E0650D8A0063C0A5EEC
:101C0C000750D8A0073C0B5EE86AD8A0010E0E5E08
:101C1C0011D008260550D8B0053C09260650D8B07E
:101C2C00063C0A260750D8B0073C0B26E86AD8B009
:101C3C00010E0E2600360C2ED1D700B00ED004505B
:101C4C0008260550D8B0053C09260650D8B0063CED
:0C1C5C000A260750D8B0073C0B261200E7
:101C68000201A16BA26B956B966B83C200F084C2D4
:101C780001F085C202F0010E8327000E842385231C
:101C880000C0F6FF01C0F7FF02C0F8FF0900F5CF5A
:101C980000F000C092F20052D8B442EF1EF0925108
:101CA800250A0BE081C2E1FF82C2E2FF92C2E6FF91
:101CB800814B822BA14BA22BD8D7936B946B956B3E
:101CC800966B23D09587010E8327000E84238523E6
:101CD80059D09581010E8327000E8423852352D085
:101CE8009583010E8327000E842385234BD0968786
:101CF800010E8327000E8423852344D09585010E89
:101D08008327000E842385233DD083C2F6FF84C237
:101D1800F7FF85C2F8FF0900F5CF01F001502D0A41
:101D2800D1E083C2F6FF84C2F7FF85C2F8FF09003D
:101D3800F5CF01F00150200ACCE083C2F6FF84C23F
:101D4800F7FF85C2F8FF0900F5CF01F001502B0A13
:101D5800C7E083C2F6FF84C2F7FF85C2F8FF090017
:101D6800F5CF01F00150230AC2E083C2F6FF84C216
:101D7800F7FF85C2F8FF0900F5CF01F00150300ADE
:101D8800BDE001D09ED795A301D0959195A701D02C
:101D9800959583C2F6FF84C2F7FF85C2F8FF090054
:101DA800F5CF00F0000E016E00C0A9F2C0EC07F0FC
:101DB800005236E0936B946B93C200F094C201F02A
:101DC8000A0E046E000E056EA1EC08F083C2F6FF41
:101DD80084C2F7FF85C2F8FF0900F5CF02F0025070
:101DE8000024936F000E0120946F300E935F000E55
:101DF800945B010E8327000E8423852383C2F6FF9C
:101E080084C2F7FF85C2F8FF0900F5CF00F0000E85
:101E1800016E00C0A9F2C0EC07F00052CDE133D04A
:101E280083C2F6FF84C2F7FF85C2F8FF0900F5CF29
:101E380001F001502A0A27E186C2E9FF87C2EAFFBA
:101E4800EECF00F0EECF01F000C0E9FF01C0EAFFDD
:101E5800EECF93F2EECF94F286C2E9FF87C2EAFF93
:101E6800020EEE24006E000EEE20016E86C2E1FF27
:101E780087C2E2FF00C0E6FF01C0E6FF010E83272C
:101E8800000E8423852383C2F6FF84C2F7FF85C230
:101E9800F8FF0900F5CF01F001502E0A70E1010E9C
:101EA8008327000E8423852383C2F6FF84C2F7FFAD
:101EB80085C2F8FF0900F5CF01F001502A0A28E190
:101EC80086C2E9FF87C2EAFFEECF00F0EECF01F04D
:101ED80000C0E9FF01C0EAFFEECF90F2EECF91F229
:101EE80086C2E9FF87C2EAFF020EEE24006E000EEA
:101EF800EE20016E86C2E1FF87C2E2FF00C0E6FF66
:101F080001C0E6FF010E8327000E8423852336D007
:101F1800906B916B83C2F6FF84C2F7FF85C2F8FF0E
:101F28000900F5CF00F0000E016E00C0A9F2C0EC68
:101F380007F0005223E090C200F091C201F00A0EAF
:101F4800046E000E056EA1EC08F083C2F6FF84C291
:101F5800F7FF85C2F8FF0900F5CF02F00250002410
:101F6800906F000E0120916F300E905F000E915B14
:101F7800010E8327000E84238523CCD703D0906BD2
:101F8800916B968983C200F084C201F085C202F089
:101F9800010E8327000E8423852300C0F6FF01C0AD
:101FA800F7FF02C0F8FF0900F5CF92F2F9D0A1C2FD
:101FB80000F0A2C201F046EF1EF09589E3D796859E
:101FC8002ED1958B96812BD1968329D1958D27D1AA
:101FD80026D1958B958F23D186C2E9FF87C2EAFF68
:101FE800EECF00F0EECF01F000C0E9FF01C0EAFF3C
:101FF800EECF9DF2EECF9EF286C2E9FF87C2EAFFDE
:10200800020EEE24006E000EEE20016E86C2E1FF85
:1020180087C2E2FF00C0E6FF01C0E6FF000E9E197E
:1020280002E1000E9D1904E1C90E9D6F000E9E6F1E
:102038009F6BA06B9F519D25E96EA0519E21EA6E72
:10204800EE520BE0010E9F25006E000EA021016EDE
:1020580000C09FF201C0A0F2EDD7905191110AE0A3
:10206800A051915D02E19F51905D04E290C29FF200
:1020780091C2A0F29451A05D02E193519F5D05E2E7
:102088009F51935FA051945B02D0936B946B95B76B
:1020980016D093C200F094C201F0010E935F000EB7
:1020A800945B005001100BE081C2E1FF82C2E2FFA5
:1020B800200EE66E814B822BA14BA22BEAD79FC242
:1020C80002F0A0C203F0010E9F5D006E000EA05941
:1020D800016E00C09FF201C0A0F20250031019E087
:1020E8009DC2E9FF9EC2EAFF81C2E1FF82C2E2FF10
:1020F800EECFE6FF814B822B010E9D25006E000E70
:102108009E21016E00C09DF201C09EF2A14BA22B40
:10211800D6D795A716D093C200F094C201F0010E4D
:10212800935F000E945B005001100BE081C2E1FF49
:1021380082C2E2FF200EE66E814B822BA14BA22BBE
:10214800EAD793D586C2E9FF87C2EAFFEECF00F04F
:10215800EECF01F000C0E9FF01C0EAFFEECF92F236
:1021680086C2E9FF87C2EAFF020EEE24006E000E67
:10217800EE20016E86C2E1FF87C2E2FF00C0E6FFE3
:1021880001C0E6FF920E9D6F020E9E6F010E9F6FBB
:10219800000EA06F62D7C00E9513000E96133FD0A5
:1021A8009251000AD8B403D792516C0AD8B405D713
:1021B80092514C0AD8B401D79251660AD8B4FFD6C6
:1021C8009251450AD8B4FDD69251650AD8B4FAD6C8
:1021D8009251670AD8B4F8D692516F0AD8B4F6D695
:1021E8009251640AD8B4F4D69251690AD8B4F0D698
:1021F8009251700AD8B4EDD69251580AD8B4E9D69B
:102208009251780AD8B4E6D69251730AD8B4E4D673
:102218009251630A97E09251750ABDE0B3D7000E58
:102228009515006E9651070B016E00500110D8B439
:10223800E9EF19F096A904D0060E906F000E916F81
:1022480086C2E9FF87C2EAFFEECF00F0EECF01F0C9
:1022580000C0E9FF01C0EAFFEECF97F2EECF98F297
:10226800EECF99F2EECF9AF286C2E9FF87C2EAFF73
:10227800040EEE24006E000EEE20016E86C2E1FF11
:1022880087C2E2FF00C0E6FF01C0E6FF046A056AF4
:10229800066A076A97C200F098C201F099C202F074
:1022A8009AC203F057EC0CF0010ED8B0000E006E85
:1022B800005205E0997F030E9513000E96139B6B51
:1022C8009C6B97C200F098C201F099C202F09AC2C2
:1022D80003F0046A056A066A076A62EC09F0000EF0
:1022E800D8A4010E006E0052D8B48AD09AC200F069
:1022F800016A026A036AFF0E0016000E01167E0EBE
:10230800005E000E015A00C09BF201C09CF2010E53
:10231800005E000E015A00C09BF201C09CF2030E41
:10232800046E000E056EA1EC08F000C09BF201C01F
:102338009CF20A0E046E000E056E5CEC07F000C0FD
:102348009BF201C09CF2800E0118026E800E025CA6
:1023580002E1000E005C05E2010E02019B5F000E27
:102368009C5B02019B510008A96F79EC09F097C2A8
:1023780004F098C205F099C206F09AC207F043EC3F
:1023880002F000C09DF201C09EF202C09FF203C09D
:10239800A0F2000E046E000E056E000E066E7F0E93
:1023A800076E9DC200F09EC201F09FC202F0A0C25B
:1023B80003F057EC0CF0010ED8B0000E006E00527E
:1023C80005E0010E9B5F000E9C5B1AD0000E046EA8
:1023D800000E056E200E066E820E076E9DC200F07E
:1023E8009EC201F09FC202F0A0C203F057EC0CF0AD
:1023F800000ED8B0010E006E005202E09B4B9C2BE1
:10240800800E006E800E9C19005C02E19B51000852
:1024180003E3010E926F02D09BC292F296B118D0DC
:1024280096A315D0800E9C19006E7F0E005C02E109
:10243800FC0E9B5D0BE3800E9C19006E800E9119BB
:10244800005C02E190519B5D01E201D001D0EFD325
:102458009051911106E096A304D0010E905F000EF2
:10246800915B9151000802E19051080803E2080EBF
:10247800926F02D090C292F297C200F098C201F017
:1024880099C202F09AC203F0046A056A066A076AEA
:1024980062EC09F0000ED8A4010E006E0052D8B408
:1024A8004BD19BC2A9F279EC09F000C004F001C03D
:1024B80005F002C006F003C007F097C200F098C20A
:1024C80001F099C202F09AC203F0E3EC07F000C0F1
:1024D80097F201C098F202C099F203C09AF2020181
:1024E80092510008A96F79EC09F000C004F001C00E
:1024F80005F002C006F003C007F097C200F098C2CA
:1025080001F099C202F09AC203F0E3EC07F000C0B0
:10251800A3F201C0A4F202C0A5F203C0A6F2A3C2AE
:1025280097F2A4C298F2A5C299F2A6C29AF2A3C2DF
:1025380000F0A4C201F0A5C202F0A6C203F0C0ECEC
:1025480006F0CCEC07F000C004F001C005F002C0B2
:1025580006F003C007F0A3C200F0A4C201F0A5C2B0
:1025680002F0A6C203F0DFEC07F0000E046E000EC6
:10257800056E000E066E7E0E076E57EC0CF0000E10
:10258800D8B0010E006E00521AE097C200F098C24F
:1025980001F099C202F09AC203F0000E046E000E18
:1025A800056E000E066E7E0E076E26EC03F000C068
:1025B80097F201C098F202C099F203C09AF297C24A
:1025C80000F098C201F099C202F09AC203F0C0EC80
:1025D80006F002019251010F096E0A6A000E0A22E2
:1025E80009C004F00AC005F0000E0ABEFF0E066E10
:1025F800076E04360490053606360736043604900E
:10260800053606360736D60E0424F66E450E052026
:10261800F76E000E0620F86E0900F5CF05F00900E8
:10262800F5CF06F00900F5CF07F00900F5CF08F05F
:102638000850035C08E10750025C05E10650015CA4
:1026480002E10550005C1EE3020197C200F098C247
:1026580001F099C202F09AC203F0CD0E046ECC0EBE
:10266800056E4C0E066E7B0E076E43EC02F000C042
:1026780097F201C098F202C099F203C09AF29B4BFC
:102688009C2B5AD097C200F098C201F099C202F070
:102698009AC203F0C0EC06F092C204F0000E056E78
:1026A800066E076E0436049005360636073604367D
:1026B8000490053606360736D60E0424F66E450E07
:1026C8000520F76E000E0620F86E0900F5CF05F01C
:1026D8000900F5CF06F00900F5CF07F00900F5CF9E
:1026E80008F00850035C08E10750025C05E1065059
:1026F800015C02E10550005C1FE2020197C200F094
:1027080098C201F099C202F09AC203F0000E046E5A
:10271800000E056E200E066E820E076E43EC02F068
:1027280000C097F201C098F202C099F203C09AF271
:10273800010E9B5F000E9C5B020196A393D096B797
:1027480091D0800E000A006E800E9119005C02E1A3
:1027580090510A0804E20A0E906F000E916F97C21A
:1027680000F098C201F099C202F09AC203F0C0ECDE
:1027780006F000C09DF201C09EF202C09FF203C0A5
:10278800A0F29D519E119F11A01142E00A0E046E05
:10279800000E056E066E076E9DC200F09EC201F027
:1027A8009FC202F0A0C203F0BEEC0CF008C000F01B
:1027B80009C001F00AC002F00BC003F0000E046E5D
:1027C800031808E10450021805E10450011802E159
:1027D8000050000A1DE1010E905F000E915B0A0E89
:1027E800046E000E056E066E076E9DC200F09EC256
:1027F80001F09FC202F0A0C203F0BEEC0CF000C0D2
:102808009DF201C09EF202C09FF203C0A0F2B9D7A8
:10281800800E9119006E800E005C02E19251905D6D
:1028280021E29051925DA96F79EC09F000C004F0A3
:1028380001C005F002C006F003C007F097C200F01F
:1028480098C201F099C202F09AC203F0E3EC07F0D3
:1028580000C097F201C098F202C099F203C09AF240
:1028680090C292F2050E02019025006E000E912191
:10287800016E0050935F0150945B9051911103E1F8
:1028880096B701D004D0010E935F000E945B030E3F
:102898009515006E96C201F0000E01160050011049
:1028A80004E0010E935F000E945B95A539D095A3C3
:1028B80012D095A103D02D0E886F02D02B0E886FF1
:1028C80081C2E1FF82C2E2FF88C2E6FF814B822B10
:1028D800A14BA22B0CD095A10AD081C2E1FF82C2E4
:1028E800E2FF200EE66E814B822BA14BA22B800EBD
:1028F800006E800E9419005C02E1935100080FE20B
:1029080081C2E1FF82C2E2FF300EE66E814B822B6C
:10291800A14BA22B010E935F000E945BE8D73AD02F
:1029280095B718D0800E006E800E9419005C02E1F5
:10293800935100080FE281C2E1FF82C2E2FF200E3C
:10294800E66E814B822BA14BA22B010E935F000EEA
:10295800945BE8D795A312D095A103D02D0E896F6B
:1029680002D02B0E896F81C2E1FF82C2E2FF89C2C9
:10297800E6FF814B822BA14BA22B0CD095A10AD04C
:1029880081C2E1FF82C2E2FF200EE66E814B822BFC
:10299800A14BA22B97C200F098C201F099C202F095
:1029A8009AC203F0C0EC06F000C09DF201C09EF28E
:1029B80002C09FF203C0A0F292C200F0000E016EA6
:1029C800026E036E0036009001360236033600367A
:1029D8000090013602360336D60E0024F66E450EF8
:1029E8000120F76E000E0220F86E0900F5CF04F002
:1029F8000900F5CF05F00900F5CF06F00900F5CF7D
:102A080007F09DC200F09EC201F09FC202F0A0C272
:102A180003F0BEEC0CF0300E002681C2E1FF82C24A
:102A2800E2FF00C0E6FF814B822BA14BA22B905105
:102A3800911103E196B701D06FD081C2E1FF82C244
:102A4800E2FF2E0EE66E814B822BA14BA22B9251F8
:102A5800905F000E915B92534DE0920792C200F096
:102A6800000E016E026E036E0036009001360236CB
:102A7800033600360090013602360336D60E00249F
:102A8800F66E450E0120F76E000E0220F86E090062
:102A9800F5CF04F00900F5CF05F00900F5CF06F0F1
:102AA8000900F5CF07F09DC200F09EC201F09FC259
:102AB80002F0A0C203F0BEEC0CF00A0E046E000E89
:102AC800056E066E076EBEEC0CF008C000F009C07B
:102AD80001F00AC002F00BC003F0300E002681C2DC
:102AE800E1FF82C2E2FF00C0E6FF814B822BA14BCF
:102AF800A22BB1D7905191110FE081C2E1FF82C2A0
:102B0800E2FF300EE66E814B822BA14BA22B010E09
:102B1800905F000E915BEED795AB0BD081C2E1FFC1
:102B280082C2E2FF450EE66E814B822BA14BA22B9F
:102B38000AD081C2E1FF82C2E2FF650EE66E814BD8
:102B4800822BA14BA22B800E9C19006E800E005C7C
:102B580002E1000E9B5D11E29B5100089B6F9C51A6
:102B6800000E9C5781C2E1FF82C2E2FF2D0EE66E85
:102B7800814B822BA14BA22B0AD081C2E1FF82C2DA
:102B8800E2FF2B0EE66E814B822BA14BA22B0A0E85
:102B9800046E000E056E9BC200F09CC201F05CEC56
:102BA80007F0300E002681C2E1FF82C2E2FF00C0BA
:102BB800E6FF0201814B822BA14BA22B0A0E046E69
:102BC800000E056E9BC200F09CC201F05CEC07F0A1
:102BD80008C000F009C001F0300E002681C2E1FFF4
:102BE80082C2E2FF00C0E6FF0201814B822BA14BAB
:102BF800A22B95A71AD0800E006E800E9419005C47
:102C080002E19351000811E281C2E1FF82C2E2FFB2
:102C1800200EE66E814B822BA14BA22B010E935FF7
:102C2800000E945B93519411EFE139EF0EF096A3E7
:102C3800F3D0800E9C19006E800E005C02E1000E3D
:102C48009B5D0AE2010E9B5D006E000E9C59016EB1
:102C58000050905F0150915B97C200F098C201F05C
:102C680099C202F09AC203F0C0EC06F000C09DF2CF
:102C780001C09EF202C09FF203C0A0F2010E926F43
:102C880092510A0A34E092C200F0000E016E026E00
:102C9800036E003600900136023603360036009087
:102CA800013602360336D60E0024F66E450E012094
:102CB800F76E000E0220F86E0900F5CF01F009004A
:102CC800F5CF02F00900F5CF03F00900F5CF04F0C5
:102CD8000450A05D08E103509F5D05E102509E5D30
:102CE80002E101509D5D01E202D0922BC9D79251B9
:102CF800905DA76F000E9159A86FA7C290F2A8C265
:102D080091F29DC200F09EC201F09FC202F0A0C2E3
:102D180003F0CCEC07F000C004F001C005F002C0DD
:102D280006F003C007F097C200F098C201F099C2FC
:102D380002F09AC203F0DFEC07F000C0A3F201C072
:102D4800A4F202C0A5F203C0A6F2A7C2A9F279ECC8
:102D580009F0A3C204F0A4C205F0A5C206F0A6C2F9
:102D680007F043EC02F0000E046E000E056E000E34
:102D7800066E7E0E076E26EC03F0C0EC06F000C06F
:102D88009DF201C09EF202C09FF203C0A0F29051D2
:102D9800911142E00A0E046E000E056E066E076E73
:102DA8009DC200F09EC201F09FC202F0A0C203F0D3
:102DB800BEEC0CF008C000F009C001F00AC002F037
:102DC8000BC003F0000E046E031808E1045002184B
:102DD80005E10450011802E10050000A1DE10A0E45
:102DE800046E000E056E066E076E9DC200F09EC250
:102DF80001F09FC202F0A0C203F0BEEC0CF000C0CC
:102E08009DF201C09EF202C09FF203C0A0F2010E23
:102E1800905F000E915BBBD7800E006E800E9119FB
:102E2800005C02E190510C0816E390C2A9F248EC4C
:102E380005F097C204F098C205F099C206F09AC24C
:102E480007F026EC03F000C097F201C098F202C028
:102E580099F203C09AF297C200F098C201F099C2A1
:102E680002F09AC203F0046A056A066A076A62EC0D
:102E780009F0000ED8A4010E006E0052D8B477D025
:102E880097C200F098C201F099C202F09AC203F00A
:102E9800C0EC06F0000E046E031808E10450021896
:102EA80005E10450011802E10050000A60E1800EBB
:102EB800006E800E9C19005C02E19B51010857E2EC
:102EC8009BC2A9F279EC09F000C004F001C005F03A
:102ED80002C006F003C007F097C200F098C201F0E4
:102EE80099C202F09AC203F0E3EC07F05F0E046E99
:102EF800700E056E090E066E810E076E57EC0CF00B
:102F0800010ED8B0000E006E005206E0090E020154
:102F18009B5F000E9C5B05D00201080E9B5F000EB4
:102F28009C5B9BC2A9F279EC09F000C004F001C0D7
:102F380005F002C006F003C007F097C200F098C27F
:102F480001F099C202F09AC203F0E3EC07F0C0EC7A
:102F580006F000C09DF201C09EF202C09FF203C0BD
:102F6800A0F20201976B986B996B9A6B38D097C255
:102F780000F098C201F099C202F09AC203F0C0ECC6
:102F880006F000C09DF201C09EF202C09FF203C08D
:102F9800A0F29DC200F09EC201F09FC202F0A0C242
:102FA80003F0CCEC07F000C004F001C005F002C04B
:102FB80006F003C007F097C200F098C201F099C26A
:102FC80002F09AC203F0DFEC07F000C097F201C0EC
:102FD80098F202C099F203C09AF29B6B9C6B010EA7
:102FE800926F92510A0A34E092C200F0000E016E0C
:102FF800026E036E00360090013602360336003644
:103008000090013602360336D60E0024F66E450EC1
:103018000120F76E000E0220F86E0900F5CF01F0CE
:103028000900F5CF02F00900F5CF03F00900F5CF4C
:1030380004F00450A05D08E103509F5D05E10250D3
:103048009E5D02E101509D5D01E202D0922BC9D73D
:1030580092519025006E000E9121016E9B51002621
:103068009C5101220050935F0150945B96B704D0A5
:103078009051911101E104D0010E935F000E945B11
:10308800030E9515006E96C201F0000E0116005051
:10309800011004E0010E935F000E945B95A539D0F2
:1030A80095A312D095A103D02D0E8A6F02D02B0EB6
:1030B8008A6F81C2E1FF82C2E2FF8AC2E6FF814BCA
:1030C800822BA14BA22B0CD095A10AD081C2E1FF83
:1030D80082C2E2FF200EE66E814B822BA14BA22B0F
:1030E800800E006E800E9419005C02E19351000876
:1030F8000FE281C2E1FF82C2E2FF300EE66E814B31
:10310800822BA14BA22B010E935F000E945BE8D794
:103118003AD095B718D0800E006E800E9419005CD6
:1031280002E1935100080FE281C2E1FF82C2E2FF8F
:10313800200EE66E814B822BA14BA22B010E935FD2
:10314800000E945BE8D795A312D095A103D02D0E5D
:103158008B6F02D02B0E8B6F81C2E1FF82C2E2FF20
:103168008BC2E6FF814B822BA14BA22B0CD095A1E1
:103178000AD081C2E1FF82C2E2FF200EE66E814BD7
:10318800822BA14BA22B92C200F0920700524CE076
:1031980092C200F0000E016E026E036E00360090BF
:1031A8000136023603360036009001360236033601
:1031B800D60E0024F66E450E0120F76E000E022092
:1031C800F86E0900F5CF04F00900F5CF05F0090005
:1031D800F5CF06F00900F5CF07F09DC200F09EC2BA
:1031E80001F09FC202F0A0C203F0BEEC0CF00A0E80
:1031F800046E000E056E066E076EBEEC0CF008C07D
:1032080000F009C001F00AC002F00BC003F0300E54
:10321800002681C2E1FF82C2E2FF00C0E6FF814BC7
:10322800822BA14BA22BAFD7800E006E800E9C196B
:10323800005C02E19B5100080FE281C2E1FF82C2FB
:10324800E2FF300EE66E814B822BA14BA22B010EC2
:103258009B5F000E9C5BE8D7800E000A006E800E14
:103268009119005C02E19051080803E2080E926F80
:1032780002D090C292F29251905F000E915B9253ED
:1032880003E196B701D00AD081C2E1FF82C2E2FF12
:103298002E0EE66E814B822BA14BA22B92C2A9F275
:1032A80079EC09F097C204F098C205F099C206F0CB
:1032B8009AC207F043EC02F0C9EC08F000C09DF296
:1032C80001C09EF202C09FF203C0A0F292534DE0EB
:1032D800920792C200F0000E016E026E036E003675
:1032E8000090013602360336003600900136023669
:1032F8000336D60E0024F66E450E0120F76E000E3A
:103308000220F86E0900F5CF04F00900F5CF05F0AA
:103318000900F5CF06F00900F5CF07F09DC200F0CF
:103328009EC201F09FC202F0A0C203F0BEEC0CF0F6
:103338000A0E046E000E056E066E076EBEEC0CF0EB
:1033480008C000F009C001F00AC002F00BC003F089
:10335800300E002681C2E1FF82C2E2FF00C0E6FF14
:10336800814B822BA14BA22BB1D7905191110FE029
:1033780081C2E1FF82C2E2FF300EE66E814B822BF2
:10338800A14BA22B010E905F000E915BEED795A783
:103398001AD0800E006E800E9419005C02E19351E1
:1033A800000811E281C2E1FF82C2E2FF200EE66E50
:1033B800814B822BA14BA22B010E935F000E945BD5
:1033C80093519411EFE139EF0EF0C00E9515016E8F
:1033D80096C202F0000E0216000E021802E1000E5C
:1033E8000118D8A480D095A927D086C2E9FF87C242
:1033F800EAFFEECF00F0EECF01F000C0E9FF01C018
:10340800EAFFEECF9DF2EECF9EF2EECF9FF2EECF27
:10341800A0F286C2E9FF87C2EAFF040EEE24006E1E
:10342800000EEE20016E86C2E1FF87C2E2FF00C0F7
:10343800E6FF01C0E6FF2FD086C2E9FF87C2EAFF98
:10344800EECF00F0EECF01F000C0E9FF01C0EAFFC7
:10345800EECF00F0EECF01F0000E01BEFF0E026EBF
:10346800036E00C09DF201C09EF202C09FF203C02D
:10347800A0F286C2E9FF87C2EAFF020EEE24006EC0
:10348800000EEE20016E86C2E1FF87C2E2FF00C097
:10349800E6FF01C0E6FF800EA019006E800E005CFA
:1034A80008E1000E9F5D05E1000E9E5D02E1000E41
:1034B8009D5D18E2030E9513000E9613006A016ACB
:1034C800026A036A9D51005E9E51015A9F51025A39
:1034D800A051035A00C09DF201C09EF202C09FF2A3
:1034E80003C0A0F24ED095A927D086C2E9FF87C2B3
:1034F800EAFFEECF00F0EECF01F000C0E9FF01C017
:10350800EAFFEECF9DF2EECF9EF2EECF9FF2EECF26
:10351800A0F286C2E9FF87C2EAFF040EEE24006E1D
:10352800000EEE20016E86C2E1FF87C2E2FF00C0F6
:10353800E6FF01C0E6FF25D086C2E9FF87C2EAFFA1
:10354800EECF00F0EECF01F000C0E9FF01C0EAFFC6
:10355800EECF9DF2EECF9EF2000E9F6FA06F86C257
:10356800E9FF87C2EAFF020EEE24006E000EEE208D
:10357800016E86C2E1FF87C2E2FF00C0E6FF01C01C
:10358800E6FF000E911902E1000E90190FE1000EFE
:10359800006EA01908E100509F1905E100509E191E
:1035A80002E19D51000A02E1904B912BC00E951546
:1035B800006E00C005F0AED0010E926F92510A0A5B
:1035C80034E092C200F0000E016E026E036E003607
:1035D8000090013602360336003600900136023676
:1035E8000336D60E0024F66E450E0120F76E000E47
:1035F8000220F86E0900F5CF01F00900F5CF02F0BE
:103608000900F5CF03F00900F5CF04F00450A05DE0
:1036180008E103509F5D05E102509E5D02E1015003
:103628009D5D01E202D0922BC9D782D0010E926F24
:103638009251080A34E092C200F0000E016E026E48
:10364800036E0036009001360236033600360090CD
:10365800013602360336FE0E0024F66E450E0120B2
:10366800F76E000E0220F86E0900F5CF01F0090090
:10367800F5CF02F00900F5CF03F00900F5CF04F00B
:103688000450A05D08E103509F5D05E102509E5D76
:1036980002E101509D5D01E202D0922BC9D748D0CA
:1036A800010E926F92510C0A34E092C200F0000EA3
:1036B800016E026E036E0036009001360236033644
:1036C80000360090013602360336A60E0024F66E48
:1036D800450E0120F76E000E0220F86E0900F5CFA6
:1036E80001F00900F5CF02F00900F5CF03F0090059
:1036F800F5CF04F00450A05D08E103509F5D05E19B
:1037080002509E5D02E101509D5D01E202D0922BC4
:10371800C9D70ED00550000AD8B44ED70550C00AF4
:10372800D8B44AD70550800A81E00550400AB8E06D
:10373800800E006E800E9119005C02E19051925D3E
:1037480003E290C292F20DD0800E9119006E800EA5
:10375800005C02E19251905D04E292C290F2000E88
:10376800916F935194110EE0030E9515006E96C259
:1037780001F0000E01160050011004E0010E935FE5
:10378800000E945B800E9119006E800E9419005CF7
:1037980002E19351905D05E29051935F9151945BE2
:1037A80002D0936B946BC40E9515016E9651080B5D
:1037B800026E0250080A02E1400E011808E1935116
:1037C800941104E0010E935F000E945B1CD0C00EB0
:1037D8009515016E9651080B026E0250080A02E117
:1037E800800E011810E1800E006E800E9419005CA6
:1037F80002E19351020805E2020E935F000E945B0A
:1038080002D0936B946B95A55DD095A312D095A12A
:1038180003D02D0E8C6F02D02B0E8C6F81C2E1FF6E
:1038280082C2E2FF8CC2E6FF814B822BA14BA22B06
:1038380034D095A10BD081C2E1FF82C2E2FF200EF5
:10384800E66E814B822BA14BA22B27D0C00E95157B
:10385800016E9651080B026E0250080A02E1800EB2
:1038680001181BE181C2E1FF82C2E2FF300EE66E61
:10387800814B822BA14BA22B95AB03D0580E8D6F99
:1038880002D0780E8D6F81C2E1FF82C2E2FF8DC245
:10389800E6FF814B822BA14BA22B9351941111E08F
:1038A80081C2E1FF82C2E2FF300EE66E814B822BBD
:1038B800A14BA22B010E935F000E945B93519411C0
:1038C800EFE174D09351941113E095B711D081C2F0
:1038D800E1FF82C2E2FF200EE66E814B822BA14BF4
:1038E800A22B010E935F000E945B93519411EFE1AC
:1038F80095A312D095A103D02D0E8E6F02D02B0E5A
:103908008E6F81C2E1FF82C2E2FF8EC2E6FF814B69
:10391800822BA14BA22B0CD095A10AD081C2E1FF2A
:1039280082C2E2FF200EE66E814B822BA14BA22BB6
:10393800C00E9515016E9651080B026E0250080ACA
:1039480002E1400E01180BE181C2E1FF82C2E2FFF1
:10395800300EE66E814B822BA14BA22B27D0C00ED6
:103968009515016E9651080B026E0250080A02E185
:10397800800E01181BE181C2E1FF82C2E2FF300E16
:10398800E66E814B822BA14BA22B95AB03D0580E30
:103998008F6F02D0780E8F6F81C2E1FF82C2E2FF83
:1039A8008FC2E6FF814B822BA14BA22B800E006EAB
:1039B800800E9119005C02E19051925D0BE281C288
:1039C800E1FF82C2E2FF300EE66E814B822BA14BF3
:1039D800A22BECD790C200F091C201F0010E905FCB
:1039E800000E915B00500110D8B42AD1C00E951575
:1039F800006E00C0A3F20AD190C200F091C201F09B
:103A0800000E91BFFF0E026E036E00360090013665
:103A18000236033600360090013602360336D60EDB
:103A28000024F66E450E0120F76E000E0220F86E97
:103A38000900F5CF04F00900F5CF05F00900F5CF2E
:103A480006F00900F5CF07F09DC200F09EC201F014
:103A58009FC202F0A0C203F0BEEC0CF00A0E046E86
:103A6800000E056E066E076EBEEC0CF008C000F086
:103A780009C001F00AC002F00BC003F0300E0024A8
:103A8800926FD3D095AB45D090C200F091C201F0AF
:103A9800000E91BFFF0E026E036E003600900136D5
:103AA8000236033600360090013602360336FE0E23
:103AB8000024F66E450E0120F76E000E0220F86E07
:103AC8000900F5CF04F00900F5CF05F00900F5CF9E
:103AD80006F00900F5CF07F09DC200F09EC201F084
:103AE8009FC202F0A0C203F0BEEC0CF00F0E00164D
:103AF800000E0116021603161E0E0024F66E460E60
:103B08000120F76E000E0220F86E0900F5CF92F240
:103B180044D090C200F091C201F0000E91BFFF0E98
:103B2800026E036E00360090013602360336003608
:103B38000090013602360336FE0E0024F66E450E5E
:103B48000120F76E000E0220F86E0900F5CF04F090
:103B58000900F5CF05F00900F5CF06F00900F5CF0B
:103B680007F09DC200F09EC201F09FC202F0A0C201
:103B780003F0BEEC0CF00F0E0016000E0116021634
:103B880003162F0E0024F66E460E0120F76E000E67
:103B98000220F86E0900F5CF92F247D090C200F0EB
:103BA80091C201F0000E91BFFF0E026E036E003647
:103BB8000090013602360336003600900136023690
:103BC8000336A60E0024F66E450E0120F76E000E91
:103BD8000220F86E0900F5CF04F00900F5CF05F0D2
:103BE8000900F5CF06F00900F5CF07F09DC200F0F7
:103BF8009EC201F09FC202F0A0C203F0BEEC0CF01E
:103C0800070E0014926F300E92270FD0A351000AAE
:103C1800D8B4F2D6A351C00AD8B4EED6A351800ABC
:103C2800D8B430D7A351400AB9E081C2E1FF82C2BB
:103C3800E2FF92C2E6FF814B822BA14BA22BCAD690
:103C480095A71AD0800E006E800E9419005C02E1D0
:103C58009351000811E281C2E1FF82C2E2FF200E07
:103C6800E66E814B822BA14BA22B010E935F000EB7
:103C7800945B93519411EFE139EF0EF0A1C200F07B
:063C8800A2C201F01200CF
:0E3C8E00ACB202D00000FCD781C2ADFF120024
:103C9C0066C2E9FF67C2EAFFEE500201681905E14E
:103CAC0066C200F067C201F010D066C200F067C2B5
:103CBC0001F0664B672B00C0E9FF01C0EAFFEECFB5
:0C3CCC0000F00052E5E1006A016A1200FD
:103CD80066C202F067C203F002C000F003C001F040
:103CE800024A032A00C0E9FF01C0EAFFEE5201E0E0
:103CF800F3D702016651025C006E67510358016EEA
:0A3D0800010E005E000E015A1200C9
:103D12000201696B66C2E9FF67C2EAFFEECF68F291
:103D22006851000A0EE068C281F2B0DF0201692B1D
:103D320069516625E96E000E6721EA6EEECF68F2E0
:043D4200EFD71200A5
:103D46006AC200F002016A07005228E066C2E9FF73
:103D560067C2EAFFEE50000A0CE066C2E9FF67C2DE
:103D6600EAFF68C2D9FF69C2DAFFEE50DE1801E148
:103D76000FD066C2E9FF67C2EAFF68C2D9FF69C20F
:103D8600DAFFDE50EE5C006E016A000E015A08D0C2
:103D96000201664B672B684B692BD2D7006A016A12
:023DA600120009
:103DA8006B0E02017F6F020E806F66C281F267C2DE
:103DB80082F268C283F269C284F26AC285F27F0E17
:103DC800866F020E876F34EC0EF000C07DF201C0E2
:103DD8007EF200506625E16E01506721E26EE66AC8
:0A3DE8007DC200F07EC201F012005F
:0E3DF200B40E0201666F000E676F8ADF1200CA
:103E0000000E0201091902E1000E081934E008C28F
:103E1000E9FF09C2EAFFEE522EE00AC266F20BC2C7
:103E200067F25ADF00C06AF208C266F209C267F29E
:103E30000AC268F20BC269F286DF000E011802E1C5
:103E4000000E001805E108C200F009C201F015D00B
:103E5000010E02010825666F000E0921676F0AC274
:103E6000E9FF0BC2EAFFEECF68F218DF00C008F2EC
:0C3E700001C009F2C5D7006A016A120007
:0E3E7C003C0E0201666F000E676F45DF1200FC
:103E8A0000016951000805E26905006E00C069F089
:103E9A005DD04750550A04E1010E0201656F09D051
:103EAA004750440A04E10201020E656F02D0020182
:103EBA00656B5D520CE000016A5304E0010E0201D9
:103ECA00086F02D00201086B08C209F20BD0000188
:103EDA00675304E0010E02010A6F02D002010A6B65
:103EEA000AC209F20B0E666F020E676FFA0E686F4E
:103EFA00440E696F000E6A6F68C06BF2000E6C6F39
:103F0A0065C26DF2000E6E6F6EC06FF26FC070F216
:103F1A0009C271F2000E726F66C073F2000E746FFE
:103F2A0052C075F2000E766F70C077F271C078F2E7
:103F3A006BC079F2000E7A6F6CC07BF26DC07CF2B6
:0E3F4A002EDF0B0E666F020E676FDEDE1200BA
:103F5800FF0E0001E16FFF0EE26F000EE36F000E2F
:103F6800E46FFF0EE96FFF0EEA6F000EEB6F000EB5
:103F7800EC6FFF0EE56FFF0EE66F000EE76F000EA9
:103F8800E86FFF0ED96FFF0EDA6FFF0EDB6FFF0EC3
:103F9800DC6FFF0ED56FFF0ED66FFF0ED76FFF0ECB
:103FA800D86FFF0EDD6FFF0EDE6F000EDF6F000EA5
:103FB800E06F949894968B988B9694889486C79E75
:083FC800C79C380EC66E120002
:103FD0008E0E01018D6F3C0E8E6F810E8F6F020E63
:103FE000906FFF0E956FFF0E966F000E976F000E8D
:103FF000986FFF0E916FFF0E926F000E936F000E81
:10400000946FFF0E996FFF0E9A6F000E9B6F000E5C
:104010009C6FAC8A900EAB6E948E949C9EAA03D03B
:08402000AECF00F0FBD7120047
:104028000900F5CFE6FF0006FBE10106F9E1120001
:1040380003C208F204C209F2490E02010A6F000E17
:104048000B6FDADE005001100AE0010E526E530EBB
:10405800476E8986010E486E0DDF13DF73D003C2E9
:1040680008F204C209F25E0E02010A6F000E0B6F1D
:10407800C3DE0050011011E081AC02D0B6DE0CD0D6
:10408800525209E0526A0001666B486A530E476E45
:10409800F1DEF7DE01D0EEDE55D0020103C208F2F0
:1040A80004C209F2530E0A6F000E0B6FA5DE005012
:1040B800011007E0010E5D6E530E476EDBDEE1DE98
:1040C80041D003C208F204C209F22D0E02010A6FA0
:1040D800000E0B6F91DE0050011006E05D6A530E72
:1040E800476EC8DECEDE2ED003C208F204C209F243
:1040F800360E02010A6F000E0B6F7EDE00500110B3
:1041080009E0010E0001666F010E256E8986B2DE98
:10411800B8DE18D003C208F204C209F2260E020162
:104128000A6F000E0B6F68DE005001100AE0525251
:1041380006E10001666B256A9DDEA3DE01D055DE2F
:0641480001D053DE12005D
:10414E000001D351D41902E1006A41D0F29E02015E
:10415E00056B800E006E800E000A005C02E1270ED9
:10416E00055D24E205510325066F000E0421076F3D
:10417E00280E006E000E016ED3C004F0000E056E08
:10418E00A1EC08F0ED0E0026000E012205510024D0
:10419E00E96E000E0120EA6EEECF00F006C2E1FFDE
:1041AE0007C2E2FF00C0E6FF052BD3D7270E03257B
:1041BE00E16E000E0421E26EE66A0001D351010F9A
:1041CE00006E030E0014D36FF28E010E006E1200FD
:1041DE00CD6AFE0ECF6E0C0ECE6E9E909D80CD8063
:0241EE001200BD
:1041F00020EC23F00F01386B92968996396B938CE3
:10420000938EF18E3A6B949A949C948E8B9A3B6B1E
:104210009588B886B06ACF0EAF6EAC84D9DE020E38
:104220000B6E040E0C6EBA0E0D6E0D2EFED70C2EFC
:10423000FCD70B2EFAD70000140EC86E8DDE1A0EB6
:104240000C6EF80E0D6E0D2EFED70C2EFCD7000056
:10425000070ED56EC20ED76EF70ED66EF294F28AA6
:10426000BEDF9D8AF28CF28E870ED56E720E020131
:10427000666F000E676F4DDD81AC13D0525211E1B5
:10428000340E0C6EF10E0D6E0D2EFED70C2EFCD7DB
:104290000000000081AC05D0010E526E8986010E2F
:1042A000486E485255E0486AF0DD0201016B020198
:1042B0000151000A3BE1340E0C6EF10E0D6E0D2E15
:1042C000FED70C2EFCD7000000000001C05302E016
:1042D000C06BDBDD83A80FD081BC0DD0820E0C6ECD
:1042E000DD0E0D6E0D2EFED70C2EFCD7000000004B
:1042F000010E0201016F0201CF0E036F010E046F68
:1043000026DF005212E0CF0E0201086F010E096F86
:10431000C10E0A6F000E0B6F73DD0050011005E037
:1043200081BC03D0010E0201016FC1D7030E0B6ED9
:10433000080E0C6E770E0D6E0D2EFED70C2EFCD7D0
:104340000B2EFAD7526A0001666B256A89969DDDAD
:1043500025524FE0256A99DD0201026B02010251EC
:10436000000A37E1340E0C6EF10E0D6E0D2EFED7E5
:104370000C2EFCD7000000000001C05302E0C06B0F
:1043800084DD83A80DD0820E0C6EDD0E0D6E0D2E19
:10439000FED70C2EFCD700000000010E0201026FB8
:1043A0000201CF0E036F010E046FD1DE005210E048
:1043B000CF0E0201086F010E096FAD0E0A6F000EDD
:1043C0000B6F1EDD0050011003E0010E0201026FB1
:1043D000C5D7030E0B6E080E0C6E770E0D6E0D2EEC
:1043E000FED70C2EFCD70B2EFAD70001666B8996F0
:1043F0004CDD81AE14D00001665311E1340E0C6E19
:10440000F10E0D6E0D2EFED70C2EFCD70000000015
:1044100081AE05D0010E666F010E256E8986CF0E26
:104420000201036F010E046F92DE005207E0CF0E0F
:104430000201036F010E046FFFDDF1D70001C053CD
:0A44400002E0C06B22DD18D7FFD7A1
:1046400010EE25F0B00E006E010E016E4A0EF66EF1
:0E465000440EF76E000EF86E14EC20F012000F
:01444A000071
:07444B005253543A414C00AA
:094452004D4F44453A4D414E0026
:06445B00414C3A4F4E00F7
:0B4461003C41434B2C4F4B3E0D0A002A
:01446C0053FC
:01446D00004E
:09446E00434D442C53544F5000FF
:014477000044
:0A4478004D4F44453A4155544F00A2
:014482000138
:08448300434D442C41434B0062
:01448B000030
:01448C00002F
:01448D00002E
:01448E00002D
:01448F00002C
:01449000002B
:02449100000029
:02449300000027
:02449500000025
:104497003C444154412C45543A302C4449523A301B
:1044A7002C50543A302C5052543A302C414C3A301C
:1044B7002C5552473A302C4E423A302C50574D3AF1
:0B44C700302C5450533A303E0D0A00D8
:0744D2005253543A414C0023
:0C44D9003C41434B2C4552523E0D0A0062
:0144E50000D6
:0844E600434D442C41434B00FF
:0744EE00286E756C6C2900BB
:0244F5000000C5
:0144F70000C4
:0144F80000C3
:0144F90000C2
:1044FA003C444154412C45543A25642C4449523A8F
:10450A0025642C50543A25642C5052543A25642C74
:10451A00414C3A25642C5552473A25642C4E423A6E
:10452A0025642C50574D3A25642C5450533A25642F
:04453A003E0D0A0028
:10453E000000007F000020820000488500007A887D
:10454E0000401C8C0050438F002474928096189665
:10455E0020BC3E99286B6E9CF90215A0EC782DC1FB
:04456E00CAF249E262
:104572000000007FCDCC4C7B0AD723786F120375E5
:1045820017B75171ACC5276EBD37066B95BF56671D
:1045920077CC2B645F700961FFE65B5D08E53C3C0C
:0445A2006042221B36
:1045A60001000000080000004000000000020000BA
:1045B6000010000000800000000004000000200041
:1045C600000000010000000800000040000000009C
:1045D600010000000A00000064000000E80300007B
:1045E60010270000A086010040420F008096980028
:0845F60000E1F50500CA9A3B43
:1045FE00010000001000000000010000001000008B
:10460E00000001000000100000000001000000107A
:10461E0030313233343536373839414243444546EA
:01462E00008B
:10462F003031323334353637383961626364656619
:01463F00007A
:020000040030CA
:0D000100231F3CFFBF81FF0FC00FE00F4029
:00000001FF
