:0400000088EF2EF067
:1000080000C01EF001C01DF002C01CF003C01BF0B0
:1000180004C01AF005C019F008C018F009C017F09C
:100028000AC016F00BC015F0E1CF23F0E2CF24F0A0
:10003800E9CF21F0EACF22F0F3CF1FF0F4CF20F080
:10004800F2AA13D0F2A411D0F294C20ED76EF70E12
:10005800D66E010E3E6E010E5B24006E000E5C2013
:10006800016E00C05BF001C05CF09DA00DD09EA0A9
:100078000BD09E90FE0ECF6E0C0ECE6E00018D53EF
:1000880002E08B7A01D08B9A9DAA87D09EAA85D050
:10009800ABA202D0AB98AB88AECFCAF40401CA5168
:1000A8003C0A02E101018A6B0101300E8A5D0FE210
:1000B800640EE16E020EE26E8A51E126D8B0E22AA1
:1000C800CAC4E6FF8A51010F006E00C08AF104011C
:1000D800CA513E0A62E1050E01018A5D5CE3020134
:1000E80064513C0A58E10651010F006E030E0014DA
:1000F800016E01C0C9F4015005194DE08AC1C8F468
:10010800800E000A006E800E005C03E10401C851F5
:10011800260803E20401260EC86F0401C76BC85104
:10012800C75D22E2280E006E000E016E06C204F0C2
:10013800000E056E23EC0EF0C70E0026020E0122FB
:10014800C7510024E16E000E0120E26E640EE96ED4
:10015800020EEA6EC751E926D8B0EA2AEECF00F0BF
:1001680000C0E6FFC72BDBD7280E006E000E016E1D
:1001780006C204F0000E056E23EC0EF0C70E002632
:10018800020E0122C8510024E16E000E0120E26E29
:10019800E66AC9C406F201018A6B1FC0F3FF20C0DA
:1001A800F4FF1EC000F01DC001F01CC002F01BC00F
:1001B80003F01AC004F019C005F018C008F017C001
:1001C80009F016C00AF015C00BF021C0E9FF22C0E3
:0C01D800EAFF23C0E1FF24C0E2FF110099
:1001E4000B820BAEFCEF00F0036802680168006844
:0801F4000A360232FF0E120070
:0E01FC00026A016A006A086A036A000E1200B5
:10020A000B840BAE10EF01F0010E036E026A016A55
:0A021A00006A0A360232FF0E1200DD
:080224000AAE029E000E12005A
:10022C000CB058EF01F00CA2FEEF01F00E6A000EBC
:10023C0002646FEF01F0F00E0214D8A43AEF01F053
:10024C00023A01380F0B02260138F00B016E003810
:10025C000F0B01260038F00B006E08380F0B002630
:10026C000838F00B086E0E84D89002BE53EF01F0E4
:10027C0008360036013602360E2A02BE53EF01F064
:10028C0008360036013602360E2A02BE53EF01F054
:10029C0008360036013602360E2A0E500364F4EF8F
:1002AC0001F0035E0BBC08AEF9EF01F0D880800EB4
:1002BC0008640030000E002201220222D8A0F9EFBF
:1002CC0001F0023201320032034AFEEF01F0F9EF85
:1002DC0001F001C002F000C001F008C000F0086A93
:1002EC00000E0E860264A6EF01F0F00E0214D8A4E4
:1002FC008EEF01F0023A01380F0B02260138F00B99
:10030C00016E00380F0B01260038F00B006E0E84C6
:10031C00D89002BE53EF01F00036013602360E2A99
:10032C0002BE53EF01F00036013602360E2A02BE31
:10033C0053EF01F00036013602360E2A53EF01F06E
:10034C0001C002F000C001F0006A000E0E960E888B
:10035C000264D3EF01F0F00E0214D8A4BEEF01F04A
:10036C00023A01380F0B02260138F00B016E0E8495
:10037C00D89002BE53EF01F0013602360E2A02BEAF
:10038C0053EF01F0013602360E2A02BE53EF01F094
:10039C00013602360E2A53EF01F001C002F0016A59
:1003AC00000E0E86026403EF02F0F00E0214D8A4C5
:1003BC00E2EF01F0023A0E84D89002BE53EF01F046
:1003CC0002360E2A02BE53EF01F002360E2A02BE8E
:1003DC0053EF01F002360E2A53EF01F0010E0C6EB2
:1003EC000EDF06EF02F0020E0C6E16DF06EF02F0C7
:1003FC00040E0C6EF1DE06EF02F0080E0C6EF8DE49
:02040C001200DC
:10040E000B800BAE13EF02F0026A0AAEFF0E026E05
:0C041E00016E006E0A360232FF0E120062
:10042A00025006180E6E086A096A0B6A03500764BE
:10043A0008EF03F006500A6E068E028E03500B6E0A
:10044A000750036E000E0B6458EF02F00B50075E64
:10045A00D8B4F9EF02F0070E0764C7EF02F0075E9F
:10046A0000C008F001C000F002C001F0026A074EA5
:10047A00F9EF02F007649CEF02F0075E00C008F093
:10048A0001C000F0016A074EF9EF02F007647AEF43
:10049A0002F0075E00C008F0006A074EF9EF02F0AA
:1004AA00076461EF02F00AC002F005C001F004C05F
:1004BA0000F0086A22EF04F0030E07646CEF02F002
:1004CA00075E08380F0B086E074EF9EF02F0D89056
:1004DA000832074EF9EF02F0D8900832074EF9EFCA
:1004EA0002F0D8900832F9EF02F0030E07648BEF9E
:1004FA0002F0075E08380F0B086E0038F00B08266A
:10050A0000380F0B006E074EF9EF02F0D890003258
:10051A000832074EF9EF02F0D89000320832074E3F
:10052A00F9EF02F0D89000320832F9EF02F0030E28
:10053A000764B3EF02F0075E08380F0B086E003845
:10054A00F00B082600380F0B006E0138F00B00265E
:10055A0001380F0B016E074EF9EF02F0D890013205
:10056A0000320832074EF9EF02F0D8900132003219
:10057A000832074EF9EF02F0D89001320032083201
:10058A00F9EF02F0030E0764E4EF02F0075E0838A1
:10059A000F0B086E0038F00B082600380F0B006EA0
:1005AA000138F00B002601380F0B016E0238F00BF0
:1005BA00012602380F0B026E074EF9EF02F0D890AF
:1005CA000232013200320832074EF9EF02F0D890B7
:1005DA000232013200320832074EF9EF02F0D890A7
:1005EA000232013200320832096A000E0EAEEDEF15
:1005FA0003F0081E001E011E021E082A0022012204
:10060A000222EDEF03F00750D8A40EEF03F022EF19
:10061A0004F0096A02C00AF0028E068E0750035CD3
:10062A00076ED8B4E0EF03F0070E0764AEEF03F0ED
:10063A00075E0450096E0550046E0650056E066A80
:10064A00074EE0EF03F0070E076483EF03F0075E3F
:10065A000450096E0550046E056A074EE0EF03F078
:10066A00070E076461EF03F0075E0450096E046A1F
:10067A00074EE0EF03F0070E076448EF03F00AC0E5
:10068A0002F022EF04F0030E076453EF03F0075E53
:10069A0009380F0B096E074EE0EF03F0D8900932C4
:1006AA00074EE0EF03F0D8900932074EE0EF03F06F
:1006BA00D8900932E0EF03F0030E076472EF03F0FB
:1006CA00075E09380F0B096E0438F00B0926043847
:1006DA000F0B046E074EE0EF03F0D8900432093294
:1006EA00074EE0EF03F0D89004320932074EE0EFEC
:1006FA0003F0D89004320932E0EF03F0030E0764E6
:10070A009AEF03F0075E09380F0B096E0438F00BF5
:10071A00092604380F0B046E0538F00B0426053839
:10072A000F0B056E074EE0EF03F0D8900532043246
:10073A000932074EE0EF03F0D8900532043209324D
:10074A00074EE0EF03F0D890053204320932E0EFA9
:10075A0003F0030E0764CBEF03F0075E09380F0BB3
:10076A00096E0438F00B092604380F0B046E05389D
:10077A00F00B042605380F0B056E0638F00B05261C
:10078A0006380F0B066E074EE0EF03F0D8900632DC
:10079A00053204320932074EE0EF03F0D8900632F0
:1007AA00053204320932074EE0EF03F0D8900632E0
:1007BA00053204320932086A000E0EAEEDEF03F07C
:1007CA00091E041E051E061E092A042205220622E7
:1007DA000950082604500022055001220650022220
:1007EA000EBE04EF04F0D8A013EF04F00232013277
:1007FA0000320832033E13EF04F01DEF04F0D8B0C4
:10080A0018EF04F0000E081E001E011E021E082A20
:10081A000022012202220A7E18EF04F0010E0C6E59
:10082A0000DD24EF04F0020E0C6EFBDC24EF04F072
:10083A00040E0C6ED2DC24EF04F0000E0C6E1200D3
:10084A000134083609360450085E0550D8A0053C24
:10085A00095E003601360F0E0C6E01340836093671
:10086A00045000A006D0085E0550D8A0053C095ED9
:10087A0005D008260550D8B0053C092600360136B1
:10088A000C2EEBD700B006D0045008260550D8B07D
:08089A00053C092600001200D4
:1008A200086A080E0C6E003408360450085ED8B090
:0E08B20002D00826D89000360C2EF5D7120082
:1008C000086A096A000E07620364E5EF04F002504B
:1008D00006180A6E075003267E0ED8A076EF04F0A5
:1008E000035ED8B0E9EF04F07AEF04F0035ED8A01D
:1008F000EDEF04F0028E068E02C00EF001C00BF088
:1009000000C00DF000500402F4CF0CF001500502BD
:10091000F4CF00F0F3CF08F00402F3500C26F450AB
:100920000822000E00220D500502F3500C26F45050
:100930000822000E002202500402F3500826F45050
:10094000002202500502016A000E0122F350002627
:10095000F45001220D500602F3500826F4500022F4
:10096000026A000E012202220B500602F3500026FA
:10097000F4500122000E02220E500602F35001260E
:10098000F450022202BECDEF04F0083600360136E4
:1009900002360306D8B4EDEF04F0E0EF04F0D8809F
:1009A000800E08640030000E002201220222D8A02E
:1009B000E0EF04F0023201320032034AE9EF04F0C2
:1009C0000AAE029E000EEFEF04F0010E17DCEFEF0F
:1009D00004F0020E07DCEFEF04F0040E16DC120048
:1009E0000D6A086A0050D8B4000C04180A6E0ABEDA
:1009F0000D1E0B6A04AE02D0041E042A00AE02D003
:100A0000001E002A005004100A6E0ABE1FD00450B7
:100A1000085E003600340836045008260036060EFC
:100A20000C6E00340836045000B0085E00A00826A2
:100A300000360C2EF6D700A008260BB015D00DAE50
:100A4000000C001E002A081E082A000C04AE09D063
:100A500000BE04D00050086E006AF1D7006A002A78
:100A6000000C001E0B2AD3D7082A0450085CD8A417
:0E0A7000E6D7086A002A00AEE2D7FF0C12009B
:080A7E000B6A0B86FF0E12004B
:100A86000B6A0A6A096A086A0E6A03340836045051
:100A9600085E0550D8A0053C095E0650D8A0063C65
:100AA6000A5E0750D8A0073C0B5EE86AD8A0010E84
:100AB6000E5E0336070E0C6E0334083609360A3608
:100AC6000B360E36045003A012D0085E0550D8A08F
:100AD600053C095E0650D8A0063C0A5E0750D8A021
:100AE600073C0B5EE86AD8A0010E0E5E11D0082600
:100AF6000550D8B0053C09260650D8B0063C0A2653
:100B06000750D8B0073C0B26E86AD8B0010E0E266F
:100B160003360C2ED1D70234083609360A360B3680
:100B26000E36045003A012D0085E0550D8A0053C2E
:100B3600095E0650D8A0063C0A5E0750D8A0073CBE
:100B46000B5EE86AD8A0010E0E5E11D0082605508D
:100B5600D8B0053C09260650D8B0063C0A260750F0
:100B6600D8B0073C0B26E86AD8B0010E0E2602362E
:100B7600070E0C6E0234083609360A360B360E3668
:100B8600045002A012D0085E0550D8A0053C095EAC
:100B96000650D8A0063C0A5E0750D8A0073C0B5E5C
:100BA600E86AD8A0010E0E5E11D008260550D8B00E
:100BB600053C09260650D8B0063C0A260750D8B090
:100BC600073C0B26E86AD8B0010E0E2602360C2E1C
:100BD600D1D70134083609360A360B360E3604509C
:100BE60002A012D0085E0550D8A0053C095E06504A
:100BF600D8A0063C0A5E0750D8A0073C0B5EE86A00
:100C0600D8A0010E0E5E11D008260550D8B0053CBE
:100C160009260650D8B0063C0A260750D8B0073C2D
:100C26000B26E86AD8B0010E0E260136070E0C6EAA
:100C36000134083609360A360B360E36045001A042
:100C460012D0085E0550D8A0053C095E0650D8A013
:100C5600063C0A5E0750D8A0073C0B5EE86AD8A09F
:100C6600010E0E5E11D008260550D8B0053C0926A7
:100C76000650D8B0063C0A260750D8B0073C0B26CB
:100C8600E86AD8B0010E0E2601360C2ED1D70034F4
:100C9600083609360A360B360E36045001A012D035
:100CA600085E0550D8A0053C095E0650D8A0063C53
:100CB6000A5E0750D8A0073C0B5EE86AD8A0010E72
:100CC6000E5E11D008260550D8B0053C0926065000
:100CD600D8B0063C0A260750D8B0073C0B26E86A6F
:100CE600D8B0010E0E260036070E0C6E00340836FC
:100CF60009360A360B360E36045000A012D0085EAE
:100D06000550D8A0053C095E0650D8A0063C0A5EF0
:100D16000750D8A0073C0B5EE86AD8A0010E0E5E0D
:100D260011D008260550D8B0053C09260650D8B083
:100D3600063C0A260750D8B0073C0B26E86AD8B00E
:100D4600010E0E2600360C2ED1D700B00ED0045060
:100D560008260550D8B0053C09260650D8B0063CF2
:0C0D66000A260750D8B0073C0B261200EC
:100D72006E0E0401C25DD8A0C3D0640E046EC2C45C
:100D820000F08EDD120E0024056E066A000E0622A9
:100D920005C000F006C001F0000E06BEFF0E026E96
:100DA200036E00360090013602360336003600909C
:100DB200013602360336D90E0024F66E650E012086
:100DC200F76E000E0220F86E0900F5CF00F0090060
:100DD200F5CF01F00900F5CF02F00900F5CF03F0DD
:100DE200000E046E000E056E000E066E7E0E076E7D
:100DF20066DD00C0C3F401C0C4F402C0C5F403C080
:100E0200C6F4640E046EC2C400F04ADD08C000F0ED
:100E12000A0E046E45DD090E0024056E066A000EF8
:100E2200062205C000F006C001F0000E06BEFF0E4D
:100E3200026E036E0036009001360236033600362B
:100E42000090013602360336D90E0024F66E650E86
:100E52000120F76E000E0220F86E0900F5CF00F0B7
:100E62000900F5CF01F00900F5CF02F00900F5CF36
:100E720003F0C3C404F0C4C405F0C5C406F0C6C47C
:100E820007F01DDD00C0C3F401C0C4F402C0C5F404
:100E920003C0C6F40A0E046EC2C400F001DD08C02D
:100EA20000F000C001F0000E026E036E046E013607
:100EB20001900236033604360136019002360336BB
:100EC2000436D90E0124F66E650E0220F76E000E6E
:100ED2000320F86E0900F5CF00F00900F5CF01F00C
:100EE2000900F5CF02F00900F5CF03F0C3C404F006
:100EF200C4C405F0C5C406F0C6C407F0E0DCACD03B
:100F0200C2510A08D8B07AD00A0E046EC2C400F0E8
:100F1200C7DC090E0024056E066A000E062205C013
:100F220000F006C001F0000E06BEFF0E026E036E58
:100F32000036009001360236033600360090013644
:100F420002360336D90E0024F66E650E0120F76EC6
:100F5200000E0220F86E0900F5CF00F00900F5CF6F
:100F620001F00900F5CF02F00900F5CF03F0000E01
:100F7200046E000E056E000E066E7E0E076E9FDC7E
:100F820000C0C3F401C0C4F402C0C5F403C0C6F477
:100F92000A0E046EC2C400F083DC08C000F000C078
:100FA20001F0000E026E036E046E013601900236ED
:100FB2000336043601360190023603360436D90E62
:100FC2000124F66E650E0220F76E000E0320F86E05
:100FD2000900F5CF00F00900F5CF01F00900F5CFC7
:100FE20002F00900F5CF03F0C3C404F0C4C405F055
:100FF200C5C406F0C6C407F062DC2ED0C2C400F03D
:10100200000E016E026E036E00360090013602364B
:10101200033600360090013602360336D90E00241C
:10102200F66E650E0120F76E000E0220F86E0900C2
:10103200F5CF00F00900F5CF01F00900F5CF02F07D
:101042000900F5CF03F0000E046E000E056E000ECF
:0A105200066E7E0E076E33DC1200FE
:10105C000450000A12E10550000A0FE10650000A84
:10106C000CE10750000A09E1FF0E006EFF0E016E45
:10107C007F0E026EFF0E036EA7D0086A096A075036
:10108C00D8B4D9EF08F00350D8B4DDEF08F0025013
:10109C0006180A6E028E068E0E6A02C008F001C097
:1010AC000CF000C00DF004500D5E0550D8A0053CAE
:1010BC000C5E0650D8A0063C085E086A0C6A0D6AE5
:1010CC00D8A070EF08F0D89002320132003208320A
:1010DC00010E0E6E0750035ED8A07DEF08F07E0E59
:1010EC000E240326D8B0E2EF08F083EF08F07E0E52
:1010FC000E240326D8A0E7EF08F0180E0B6E0D3661
:10110C000C3608360036013602360E360450005EB8
:10111C000550D8A0053C015E0650D8A0063C025EE6
:10112C0006340E120EA09EEF08F00D80A9EF08F009
:10113C00045000260550D8B0053C01260650D8B006
:10114C00062802260D900B2E85EF08F0CFEF08F045
:10115C00D8900036013602360E360450005E05502B
:10116C00D8A0053C015E0650D8A0063C025E0634B1
:10117C000E10010B0D26D8B00C2AD8B4082AD8A40E
:10118C00CFEF08F008320C320D32032AD8B4E2EF5C
:10119C0008F00AAE089E0850026E0C50016E0D50FD
:1011AC00006EEAEF08F0010E64DCEAEF08F0020EC4
:1011BC00FEEC00F0EAEF08F0040EF2EC00F0EAEFBF
:0A11CC0008F0080E05EC01F0120017
:1011D600800E0401C219006E800E000A005CD8B0B1
:1011E6006DD1C2510008016E01C0C2F4800E011813
:1011F600006E800E6E0A005CD8A0C0D0640E046E2D
:10120600C2C400F0F0EC04F0120E0024056E000ECD
:1012160000BEFF0E066E000E062205C000F006C0D8
:1012260001F0000E06BEFF0E026E036E0036009041
:101236000136023603360036009001360236033692
:10124600D90E0024F66E650E0120F76E000E022000
:10125600F86E0900F5CFC3F40900F5CFC4F4090010
:10126600F5CFC5F40900F5CFC6F4640E046EC2C40A
:1012760000F0F0EC04F008C000F00A0E046EF0EC8A
:1012860004F0090E0024056E000E00BEFF0E066E69
:10129600000E062205C000F006C001F0000E06BED4
:1012A600FF0E026E036E00360090013602360336DC
:1012B60000360090013602360336D90E0024F66E4B
:1012C600650E0120F76E000E0220F86E0900F5CFBC
:1012D60000F00900F5CF01F00900F5CF02F0090092
:1012E600F5CF03F0C3C404F0C4C405F0C5C406F0CA
:1012F600C6C407F060EC04F000C0C3F401C0C4F437
:1013060002C0C5F403C0C6F40A0E046EC2C400F0DF
:10131600F0EC04F008C000F000C001F0000E00BEC2
:10132600FF0E026E036E046E01360190023603361E
:10133600043601360190023603360436D90E0124EE
:10134600F66E650E0220F76E000E0320F86E090099
:10135600F5CF00F00900F5CF01F00900F5CF02F056
:101366000900F5CF03F0C3C404F0C4C405F0C5C436
:1013760006F0C6C407F060EC04F007D2800E0A0A35
:10138600006E800EC219005C71E20A0E046EC2C4C1
:1013960000F0F0EC04F0090E0024056E000E00BE0D
:1013A600FF0E066E000E062205C000F006C001F014
:1013B600000E06BEFF0E026E036E0036009001366A
:1013C6000236033600360090013602360336D90E51
:1013D6000024F66E650E0120F76E000E0220F86EF0
:1013E6000900F5CFC3F40900F5CFC4F40900F5CF21
:1013F600C5F40900F5CFC6F40A0E046EC2C400F0A7
:10140600F0EC04F008C000F000C001F0000E00BED1
:10141600FF0E026E036E046E01360190023603362D
:10142600043601360190023603360436D90E0124FD
:10143600F66E650E0220F76E000E0320F86E0900A8
:10144600F5CF00F00900F5CF01F00900F5CF02F065
:101456000900F5CF03F0C3C404F0C4C405F0C5C445
:1014660006F0C6C407F060EC04F08FD1C2C400F0E9
:10147600000EC2BFFF0E016E026E036E00360090B4
:101486000136023603360036009001360236033640
:10149600D90E0024F66E650E0120F76E000E0220AE
:1014A600F86E0900F5CF00F00900F5CF01F009004C
:1014B600F5CF02F00900F5CF03F067D1800EC2190F
:1014C600006E800E6E0A005CD8A0C0D0640E046E5A
:1014D600C2C400F0F0EC04F0120E0024056E000EFB
:1014E60000BEFF0E066E000E062205C000F006C006
:1014F60001F0000E06BEFF0E026E036E003600906F
:1015060001360236033600360090013602360336BF
:101516000D0E0024F66E660E0120F76E000E0220F8
:10152600F86E0900F5CFC3F40900F5CFC4F409003D
:10153600F5CFC5F40900F5CFC6F4640E046EC2C437
:1015460000F0F0EC04F008C000F00A0E046EF0ECB7
:1015560004F0090E0024056E000E00BEFF0E066E96
:10156600000E062205C000F006C001F0000E06BE01
:10157600FF0E026E036E0036009001360236033609
:10158600003600900136023603360D0E0024F66E44
:10159600660E0120F76E000E0220F86E0900F5CFE8
:1015A60000F00900F5CF01F00900F5CF02F00900BF
:1015B600F5CF03F0C3C404F0C4C405F0C5C406F0F7
:1015C600C6C407F060EC04F000C0C3F401C0C4F464
:1015D60002C0C5F403C0C6F40A0E046EC2C400F00D
:1015E600F0EC04F008C000F000C001F0000E00BEF0
:1015F600FF0E026E036E046E01360190023603364C
:101606000436013601900236033604360D0E0124E7
:10161600F66E660E0220F76E000E0320F86E0900C5
:10162600F5CF00F00900F5CF01F00900F5CF02F083
:101636000900F5CF03F0C3C404F0C4C405F0C5C463
:1016460006F0C6C407F060EC04F09FD0800E0A0ACC
:10165600006E800EC219005C71E20A0E046EC2C4EE
:1016660000F0F0EC04F0090E0024056E000E00BE3A
:10167600FF0E066E000E062205C000F006C001F041
:10168600000E06BEFF0E026E036E00360090013697
:1016960002360336003600900136023603360D0E4A
:1016A6000024F66E660E0120F76E000E0220F86E1C
:1016B6000900F5CFC3F40900F5CFC4F40900F5CF4E
:1016C600C5F40900F5CFC6F40A0E046EC2C400F0D4
:1016D600F0EC04F008C000F000C001F0000E00BEFF
:1016E600FF0E026E036E046E01360190023603365B
:1016F6000436013601900236033604360D0E0124F7
:10170600F66E660E0220F76E000E0320F86E0900D4
:10171600F5CF00F00900F5CF01F00900F5CF02F092
:101726000900F5CF03F0C3C404F0C4C405F0C5C472
:1017360006F0C6C407F060EC04F027D0C2C400F07F
:10174600000EC2BFFF0E016E026E036E00360090E1
:10175600013602360336003600900136023603366D
:101766000D0E0024F66E660E0120F76E000E0220A6
:10177600F86E0900F5CF00F00900F5CF01F0090079
:0C178600F5CF02F00900F5CF03F01200CF
:101792000450000A08E10550000A05E1FF0E006E40
:1017A2007F0E016E58D00D6A096A086A0150001056
:1017B200D8B4000C015005180A6E0ABE0D1E0B6A41
:1017C20005AE05D0041E051E042AD8B4052A01AEB2
:1017D20005D0001E011E002AD8B4012A01500510AE
:1017E2000A6E0ABE10D025EC04F00BB020D00DAE6C
:1017F200000C001E011E002AD8B4012A081E091E70
:10180200082AD8B4092A000C05AE0DD001BE07D0B3
:101812000150096E0050086E016A006AE8D7016A39
:10182200006A002A000C011E001E0B2ADDD7082ABE
:10183200D8B4092A0450085CD8A4D9D70550095C49
:10184200D8A4D5D7096A086A002AD8B4012A01AEF9
:08185200CED70000FF0C1200CC
:08185A00067E15EC02F01200FD
:101862000050086E0150006E0250016E0350026E6D
:10187200036A0B6A0C6A9E0E036E0A6A020E0C6EF3
:0618820016EC01F012005B
:101888000B6A0C6A0A6A086A0350D8B4CCEF0CF0E9
:10189800028E9E0E035E03BE57EF0CF0D8B457EFCE
:1018A8000CF0BCEF0CF0036C080E035CD8A089EFB9
:1018B8000CF0036E083600C008F001C000F002C04A
:1018C80001F0026A080E035CD8A089EF0CF0036EE1
:1018D800083600C008F001C000F0016A080E035C79
:1018E800D8A089EF0CF0036E083600C008F0006A33
:1018F800080E035CD8A089EF0CF0036E0836086A5E
:101908000350D8A4D89095EF0CF00350D8B495EFB5
:101918000CF0D8900232013200320832032E8DEFDB
:101928000CF00BBC08A0A6EF0CF0D8A0A6EF0CF0AA
:10193800082AD8B4002AD8B4012AD8B4022A02BE88
:10194800D0EF0CF00AAECCEF0CF0021E011E001E08
:10195800081E082AD8B4002AD8B4012AD8B4022A02
:10196800CCEF0CF0026A016A006A086ACCEF0CF04E
:101978000B800BAED6EF0CF0026A0AAED6EF0CF075
:10198800026E016E006E086E0A360232D6EF0CF057
:10199800000E0C6AD7EF0CF0010E0C6E07EC02F08B
:1019A800D7EF0CF0FF0E0250036E0150026E00508C
:0819B800016E0850006E1200E0
:1019C0000B6A0C6A086A0350D8B464EF0DF002C0C9
:1019D0000AF0028E9E0E035E03AE54EF0DF0036C10
:1019E000080E035CD8A021EF0DF0036E083600C08E
:1019F00008F001C000F002C001F0026A080E035CAA
:101A0000D8A021EF0DF0036E083600C008F001C029
:101A100000F0016A080E035CD8A021EF0DF0036E00
:101A2000083600C008F0006A080E035CD8A021EF59
:101A30000DF0036E0836086A0350D8A4D8902DEF35
:101A40000DF00350D8B42DEF0DF0D89002320132D2
:101A500000320832032E25EF0DF00BBC08A03EEF3C
:101A60000DF0D8A03EEF0DF0082AD8B4002AD8B463
:101A7000012AD8B4022A02BE68EF0DF00AAE64EF64
:101A80000DF0021E011E001E081E082AD8B4002AEE
:101A9000D8B4012AD8B4022A64EF0DF0026A016AB0
:101AA000006A086A64EF0DF00B800BAE6FEF0DF06B
:101AB000026A0AAE6FEF0DF0026E016E006E086EE4
:101AC0000A3602326FEF0DF00C6A000E70EF0DF067
:101AD000010E0C6E000E07EC02F070EF0DF0FF0E21
:101AE0000250036E0150026E0050016E0850006EED
:021AF0001200E2
:0E1AF200ACB202D00000FCD7C2C4ADFF12009F
:061B0000000000001200CD
:101B06000F0E0C6E470E0D6E0D2EFED70C2EFCD74B
:061B1600000000001200B7
:0C1B1C0072B201D0FDD7C2C473FF1200EA
:101B28000A6A0350D8A40A800750D8A40A820A5027
:101B3800D8B4F7EF0DF0030AD8B4B0EF0DF00AB03F
:101B4800ABEF0DF006AEF5EF0DF0F3EF0DF002AED2
:101B5800F3EF0DF0F5EF0DF00250800B0A6E029EC8
:101B68000650800B069E0A18D8B4C1EF0DF00A5033
:101B7800D8B4F3EF0DF0F5EF0DF00750035CD8B4CF
:101B8800CBEF0DF0D8A0E7EF0DF0EDEF0DF006501C
:101B9800025CD8B4D5EF0DF0D8A0E7EF0DF0EDEF6B
:101BA8000DF00550015CD8B4DFEF0DF0D8A0E7EFD9
:101BB8000DF0EDEF0DF00450005CD8B4F7EF0DF028
:101BC800D8B0EDEF0DF00A52D8B4F5EF0DF0F3EF01
:101BD8000DF00A52D8B4F3EF0DF0F5EF0DF0D88000
:0E1BE8001200D8901200D880D884120012008B
:101BF60003500718D8A40FEF0EF002500618D8A409
:101C06000FEF0EF001500518D8A40FEF0EF000509C
:0E1C16000418D8B4D8841200D894120012001A
:0A1C2400210E0D6E0D2EFED71200EA
:101C2E000401C251390806E3300EC25D03E3010E12
:081C3E00006E01D0006A1200E3
:101C46000B6A0A6A096A00500402F4CF09F0F3CF5E
:101C560008F001500502F4CF0BF0F3CF0AF0005064
:101C66000502F3500926F4500A22E86A0B220150B5
:101C76000402F3500926F4500A22E86A0B2208C02F
:101C860000F009C001F00AC002F00BC003F0120018
:101C960004019ABF02D0819601D081869ABD02D0F6
:101CA600819401D081849ABB02D0819201D0818235
:101CB6009AB902D0819001D081800201C2B102D0CE
:101CC600818801D08198818A18DF819A04019AB7A8
:101CD60002D0819601D081869AB502D0819401D036
:101CE60081849AB302D0819201D081829AB102D0C6
:101CF600819001D081800201C2B102D0818801D0D9
:101D06008198818AFADE819AC2A102D0F9DE01D0D9
:041D160086DF120052
:101D1A000401BA6BBB6BAE6BAF6B9CC400F09DC485
:101D2A0001F09EC402F0010E9C27000E9D239E2303
:101D3A0000C0F6FF01C0F7FF02C0F8FF0900F5CFA7
:101D4A0000F000C0ABF40052D8B494EF1EF0AB51CF
:101D5A00250A0BE09AC4E1FF9BC4E2FFABC4E6FF8D
:101D6A009A4B9B2BBA4BBB2BD8D7AC6BAD6BAE6BDC
:101D7A00AF6B23D0AE87010E9C27000E9D239E23B6
:101D8A0059D0AE81010E9C27000E9D239E2352D06E
:101D9A00AE83010E9C27000E9D239E234BD0AF8756
:101DAA00010E9C27000E9D239E2344D0AE85010E72
:101DBA009C27000E9D239E233DD09CC4F6FF9DC404
:101DCA00F7FF9EC4F8FF0900F5CF01F001502D0A74
:101DDA00D1E09CC4F6FF9DC4F7FF9EC4F8FF09003A
:101DEA00F5CF01F00150200ACCE09CC4F6FF9DC457
:101DFA00F7FF9EC4F8FF0900F5CF01F001502B0A46
:101E0A00C7E09CC4F6FF9DC4F7FF9EC4F8FF090013
:101E1A00F5CF01F00150230AC2E09CC4F6FF9DC42D
:101E2A00F7FF9EC4F8FF0900F5CF01F00150300A10
:101E3A00BDE001D09ED7AEA301D0AE91AEA701D02E
:101E4A00AE959CC4F6FF9DC4F7FF9EC4F8FF090037
:101E5A00F5CF00F0000E016E00C0C2F4E3DE0052BE
:101E6A0034E0AC6BAD6BACC400F0ADC401F00A0E4B
:101E7A00046E000E056EE2DE9CC4F6FF9DC4F7FFF9
:101E8A009EC4F8FF0900F5CF02F002500024AC6F9F
:101E9A00000E0120AD6F300EAC5F000EAD5B010E7F
:101EAA009C27000E9D239E239CC4F6FF9DC4F7FF2A
:101EBA009EC4F8FF0900F5CF00F0000E016E00C0C5
:101ECA00C2F4B0DE0052CFE133D09CC4F6FF9DC409
:101EDA00F7FF9EC4F8FF0900F5CF01F001502A0A66
:101EEA0027E19FC4E9FFA0C4EAFFEECF00F0EECFDE
:101EFA0001F000C0E9FF01C0EAFFEECFACF4EECF7B
:101F0A00ADF49FC4E9FFA0C4EAFF020EEE24006EFE
:101F1A00000EEE20016E9FC4E1FFA0C4E2FF00C0E4
:101F2A00E6FF01C0E6FF010E9C27000E9D239E23BB
:101F3A009CC4F6FF9DC4F7FF9EC4F8FF0900F5CFC5
:101F4A0001F001502E0A6EE1010E9C27000E9D231E
:101F5A009E239CC4F6FF9DC4F7FF9EC4F8FF0900A8
:101F6A00F5CF01F001502A0A28E19FC4E9FFA0C475
:101F7A00EAFFEECF00F0EECF01F000C0E9FF01C0AA
:101F8A00EAFFEECFA9F4EECFAAF49FC4E9FFA0C4FA
:101F9A00EAFF020EEE24006E000EEE20016E9FC4D0
:101FAA00E1FFA0C4E2FF00C0E6FF01C0E6FF010EA8
:101FBA009C27000E9D239E2334D0A96BAA6B9CC438
:101FCA00F6FF9DC4F7FF9EC4F8FF0900F5CF00F0A5
:101FDA00000E016E00C0C2F425DE005222E0A9C440
:101FEA0000F0AAC401F00A0E046E000E056E26DE89
:101FFA009CC4F6FF9DC4F7FF9EC4F8FF0900F5CF05
:10200A0002F002500024A96F000E0120AA6F300EC0
:10201A00A95F000EAA5B010E9C27000E9D239E233A
:10202A00CED703D0A96BAA6BAF899CC400F09DC41C
:10203A0001F09EC402F0010E9C27000E9D239E23F0
:10204A0000C0F6FF01C0F7FF02C0F8FF0900F5CF94
:10205A00ABF4F9D0BAC400F0BBC401F098EF1EF09B
:10206A00AE89E3D7AF852ED1AE8BAF812BD1AF83AB
:10207A0029D1AE8D27D126D1AE8BAE8F23D19FC465
:10208A00E9FFA0C4EAFFEECF00F0EECF01F000C0F6
:10209A00E9FF01C0EAFFEECFB6F4EECFB7F49FC472
:1020AA00E9FFA0C4EAFF020EEE24006E000EEE2045
:1020BA00016E9FC4E1FFA0C4E2FF00C0E6FF01C0B9
:1020CA00E6FF000EB71902E1000EB61904E1AE0EE2
:1020DA00B66F010EB76FB86BB96BB851B625E96E1A
:1020EA00B951B721EA6EEE520BE0010EB825006E27
:1020FA00000EB921016E00C0B8F401C0B9F4EDD7E1
:10210A00A951AA110AE0B951AA5D02E1B851A95D23
:10211A0004E2A9C4B8F4AAC4B9F4AD51B95D02E1A4
:10212A00AC51B85D05E2B851AC5FB951AD5B02D0B4
:10213A00AC6BAD6BAEB716D0ACC400F0ADC401F059
:10214A00010EAC5F000EAD5B005001100BE09AC4AB
:10215A00E1FF9BC4E2FF200EE66E9A4B9B2BBA4B23
:10216A00BB2BEAD7B8C402F0B9C403F0010EB85DBC
:10217A00006E000EB959016E00C0B8F401C0B9F47E
:10218A000250031019E0B6C4E9FFB7C4EAFF9AC4C3
:10219A00E1FF9BC4E2FFEECFE6FF9A4B9B2B010EB9
:1021AA00B625006E000EB721016E00C0B6F401C05C
:1021BA00B7F4BA4BBB2BD6D7AEA716D0ACC400F037
:1021CA00ADC401F0010EAC5F000EAD5B0050011012
:1021DA000BE09AC4E1FF9BC4E2FF200EE66E9A4B25
:1021EA009B2BBA4BBB2BEAD798D59FC4E9FFA0C457
:1021FA00EAFFEECF00F0EECF01F000C0E9FF01C028
:10220A00EAFFEECFABF49FC4E9FFA0C4EAFF020ED7
:10221A00EE24006E000EEE20016E9FC4E1FFA0C402
:10222A00E2FF00C0E6FF01C0E6FFAB0EB66F040E88
:10223A00B76F010EB86F000EB96F62D7C00EAE133A
:10224A00000EAF133FD0AB51000AD8B403D7AB513D
:10225A006C0AD8B405D7AB514C0AD8B401D7AB51E4
:10226A00660AD8B4FFD6AB51450AD8B4FDD6AB51ED
:10227A00650AD8B4FAD6AB51670AD8B4F8D6AB51C6
:10228A006F0AD8B4F6D6AB51640AD8B4F4D6AB51B7
:10229A00690AD8B4F0D6AB51700AD8B4EDD6AB51AE
:1022AA00580AD8B4E9D6AB51780AD8B4E6D6AB51B5
:1022BA00730AD8B4E4D6AB51630A97E0AB51750AF6
:1022CA00BDE0B3D7000EAE15006EAF51070B016E1D
:1022DA0000500110D8B43BEF1AF0AFA904D0060E93
:1022EA00A96F000EAA6F9FC4E9FFA0C4EAFFEECF50
:1022FA0000F0EECF01F000C0E9FF01C0EAFFEECF27
:10230A00B0F4EECFB1F4EECFB2F4EECFB3F49FC493
:10231A00E9FFA0C4EAFF040EEE24006E000EEE20D0
:10232A00016E9FC4E1FFA0C4E2FF00C0E6FF01C046
:10233A00E6FF046A056A066A076AB0C400F0B1C417
:10234A0001F0B2C402F0B3C403F094EC0DF0010E34
:10235A00D8B0000E006E005205E0B27F030EAE1335
:10236A00000EAF13B46BB56BB0C400F0B1C401F08A
:10237A00B2C402F0B3C403F0046A056A066A076AC3
:10238A0035DC000ED8A4010E006E0052D8B489D0F4
:10239A00B3C400F0016A026A036AFF0E0016000E57
:1023AA0001167E0E005E000E015A00C0B4F401C090
:1023BA00B5F4010E005E000E015A00C0B4F401C06B
:1023CA00B5F4030E046E000E056E38DC00C0B4F4DA
:1023DA0001C0B5F40A0E046E000E056EC9EC0BF0CE
:1023EA0000C0B4F401C0B5F4800E0118026E800E6C
:1023FA00025C02E1000E005C05E2010E0401B45F1A
:10240A00000EB55B0401B4510008C26FEBEC08F092
:10241A00B0C404F0B1C405F0B2C406F0B3C407F006
:10242A0060EC04F000C0B6F401C0B7F402C0B8F41E
:10243A0003C0B9F4000E046E000E056E000E066E9F
:10244A007F0E076EB6C400F0B7C401F0B8C402F03C
:10245A00B9C403F094EC0DF0010ED8B0000E006E72
:10246A00005205E0010EB45F000EB55B1AD0000EF3
:10247A00046E000E056E200E066E820E076EB6C43E
:10248A0000F0B7C401F0B8C402F0B9C403F094EC88
:10249A000DF0000ED8B0010E006E005202E0B44BEF
:1024AA00B52B800E006E800EB519005C02E1B451A6
:1024BA00000803E3010EAB6F02D0B4C4ABF4AFB1B2
:1024CA0018D0AFA315D0800EB519006E7F0E005C30
:1024DA0002E1FC0EB45D0BE3800EB519006E800EAE
:1024EA00AA19005C02E1A951B45D01E201D001D050
:1024FA00EFD3A951AA1106E0AFA304D0010EA95F38
:10250A00000EAA5BAA51000802E1A951080803E2D9
:10251A00080EAB6F02D0A9C4ABF4B0C400F0B1C4CA
:10252A0001F0B2C402F0B3C403F0046A056A066A91
:10253A00076AFBEC0DF0000ED8A4010E006E0052E3
:10254A00D8B44BD1B4C4C2F4EBEC08F000C004F028
:10255A0001C005F002C006F003C007F0B0C400F0E5
:10256A00B1C401F0B2C402F0B3C403F02EEC08F017
:10257A0000C0B0F401C0B1F402C0B2F403C0B3F4B5
:10258A000401AB510008C26FEBEC08F000C004F084
:10259A0001C005F002C006F003C007F0B0C400F0A5
:1025AA00B1C401F0B2C402F0B3C403F02EEC08F0D7
:1025BA0000C0BCF401C0BDF402C0BEF403C0BFF445
:1025CA00BCC4B0F4BDC4B1F4BEC4B2F4BFC4B3F465
:1025DA00BCC400F0BDC401F0BEC402F0BFC403F025
:1025EA0044EC0CF031EC0CF000C004F001C005F032
:1025FA0002C006F003C007F0BCC400F0BDC401F07D
:10260A00BEC402F0BFC403F02DEC0CF0000E046E41
:10261A00000E056E000E066E7E0E076E94EC0DF02F
:10262A00000ED8B0010E006E00521AE0B0C400F0DD
:10263A00B1C401F0B2C402F0B3C403F0000E046ED8
:10264A00000E056E000E066E7E0E076E15EC02F089
:10265A0000C0B0F401C0B1F402C0B2F403C0B3F4D4
:10266A00B0C400F0B1C401F0B2C402F0B3C403F0C4
:10267A0044EC0CF00401AB51010F096E0A6A000E1A
:10268A000A2209C004F00AC005F0000E0ABEFF0EB5
:10269A00066E076E0436049005360636073604368B
:1026AA000490053606360736710E0424F66E660E59
:1026BA000520F76E000E0620F86E0900F5CF05F02A
:1026CA000900F5CF06F00900F5CF07F00900F5CFAC
:1026DA0008F00850035C08E10750025C05E1065067
:1026EA00015C02E10550005C1EE30401B0C400F085
:1026FA00B1C401F0B2C402F0B3C403F0CD0E046E4B
:10270A00CC0E056E4C0E066E7B0E076E60EC04F066
:10271A0000C0B0F401C0B1F402C0B2F403C0B3F413
:10272A00B44BB52B5AD0B0C400F0B1C401F0B2C456
:10273A0002F0B3C403F044EC0CF0ABC404F0000E96
:10274A00056E066E076E04360490053606360736A1
:10275A0004360490053606360736710E0424F66EE2
:10276A00660E0520F76E000E0620F86E0900F5CFFA
:10277A0005F00900F5CF06F00900F5CF07F00900CA
:10278A00F5CF08F00850035C08E10750025C05E148
:10279A000650015C02E10550005C1FE20401B0C46E
:1027AA0000F0B1C401F0B2C402F0B3C403F0000EE9
:1027BA00046E000E056E200E066E820E076E60EC29
:1027CA0004F000C0B0F401C0B1F402C0B2F403C016
:1027DA00B3F4010EB45F000EB55B0401AFA393D04E
:1027EA00AFB791D0800E000A006E800EAA19005C65
:1027FA0002E1A9510A0804E20A0EA96F000EAA6FA3
:10280A00B0C400F0B1C401F0B2C402F0B3C403F022
:10281A0044EC0CF000C0B6F401C0B7F402C0B8F43E
:10282A0003C0B9F4B651B711B811B91142E00A0E92
:10283A00046E000E056E066E076EB6C400F0B7C4CD
:10284A0001F0B8C402F0B9C403F043EC05F008C0C3
:10285A0000F009C001F00AC002F00BC003F0000E3C
:10286A00046E031808E10450021805E10450011827
:10287A0002E10050000A1DE1010EA95F000EAA5BE9
:10288A000A0E046E000E056E066E076EB6C400F0E0
:10289A00B7C401F0B8C402F0B9C403F043EC05F0C0
:1028AA0000C0B6F401C0B7F402C0B8F403C0B9F46A
:1028BA00B9D7800EAA19006E800E005C02E1AB51F6
:1028CA00A95D21E2A951AB5DC26FEBEC08F000C033
:1028DA0004F001C005F002C006F003C007F0B0C45E
:1028EA0000F0B1C401F0B2C402F0B3C403F02EEC9C
:1028FA0008F000C0B0F401C0B1F402C0B2F403C0E1
:10290A00B3F4A9C4ABF4050E0401A925006E000EA8
:10291A00AA21016E0050AC5F0150AD5BA951AA110A
:10292A0003E1AFB701D004D0010EAC5F000EAD5B7E
:10293A00030EAE15006EAFC401F0000E0116005072
:10294A00011004E0010EAC5F000EAD5BAEA539D0FC
:10295A00AEA312D0AEA103D02D0EA16F02D02B0EC2
:10296A00A16F9AC4E1FF9BC4E2FFA1C4E6FF9A4BA0
:10297A009B2BBA4BBB2B0CD0AEA10AD09AC4E1FF59
:10298A009BC4E2FF200EE66E9A4B9B2BBA4BBB2BE5
:10299A00800E006E800EAD19005C02E1AC51000899
:1029AA000FE29AC4E1FF9BC4E2FF300EE66E9A4B37
:1029BA009B2BBA4BBB2B010EAC5F000EAD5BE8D76D
:1029CA003AD0AEB718D0800E006E800EAD19005CFA
:1029DA0002E1AC5100080FE29AC4E1FF9BC4E2FF96
:1029EA00200EE66E9A4B9B2BBA4BBB2B010EAC5FAB
:1029FA00000EAD5BE8D7AEA312D0AEA103D02D0E68
:102A0A00A26F02D02B0EA26F9AC4E1FF9BC4E2FF11
:102A1A00A2C4E6FF9A4B9B2BBA4BBB2B0CD0AEA1A0
:102A2A000AD09AC4E1FF9BC4E2FF200EE66E9A4BDD
:102A3A009B2BBA4BBB2BB0C400F0B1C401F0B2C49B
:102A4A0002F0B3C403F044EC0CF000C0B6F401C0C9
:102A5A00B7F402C0B8F403C0B9F4ABC400F0000E76
:102A6A00016E026E036E003600900136023603369E
:102A7A0000360090013602360336710E0024F66ED7
:102A8A00660E0120F76E000E0220F86E0900F5CFDF
:102A9A0004F00900F5CF05F00900F5CF06F00900AA
:102AAA00F5CF07F0B6C400F0B7C401F0B8C402F01D
:102ABA00B9C403F043EC05F0300E00269AC4E1FFD6
:102ACA009BC4E2FF00C0E6FF9A4B9B2BBA4BBB2B81
:102ADA00A951AA1103E1AFB701D06FD09AC4E1FF9F
:102AEA009BC4E2FF2E0EE66E9A4B9B2BBA4BBB2B76
:102AFA00AB51A95F000EAA5BAB534DE0AB07ABC469
:102B0A0000F0000E016E026E036E00360090013670
:102B1A000236033600360090013602360336710E4D
:102B2A000024F66E660E0120F76E000E0220F86E83
:102B3A000900F5CF04F00900F5CF05F00900F5CF3B
:102B4A0006F00900F5CF07F0B6C400F0B7C401F0EB
:102B5A00B8C402F0B9C403F043EC05F00A0E046EDF
:102B6A00000E056E066E076E43EC05F008C000F015
:102B7A0009C001F00AC002F00BC003F0300E0026B3
:102B8A009AC4E1FF9BC4E2FF00C0E6FF9A4B9B2B6D
:102B9A00BA4BBB2BB1D7A951AA110FE09AC4E1FFD6
:102BAA009BC4E2FF300EE66E9A4B9B2BBA4BBB2BB3
:102BBA00010EA95F000EAA5BEED7AEAB0BD09AC48A
:102BCA00E1FF9BC4E2FF450EE66E9A4B9B2BBA4B84
:102BDA00BB2B0AD09AC4E1FF9BC4E2FF650EE66EE6
:102BEA009A4B9B2BBA4BBB2B800EB519006E800EED
:102BFA00005C02E1000EB45D11E2B4510008B46F4A
:102C0A00B551000EB5579AC4E1FF9BC4E2FF2D0EE1
:102C1A00E66E9A4B9B2BBA4BBB2B0AD09AC4E1FFA8
:102C2A009BC4E2FF2B0EE66E9A4B9B2BBA4BBB2B37
:102C3A000A0E046E000E056EB4C400F0B5C401F0AD
:102C4A00C9EC0BF0300E00269AC4E1FF9BC4E2FFE8
:102C5A0000C0E6FF04019A4B9B2BBA4BBB2B0A0E12
:102C6A00046E000E056EB4C400F0B5C401F0C9ECE0
:102C7A000BF008C000F009C001F0300E00269AC41B
:102C8A00E1FF9BC4E2FF00C0E6FF04019A4B9B2BC5
:102C9A00BA4BBB2BAEA71AD0800E006E800EAD19B0
:102CAA00005C02E1AC51000811E29AC4E1FF9BC446
:102CBA00E2FF200EE66E9A4B9B2BBA4BBB2B010E02
:102CCA00AC5F000EAD5BAC51AD11EFE192EF0EF0CF
:102CDA00AFA3F3D0800EB519006E800E005C02E13E
:102CEA00000EB45D0AE2010EB45D006E000EB55925
:102CFA00016E0050A95F0150AA5BB0C400F0B1C4D4
:102D0A0001F0B2C402F0B3C403F044EC0CF000C00A
:102D1A00B6F401C0B7F402C0B8F403C0B9F4010EA6
:102D2A00AB6FAB510A0A34E0ABC400F0000E016E7F
:102D3A00026E036E00360090013602360336003604
:102D4A000090013602360336710E0024F66E660EC6
:102D5A000120F76E000E0220F86E0900F5CF01F08F
:102D6A000900F5CF02F00900F5CF03F00900F5CF0D
:102D7A0004F00450B95D08E10350B85D05E1025062
:102D8A00B75D02E10150B65D01E202D0AB2BC9D7B3
:102D9A00AB51A95DC06F000EAA59C16FC0C4A9F496
:102DAA00C1C4AAF4B6C400F0B7C401F0B8C402F0B2
:102DBA00B9C403F031EC0CF000C004F001C005F016
:102DCA0002C006F003C007F0B0C400F0B1C401F0BD
:102DDA00B2C402F0B3C403F02DEC0CF000C0BCF492
:102DEA0001C0BDF402C0BEF403C0BFF4C0C4C2F443
:102DFA00EBEC08F0BCC404F0BDC405F0BEC406F098
:102E0A00BFC407F060EC04F0000E046E000E056EFD
:102E1A00000E066E7E0E076E15EC02F044EC0CF006
:102E2A0000C0B6F401C0B7F402C0B8F403C0B9F4E4
:102E3A00A951AA1142E00A0E046E000E056E066E32
:102E4A00076EB6C400F0B7C401F0B8C402F0B9C442
:102E5A0003F043EC05F008C000F009C001F00AC015
:102E6A0002F00BC003F0000E046E031808E10450D0
:102E7A00021805E10450011802E10050000A1DE1A0
:102E8A000A0E046E000E056E066E076EB6C400F0DA
:102E9A00B7C401F0B8C402F0B9C403F043EC05F0BA
:102EAA0000C0B6F401C0B7F402C0B8F403C0B9F464
:102EBA00010EA95F000EAA5BBBD7800E006E800EC2
:102ECA00AA19005C02E1A9510C0816E3A9C4C2F4CC
:102EDA00B9EC06F0B0C404F0B1C405F0B2C406F00F
:102EEA00B3C407F015EC02F000C0B0F401C0B1F4AD
:102EFA0002C0B2F403C0B3F4B0C400F0B1C401F02C
:102F0A00B2C402F0B3C403F0046A056A066A076A27
:102F1A00FBEC0DF0000ED8A4010E006E0052D8B4DE
:102F2A0077D0B0C400F0B1C401F0B2C402F0B3C4A7
:102F3A0003F044EC0CF0000E046E031808E1045090
:102F4A00021805E10450011802E10050000A60E18C
:102F5A00800E006E800EB519005C02E1B4510108C2
:102F6A0057E2B4C4C2F4EBEC08F000C004F001C0AC
:102F7A0005F002C006F003C007F0B0C400F0B1C407
:102F8A0001F0B2C402F0B3C403F02EEC08F05F0EF5
:102F9A00046E700E056E090E066E810E076E94ECB5
:102FAA000DF0010ED8B0000E006E005206E0090EB8
:102FBA000401B45F000EB55B05D00401080EB45FCE
:102FCA00000EB55BB4C4C2F4EBEC08F000C004F028
:102FDA0001C005F002C006F003C007F0B0C400F05B
:102FEA00B1C401F0B2C402F0B3C403F02EEC08F08D
:102FFA0044EC0CF000C0B6F401C0B7F402C0B8F457
:10300A0003C0B9F40401B06BB16BB26BB36B38D0C7
:10301A00B0C400F0B1C401F0B2C402F0B3C403F00A
:10302A0044EC0CF000C0B6F401C0B7F402C0B8F426
:10303A0003C0B9F4B6C400F0B7C401F0B8C402F0D2
:10304A00B9C403F031EC0CF000C004F001C005F083
:10305A0002C006F003C007F0B0C400F0B1C401F02A
:10306A00B2C402F0B3C403F02DEC0CF000C0B0F40B
:10307A0001C0B1F402C0B2F403C0B3F4B46BB56BCF
:10308A00010EAB6FAB510A0A34E0ABC400F0000E7C
:10309A00016E026E036E0036009001360236033668
:1030AA0000360090013602360336710E0024F66EA1
:1030BA00660E0120F76E000E0220F86E0900F5CFA9
:1030CA0001F00900F5CF02F00900F5CF03F009007D
:1030DA00F5CF04F00450B95D08E10350B85D05E18D
:1030EA000250B75D02E10150B65D01E202D0AB2B9E
:1030FA00C9D7AB51A925006E000EAA21016EB451A1
:10310A000026B55101220050AC5F0150AD5BAFB74C
:10311A0004D0A951AA1101E104D0010EAC5F000E3E
:10312A00AD5B030EAE15006EAFC401F0000E0116C2
:10313A000050011004E0010EAC5F000EAD5BAEA5BD
:10314A0039D0AEA312D0AEA103D02D0EA36F02D0F8
:10315A002B0EA36F9AC4E1FF9BC4E2FFA3C4E6FF50
:10316A009A4B9B2BBA4BBB2B0CD0AEA10AD09AC45C
:10317A00E1FF9BC4E2FF200EE66E9A4B9B2BBA4BF3
:10318A00BB2B800E006E800EAD19005C02E1AC51C3
:10319A0000080FE29AC4E1FF9BC4E2FF300EE66E1C
:1031AA009A4B9B2BBA4BBB2B010EAC5F000EAD5B4F
:1031BA00E8D73AD0AEB718D0800E006E800EAD199F
:1031CA00005C02E1AC5100080FE29AC4E1FF9BC423
:1031DA00E2FF200EE66E9A4B9B2BBA4BBB2B010EDD
:1031EA00AC5F000EAD5BE8D7AEA312D0AEA103D0A0
:1031FA002D0EA46F02D02B0EA46F9AC4E1FF9BC4BC
:10320A00E2FFA4C4E6FF9A4B9B2BBA4BBB2B0CD014
:10321A00AEA10AD09AC4E1FF9BC4E2FF200EE66E7B
:10322A009A4B9B2BBA4BBB2BABC400F0AB0700529B
:10323A004CE0ABC400F0000E016E026E036E003665
:10324A000090013602360336003600900136023607
:10325A000336710E0024F66E660E0120F76E000E1C
:10326A000220F86E0900F5CF04F00900F5CF05F049
:10327A000900F5CF06F00900F5CF07F0B6C400F053
:10328A00B7C401F0B8C402F0B9C403F043EC05F0C6
:10329A000A0E046E000E056E066E076E43EC05F00C
:1032AA0008C000F009C001F00AC002F00BC003F028
:1032BA00300E00269AC4E1FF9BC4E2FF00C0E6FF7D
:1032CA009A4B9B2BBA4BBB2BAFD7800E006E800E4E
:1032DA00B519005C02E1B45100080FE29AC4E1FF9B
:1032EA009BC4E2FF300EE66E9A4B9B2BBA4BBB2B6C
:1032FA00010EB45F000EB55BE8D7800E000A006EBF
:10330A00800EAA19005C02E1A951080803E2080E1E
:10331A00AB6F02D0A9C4ABF4AB51A95F000EAA5B94
:10332A00AB5303E1AFB701D00AD09AC4E1FF9BC403
:10333A00E2FF2E0EE66E9A4B9B2BBA4BBB2BABC40D
:10334A00C2F4EBEC08F0B0C404F0B1C405F0B2C4A6
:10335A0006F0B3C407F060EC04F0E0EC0CF000C037
:10336A00B6F401C0B7F402C0B8F403C0B9F4AB5361
:10337A004DE0AB07ABC400F0000E016E026E036EA7
:10338A0000360090013602360336003600900136C8
:10339A0002360336710E0024F66E660E0120F76EB1
:1033AA00000E0220F86E0900F5CF04F00900F5CFEF
:1033BA0005F00900F5CF06F00900F5CF07F0B6C40D
:1033CA0000F0B7C401F0B8C402F0B9C403F043EC8A
:1033DA0005F00A0E046E000E056E066E076E43ECCB
:1033EA0005F008C000F009C001F00AC002F00BC0E5
:1033FA0003F0300E00269AC4E1FF9BC4E2FF00C02E
:10340A00E6FF9A4B9B2BBA4BBB2BB1D7A951AA11FA
:10341A000FE09AC4E1FF9BC4E2FF300EE66E9A4BBE
:10342A009B2BBA4BBB2B010EA95F000EAA5BEED7F2
:10343A00AEA71AD0800E006E800EAD19005C02E1B4
:10344A00AC51000811E29AC4E1FF9BC4E2FF200ECE
:10345A00E66E9A4B9B2BBA4BBB2B010EAC5F000E50
:10346A00AD5BAC51AD11EFE192EF0EF0C00EAE15AF
:10347A00016EAFC402F0000E0216000E021802E13D
:10348A00000E0118D8A480D0AEA927D09FC4E9FFA6
:10349A00A0C4EAFFEECF00F0EECF01F000C0E9FFD2
:1034AA0001C0EAFFEECFB6F4EECFB7F4EECFB8F430
:1034BA00EECFB9F49FC4E9FFA0C4EAFF040EEE24DC
:1034CA00006E000EEE20016E9FC4E1FFA0C4E2FF71
:1034DA0000C0E6FF01C0E6FF2FD09FC4E9FFA0C4E9
:1034EA00EAFFEECF00F0EECF01F000C0E9FF01C025
:1034FA00EAFFEECF00F0EECF01F0000E01BEFF0EA4
:10350A00026E036E00C0B6F401C0B7F402C0B8F48C
:10351A0003C0B9F49FC4E9FFA0C4EAFF020EEE2477
:10352A00006E000EEE20016E9FC4E1FFA0C4E2FF10
:10353A0000C0E6FF01C0E6FF800EB919006E800EDA
:10354A00005C08E1000EB85D05E1000EB75D02E11E
:10355A00000EB65D18E2030EAE13000EAF13006A3A
:10356A00016A026A036AB651005EB751015AB8513C
:10357A00025AB951035A00C0B6F401C0B7F402C0E6
:10358A00B8F403C0B9F44ED0AEA927D09FC4E9FF5E
:10359A00A0C4EAFFEECF00F0EECF01F000C0E9FFD1
:1035AA0001C0EAFFEECFB6F4EECFB7F4EECFB8F42F
:1035BA00EECFB9F49FC4E9FFA0C4EAFF040EEE24DB
:1035CA00006E000EEE20016E9FC4E1FFA0C4E2FF70
:1035DA0000C0E6FF01C0E6FF25D09FC4E9FFA0C4F2
:1035EA00EAFFEECF00F0EECF01F000C0E9FF01C024
:1035FA00EAFFEECFB6F4EECFB7F4000EB86FB96FAC
:10360A009FC4E9FFA0C4EAFF020EEE24006E000E7A
:10361A00EE20016E9FC4E1FFA0C4E2FF00C0E6FFF6
:10362A0001C0E6FF000EAA1902E1000EA9190FE176
:10363A00000E006EB91908E10050B81905E10050F2
:10364A00B71902E1B651000A02E1A94BAA2BC00E32
:10365A00AE15006E00C005F0AED0010EAB6FAB51D7
:10366A000A0A34E0ABC400F0000E016E026E036E6B
:10367A0000360090013602360336003600900136D5
:10368A0002360336710E0024F66E660E0120F76EBE
:10369A00000E0220F86E0900F5CF01F00900F5CFFF
:1036AA0002F00900F5CF03F00900F5CF04F0045049
:1036BA00B95D08E10350B85D05E10250B75D02E16A
:1036CA000150B65D01E202D0AB2BC9D782D0010E00
:1036DA00AB6FAB51080A34E0ABC400F0000E016EC8
:1036EA00026E036E0036009001360236033600364B
:1036FA000090013602360336BC0E0024F66E660EC2
:10370A000120F76E000E0220F86E0900F5CF01F0D5
:10371A000900F5CF02F00900F5CF03F00900F5CF53
:10372A0004F00450B95D08E10350B85D05E10250A8
:10373A00B75D02E10150B65D01E202D0AB2BC9D7F9
:10374A0048D0010EAB6FAB510C0A34E0ABC400F0A9
:10375A00000E016E026E036E0036009001360236CC
:10376A00033600360090013602360336410E002435
:10377A00F66E660E0120F76E000E0220F86E090042
:10378A00F5CF01F00900F5CF02F00900F5CF03F0FB
:10379A000900F5CF04F00450B95D08E10350B85DA3
:1037AA0005E10250B75D02E10150B65D01E202D0C7
:1037BA00AB2BC9D70ED00550000AD8B44ED7055046
:1037CA00C00AD8B44AD70550800A81E00550400A99
:1037DA00B8E0800E006E800EAA19005C02E1A951C1
:1037EA00AB5D03E2A9C4ABF40DD0800EAA19006E3A
:1037FA00800E005C02E1AB51A95D04E2ABC4A9F4FE
:10380A00000EAA6FAC51AD110EE0030EAE15006E9C
:10381A00AFC401F0000E01160050011004E0010EC1
:10382A00AC5F000EAD5B800EAA19006E800EAD195A
:10383A00005C02E1AC51A95D05E2A951AC5FAA5155
:10384A00AD5B02D0AC6BAD6BC40EAE15016EAF5161
:10385A00080B026E0250080A02E1400E011808E144
:10386A00AC51AD1104E0010EAC5F000EAD5B1CD093
:10387A00C00EAE15016EAF51080B026E0250080A57
:10388A0002E1800E011810E1800E006E800EAD1963
:10389A00005C02E1AC51020805E2020EAC5F000EC8
:1038AA00AD5B02D0AC6BAD6BAEA55DD0AEA312D052
:1038BA00AEA103D02D0EA56F02D02B0EA56F9AC410
:1038CA00E1FF9BC4E2FFA5C4E6FF9A4B9B2BBA4BD0
:1038DA00BB2B34D0AEA10BD09AC4E1FF9BC4E2FF4C
:1038EA00200EE66E9A4B9B2BBA4BBB2B27D0C00EF1
:1038FA00AE15016EAF51080B026E0250080A02E1C2
:10390A00800E01181BE19AC4E1FF9BC4E2FF300E4E
:10391A00E66E9A4B9B2BBA4BBB2BAEAB03D0580E21
:10392A00A66F02D0780EA66F9AC4E1FF9BC4E2FF8D
:10393A00A6C4E6FF9A4B9B2BBA4BBB2BAC51AD11DD
:10394A0011E09AC4E1FF9BC4E2FF300EE66E9A4B87
:10395A009B2BBA4BBB2B010EAC5F000EAD5BAC517F
:10396A00AD11EFE174D0AC51AD1113E0AEB711D087
:10397A009AC4E1FF9BC4E2FF200EE66E9A4B9B2B92
:10398A00BA4BBB2B010EAC5F000EAD5BAC51AD1157
:10399A00EFE1AEA312D0AEA103D02D0EA76F02D0D5
:1039AA002B0EA76F9AC4E1FF9BC4E2FFA7C4E6FFF0
:1039BA009A4B9B2BBA4BBB2B0CD0AEA10AD09AC404
:1039CA00E1FF9BC4E2FF200EE66E9A4B9B2BBA4B9B
:1039DA00BB2BC00EAE15016EAF51080B026E025022
:1039EA00080A02E1400E01180BE19AC4E1FF9BC4E8
:1039FA00E2FF300EE66E9A4B9B2BBA4BBB2B27D0BD
:103A0A00C00EAE15016EAF51080B026E0250080AC5
:103A1A0002E1800E01181BE19AC4E1FF9BC4E2FF98
:103A2A00300EE66E9A4B9B2BBA4BBB2BAEAB03D038
:103A3A00580EA86F02D0780EA86F9AC4E1FF9BC4F3
:103A4A00E2FFA8C4E6FF9A4B9B2BBA4BBB2B800E16
:103A5A00006E800EAA19005C02E1A951AB5D0BE26F
:103A6A009AC4E1FF9BC4E2FF300EE66E9A4B9B2B91
:103A7A00BA4BBB2BECD7A9C400F0AAC401F0010EC3
:103A8A00A95F000EAA5B00500110D8B42AD1C00E5B
:103A9A00AE15006E00C0BCF40AD1A9C400F0AAC4D5
:103AAA0001F0000EAABFFF0E026E036E00360090F0
:103ABA0001360236033600360090013602360336E6
:103ACA00710E0024F66E660E0120F76E000E0220BB
:103ADA00F86E0900F5CF04F00900F5CF05F00900EA
:103AEA00F5CF06F00900F5CF07F0B6C400F0B7C469
:103AFA0001F0B8C402F0B9C403F043EC05F00A0EB1
:103B0A00046E000E056E066E076E43EC05F008C0E3
:103B1A0000F009C001F00AC002F00BC003F0300E39
:103B2A000024AB6FD3D0AEAB45D0A9C400F0AAC471
:103B3A0001F0000EAABFFF0E026E036E003600905F
:103B4A000136023603360036009001360236033655
:103B5A00BC0E0024F66E660E0120F76E000E0220DF
:103B6A00F86E0900F5CF04F00900F5CF05F0090059
:103B7A00F5CF06F00900F5CF07F0B6C400F0B7C4D8
:103B8A0001F0B8C402F0B9C403F043EC05F00F0E1B
:103B9A000016000E011602160316220E0024F66EF7
:103BAA00670E0120F76E000E0220F86E0900F5CFAD
:103BBA00ABF444D0A9C400F0AAC401F0000EAABF15
:103BCA00FF0E026E036E003600900136023603368F
:103BDA0000360090013602360336BC0E0024F66E1B
:103BEA00660E0120F76E000E0220F86E0900F5CF6E
:103BFA0004F00900F5CF05F00900F5CF06F0090039
:103C0A00F5CF07F0B6C400F0B7C401F0B8C402F0AB
:103C1A00B9C403F043EC05F00F0E0016000E0116AE
:103C2A0002160316000E0024F66E670E0120F76EC8
:103C3A00000E0220F86E0900F5CFABF447D0A9C4F4
:103C4A0000F0AAC401F0000EAABFFF0E026E036EB6
:103C5A0000360090013602360336003600900136EF
:103C6A0002360336410E0024F66E660E0120F76E08
:103C7A00000E0220F86E0900F5CF04F00900F5CF16
:103C8A0005F00900F5CF06F00900F5CF07F0B6C434
:103C9A0000F0B7C401F0B8C402F0B9C403F043ECB1
:103CAA0005F0070E0014AB6F300EAB270FD0BC51D6
:103CBA00000AD8B4F2D6BC51C00AD8B4EED6BC5168
:103CCA00800AD8B430D7BC51400AB9E09AC4E1FF9F
:103CDA009BC4E2FFABC4E6FF9A4B9B2BBA4BBB2BB0
:103CEA00CAD6AEA71AD0800E006E800EAD19005C3F
:103CFA0002E1AC51000811E29AC4E1FF9BC4E2FF61
:103D0A00200EE66E9A4B9B2BBA4BBB2B010EAC5F77
:103D1A00000EAD5BAC51AD11EFE192EF0EF0BAC4FB
:083D2A0000F0BBC401F012001F
:0C3D32000E0E0D6E0D2EFED700001200CC
:103D3E00C7B409D01F0EC514016E0150000A03E16D
:0A3D4E00010E006E01D0006A1200A1
:103D5800F250026EF29E0500FF6A0150FE6E00509E
:083D6800FD6E02BEF28E120096
:103D70000201C2917FC49AF44BEC0EF0C281120092
:103D8000086A096A100E0C6E0134083609360450B0
:103D9000085E0550D8A0053C095ED8B007D0045095
:103DA00008260550D8B0053C0926D89000360136C3
:063DB0000C2EEAD7120000
:103DB600C26A0101AD1D006E0050C1160F0EC01281
:103DC600C08E7FC400F00036009000360090005090
:103DD600C212C280ABDFC282C2A201D0FDD7C4CF5D
:103DE60001F0006A00C080F401C081F4C3500012E3
:103DF600000E011200C080F401C081F4C290000ED2
:103E06000014026E0150800B036E000E031802E1CF
:103E1600000E021803E00401806B816B80C400F081
:063E260081C401F012004E
:103E2C00840E0401986F040E996F7FC49AF480C4B9
:103E3C009BF481C49CF482C49DF483C49EF4980EBC
:103E4C009F6F040EA06F8DEC0EF000C096F401C0B5
:103E5C0097F400507F25E16E01508021E26EE66AF6
:0A3E6C0096C400F097C401F01200A4
:103E760055520DE00101C15303E0010E006E01D061
:103E8600006A00B002D0899401D089840BD05952BF
:103E960003E0010E016E01D0016A01B002D08994DF
:103EA60001D089840101C65306E1E05304E1000113
:103EB6008D5301E103D0010E026E01D0026A02B0F9
:0A3EC60002D0899601D0898612000F
:103ED0000401826B7FC4E9FF80C4EAFFEECF81F466
:103EE0008151000A0FE081C4C2F479EC0DF00401A5
:103EF000822B82517F25E96E000E8021EA6EEECF83
:063F000081F4EED712006F
:103F0600220E0C6E086A096A0A6A0B6A0C06D8B495
:103F16001FD0D8900B320A320932083203320232ED
:103F260001320032D8A0F2D70C06D8B409D004501A
:103F360008260550092206500A2207500B22EAD706
:103F4600045008260550092206500A2207500B2263
:023F5600120057
:103F5800B5C181F4B6C182F4B7C183F4B8C184F4A1
:103F680004017F6B806B8051120802E17F518E083B
:103F780008E3E1DE005201E004D004017F4B802B0E
:103F8800F2D70401120E805D02E18F0E7F5D03E31C
:103F98007B0E006E26D0C580C5A022D00101B55188
:103FA800B611B711B8111BE00401815182118311B8
:103FB80084110EE1C5C2E1FFC6C2E2FF050EE66E3E
:103FC800C3C200F0C4C201F0C3DE010E006E09D006
:103FD800010E0401815F000E825B835B845BDCD78A
:043FE800006A120059
:103FEC009E967FC4C9FFB5C180F4B6C181F4B7C138
:103FFC0082F4B8C183F4C7A422D00101B551B61123
:10400C00B711B8111BE00401805181118211831189
:10401C000EE1C5C2E1FFC6C2E2FF040EE66EC3C2EA
:10402C0000F0C4C201F092DE010E006E3BD0010E16
:10403C000401805F000E815B825B835BDCD7B5C1C2
:10404C0080F4B6C181F4B7C182F4B8C183F49EB6D2
:10405C0022D00101B551B611B711B8111BE0040102
:10406C0080518111821183110EE1C5C2E1FFC6C2DC
:10407C00E2FF040EE66EC3C200F0C4C201F066DEBD
:10408C00010E006E0FD0010E0401805F000E815BEB
:10409C00825B835BDCD7C5BC02D0006A03D0C584CD
:0640AC00020E006E12007E
:0440B200C5841200AF
:1040B600BB50010F006E016A000E01227FC404F09E
:1040C600000E056E23EC0EF0060E026E00C004F024
:1040D60001C005F0025005E005320432059EFF0FCF
:1040E600FAD7040E016E04C000F0015004E0003659
:1040F6000090FF0FFBD7300E0014036E04C000F0D3
:1041060005C001F001320032019E01320032019EEB
:0E41160000C0BEFF0F0EBD160350BD121200FA
:1041240045C100F0000E016EFF0E046E000E056E18
:1041340023EC0EF0640E046E000E056E1FDE00C04C
:0E41440056F0640E005C02E2640E566E12002D
:10415200B5C121F4B6C122F4B7C123F4B8C124F425
:10416200C582C5A220D00101B551B611B711B8114F
:1041720019E0040121512211231124110CE1C5C2BD
:10418200E1FFC6C2E2FF060EE66EC3C200F0C4C281
:1041920001F0E1DD08D0010E0401215F000E225B77
:0841A200235B245BDED7120051
:1041AA0021C402F022C403F002C000F003C001F0EF
:1041BA00024A032A00C0E9FF01C0EAFFEE5201E009
:1041CA00F3D704012151025C006E22510358016E9B
:0A41DA00010E005E000E015A1200F3
:1041E4000401246B256B266B276B000E80B0010E37
:1041F4000101C16F010E04017F6FDBDD0401236B3C
:10420400080E235D0DE2010E7F6FD3DD0050040123
:10421400242701502523000E26232723232BF0D700
:10422400030E006E24C401F025C402F026C403F07A
:1042340027C404F0005007E0043203320232013292
:10424400049EFF0FF8D701C021F402C022F40250EB
:10425400030802E10150840804E2840E216F030E76
:10426400226F21C400F022C401F0000E026E036E1E
:10427400840E046E030E056E000E066E000E076EAD
:1042840040DE840E046E030E056E000E066E076E8D
:0E42940043EC05F000C0C2F101C0C3F11200FE
:1042A20021C47FF407DF565000081FE25650040174
:1042B200215D03E345C168F017D045C100F0000E4F
:1042C200016E026E036E21C404F0000E056E066ECE
:1042D200076E18DE56C004F0000E056E066E076EFD
:1042E20043EC05F000C068F002D00001686B1200D8
:1042F20010D0800E0401216F1AD0C00E216F17D08A
:10430200940E216F14D0D40E216F11D0800E216F24
:104312000ED004012151010AECE02151020AEDE024
:104322002151030AEDE02151040AEDE0EFD7220505
:10433200006E2151002600C021F400C09AF44BEC1B
:104342000EF0C2910401256B25512325E96E000E62
:104352002421EA6EEE520CE025512325E96E000E6F
:104362002421EA6EEECF7FF402DD0401252BECD787
:064372000201C2811200ED
:1043780021C4E9FF22C4EAFFEE500401231905E134
:1043880021C400F022C401F010D021C400F022C4DE
:1043980001F0214B222B00C0E9FF01C0EAFFEECF5C
:0C43A80000F00052E5E1006A016A12001A
:1043B40003C225F404C226F421C4E1FF22C4E2FFAF
:1043C400200EE66E010E04012125E16E000E22216D
:1043D400E26E200EE66E020E2125E16E000E222111
:1043E400E26E4D0EE66E030E2125E16E000E2221D3
:1043F400E26E410EE66E040E2125E16E000E2221CE
:10440400E26E580EE66E050E2125E16E000E2221A5
:10441400E26E3A0EE66E060E2125276F000E22216B
:10442400286F000E265D02E1640E255D0DE3640E27
:10443400046E000E056E25C400F026C401F09EDC57
:104444000050300F236F02D0200E236F27C4E1FFEA
:1044540028C4E2FF23C4E6FF070E2125276F000EC0
:104464002221286F000E265D02E10A0E255D16E367
:104474000A0E046E000E056E25C400F026C401F079
:104484007DDC0A0E046E000E056E78DC08C000F0B8
:1044940009C001F00050300F246F02D0200E246FA9
:1044A40027C4E1FF28C4E2FF24C4E6FF080E212547
:1044B400276F000E2221286F0A0E046E000E056E6F
:1044C40025C400F026C401F059DC08C000F009C07E
:1044D40001F0300E002627C4E1FF28C4E2FF00C02B
:1044E400E6FF090E2125E16E000E2221E26E200E68
:1044F400E66E0A0E2125E16E000E2221E26E6B0E9D
:10450400E66E0B0E2125E16E000E2221E26E670E8F
:10451400E66E0C0E2125E16E000E2221E26E200EC5
:10452400E66E0D0E2125E16E000E2221E26E200EB4
:10453400E66E0E0E2125E16E000E2221E26E200EA3
:10454400E66E0F0E2125E16E000E2221E26E200E92
:10455400E66E100E2125E16E000E2221E26EE66A5F
:02456400120043
:104566000101C551C35D02E1C451C25D04E3010E00
:104576000401226F02D00401226B22C4C6F121532A
:0C45860003E0FF0E0101C06F73DC1200A7
:10459200555203E0C1C101F002D059C001F00152ED
:1045A20003E04F0E026E02D0460E026E02C000F011
:0245B2001200F5
:1045B400B5C123F4B6C124F4B7C125F4B8C126F4B7
:1045C4009E96C5869EB621D00101B551B611B7118C
:1045D400B8111AE0040123512411251126110DE10B
:1045E400C5C2E1FFC6C2E2FF030EE66EC3C200F01D
:1045F400C4C201F0ACEC1EF008D0010E0401235F2C
:10460400000E245B255B265BDDD70401C9CF22F4B1
:104614002151000A02E1C58A01D0C59A9E96C58837
:10462400B5C123F4B6C124F4B7C125F4B8C126F446
:104634009EB621D00101B551B611B711B8111AE0D7
:10464400040123512411251126110DE1C5C2E1FFF6
:10465400C6C2E2FF030EE66EC3C200F0C4C201F09C
:10466400ACEC1EF008D0010E0401235F000E245BA5
:0C467400255B265BDDD722C400F012009D
:1046800001017B51000805E27B05006E00C07BF153
:104690005ED000016751550A04E1010E04017E6FEE
:1046A0000AD000016751440A04E1020E04017E6F42
:1046B00002D004017E6B55520CE00101C15304E0AD
:1046C000010E0401216F02D00401216B21C422F4E8
:1046D00008D0595203E0010E236F01D0236B23C48D
:1046E00022F4240E7F6F040E806F950E816F650E8D
:1046F000826F000E836F82C084F4000E856F7EC4CB
:1047000086F4000E876FC2C188F4C3C189F422C445
:104710008AF4000E8B6F8DC08CF4000E8D6FE0C19B
:104720008EF4000E8F6F87C190F488C191F468C039
:1047300092F4000E936F8FC094F490C095F416EC31
:104740001FF0240E7F6F040E806F68EC1FF01200C4
:1047500025C400F004012507005228E021C4E9FF28
:1047600022C4EAFFEE50000A0CE021C4E9FF22C493
:10477000EAFF23C4D9FF24C4DAFFEE50DE1801E1BA
:104780000FD021C4E9FF22C4EAFF23C4D9FF24C407
:10479000DAFFDE50EE5C006E016A000E015A08D0AE
:1047A0000401214B222B234B242BD2D7006A016A10
:0247B0001200F5
:1047B200ACEC1FF0A00E04017F6F17DC21C47FF464
:1047C20014DC22C47FF411DC73DC1A0E0C6EF80EBA
:0E47D2000D6E0D2EFED70C2EFCD7000012002F
:1047E0007C0E04017F6F010E806F68EC1FF01200D9
:1047F000010E01017B6FE50E04017F6F030E806FD8
:10480000990E816F660E826F000E836F46C184F42D
:1048100047C185F408C186F4000E876F09C188F48A
:10482000000E896F16EC1FF0E50E7F6F030E806F90
:0648300068EC1FF012000D
:104836000301E56BE551060858E381AC1FD0010181
:10484600E0531CE1340E0C6EF10E0D6E0D2EFED7EC
:104856000C2EFCD70000000081AC10D08B908B9200
:1048660004017F6B25DC0101896B0001686B010E79
:104876000101E06F8986010E00017A6F00017A530B
:1048860003E15D5201E10AD08B908B9204017F6BAC
:104896000FDC0101896B0001686B27D0500E565C56
:1048A600006E016A000E015AE5C304F0000E056EA3
:1048B60023EC0EF0060E046E000E056EC0EC1EF024
:1048C600500E0026000E012200C021F4E7DCD5DEE2
:1048D600340E0C6EF10E0D6E0D2EFED70C2EFCD77F
:0C48E600000000000301E52BA5D7120024
:1048F200ACEC1FF0A00E04017F6FF6EC1FF0E5C3D5
:104902007FF4F6EC1FF024DCA10E04017F6FF6ECBD
:104912001FF00401216B4DDE00C0E6F359EC20F0DC
:06492200E6C300F01200E4
:10492800E5C321F4E7C300F0016A00C022F43DDFCB
:104938000301E551010F0401216FFF0E0301E61584
:084948000401226F32DF1200AE
:10495000585215E0010E0401216F010E226F480E1E
:10496000236F010E246FC5DC020E0401216F010EBE
:10497000226F590E236F010E246FBBDCA6D00101FC
:10498000E05320E100018D531DE10101C6531AE0FF
:10499000ED0E0401216F030E226F0CDD010E216F5D
:1049A000010E226F6A0E236F010E246FA2DC020E2D
:1049B0000401216F010E226FED0E236F030E246F91
:1049C00098DC83D055520BE0410E0301E86F750E61
:1049D000E96F740EEA6F6F0EEB6FEC6B0AD0030198
:1049E0004D0EE86F610EE96F6E0EEA6F750EEB6F9C
:1049F000EC6B00017B532EE06751550A07E1550E21
:104A00000301E56F500EE66FE76B06D00301440E1D
:104A1000E56F4E0EE66FE76B3C0E04017F6F020EF2
:104A2000806F330E816F670E826F000E836F82C0BE
:104A300084F4000E856F5AC086F4000E876FE50E71
:104A4000886F030E896FE80E8A6F030E8B6F16EC6A
:104A50001FF015D004013C0E7F6F020E806F440ED4
:104A6000816F670E826F000E836F82C084F4000E28
:104A7000856FE80E866F030E876F16EC1FF0010E30
:104A8000216F010E226F3C0E236F020E246F31DC6A
:104A900080DD00C086F4500E04017F6F020E806F2F
:104AA000DC0E816F660E826F000E836FC2C184F4CC
:104AB000C3C185F416EC1FF0020E216F010E226FA8
:0C4AC000500E236F020E246F14DC120055
:104ACC000101466B476B086B640E096F640E456FF2
:104ADC0092EC20F00401216B226B65DE010E0401C7
:104AEC00216F226B60DE020E0401216F226B5BDEF4
:104AFC00030E0401216F640E226F55DE040E0401B7
:104B0C00216F226B50DE050E0401216F226B4BDEF0
:024B1C00120085
:104B1E00290E04017F6F020E806F68EC1FF01200E9
:104B2E00000E0301E61902E1000EE51939E0E5C3B6
:104B3E00E9FFE6C3EAFFEE5233E0E7C321F4E8C330
:104B4E0022F4D5EC20F000C025F4E5C321F4E6C331
:104B5E0022F4E7C323F4E8C324F4F3DD000E0118B6
:104B6E0002E1000E001805E1E5C300F0E6C301F016
:104B7E0019D0010E0301E5250401216F000E03017A
:104B8E00E6210401226FE7C3E9FFE8C3EAFFEECF97
:104B9E0023F4BCEC21F000C0E5F301C0E6F3C0D76E
:064BAE00006A016A12001A
:104BB40000016751550A07E1550E0301E56F500ED8
:104BC400E66FE76B06D00301440EE56F4E0EE66F09
:104BD400E76B55520AE0410EE86F750EE96F740EEB
:104BE400EA6F6F0EEB6FEC6B09D04D0EE86F610E40
:104BF400E96F6E0EEA6F750EEB6FEC6B3C0E040101
:104C04007F6F020E806F110E816F670E826F000E30
:104C1400836F82C084F4000E856F5AC086F4000E40
:104C2400876FE50E886F030E896FE80E8A6F030E97
:104C34008B6F16EC1FF0010E216F010E226F3C0EDC
:104C4400236F020E246F79EC21F0A1DC00C086F4FE
:104C5400500E04017F6F020E806FEE0E816F660EA0
:104C6400826F000E836FC2C184F4C3C185F416EC55
:104C74001FF0020E216F010E226F500E236F020EE1
:084C8400246F79EC21F012000D
:104C8C0002010551061902E1006A41D0F29E0301AE
:104C9C00E76B800E006E800E000A005C02E1270EAE
:104CAC00E75D24E2E751E525E86F000EE621E96FA8
:104CBC00280E006E000E016E05C204F0000E056E8B
:104CCC0023EC0EF0C70E0026020E0122E751002441
:104CDC00E96E000E0120EA6EEECF00F0E8C3E1FFB2
:104CEC00E9C3E2FF00C0E6FFE72BD3D7270EE5258B
:104CFC00E16E000EE621E26EE66A02010551010F3B
:104D0C00006E030E0014056FF28E010E006E120081
:0A4D1C009494BA840C0EBD1212002C
:104D2600000E0301E65D02E1010EE55D04E2010EFF
:104D3600E56F000EE66FE651030802E1E551E7086C
:104D460004E2E70EE56F030EE66FE5C303F2E6C382
:104D560004F2E5C3C4F1E6C3C5F1F2EC20F0010E9E
:0C4D6600216FB3EC22F039DD88DC120074
:104D7200A9C3E5F3BDDD00C0AAF3000E0301AB6FCA
:104D8200A951010FE56FB4DD00C003F0000E046EFF
:104D9200AAC301F0006A035000120450011212006B
:0E4DA200010E04019A6F4BEC0EF0D1DD1200F1
:104DB0000301A951550A06E18B808B92010E010176
:104DC000896F05D001018B908B82010E896F500E87
:0E4DD0000401216F51EC21F0A1DF2DDD120056
:104DDE00060E0301A96FA95100085EE281AC20D036
:104DEE000101E0531DE1340E0C6EF10E0D6E0D2E11
:104DFE00FED70C2EFCD70000000081AC11D08B909A
:104E0E008B9204017F6B5BEC20F00101896B00013A
:104E1E00686B010E0101E06F8986010E00017A6F49
:104E2E0000017A5303E15D5201E10BD08B908B921E
:104E3E0004017F6B5BEC20F00101896B0001686B54
:104E4E0035D0500E565C046E056A000E055A0301ED
:104E5E00A905006E016A000E015A23EC0EF0060E33
:104E6E00046E000E056EC0EC1EF0500E0026000EF5
:104E7E00012200C021F451EC21F040EC23F0340E5D
:104E8E000C6EF10E0D6E0D2EFED70C2EFCD7000003
:104E9E0000000301A9079FD78B908B9204017F6BB3
:0E4EAE005BEC20F00101896B0001686B1200C3
:104EBC000101874B882B464B472B82C008F103011D
:104ECC00E56B46C1E6F347C1E7F328DD020E0401AA
:0A4EDC00216F08C122F467DC120008
:104EE6000301E36BE46BAA51E45D02E1A951E35DC2
:104EF600D8B0A6D181AC20D00101E0531DE1340E1B
:104F06000C6EF10E0D6E0D2EFED70C2EFCD700008A
:104F1600000081AC11D08B908B9204017F6B5BEC0F
:104F260020F00101896B0001686B010E0101E06F41
:104F36008986010E00017A6F00017A5303E15D5202
:104F460001E101D07DD1AC0E0301E56F030EE66FE2
:104F56009ADE0052D8B409D1AC0E0301E56F030EF8
:104F6600E66F5E0EE76F000EE86FDEDD00500110A3
:104F760016E08B908B9204017F6B5BEC20F00101B5
:104F8600896B0001686B010E0101E06F530E000191
:104F9600676F7B6B8986010E7A6F1FDCE6D0AC0EDD
:104FA6000301E56F030EE66F870EE76F000EE86FED
:104FB600BBDD0050011008E0010E00018D6F010EEF
:104FC6008E6F89860ADCD1D0AC0E0301E56F030E25
:104FD600E66F7C0EE76F000EE86FA6DD00C0DEF31D
:104FE60001C0DFF3000E011802E1000E001841E0D7
:104FF600050E0301DE25E96E000EDF21EA6E300E96
:10500600EE5C016E01C0E2F3040E015C30E20001C9
:105016008D532DE10101C6532AE100016751550A5E
:1050260011E10301E2510001825D0CE2830EE16EA3
:10503600000EE26E0301E251E126D8B0E22A010E2B
:10504600E66E12D000016751440A0EE18251030157
:10505600E25D0AE2830EE16E000EE26EE251E126A7
:10506600D8B0E22A010EE66EF0EC23F001D054DD52
:105076007CD0AC0E0301E56F030EE66F3F0EE76FC3
:10508600000EE86F51DD00C0DEF301C0DFF3000E55
:10509600011802E1000E001838E00301E06BE16B35
:1050A600050EDE27000EDF23DEC3E9FFDFC3EAFFBE
:1050B600300EEE5C24E3DEC3E9FFDFC3EAFFEE5009
:1050C60039081DE3E0C300F0E1C301F00A0E046EE7
:1050D600000E056E23EC0EF0DEC3E9FFDFC3EAFF28
:1050E600300EEE5C026E036A000E035A0250002474
:1050F600E06F03500120E16FDE4BDF2BD5D7E0C315
:10510600E5F3E1C3E6F30CDE30D0AC0E0301E56F48
:10511600030EE66F450EE76F000EE86F05DD0050E3
:10512600011003E0F8EC23F020D0AC0E0301E56F8C
:10513600030EE66F4D0EE76F000EE86FF5DC0050CC
:1051460001100EE1AC0E0301E56F030EE66F250EAE
:10515600E76F000EE86FE8DC0050011001E105D0B2
:10516600B2DCF0EC23F0F8EC23F000017A5303E113
:105176005D5201E101D064D00301AB6B040EAB5D5F
:105186003EE2ABC302F0010E006E000E016E02504D
:1051960005E0003600900136FF0FFAD7835000165F
:1051A600000E01160050011027E000016751550A54
:1051B60011E10301AB510001825D0CE2830EE16E49
:1051C600000EE26E0301AB51E126D8B0E22A010ED1
:1051D600E66E12D000016751440A0EE182510301C6
:1051E600AB5D0AE2830EE16E000EE26EAB51E12684
:1051F600D8B0E22A010EE66E0301AB2BBFD73E52B2
:105206000FE03E6AF2EC20F0216BB3EC22F040ECAA
:1052160023F00101895302E0CADC02D0A8EC24F095
:10522600340E0C6EF10E0D6E0D2EFED70C2EFCD725
:1052360000000000140E0301E327000EE42353D6FA
:02524600120054
:10524800FF0E0201A26FFF0EA36FFF0EA46FFF0EE9
:10525800A56FC26A0101AD1D006E0050C1160F0E88
:08526800C012C08EC2801200CA
:105270000301A96B7EDD00C09FF301C0A0F3020E05
:105280000301E56F79EC24F000C008F1030E03017F
:10529000E56F79EC24F000C0A1F30301A051FF0AEF
:1052A00002E1FF0E9F190AE10101466B476B030102
:1052B000E56BE66BE76B94EC24F004D09FC346F1FA
:1052C000A0C347F101010851FF0A07E1086B020E74
:1052D0000401216F226BD9EC23F00301A151FF0AD5
:1052E00004E0A151000A01E00DD0640E0101096F34
:1052F000640E456F030E0401216F640E226FD9EC1A
:1053000023F004D0A1C309F1A1C345F1760E020137
:10531000036F020E046F760E0101C46F020EC56F9B
:0A532000C66BC06B92EC20F0120087
:08532A00BE6ABD98BD9A120095
:105332003E0E0201A66F3D0EA76F000EA86F000E73
:10534200A96F580E966F3F0E976F000E986F000E62
:10535200996F520E9E6F410E9F6F000EA06F000E4E
:10536200A16FB40E9A6F450E9B6F210E9C6F040EB7
:105372009D6FEC0EBE6F3F0EBF6F7F0EC06F040EAF
:10538200C16FB20EBA6F400EBB6F000EBC6F000E43
:10539200BD6F949894968B988B9694889486C79EAA
:0853A200C79C380EC66E120014
:1053AA00F20E0201B26F1A0EB36FC20EB46F040E80
:1053BA00B56FFF0EB66FFF0EB76F000EB86F000E17
:1053CA00B96FFF0EAE6FFF0EAF6F000EB06F000E1B
:1053DA00B16FFF0EAA6FFF0EAB6F000EAC6F000E1F
:1053EA00AD6FAC8A900EAB6E948E949C9EAA03D03D
:0853FA00AECF00F0FBD712005A
:1054020003019F510001821903E07A5301E101D0A7
:1054120055D15D6A03019F510001825D04E2550E80
:105422000301A06F03D00301440EA06FA0C3A3F336
:10543200A0C367F09FC35AF0010E00017B6FF2EC2C
:1054420020F0010E216FB3EC22F0AADC40EC23F035
:105452005BC0A7F35CC0A8F3320E0301A96F000E74
:10546200AA6F40DD00017A5303E15D5201E101D0F0
:10547200E2D003019F510001825D07E282510301E4
:105482009F5DA16F000EA26F08D003019F51000122
:10549200825D0301A16F000EA26FA1C3A4F3A3C397
:1054A200A9F385DCDAEC25F00301A56BA451A55D17
:1054B200D8B0C1D000017A5303E15D5201E101D0BD
:1054C200BAD00301A405006E016A000E015A000E53
:1054D200011802E10050A519010ED8A4000EA66F12
:1054E20056C021F451EC21F00301A653D8A473D085
:1054F200010E576EF40EA96F010EAA6FF3DC0001C4
:105502007A5303E15D5201E101D095D0576A03015C
:10551200A351550A03E10001822B02D00001820748
:10552200F2EC20F0216BB3EC22F0DAEC25F040EC47
:1055320023F0830EE96E000EEA6E00018251E92625
:10554200D8B0EA2AEE5246E0830EE16E000EE26E19
:105552008251E126D8B0E22AE66A40DC7A5303E1BE
:105562005D5201E101D067D07B6B530E676F82C041
:105572005AF0F2EC20F0010E216FB3EC22F010DCB5
:1055820040EC23F0F40E0301A96F010EAA6FAADC0E
:1055920000017A5303E15D5201E101D04CD0A3C373
:1055A20067F09FC35AF0010E7B6FD1EC26F0320EEA
:1055B2000301A96F000EAA6F95DC00017A5303E183
:1055C2005D5201E101D037D0A3C3A9F3D8EC26F094
:1055D200DAEC25F02DD0010E576E0301A451010A19
:1055E20006E17C0EA96F010EAA6F7CDC06D0F40ED8
:1055F2000301A96F010EAA6F75DC00017A5303E162
:105602005D5201E101D017D0576AEFEC26F07A53D0
:1056120003E15D5201E103D0010E586E0CD003018B
:10562200A351550A03E10001822B02D00001820737
:105632000301A52B3BD78B908B9204017F6B5BEC14
:1056420020F00101896B0001686B7A5303E15D521E
:1056520001E105D0575203E0010E586E576A03016B
:10566200A7515B5C00018F6F0301A8515C580001D8
:10567200906F7B6B530E676F82C05AF0FF0E010171
:10568200C06F00017A5303E15D52D8B4586AF2EC5C
:1056920020F0010E216FB3EC22F0D1EC26F040ECA9
:1056A20023F000017A5309E15D5207E106DC640E42
:0E56B2000301A96F000EAA6F15DC5D6A1200DD
:1056C0000900F5CFE6FF0006FBE10106F9E1120053
:1056D000939A93989390939293949396819A8198A6
:1056E000819681948192819083EC0DF083EC0DF092
:1056F00083EC0DF081828180818A80EC0DF0819AAB
:1057000083EC0DF0818A80EC0DF0819A83EC0DF032
:10571000818A80EC0DF0819A83EC0DF08190818A72
:1057200080EC0DF0819A83EC0DF0818A80EC0DF015
:10573000819A81928186818A80EC0DF0819A83EC36
:105740000DF081968180818A80EC0DF0819A8190A4
:10575000818A80EC0DF0819A83EC0DF0818A80ECD7
:105760000DF0819A8180818A80EC0DF0819A83EC22
:105770000DF08190818A80EC0DF0819A8186818480
:1057800081828180818A80EC0DF0819A83EC0DF01A
:065790000201C2811200BB
:1057960083A003D0010E0001836F83A203D0000112
:1057A600010E846F83A403D00001010E856F83A6CA
:0A57B60003D00001010E866F1200FF
:1057C000830EE16E000EE26E00018251E126D8B038
:1057D000E22AE66A6751550A3BE18251010F046EE5
:1057E000040E045C18E2830EE96E000EEA6E0450AB
:1057F000E926D8B0EA2AEE520CE0830EE16E000EE4
:10580000E26E0450E126D8B0E22AE66A04C000F055
:10581000AED0042AE5D7046A8251045C18E2830EF4
:10582000E96E000EEA6E0450E926D8B0EA2AEE527C
:105830000CE0830EE16E000EE26E0450E126D8B05B
:10584000E22AE66A04C000F092D0042AE5D78DD09F
:105850006751440A42E182C004F0045000081EE28D
:105860000404006E016A000E015A830E0024E96EE2
:10587000000E0120EA6EEE520FE00404006E016A91
:10588000000E015A830E0024E16E000E0120E26E2C
:10589000E66A0404006E6BD00406DFD78251010F64
:1058A000046E040E045C18E2830EE96E000EEA6ECC
:1058B0000450E926D8B0EA2AEE520CE0830EE16EDD
:1058C000000EE26E0450E126D8B0E22AE66A04C077
:1058D00000F04DD0042AE5D748D0FF0E056E0A0E21
:1058E000086E000E096E046A040E045C2FE2830E3B
:1058F000E96E000EEA6E0450E926D8B0EA2AEECF2F
:1059000000F0005201E120D08251045C07E3825193
:10591000045C026E036A000E035A06D00450825DD6
:10592000026E036A000E035A02C006F003C007F0BD
:105930000950035C02E10850025C06E206C008F070
:1059400007C009F004C005F0042ACED70550FF0AAD
:105950000CE0830EE16E000EE26E0550E126D8B039
:10596000E22AE66A05C000F002D0FF0E006E1200C7
:10597000CD6AFE0ECF6E0C0ECE6E9E909D80CD80B9
:02598000120013
:105982009FC3E5F3A0C3E6F3AC0E0301E76F000E7D
:10599200E86F97EC25F000C0A1F301C0A2F300501C
:1059A200011028E0050E0301A125E96E000EA221D7
:1059B200EA6E300EEE5C016E01C0A3F3040E015CD0
:1059C20016E2555214E000018D5311E10101C65354
:1059D2000EE1830EE16E000EE26E0301A351E12699
:1059E200D8B0E22A010EE66EF0EC23F002D08FEC82
:1059F20025F07CD19FC3E5F3A0C3E6F3B20E030109
:105A0200E76F000EE86F97EC25F00050011019E0E7
:105A12008B908B9204017F6B5BEC20F00101896B10
:105A22000001686B010E0101E06F530E0001676F08
:105A32007B6B8986010E7A6FF0EC23F040EC23F049
