:100000001AEF22F00000000000EF00F000000000F6
:0A0010000000000000000000F3D71C
:08001C000AAE029E000E120064
:100024000B820BAE1CEF00F00368026801680068E5
:080034000A360232FF0E120031
:0E003C00026A016A006A086A036A000E120076
:10004A000B840BAE30EF00F0010E036E026A016AF8
:0A005A00006A0A360232FF0E12009F
:100064000CB074EF00F00CA21AEF01F00E6A000E4F
:1000740002648BEF00F0F00E0214D8A456EF00F0E7
:10008400023A01380F0B02260138F00B016E0038DA
:100094000F0B01260038F00B006E08380F0B0026FA
:1000A4000838F00B086E0E84D89002BE6FEF00F093
:1000B40008360036013602360E2A02BE6FEF00F013
:1000C40008360036013602360E2A02BE6FEF00F003
:1000D40008360036013602360E2A0E50036410EF3D
:1000E40001F0035E0BBC08AE15EF01F0D880800E62
:1000F40008640030000E002201220222D8A015EF6D
:1001040001F0023201320032034A1AEF01F015EF16
:1001140001F001C002F000C001F008C000F0086A5C
:10012400000E0E860264C2EF00F0F00E0214D8A492
:10013400AAEF00F0023A01380F0B02260138F00B47
:10014400016E00380F0B01260038F00B006E0E8490
:10015400D89002BE6FEF00F00036013602360E2A48
:1001640002BE6FEF00F00036013602360E2A02BEE0
:100174006FEF00F00036013602360E2A6FEF00F002
:1001840001C002F000C001F0006A000E0E960E8855
:100194000264EFEF00F0F00E0214D8A4DAEF00F0DE
:1001A400023A01380F0B02260138F00B016E0E845F
:1001B400D89002BE6FEF00F0013602360E2A02BE5E
:1001C4006FEF00F0013602360E2A02BE6FEF00F028
:1001D400013602360E2A6FEF00F001C002F0016A08
:1001E400000E0E8602641FEF01F0F00E0214D8A474
:1001F400FEEF00F0023A0E84D89002BE6FEF00F0DA
:1002040002360E2A02BE6FEF00F002360E2A02BE3C
:100214006FEF00F002360E2A6FEF00F0010E0C6E45
:1002240012DF22EF01F0020E0C6EF6DE22EF01F077
:10023400040E0C6EF5DE22EF01F0080E0C6EFCDEEF
:020244001200A6
:100246000F0E0C6E470E0D6E0D2EFED70C2EFCD724
:0602560000000000120090
:06025C000000000012008A
:080262000B6A0B86FF0E12006F
:10026A00086A080E0C6E003408360450085ED8B0CE
:0E027A0002D00826D89000360C2EF5D71200C0
:100288000B800BAE50EF01F0026A0AAEFF0E026E51
:0C029800016E006E0A360232FF0E1200EA
:1002A4000D6A086A0050D8B4000C04180A6E0ABE1D
:1002B4000D1E0B6A04AE02D0041E042A00AE02D046
:1002C400001E002A005004100A6E0ABE1FD00450FB
:1002D400085E003600340836045008260036060E40
:1002E4000C6E00340836045000B0085E00A00826E6
:1002F40000360C2EF6D700A008260BB015D00DAE94
:10030400000C001E002A081E082A000C04AE09D0A6
:1003140000BE04D00050086E006AF1D7006A002ABB
:10032400000C001E0B2AD3D7082A0450085CD8A45A
:0E033400E6D7086A002A00AEE2D7FF0C1200DE
:100342000134083609360450085E0550D8A0053C31
:10035200095E003601360F0E0C6E0134083609367E
:10036200045000A006D0085E0550D8A0053C095EE6
:1003720005D008260550D8B0053C092600360136BE
:100382000C2EEBD700B006D0045008260550D8B08A
:08039200053C092600001200E1
:10039A00025006180E6E086A096A0B6A035007644F
:1003AA00C0EF02F006500A6E068E028E03500B6EE4
:1003BA000750036E000E0B6410EF02F00B50075E3D
:1003CA00D8B4B1EF02F0070E07647FEF02F0075EC0
:1003DA0000C008F001C000F002C001F0026A074E36
:1003EA00B1EF02F0076454EF02F0075E00C008F0B4
:1003FA0001C000F0016A074EB1EF02F0076432EF64
:10040A0002F0075E00C008F0006A074EB1EF02F082
:10041A00076419EF02F00AC002F005C001F004C037
:10042A0000F0086ADAEF03F0030E076424EF02F023
:10043A00075E08380F0B086E074EB1EF02F0D8902E
:10044A000832074EB1EF02F0D8900832074EB1EFEA
:10045A0002F0D8900832B1EF02F0030E076443EFBE
:10046A0002F0075E08380F0B086E0038F00B0826FA
:10047A0000380F0B006E074EB1EF02F0D890003231
:10048A000832074EB1EF02F0D89000320832074E18
:10049A00B1EF02F0D89000320832B1EF02F0030E49
:1004AA0007646BEF02F0075E08380F0B086E00381E
:1004BA00F00B082600380F0B006E0138F00B0026EF
:1004CA0001380F0B016E074EB1EF02F0D8900132DE
:1004DA0000320832074EB1EF02F0D89001320032F2
:1004EA000832074EB1EF02F0D890013200320832DA
:1004FA00B1EF02F0030E07649CEF02F0075E0838C2
:10050A000F0B086E0038F00B082600380F0B006E30
:10051A000138F00B002601380F0B016E0238F00B80
:10052A00012602380F0B026E074EB1EF02F0D89087
:10053A000232013200320832074EB1EF02F0D8908F
:10054A000232013200320832074EB1EF02F0D8907F
:10055A000232013200320832096A000E0EAEA5EFED
:10056A0003F0081E001E011E021E082A0022012294
:10057A000222A5EF03F00750D8A4C6EF02F0DAEF83
:10058A0003F0096A02C00AF0028E068E0750035C65
:10059A00076ED8B498EF03F0070E076466EF03F00E
:1005AA00075E0450096E0550046E0650056E066A11
:1005BA00074E98EF03F0070E07643BEF03F0075E60
:1005CA000450096E0550046E056A074E98EF03F051
:1005DA00070E076419EF03F0075E0450096E046AF8
:1005EA00074E98EF03F0070E076400EF03F00AC006
:1005FA0002F0DAEF03F0030E07640BEF03F0075E75
:10060A0009380F0B096E074E98EF03F0D89009329C
:10061A00074E98EF03F0D8900932074E98EF03F08F
:10062A00D890093298EF03F0030E07642AEF03F01B
:10063A00075E09380F0B096E0438F00B09260438D7
:10064A000F0B046E074E98EF03F0D890043209326C
:10065A00074E98EF03F0D89004320932074E98EF0C
:10066A0003F0D8900432093298EF03F0030E0764BE
:10067A0052EF03F0075E09380F0B096E0438F00BCE
:10068A00092604380F0B046E0538F00B04260538CA
:10069A000F0B056E074E98EF03F0D890053204321F
:1006AA000932074E98EF03F0D89005320432093226
:1006BA00074E98EF03F0D89005320432093298EFCA
:1006CA0003F0030E076483EF03F0075E09380F0B8C
:1006DA00096E0438F00B092604380F0B046E05382E
:1006EA00F00B042605380F0B056E0638F00B0526AD
:1006FA0006380F0B066E074E98EF03F0D8900632B5
:10070A00053204320932074E98EF03F0D8900632C8
:10071A00053204320932074E98EF03F0D8900632B8
:10072A00053204320932086A000E0EAEA5EF03F054
:10073A00091E041E051E061E092A04220522062277
:10074A0009500826045000220550012206500222B0
:10075A000EBEBCEF03F0D8A0CBEF03F00232013299
:10076A0000320832033ECBEF03F0D5EF03F0D8B0E6
:10077A00D0EF03F0000E081E001E011E021E082AFA
:10078A000022012202220A7ED0EF03F0010E0C6E33
:10079A0064DCDCEF03F0020E0C6E5FDCDCEF03F0CE
:1007AA00040E0C6E3ADCDCEF03F0000E0C6E120045
:1007BA00086A096A000E0762036462EF04F00250D5
:1007CA0006180A6E075003267E0ED8A0F3EF03F030
:1007DA00035ED8B067EF04F0F7EF03F0035ED8A02A
:1007EA006CEF04F0028E068E02C00EF001C00BF010
:1007FA0000C00DF000500402F4CF0CF001500502C5
:10080A00F4CF00F0F3CF08F00402F3500C26F450B2
:10081A000822000E00220D500502F3500C26F45057
:10082A000822000E002202500402F3500826F45057
:10083A00002202500502016A000E0122F35000262E
:10084A00F45001220D500602F3500826F4500022FB
:10085A00026A000E012202220B500602F350002601
:10086A00F4500122000E02220E500602F350012615
:10087A00F450022202BE4AEF04F00836003601366E
:10088A0002360306D8B46CEF04F05DEF04F0D880AA
:10089A00800E08640030000E002201220222D8A035
:1008AA005DEF04F0023201320032034A67EF04F0CE
:1008BA000AAE029E000E6FEF04F0010E1EEC00F06D
:1008CA006FEF04F0020E12EC00F06FEF04F0040E6A
:0608DA0025EC00F0120005
:0A08E000210E0D6E0D2EFED7120042
:0608EA00067E56DD12003F
:1008F0000050086E0150006E0250016E0350026EEF
:10090000036A0B6A0C6A9E0E036E0A6A020E0C6E74
:0609100032EC00F01200C1
:100916000A6A0350D8A40A800750D8A40A820A504B
:10092600D8B4EEEF04F0030AD8B4A7EF04F00AB087
:10093600A2EF04F006AEECEF04F0EAEF04F002AE2C
:10094600EAEF04F0ECEF04F00250800B0A6E029E10
:100956000650800B069E0A18D8B4B8EF04F00A5069
:10096600D8B4EAEF04F0ECEF04F00750035CD8B417
:10097600C2EF04F0D8A0DEEF04F0E4EF04F0065076
:10098600025CD8B4CCEF04F0D8A0DEEF04F0E4EFBC
:1009960004F00550015CD8B4D6EF04F0D8A0DEEF21
:1009A60004F0E4EF04F00450005CD8B4EEEF04F079
:1009B600D8B0E4EF04F00A52D8B4ECEF04F0EAEF52
:1009C60004F00A52D8B4EAEF04F0ECEF04F0D88051
:0E09D6001200D8901200D880D88412001200AF
:1009E4000B6A0A6A096A00500402F4CF09F0F3CFD3
:1009F40008F001500502F4CF0BF0F3CF0AF00050D9
:100A04000502F3500926F4500A22E86A0B22015029
:100A14000402F3500926F4500A22E86A0B2208C0A3
:100A240000F009C001F00AC002F00BC003F012008C
:100A34000450000A12E10550000A0FE10650000AB2
:100A44000CE10750000A09E1FF0E006EFF0E016E73
:100A54007F0E026EFF0E036EA8D0086A096A075063
:100A6400D8B4C5EF05F00350D8B4CAEF05F002506E
:100A740006180A6E028E068E0E6A02C008F001C0C5
:100A84000CF000C00DF004500D5E0550D8A0053CDC
:100A94000C5E0650D8A0063C085E086A0C6A0D6A13
:100AA400D8A05CEF05F0D89002320132003208324F
:100AB400010E0E6E0750035ED8A069EF05F07E0E9E
:100AC4000E240326D8B0CFEF05F06FEF05F07E0EAD
:100AD4000E240326D8A0D4EF05F0180E0B6E0D36A5
:100AE4000C3608360036013602360E360450005EE7
:100AF4000550D8A0053C015E0650D8A0063C025E15
:100B040006340E120EA08AEF05F00D8095EF05F065
:100B1400045000260550D8B0053C01260650D8B034
:100B2400062802260D900B2E71EF05F0BBEF05F0A1
:100B3400D8900036013602360E360450005E055059
:100B4400D8A0053C015E0650D8A0063C025E0634DF
:100B54000E10010B0D26D8B00C2AD8B4082AD8A43C
:100B6400BBEF05F008320C320D32032AD8B4CFEFB4
:100B740005F00AAE089E0850026E0C50016E0D502E
:100B8400006ED7EF05F0010E31EC01F0D7EF05F060
:100B9400020E1EEC00F0D7EF05F0040E12EC00F08C
:0C0BA400D7EF05F0080E25EC00F0120061
:100BB00003500718D8A4ECEF05F002500618D8A48B
:100BC000ECEF05F001500518D8A4ECEF05F000504B
:0E0BD0000418D8B4D8841200D8941200120071
:100BDE00010137BF02D0819601D0818637BD02D088
:100BEE00819401D0818437BB02D0819201D0818261
:100BFE0037B902D0819001D0818000017AB102D044
:100C0E00818801D08198818A2EEC01F0819A0101B0
:100C1E0037B702D0819601D0818637B502D0819444
:100C2E0001D0818437B302D0819201D0818237B155
:100C3E0002D0819001D0818000017AB102D08188EA
:100C4E0001D08198818A2EEC01F0819A7AA103D08D
:0A0C5E0023EC01F001D03DDE12008E
:100C68000B6A0C6A0A6A086A0350D8B4BCEF06F02B
:100C7800028E9E0E035E03BE47EF06F0D8B447EF20
:100C880006F0ACEF06F0036C080E035CD8A079EF11
:100C980006F0036E083600C008F001C000F002C07C
:100CA80001F0026A080E035CD8A079EF06F0036E23
:100CB800083600C008F001C000F0016A080E035CA5
:100CC800D8A079EF06F0036E083600C008F0006A75
:100CD800080E035CD8A079EF06F0036E0836086AA0
:100CE8000350D8A4D89085EF06F00350D8B485EF08
:100CF80006F0D8900232013200320832032E7DEF1E
:100D080006F00BBC08A096EF06F0D8A096EF06F008
:100D1800082AD8B4002AD8B4012AD8B4022A02BEB4
:100D2800C0EF06F00AAEBCEF06F0021E011E001E60
:100D3800081E082AD8B4002AD8B4012AD8B4022A2E
:100D4800BCEF06F0026A016A006A086ABCEF06F0A6
:100D58000B800BAEC6EF06F0026A0AAEC6EF06F0CD
:100D6800026E016E006E086E0A360232C6EF06F099
:100D7800000E0C6AC7EF06F0010E0C6E44EC01F091
:100D8800C7EF06F0FF0E0250036E0150026E0050CE
:080D9800016E0850006E12000C
:100DA0000450000A08E10550000A05E1FF0E006E3C
:100DB0007F0E016E58D00D6A096A086A0150001052
:100DC000D8B4000C015005180A6E0ABE0D1E0B6A3D
:100DD00005AE05D0041E051E042AD8B4052A01AEAE
:100DE00005D0001E011E002AD8B4012A01500510AA
:100DF0000A6E0ABE10D0A1EC01F00BB020D00DAEEF
:100E0000000C001E011E002AD8B4012A081E091E6B
:100E1000082AD8B4092A000C05AE0DD001BE07D0AF
:100E20000150096E0050086E016A006AE8D7016A35
:100E3000006A002A000C011E001E0B2ADDD7082ABA
:100E4000D8B4092A0450085CD8A4D9D70550095C45
:100E5000D8A4D5D7096A086A002AD8B4012A01AEF5
:080E6000CED70000FF0C1200C8
:100E6800800E01013719006E800E000A005CD8B0B0
:100E78006CD137510008016E01C037F1800E01189E
:100E8800006E800E6E0A005CD8A0BFD0640E046E9F
:100E980037C100F052EC01F0120E0024056E000E6E
:100EA80000BEFF0E066E000E062205C000F006C04A
:100EB80001F0000E06BEFF0E026E036E00360090B3
:100EC8000136023603360036009001360236033604
:100ED800E90E0024F66E450E0120F76E000E022082
:100EE800F86E0900F5CF38F10900F5CF39F109009E
:100EF800F5CF3AF10900F5CF3BF1640E046E37C126
:100F080000F052EC01F008C000F00A0E046E52EC3A
:100F180001F0090E0024056E000E00BEFF0E066EDD
:100F2800000E062205C000F006C001F0000E06BE45
:100F3800FF0E026E036E003600900136023603364D
:100F480000360090013602360336E90E0024F66EAC
:100F5800450E0120F76E000E0220F86E0900F5CF4D
:100F680000F00900F5CF01F00900F5CF02F0090003
:100F7800F5CF03F038C104F039C105F03AC106F0E5
:100F88003BC107F016DC00C038F101C039F102C0DE
:100F98003AF103C03BF10A0E046E37C100F052EC7F
:100FA80001F008C000F000C001F0000E00BEFF0E06
:100FB800026E036E046E0136019002360336043663
:100FC80001360190023603360436E90E0124F66E26
:100FD800450E0220F76E000E0320F86E0900F5CFCB
:100FE80000F00900F5CF01F00900F5CF02F0090083
:100FF800F5CF03F038C104F039C105F03AC106F065
:101008003BC107F0DDEC03F007D2800E0A0A006E40
:10101800800E3719005C71E20A0E046E37C100F0C9
:1010280052EC01F0090E0024056E000E00BEFF0E02
:10103800066E000E062205C000F006C001F0000E84
:1010480006BEFF0E026E036E0036009001360236B1
:10105800033600360090013602360336E90E0024C6
:10106800F66E450E0120F76E000E0220F86E09009C
:10107800F5CF38F10900F5CF39F10900F5CF3AF18C
:101088000900F5CF3BF10A0E046E37C100F052ECAF
:1010980001F008C000F000C001F0000E00BEFF0E15
:1010A800026E036E046E0136019002360336043672
:1010B80001360190023603360436E90E0124F66E35
:1010C800450E0220F76E000E0320F86E0900F5CFDA
:1010D80000F00900F5CF01F00900F5CF02F0090092
:1010E800F5CF03F038C104F039C105F03AC106F074
:1010F8003BC107F0DDEC03F08FD137C100F0000EE3
:1011080037BFFF0E016E026E036E00360090013687
:101118000236033600360090013602360336E90EF1
:101128000024F66E450E0120F76E000E0220F86EC0
:101138000900F5CF00F00900F5CF01F00900F5CF5F
:1011480002F00900F5CF03F067D1800E3719006E61
:10115800800E6E0A005CD8A0C0D0640E046E37C141
:1011680000F052EC01F0120E0024056E000E00BED5
:10117800FF0E066E000E062205C000F006C001F044
:10118800000E06BEFF0E026E036E0036009001369A
:1011980002360336003600900136023603361D0E3D
:1011A8000024F66E460E0120F76E000E0220F86E3F
:1011B8000900F5CF38F10900F5CF39F10900F5CF6D
:1011C8003AF10900F5CF3BF1640E046E37C100F027
:1011D80052EC01F008C000F00A0E046E52EC01F067
:1011E800090E0024056E000E00BEFF0E066E000EEE
:1011F800062205C000F006C001F0000E06BEFF0E74
:10120800026E036E00360090013602360336003651
:1012180000900136023603361D0E0024F66E460E87
:101228000120F76E000E0220F86E0900F5CF00F0DD
:101238000900F5CF01F00900F5CF02F00900F5CF5C
:1012480003F038C104F039C105F03AC106F03BC1DA
:1012580007F0DDEC03F000C038F101C039F102C03D
:101268003AF103C03BF10A0E046E37C100F052ECAC
:1012780001F008C000F000C001F0000E00BEFF0E33
:10128800026E036E046E0136019002360336043690
:10129800013601900236033604361D0E0124F66E1F
:1012A800460E0220F76E000E0320F86E0900F5CFF7
:1012B80000F00900F5CF01F00900F5CF02F00900B0
:1012C800F5CF03F038C104F039C105F03AC106F092
:1012D8003BC107F0DDEC03F09FD0800E0A0A006ED8
:1012E800800E3719005C71E20A0E046E37C100F0F7
:1012F80052EC01F0090E0024056E000E00BEFF0E30
:10130800066E000E062205C000F006C001F0000EB1
:1013180006BEFF0E026E036E0036009001360236DE
:101328000336003600900136023603361D0E0024BF
:10133800F66E460E0120F76E000E0220F86E0900C8
:10134800F5CF38F10900F5CF39F10900F5CF3AF1B9
:101358000900F5CF3BF10A0E046E37C100F052ECDC
:1013680001F008C000F000C001F0000E00BEFF0E42
:10137800026E036E046E013601900236033604369F
:10138800013601900236033604361D0E0124F66E2E
:10139800460E0220F76E000E0320F86E0900F5CF06
:1013A80000F00900F5CF01F00900F5CF02F00900BF
:1013B800F5CF03F038C104F039C105F03AC106F0A1
:1013C8003BC107F0DDEC03F027D037C100F0000E79
:1013D80037BFFF0E016E026E036E003600900136B5
:1013E80002360336003600900136023603361D0EEB
:1013F8000024F66E460E0120F76E000E0220F86EED
:101408000900F5CF00F00900F5CF01F00900F5CF8C
:0A14180002F00900F5CF03F0120006
:101422000B6A0A6A096A086A0E6A033408360450AB
:10143200085E0550D8A0053C095E0650D8A0063CBF
:101442000A5E0750D8A0073C0B5EE86AD8A0010EDE
:101452000E5E0336070E0C6E0334083609360A3662
:101462000B360E36045003A012D0085E0550D8A0E9
:10147200053C095E0650D8A0063C0A5E0750D8A07B
:10148200073C0B5EE86AD8A0010E0E5E11D008265A
:101492000550D8B0053C09260650D8B0063C0A26AD
:1014A2000750D8B0073C0B26E86AD8B0010E0E26CA
:1014B20003360C2ED1D70234083609360A360B36DB
:1014C2000E36045003A012D0085E0550D8A0053C89
:1014D200095E0650D8A0063C0A5E0750D8A0073C19
:1014E2000B5EE86AD8A0010E0E5E11D008260550E8
:1014F200D8B0053C09260650D8B0063C0A2607504B
:10150200D8B0073C0B26E86AD8B0010E0E26023688
:10151200070E0C6E0234083609360A360B360E36C2
:10152200045002A012D0085E0550D8A0053C095E06
:101532000650D8A0063C0A5E0750D8A0073C0B5EB6
:10154200E86AD8A0010E0E5E11D008260550D8B068
:10155200053C09260650D8B0063C0A260750D8B0EA
:10156200073C0B26E86AD8B0010E0E2602360C2E76
:10157200D1D70134083609360A360B360E360450F6
:1015820002A012D0085E0550D8A0053C095E0650A4
:10159200D8A0063C0A5E0750D8A0073C0B5EE86A5A
:1015A200D8A0010E0E5E11D008260550D8B0053C19
:1015B20009260650D8B0063C0A260750D8B0073C88
:1015C2000B26E86AD8B0010E0E260136070E0C6E05
:1015D2000134083609360A360B360E36045001A09D
:1015E20012D0085E0550D8A0053C095E0650D8A06E
:1015F200063C0A5E0750D8A0073C0B5EE86AD8A0FA
:10160200010E0E5E11D008260550D8B0053C092601
:101612000650D8B0063C0A260750D8B0073C0B2625
:10162200E86AD8B0010E0E2601360C2ED1D700344E
:10163200083609360A360B360E36045001A012D08F
:10164200085E0550D8A0053C095E0650D8A0063CAD
:101652000A5E0750D8A0073C0B5EE86AD8A0010ECC
:101662000E5E11D008260550D8B0053C092606505A
:10167200D8B0063C0A260750D8B0073C0B26E86AC9
:10168200D8B0010E0E260036070E0C6E0034083656
:1016920009360A360B360E36045000A012D0085E08
:1016A2000550D8A0053C095E0650D8A0063C0A5E4B
:1016B2000750D8A0073C0B5EE86AD8A0010E0E5E68
:1016C20011D008260550D8B0053C09260650D8B0DE
:1016D200063C0A260750D8B0073C0B26E86AD8B069
:1016E200010E0E2600360C2ED1D700B00ED00450BB
:1016F20008260550D8B0053C09260650D8B0063C4D
:0C1702000A260750D8B0073C0B26120046
:10170E006E0E0101375DD8A0CAD0640E046E37C1CB
:10171E0000F035EC01F0120E0024056E066A000E84
:10172E00062205C000F006C001F0000E06BEFF0E38
:10173E00026E036E00360090013602360336003616
:10174E000090013602360336E90E0024F66E450E81
:10175E000120F76E000E0220F86E0900F5CF00F0A2
:10176E000900F5CF01F00900F5CF02F00900F5CF21
:10177E0003F0000E046E000E056E000E066E7E0E59
:10178E00076EDDEC03F000C038F101C039F102C084
:10179E003AF103C03BF1640E046E37C100F035EC34
:1017AE0001F008C000F00A0E046E35EC01F0090ECF
:1017BE000024056E066A000E062205C000F006C063
:1017CE0001F0000E06BEFF0E026E036E0036009094
:1017DE0001360236033600360090013602360336E5
:1017EE00E90E0024F66E450E0120F76E000E022063
:1017FE00F86E0900F5CF00F00900F5CF01F00900F1
:10180E00F5CF02F00900F5CF03F038C104F039C16D
:10181E0005F03AC106F03BC107F0DDEC03F000C065
:10182E0038F101C039F102C03AF103C03BF10A0EA2
:10183E00046E37C100F035EC01F008C000F000C0B6
:10184E0001F0000E026E036E046E01360190023638
:10185E000336043601360190023603360436E90E9D
:10186E000124F66E450E0220F76E000E0320F86E70
:10187E000900F5CF00F00900F5CF01F00900F5CF12
:10188E0002F00900F5CF03F038C104F039C105F0BC
:10189E003AC106F03BC107F0DDEC03F0B1D0375191
:1018AE000A08D8B07ED00A0E046E37C100F035ECAF
:1018BE0001F0090E0024056E066A000E062205C010
:1018CE0000F006C001F0000E06BEFF0E026E036EA3
:1018DE00003600900136023603360036009001368F
:1018EE0002360336E90E0024F66E450E0120F76E21
:1018FE00000E0220F86E0900F5CF00F00900F5CFBA
:10190E0001F00900F5CF02F00900F5CF03F0000E4B
:10191E00046E000E056E000E066E7E0E076EDDEC7A
:10192E0003F000C038F101C039F102C03AF103C032
:10193E003BF10A0E046E37C100F035EC01F008C021
:10194E0000F000C001F0000E026E036E046E013650
:10195E000190023603360436013601900236033604
:10196E000436E90E0124F66E450E0220F76E000EC7
:10197E000320F86E0900F5CF00F00900F5CF01F055
:10198E000900F5CF02F00900F5CF03F038C104F0DD
:10199E0039C105F03AC106F03BC107F0DDEC03F0AA
:1019AE002FD037C100F0000E016E026E036E0036AE
:1019BE0000900136023603360036009001360236AC
:1019CE000336E90E0024F66E450E0120F76E000E6A
:1019DE000220F86E0900F5CF00F00900F5CF01F0F6
:1019EE000900F5CF02F00900F5CF03F0000E046EEA
:1019FE00000E056E000E066E7E0E076EDDEC03F019
:021A0E001200C4
:101A10000B6A0C6A086A0350D8B48CEF0DF002C050
:101A20000AF0028E9E0E035E03AE7CEF0DF0036C97
:101A3000080E035CD8A049EF0DF0036E083600C015
:101A400008F001C000F002C001F0026A080E035C59
:101A5000D8A049EF0DF0036E083600C008F001C0B1
:101A600000F0016A080E035CD8A049EF0DF0036E88
:101A7000083600C008F0006A080E035CD8A049EFE1
:101A80000DF0036E0836086A0350D8A4D89055EFBD
:101A90000DF00350D8B455EF0DF0D890023201325A
:101AA00000320832032E4DEF0DF00BBC08A066EF9C
:101AB0000DF0D8A066EF0DF0082AD8B4002AD8B4EB
:101AC000012AD8B4022A02BE90EF0DF00AAE8CEFC4
:101AD0000DF0021E011E001E081E082AD8B4002A9E
:101AE000D8B4012AD8B4022A8CEF0DF0026A016A38
:101AF000006A086A8CEF0DF00B800BAE97EF0DF0CB
:101B0000026A0AAE97EF0DF0026E016E006E086E6B
:101B10000A36023297EF0DF00C6A000E98EF0DF0C6
:101B2000010E0C6E000E44EC01F098EF0DF0FF0E6C
:101B30000250036E0150026E0050016E0850006E9C
:021B4000120091
:101B420001013751390806E3300E375D03E3010E18
:081B5200006E01D0006A1200D0
:101B5A0001012F6B306B236B246B14C100F015C18C
:101B6A0001F016C102F0010E1427000E15231623E8
:101B7A0000C0F6FF01C0F7FF02C0F8FF0900F5CF69
:101B8A0000F000C020F10052D8B4BEEF1DF0205181
:101B9A00250A0BE012C1E1FF13C1E2FF20C1E6FFF3
:101BAA00124B132B2F4B302BD8D7216B226B236B65
:101BBA00246B23D02387010E1427000E1523162326
:101BCA0059D02381010E1427000E1523162352D053
:101BDA002383010E1427000E152316234BD02487C6
:101BEA00010E1427000E1523162344D02385010E57
:101BFA001427000E152316233DD014C1F6FF15C174
:101C0A00F7FF16C1F8FF0900F5CF01F001502D0AC0
:101C1A00D1E014C1F6FF15C1F7FF16C1F8FF09009C
:101C2A00F5CF01F00150200ACCE014C1F6FF15C12E
:101C3A00F7FF16C1F8FF0900F5CF01F001502B0A92
:101C4A00C7E014C1F6FF15C1F7FF16C1F8FF090076
:101C5A00F5CF01F00150230AC2E014C1F6FF15C105
:101C6A00F7FF16C1F8FF0900F5CF01F00150300A5D
:101C7A00BDE001D09ED723A301D0239123A701D091
:101C8A00239514C1F6FF15C1F7FF16C1F8FF090025
:101C9A00F5CF00F0000E016E00C037F14DDF0052A3
:101CAA0035E0216B226B21C100F022C101F00A0E3E
:101CBA00046E000E056EF2EC04F014C1F6FF15C1B5
:101CCA00F7FF16C1F8FF0900F5CF02F00250002411
:101CDA00216F000E0120226F300E215F000E225B61
:101CEA00010E1427000E1523162314C1F6FF15C181
:101CFA00F7FF16C1F8FF0900F5CF00F0000E016EDC
:101D0A0000C037F119DF0052CEE133D014C1F6FF1B
:101D1A0015C1F7FF16C1F8FF0900F5CF01F0015010
:101D2A002A0A27E117C1E9FF18C1EAFFEECF00F03E
:101D3A00EECF01F000C0E9FF01C0EAFFEECF21F1CA
:101D4A00EECF22F117C1E9FF18C1EAFF020EEE2415
:101D5A00006E000EEE20016E17C1E1FF18C1E2FF0E
:101D6A0000C0E6FF01C0E6FF010E1427000E15238E
:101D7A00162314C1F6FF15C1F7FF16C1F8FF0900B3
:101D8A00F5CF01F001502E0A6FE1010E1427000E63
:101D9A001523162314C1F6FF15C1F7FF16C1F8FF64
:101DAA000900F5CF01F001502A0A28E117C1E9FF1D
:101DBA0018C1EAFFEECF00F0EECF01F000C0E9FF54
:101DCA0001C0EAFFEECF1EF1EECF1FF117C1E9FF06
:101DDA0018C1EAFF020EEE24006E000EEE20016E1C
:101DEA0017C1E1FF18C1E2FF00C0E6FF01C0E6FF2C
:101DFA00010E1427000E1523162335D01E6B1F6BF8
:101E0A0014C1F6FF15C1F7FF16C1F8FF0900F5CF97
:101E1A0000F0000E016E00C037F18EDE005223E0A2
:101E2A001EC100F01FC101F00A0E046E000E056EFD
:101E3A00F2EC04F014C1F6FF15C1F7FF16C1F8FF62
:101E4A000900F5CF02F0025000241E6F000E012097
:101E5A001F6F300E1E5F000E1F5B010E1427000E4F
:101E6A0015231623CDD703D01E6B1F6B248914C1EB
:101E7A0000F015C101F016C102F0010E1427000E80
:101E8A001523162300C0F6FF01C0F7FF02C0F8FFB2
:101E9A000900F5CF20F1F9D02FC100F030C101F0CF
:101EAA00C2EF1DF02389E3D724852ED1238B248109
:101EBA002BD1248329D1238D27D126D1238B238F7C
:101ECA0023D117C1E9FF18C1EAFFEECF00F0EECF28
:101EDA0001F000C0E9FF01C0EAFFEECF2BF1EECF1F
:101EEA002CF117C1E9FF18C1EAFF020EEE24006EB9
:101EFA00000EEE20016E17C1E1FF18C1E2FF00C01B
:101F0A00E6FF01C0E6FF000E2C1902E1000E2B19B4
:101F1A0004E16F0E2B6F000E2C6F2D6B2E6B2D5163
:101F2A002B25E96E2E512C21EA6EEE520BE0010EA2
:101F3A002D25006E000E2E21016E00C02DF101C06C
:101F4A002EF1EDD71E511F110AE02E511F5D02E13D
:101F5A002D511E5D04E21EC12DF11FC12EF1225129
:101F6A002E5D02E121512D5D05E22D51215F2E5199
:101F7A00225B02D0216B226B23B716D021C100F05D
:101F8A0022C101F0010E215F000E225B00500110F8
:101F9A000BE012C1E1FF13C1E2FF200EE66E124B05
:101FAA00132B2F4B302BEAD72DC102F02EC103F091
:101FBA00010E2D5D006E000E2E59016E00C02DF12E
:101FCA0001C02EF10250031019E02BC1E9FF2CC108
:101FDA00EAFF12C1E1FF13C1E2FFEECFE6FF124BA7
:101FEA00132B010E2B25006E000E2C21016E00C052
:101FFA002BF101C02CF12F4B302BD6D723A716D0AB
:10200A0021C100F022C101F0010E215F000E225B06
:10201A00005001100BE012C1E1FF13C1E2FF200ED4
:10202A00E66E124B132B2F4B302BEAD796D517C1DE
:10203A00E9FF18C1EAFFEECF00F0EECF01F000C0D1
:10204A00E9FF01C0EAFFEECF20F117C1E9FF18C18D
:10205A00EAFF020EEE24006E000EEE20016E17C19A
:10206A00E1FF18C1E2FF00C0E6FF01C0E6FF200E53
:10207A002B6F010E2C6F010E2D6F000E2E6F62D783
:10208A00C00E2313000E24133FD02051000AD8B4E7
:10209A0003D720516C0AD8B405D720514C0AD8B4BA
:1020AA0001D72051660AD8B4FFD62051450AD8B4C0
:1020BA00FDD62051650AD8B4FAD62051670AD8B499
:1020CA00F8D620516F0AD8B4F6D62051640AD8B48B
:1020DA00F4D62051690AD8B4F0D62051700AD8B47F
:1020EA00EDD62051580AD8B4E9D62051780AD8B486
:1020FA00E6D62051730AD8B4E4D62051630A97E091
:10210A002051750ABDE0B3D7000E2315006E245185
:10211A00070B016E00500110D8B465EF19F024A91D
:10212A0004D0060E1E6F000E1F6F17C1E9FF18C1FB
:10213A00EAFFEECF00F0EECF01F000C0E9FF01C0E8
:10214A00EAFFEECF25F1EECF26F1EECF27F1EECF63
:10215A0028F117C1E9FF18C1EAFF040EEE24006E48
:10216A00000EEE20016E17C1E1FF18C1E2FF00C0A8
:10217A00E6FF01C0E6FF046A056A066A076A25C126
:10218A0000F026C101F027C102F028C103F08BEC50
:10219A0004F0010ED8B0000E006E005205E0277F51
:1021AA00030E2313000E2413296B2A6B25C100F09A
:1021BA0026C101F027C102F028C103F0046A056AAA
:1021CA00066A076AD8EC05F0000ED8A4010E006E64
:1021DA000052D8B48AD028C100F0016A026A036AA0
:1021EA00FF0E0016000E01167E0E005E000E015A4A
:1021FA0000C029F101C02AF1010E005E000E015A49
:10220A0000C029F101C02AF1030E046E000E056E0A
:10221A00F2EC04F000C029F101C02AF10A0E046EA2
:10222A00000E056ED0EC06F000C029F101C02AF1BB
:10223A00800E0118026E800E025C02E1000E005C44
:10224A0005E2010E0101295F000E2A5B01012951F5
:10225A000008376F34EC07F025C104F026C105F0F9
:10226A0027C106F028C107F0DDEC03F000C02BF10E
:10227A0001C02CF102C02DF103C02EF1000E046E34
:10228A00000E056E000E066E7F0E076E2BC100F063
:10229A002CC101F02DC102F02EC103F08BEC04F029
:1022AA00010ED8B0000E006E005205E0010E295F43
:1022BA00000E2A5B1AD0000E046E000E056E200E68
:1022CA00066E820E076E2BC100F02CC101F02DC1E3
:1022DA0002F02EC103F08BEC04F0000ED8B0010E10
:1022EA00006E005202E0294B2A2B800E006E800EEF
:1022FA002A19005C02E12951000803E3010E206F4C
:10230A0002D029C120F124B118D024A315D0800EFF
:10231A002A19006E7F0E005C02E1FC0E295D0BE3B8
:10232A00800E2A19006E800E1F19005C02E11E51F0
:10233A00295D01E201D001D0F5D31E511F1106E03B
:10234A0024A304D0010E1E5F000E1F5B1F5100085C
:10235A0002E11E51080803E2080E206F02D01EC1D6
:10236A0020F125C100F026C101F027C102F028C1E1
:10237A0003F0046A056A066A076AD8EC05F0000EDB
:10238A00D8A4010E006E0052D8B44BD129C137F13E
:10239A0034EC07F000C004F001C005F002C006F0FA
:1023AA0003C007F025C100F026C101F027C102F0E1
:1023BA0028C103F01AEC05F000C025F101C026F18E
:1023CA0002C027F103C028F1010120510008376F2C
:1023DA0034EC07F000C004F001C005F002C006F0BA
:1023EA0003C007F025C100F026C101F027C102F0A1
:1023FA0028C103F01AEC05F000C031F101C032F136
:10240A0002C033F103C034F131C125F132C126F1E2
:10241A0033C127F134C128F131C100F032C101F0D2
:10242A0033C102F034C103F034EC06F078EC04F066
:10243A0000C004F001C005F002C006F003C007F0B6
:10244A0031C100F032C101F033C102F034C103F0EE
:10245A0075EC04F0000E046E000E056E000E066E9A
:10246A007E0E076E8BEC04F0000ED8B0010E006EE3
:10247A0000521AE025C100F026C101F027C102F07E
:10248A0028C103F0000E046E000E056E000E066EE3
:10249A007E0E076ECDEC01F000C025F101C026F1D9
:1024AA0002C027F103C028F125C100F026C101F0BE
:1024BA0027C102F028C103F034EC06F001012051D3
:1024CA00010F096E0A6A000E0A2209C004F00AC046
:1024DA0005F0000E0ABEFF0E066E076E0436049063
:1024EA0005360636073604360490053606360736AC
:1024FA00B10E0424F66E460E0520F76E000E062075
:10250A00F86E0900F5CF05F00900F5CF06F00900CD
:10251A00F5CF07F00900F5CF08F00850035C08E191
:10252A000750025C05E10650015C02E10550005CBF
:10253A001EE3010125C100F026C101F027C102F006
:10254A0028C103F0CD0E046ECC0E056E4C0E066E3D
:10255A007B0E076EDDEC03F000C025F101C026F109
:10256A0002C027F103C028F1294B2A2B5AD025C1D2
:10257A0000F026C101F027C102F028C103F034ECB3
:10258A0006F020C104F0000E056E066E076E0436D2
:10259A0004900536063607360436049005360636A4
:1025AA000736B10E0424F66E460E0520F76E000EAD
:1025BA000620F86E0900F5CF05F00900F5CF06F000
:1025CA000900F5CF07F00900F5CF08F00850035CC1
:1025DA0008E10750025C05E10650015C02E1055082
:1025EA00005C1FE2010125C100F026C101F027C1EC
:1025FA0002F028C103F0000E046E000E056E200ED4
:10260A00066E820E076EDDEC03F000C025F101C0F4
:10261A0026F102C027F103C028F1010E295F000E3E
:10262A002A5B010124A393D024B791D0800E000A1B
:10263A00006E800E1F19005C02E11E510A0804E2B6
:10264A000A0E1E6F000E1F6F25C100F026C101F091
:10265A0027C102F028C103F034EC06F000C02BF1C8
:10266A0001C02CF102C02DF103C02EF12B512C1107
:10267A002D112E1142E00A0E046E000E056E066E32
:10268A00076E2BC100F02CC101F02DC102F02EC142
:10269A0003F011EC0AF008C000F009C001F00AC00A
:1026AA0002F00BC003F0000E046E031808E1045098
:1026BA00021805E10450011802E10050000A1DE168
:1026CA00010E1E5F000E1F5B0A0E046E000E056EE1
:1026DA00066E076E2BC100F02CC101F02DC102F06D
:1026EA002EC103F011EC0AF000C02BF101C02CF14D
:1026FA0002C02DF103C02EF1B9D7800E1F19006E4A
:10270A00800E005C02E120511E5D21E21E51205D17
:10271A00376F34EC07F000C004F001C005F002C0C6
:10272A0006F003C007F025C100F026C101F027C159
:10273A0002F028C103F01AEC05F000C025F101C02F
:10274A0026F102C027F103C028F11EC120F1050EAF
:10275A0001011E25006E000E1F21016E0050215F2F
:10276A000150225B1E511F1103E124B701D004D08E
:10277A00010E215F000E225B030E2315006E24C199
:10278A0001F0000E01160050011004E0010E215F55
:10279A00000E225B23A53CD023A315D023A104D08D
:1027AA002D0E0001FE6F03D000012B0EFE6F12C129
:1027BA00E1FF13C1E2FFFEC0E6FF0101124B132B3A
:1027CA002F4B302B0CD023A10AD012C1E1FF13C129
:1027DA00E2FF200EE66E124B132B2F4B302B800E8E
:1027EA00006E800E2219005C02E1215100080FE2FE
:1027FA0012C1E1FF13C1E2FF300EE66E124B132B3A
:10280A002F4B302B010E215F000E225BE8D73DD003
:10281A0023B718D0800E006E800E2219005C02E1E8
:10282A00215100080FE212C1E1FF13C1E2FF200E9D
:10283A00E66E124B132B2F4B302B010E215F000E2D
:10284A00225BE8D723A315D023A104D02D0E0001C3
:10285A00FF6F03D000012B0EFF6F12C1E1FF13C1FE
:10286A00E2FFFFC0E6FF0101124B132B2F4B302B67
:10287A000CD023A10AD012C1E1FF13C1E2FF200E3E
:10288A00E66E124B132B2F4B302B25C100F026C1BD
:10289A0001F027C102F028C103F034EC06F000C0B1
:1028AA002BF101C02CF102C02DF103C02EF120C181
:1028BA0000F0000E016E026E036E003600900136C3
:1028CA000236033600360090013602360336B10E60
:1028DA000024F66E460E0120F76E000E0220F86EF6
:1028EA000900F5CF04F00900F5CF05F00900F5CF8E
:1028FA0006F00900F5CF07F02BC100F02CC101F05A
:10290A002DC102F02EC103F011EC0AF0300E0026A0
:10291A0012C1E1FF13C1E2FF00C0E6FF124B132B05
:10292A002F4B302B1E511F1103E124B701D06FD05A
:10293A0012C1E1FF13C1E2FF2E0EE66E124B132BFA
:10294A002F4B302B20511E5F000E1F5B20534DE092
:10295A00200720C100F0000E016E026E036E0036E1
:10296A0000900136023603360036009001360236F0
:10297A000336B10E0024F66E460E0120F76E000EE5
:10298A000220F86E0900F5CF04F00900F5CF05F032
:10299A000900F5CF06F00900F5CF07F02BC100F0CA
:1029AA002CC101F02DC102F02EC103F011EC0AF086
:1029BA000A0E046E000E056E066E076E11EC0AF022
:1029CA0008C000F009C001F00AC002F00BC003F011
:1029DA00300E002612C1E1FF13C1E2FF00C0E6FF7C
:1029EA00124B132B2F4B302BB1D71E511F110FE057
:1029FA0012C1E1FF13C1E2FF300EE66E124B132B38
:102A0A002F4B302B010E1E5F000E1F5BEED723AB40
:102A1A000BD012C1E1FF13C1E2FF450EE66E124B65
:102A2A00132B2F4B302B0AD012C1E1FF13C1E2FF47
:102A3A00650EE66E124B132B2F4B302B800E2A1984
:102A4A00006E800E005C02E1000E295D11E2295140
:102A5A000008296F2A51000E2A5712C1E1FF13C13B
:102A6A00E2FF2D0EE66E124B132B2F4B302B0AD0A2
:102A7A0012C1E1FF13C1E2FF2B0EE66E124B132BBC
:102A8A002F4B302B0A0E046E000E056E29C100F082
:102A9A002AC101F0D0EC06F0300E002612C1E1FF87
:102AAA0013C1E2FF00C0E6FF0101124B132B2F4BAB
:102ABA00302B0A0E046E000E056E29C100F02AC1E1
:102ACA0001F0D0EC06F008C000F009C001F0300EA9
:102ADA00002612C1E1FF13C1E2FF00C0E6FF0101B7
:102AEA00124B132B2F4B302B23A71AD0800E006EBC
:102AFA00800E2219005C02E12151000811E212C184
:102B0A00E1FF13C1E2FF200EE66E124B132B2F4B8F
:102B1A00302B010E215F000E225B21512211EFE1C1
:102B2A00B2EF0DF024A3F3D0800E2A19006E800EA6
:102B3A00005C02E1000E295D0AE2010E295D006EC9
:102B4A00000E2A59016E00501E5F01501F5B25C1FD
:102B5A0000F026C101F027C102F028C103F034ECCD
:102B6A0006F000C02BF101C02CF102C02DF103C008
:102B7A002EF1010E206F20510A0A34E020C100F024
:102B8A00000E016E026E036E0036009001360236A8
:102B9A00033600360090013602360336B10E0024A1
:102BAA00F66E460E0120F76E000E0220F86E09003E
:102BBA00F5CF01F00900F5CF02F00900F5CF03F0D7
:102BCA000900F5CF04F004502E5D08E103502D5D95
:102BDA0005E102502C5D02E101502B5D01E202D0B9
:102BEA00202BC9D720511E5D356F000E1F59366F35
:102BFA0035C11EF136C11FF12BC100F02CC101F005
:102C0A002DC102F02EC103F078EC04F000C004F0EC
:102C1A0001C005F002C006F003C007F025C100F0AC
:102C2A0026C101F027C102F028C103F075EC04F0B7
:102C3A0000C031F101C032F102C033F103C034F1F6
:102C4A0035C137F134EC07F031C104F032C105F077
:102C5A0033C106F034C107F0DDEC03F0000E046E58
:102C6A00000E056E000E066E7E0E076ECDEC01F0AC
:102C7A0034EC06F000C02BF101C02CF102C02DF19A
:102C8A0003C02EF11E511F1142E00A0E046E000EFF
:102C9A00056E066E076E2BC100F02CC101F02DC126
:102CAA0002F02EC103F011EC0AF008C000F009C0CE
:102CBA0001F00AC002F00BC003F0000E046E031804
:102CCA0008E10450021805E10450011802E100501D
:102CDA00000A1DE10A0E046E000E056E066E076EEE
:102CEA002BC100F02CC101F02DC102F02EC103F05E
:102CFA0011EC0AF000C02BF101C02CF102C02DF139
:102D0A0003C02EF1010E1E5F000E1F5BBBD7800EA3
:102D1A00006E800E1F19005C02E11E510C0816E3BA
:102D2A001EC137F187EC0BF025C104F026C105F06E
:102D3A0027C106F028C107F0CDEC01F000C025F14B
:102D4A0001C026F102C027F103C028F125C100F015
:102D5A0026C101F027C102F028C103F0046A056AFE
:102D6A00066A076AD8EC05F0000ED8A4010E006EB8
:102D7A000052D8B477D025C100F026C101F027C18E
:102D8A0002F028C103F034EC06F0000E046E0318BA
:102D9A0008E10450021805E10450011802E100504C
:102DAA00000A60E1800E006E800E2A19005C02E1C2
:102DBA002951010857E229C137F134EC07F000C064
:102DCA0004F001C005F002C006F003C007F025C1F7
:102DDA0000F026C101F027C102F028C103F01AEC65
:102DEA0005F05F0E046E700E056E090E066E810EFA
:102DFA00076E8BEC04F0010ED8B0000E006E005284
:102E0A0006E0090E0101295F000E2A5B05D00101C7
:102E1A00080E295F000E2A5B29C137F134EC07F04E
:102E2A0000C004F001C005F002C006F003C007F0BC
:102E3A0025C100F026C101F027C102F028C103F024
:102E4A001AEC05F034EC06F000C02BF101C02CF1AD
:102E5A0002C02DF103C02EF10101256B266B276BF1
:102E6A00286B38D025C100F026C101F027C102F035
:102E7A0028C103F034EC06F000C02BF101C02CF19C
:102E8A0002C02DF103C02EF12BC100F02CC101F0BC
:102E9A002DC102F02EC103F078EC04F000C004F05A
:102EAA0001C005F002C006F003C007F025C100F01A
:102EBA0026C101F027C102F028C103F075EC04F025
:102ECA0000C025F101C026F102C027F103C028F194
:102EDA00296B2A6B010E206F20510A0A34E020C1A7
:102EEA0000F0000E016E026E036E0036009001368D
:102EFA000236033600360090013602360336B10E2A
:102F0A000024F66E460E0120F76E000E0220F86EBF
:102F1A000900F5CF01F00900F5CF02F00900F5CF5D
:102F2A0003F00900F5CF04F004502E5D08E10350C8
:102F3A002D5D05E102502C5D02E101502B5D01E29D
:102F4A0002D0202BC9D720511E25006E000E1F214A
:102F5A00016E295100262A5101220050215F015099
:102F6A00225B24B704D01E511F1101E104D0010EC7
:102F7A00215F000E225B030E2315006E24C101F0AF
:102F8A00000E01160050011004E0010E215F000E30
:102F9A00225B23A539D023A312D023A103D02D0E5F
:102FAA00006F02D02B0E006F12C1E1FF13C1E2FFC6
:102FBA0000C1E6FF124B132B2F4B302B0CD023A151
:102FCA000AD012C1E1FF13C1E2FF200EE66E124BD6
:102FDA00132B2F4B302B800E006E800E2219005CB3
:102FEA0002E1215100080FE212C1E1FF13C1E2FF21
:102FFA00300EE66E124B132B2F4B302B010E215F36
:10300A00000E225BE8D73AD023B718D0800E006EA4
:10301A00800E2219005C02E1215100080FE212C160
:10302A00E1FF13C1E2FF200EE66E124B132B2F4B6A
:10303A00302B010E215F000E225BE8D723A312D0AA
:10304A0023A103D02D0E196F02D02B0E196F12C1B6
:10305A00E1FF13C1E2FF19C1E6FF124B132B2F4BFD
:10306A00302B0CD023A10AD012C1E1FF13C1E2FF19
:10307A00200EE66E124B132B2F4B302B20C100F083
:10308A00200700524CE020C100F0000E016E026ED3
:10309A00036E003600900136023603360036009081
:1030AA00013602360336B10E0024F66E460E0120B2
:1030BA00F76E000E0220F86E0900F5CF04F0090041
:1030CA00F5CF05F00900F5CF06F00900F5CF07F0B6
:1030DA002BC100F02CC101F02DC102F02EC103F06A
:1030EA0011EC0AF00A0E046E000E056E066E076EEB
:1030FA0011EC0AF008C000F009C001F00AC002F0A1
:10310A000BC003F0300E002612C1E1FF13C1E2FF2B
:10311A0000C0E6FF124B132B2F4B302BAFD7800E7C
:10312A00006E800E2A19005C02E1295100080FE2A4
:10313A0012C1E1FF13C1E2FF300EE66E124B132BF0
:10314A002F4B302B010E295F000E2A5BE8D7800E29
:10315A00000A006E800E1F19005C02E11E51080869
:10316A0003E2080E206F02D01EC120F120511E5F1B
:10317A00000E1F5B205303E124B701D00AD012C10D
:10318A00E1FF13C1E2FF2E0EE66E124B132B2F4BFB
:10319A00302B20C137F134EC07F025C104F026C1E9
:1031AA0005F027C106F028C107F0DDEC03F008ECB2
:1031BA000DF000C02BF101C02CF102C02DF103C0AB
:1031CA002EF120534DE0200720C100F0000E016EC1
:1031DA00026E036E00360090013602360336003660
:1031EA000090013602360336B10E0024F66E460E02
:1031FA000120F76E000E0220F86E0900F5CF04F0E8
:10320A000900F5CF05F00900F5CF06F00900F5CF62
:10321A0007F02BC100F02CC101F02DC102F02EC124
:10322A0003F011EC0AF00A0E046E000E056E066E2B
:10323A00076E11EC0AF008C000F009C001F00AC0DC
:10324A0002F00BC003F0300E002612C1E1FF13C1D9
:10325A00E2FF00C0E6FF124B132B2F4B302BB1D7E6
:10326A001E511F110FE012C1E1FF13C1E2FF300E20
:10327A00E66E124B132B2F4B302B010E1E5F000EE6
:10328A001F5BEED723A71AD0800E006E800E22197C
:10329A00005C02E12151000811E212C1E1FF13C1F1
:1032AA00E2FF200EE66E124B132B2F4B302B010E32
:1032BA00215F000E225B21512211EFE1B2EF0DF0E6
:1032CA00C00E2315016E24C102F0000E0216000E74
:1032DA00021802E1000E0118D8A480D023A927D031
:1032EA0017C1E9FF18C1EAFFEECF00F0EECF01F0F7
:1032FA0000C0E9FF01C0EAFFEECF2BF1EECF2CF1BF
:10330A00EECF2DF1EECF2EF117C1E9FF18C1EAFF7A
:10331A00040EEE24006E000EEE20016E17C1E1FFCE
:10332A0018C1E2FF00C0E6FF01C0E6FF2FD017C1B7
:10333A00E9FF18C1EAFFEECF00F0EECF01F000C0BE
:10334A00E9FF01C0EAFFEECF00F0EECF01F0000E78
:10335A0001BEFF0E026E036E00C02BF101C02CF1FC
:10336A0002C02DF103C02EF117C1E9FF18C1EAFF0F
:10337A00020EEE24006E000EEE20016E17C1E1FF70
:10338A0018C1E2FF00C0E6FF01C0E6FF800E2E1959
:10339A00006E800E005C08E1000E2D5D05E1000E56
:1033AA002C5D02E1000E2B5D18E2030E2313000EC2
:1033BA002413006A016A026A036A2B51005E2C51C7
:1033CA00015A2D51025A2E51035A00C02BF101C045
:1033DA002CF102C02DF103C02EF14ED023A927D023
:1033EA0017C1E9FF18C1EAFFEECF00F0EECF01F0F6
:1033FA0000C0E9FF01C0EAFFEECF2BF1EECF2CF1BE
:10340A00EECF2DF1EECF2EF117C1E9FF18C1EAFF79
:10341A00040EEE24006E000EEE20016E17C1E1FFCD
:10342A0018C1E2FF00C0E6FF01C0E6FF25D017C1C0
:10343A00E9FF18C1EAFFEECF00F0EECF01F000C0BD
:10344A00E9FF01C0EAFFEECF2BF1EECF2CF1000E1F
:10345A002D6F2E6F17C1E9FF18C1EAFF020EEE2485
:10346A00006E000EEE20016E17C1E1FF18C1E2FFE7
:10347A0000C0E6FF01C0E6FF000E1F1902E1000EC0
:10348A001E190FE1000E006E2E1908E100502D19C9
:10349A0005E100502C1902E12B51000A02E11E4BF2
:1034AA001F2BC00E2315006E00C005F0AED0010E12
:1034BA00206F20510A0A34E020C100F0000E016E8C
:1034CA00026E036E0036009001360236033600366D
:1034DA000090013602360336B10E0024F66E460E0F
:1034EA000120F76E000E0220F86E0900F5CF01F0F8
:1034FA000900F5CF02F00900F5CF03F00900F5CF76
:10350A0004F004502E5D08E103502D5D05E10250E0
:10351A002C5D02E101502B5D01E202D0202BC9D7BC
:10352A0082D0010E206F2051080A34E020C100F039
:10353A00000E016E026E036E0036009001360236EE
:10354A00033600360090013602360336D90E0024BF
:10355A00F66E460E0120F76E000E0220F86E090084
:10356A00F5CF01F00900F5CF02F00900F5CF03F01D
:10357A000900F5CF04F004502E5D08E103502D5DDB
:10358A0005E102502C5D02E101502B5D01E202D0FF
:10359A00202BC9D748D0010E206F20510C0A34E0E5
:1035AA0020C100F0000E016E026E036E003600901C
:1035BA0001360236033600360090013602360336EB
:1035CA00510E0024F66E460E0120F76E000E022000
:1035DA00F86E0900F5CF01F00900F5CF02F00900F5
:1035EA00F5CF03F00900F5CF04F004502E5D08E191
:1035FA0003502D5D05E102502C5D02E101502B5D67
:10360A0001E202D0202BC9D70ED00550000AD8B447
:10361A004ED70550C00AD8B44AD70550800A81E06F
:10362A000550400AB8E0800E006E800E1F19005C3B
:10363A0002E11E51205D03E21EC120F10DD0800E71
:10364A001F19006E800E005C02E120511E5D04E22B
:10365A0020C11EF1000E1F6F215122110EE0030E30
:10366A002315006E24C101F0000E0116005001104E
:10367A0004E0010E215F000E225B800E1F19006E0E
:10368A00800E2219005C02E121511E5D05E21E51E5
:10369A00215F1F51225B02D0216B226BC40E2315BE
:1036AA00016E2451080B026E0250080A02E1400E14
:1036BA00011808E12151221104E0010E215F000ED8
:1036CA00225B1CD0C00E2315016E2451080B026E1A
:1036DA000250080A02E1800E011810E1800E006E05
:1036EA00800E2219005C02E12151020805E2020E55
:1036FA00215F000E225B02D0216B226B23A55DD0D5
:10370A0023A312D023A103D02D0E1A6F02D02B0EA1
:10371A001A6F12C1E1FF13C1E2FF1AC1E6FF124B91
:10372A00132B2F4B302B34D023A10BD012C1E1FF26
:10373A0013C1E2FF200EE66E124B132B2F4B302BD8
:10374A0027D0C00E2315016E2451080B026E0250B9
:10375A00080A02E1800E01181BE112C1E1FF13C140
:10376A00E2FF300EE66E124B132B2F4B302B23AB9E
:10377A0003D0580E1B6F02D0780E1B6F12C1E1FFE7
:10378A0013C1E2FF1BC1E6FF124B132B2F4B302B49
:10379A002151221111E012C1E1FF13C1E2FF300EE3
:1037AA00E66E124B132B2F4B302B010E215F000EAE
:1037BA00225B21512211EFE174D02151221113E031
:1037CA0023B711D012C1E1FF13C1E2FF200EE66E4A
:1037DA00124B132B2F4B302B010E215F000E225B55
:1037EA0021512211EFE123A312D023A103D02D0EE0
:1037FA001C6F02D02B0E1C6F12C1E1FF13C1E2FF36
:10380A001CC1E6FF124B132B2F4B302B0CD023A1DC
:10381A000AD012C1E1FF13C1E2FF200EE66E124B7D
:10382A00132B2F4B302BC00E2315016E2451080B7E
:10383A00026E0250080A02E1400E01180BE112C1A1
:10384A00E1FF13C1E2FF300EE66E124B132B2F4B32
:10385A00302B27D0C00E2315016E2451080B026E9F
:10386A000250080A02E1800E01181BE112C1E1FFB1
:10387A0013C1E2FF300EE66E124B132B2F4B302B87
:10388A0023AB03D0580E1D6F02D0780E1D6F12C1E4
:10389A00E1FF13C1E2FF1DC1E6FF124B132B2F4BB1
:1038AA00302B800E006E800E1F19005C02E11E5143
:1038BA00205D0BE212C1E1FF13C1E2FF300EE66E9A
:1038CA00124B132B2F4B302BECD71EC100F01FC10C
:1038DA0001F0010E1E5F000E1F5B00500110D8B4EC
:1038EA002AD1C00E2315006E00C031F10AD11EC1C3
:1038FA0000F01FC101F0000E1FBFFF0E026E036E23
:10390A000036009001360236033600360090013642
:10391A0002360336B10E0024F66E460E0120F76E0B
:10392A00000E0220F86E0900F5CF04F00900F5CF69
:10393A0005F00900F5CF06F00900F5CF07F02BC115
:10394A0000F02CC101F02DC102F02EC103F011ECE0
:10395A000AF00A0E046E000E056E066E076E11EC72
:10396A000AF008C000F009C001F00AC002F00BC05A
:10397A0003F0300E0024206FD3D023AB45D01EC1F4
:10398A0000F01FC101F0000E1FBFFF0E026E036E92
:10399A0000360090013602360336003600900136B2
:1039AA0002360336D90E0024F66E460E0120F76E53
:1039BA00000E0220F86E0900F5CF04F00900F5CFD9
:1039CA0005F00900F5CF06F00900F5CF07F02BC185
:1039DA0000F02CC101F02DC102F02EC103F011EC50
:1039EA000AF00F0E0016000E011602160316400EFC
:1039FA000024F66E470E0120F76E000E0220F86EC4
:103A0A000900F5CF20F144D01EC100F01FC101F01A
:103A1A00000E1FBFFF0E026E036E003600900136C5
:103A2A000236033600360090013602360336D90EC6
:103A3A000024F66E460E0120F76E000E0220F86E84
:103A4A000900F5CF04F00900F5CF05F00900F5CF1C
:103A5A0006F00900F5CF07F02BC100F02CC101F0E8
:103A6A002DC102F02EC103F011EC0AF00F0E001660
:103A7A00000E0116021603162F0E0024F66E470ECC
:103A8A000120F76E000E0220F86E0900F5CF20F132
:103A9A0047D01EC100F01FC101F0000E1FBFFF0E6C
:103AAA00026E036E00360090013602360336003687
:103ABA000090013602360336510E0024F66E460E89
:103ACA000120F76E000E0220F86E0900F5CF04F00F
:103ADA000900F5CF05F00900F5CF06F00900F5CF8A
:103AEA0007F02BC100F02CC101F02DC102F02EC14C
:103AFA0003F011EC0AF0070E0014206F300E202795
:103B0A000FD03151000AD8B4F2D63151C00AD8B414
:103B1A00EED63151800AD8B430D73151400AB9E0D3
:103B2A0012C1E1FF13C1E2FF20C1E6FF124B132BC2
:103B3A002F4B302BCAD623A71AD0800E006E800EC8
:103B4A002219005C02E12151000811E212C1E1FFD1
:103B5A0013C1E2FF200EE66E124B132B2F4B302BB4
:103B6A00010E215F000E225B21512211EFE1B2EF1B
:0C3B7A000DF02FC100F030C101F012006E
:0E3B8600ACB202D00000FCD7FEC0ADFF1200B2
:103B9400BB50010F006E016A000E0122FEC004F04A
:103BA400000E056EF2EC04F0060E026E00C004F086
:103BB40001C005F0025005E005320432059EFF0FF6
:103BC400FAD7040E016E04C000F0015004E0003680
:103BD4000090FF0FFBD7300E0014036E04C000F0FA
:103BE40005C001F001320032019E01320032019E13
:0E3BF40000C0BEFF0F0EBD160350BD12120022
:103C0200086A096A100E0C6E01340836093604502F
:103C1200085E0550D8A0053C095ED8B007D0045014
:103C220008260550D8B0053C0926D8900036013642
:063C32000C2EEAD712007F
:103C380000017A91FEC037F1EFEC05F07A811200AD
:0C3C48000E0E0D6E0D2EFED700001200B7
:103C5400060E0001FB6F010EFC6F01C112F102C1DF
:103C640013F103C114F104C115F105C116F1FB0EE2
:103C74000101176F000E186FADEC0DF000C0F9F0E4
:103C840001C0FAF000500125E16E01500221E26EFC
:0C3C9400E66AF9C000F0FAC001F012006E
:103CA0000001F96BF951060825E3AF0E006E000E16
:103CB000016EF9C004F0000E056EF2EC04F0060E81
:103CC000046E000E056E9DDF500E0026000E0122D0
:103CD00000C0FEF05FDF020E0B6E860E0C6E990EBA
:103CE0000D6E0D2EFED70C2EFCD70B2EFAD7000131
:063CF000F92BD8D71200E9
:103CF60010D0800E0001F96F1AD0C00EF96F17D0E0
:103D0600940EF96F14D0D40EF96F11D0800EF96F9E
:103D16000ED00001F951010AECE0F951020AEDE07A
:103D2600F951030AEDE0F951040AEDE0EFD7FA057F
:103D3600006EF951002600C0F9F000C037F1EFEC33
:103D460005F07A91FD6BFD51FB25E96E000EFC2115
:103D5600EA6EEE520BE0FD51FB25E96E000EFC21EA
:103D6600EA6EEECFFEF065DFFD2BEDD77A8112000D
:103D76000001FC6BF9C0E9FFFAC0EAFFEECFFBF0E9
:103D8600FB51000A0EE0FBC0FEF0FADE0001FC2B40
:103D9600FC51F925E96E000EFA21EA6EEECFFBF032
:043DA600EFD7120041
:0A3DAA009494BA840C0EBD121200AE
:103DB400220E0C6E086A096A0A6A0B6A0C06D8B4E9
:103DC4001FD0D8900B320A32093208320332023241
:103DD40001320032D8A0F2D70C06D8B409D004506E
:103DE40008260550092206500A2207500B22EAD75A
:103DF400045008260550092206500A2207500B22B7
:023E04001200AA
:103E0600C26A0001651D006E0050C1160F0EC01279
:103E1600C08EB7C000F0003600900036009000500B
:103E2600C212C2800EDFC282C2A201D0FDD7C4CFA9
:103E360001F0006A00C0B8F001C0B9F0C35000122A
:103E4600000E011200C0B8F001C0B9F0C290000E19
:103E56000014026E0150800B036E000E031802E17F
:103E6600000E021802E0B86BB96BB8C000F0B9C01A
:043E760001F0120045
:103E7A00000166532CE08C0E0101016F000E026FE7
:103E8A00F90E036F460E046F000E056F2AC006F185
:103E9A00000E076F67C008F1000E096F0001685134
:103EAA00550A07E1510EB76F470EB86F000EB96F8A
:103EBA0006D0540EB76F470EB86F000EB96FB7C071
:103ECA000AF1B8C00BF1B9C00CF1BFDE10D0010184
:103EDA008C0E016F000E026F0B0E036F470E046FFC
:103EEA00000E056F2AC006F1000E076FAEDE010E46
:103EFA000001F96F010EFA6F8C0EFB6F000EFC6F5A
:103F0A00F5DE7B0E0101016F000E026F1D0E036FBD
:103F1A00470E046F000E056F6BC006F16CC007F107
:103F2A00295204E04F0E0001BA6F03D00001460E79
:103F3A00BA6FBAC008F189DE020E0001F96F010EEC
:0E3F4A00FA6F7B0EFB6F000EFC6FD0DE1200D4
:103F580000016851550A03E1010EF86F07D0685156
:103F6800440A03E1020EF86F01D0F86B295203E00E
:103F7800010EB76F01D0B76BB80E0101016F000ECB
:103F8800026F810E036F460E046F000E056F2AC084
:103F980006F1000E076FF8C008F1000E096F6BC03C
:103FA8000AF16CC00BF1B7C00CF1000E0D6F6DC0BB
:103FB8000EF1000E0F6F6EC010F1000E116F46DE8D
:0E3FC800B80E0001F96F000EFA6FD1DE120084
:103FD600060E0001B76FB751000826E2B705006E5E
:103FE600016A000E015AAF0E046E000E056EF2EC69
:103FF60004F0060E046E000E056E00DE500E00265E
:10400600000E012200C0FEF0C2DD020E0B6E860E0F
:104016000C6E990E0D6E0D2EFED70C2EFCD70B2EA8
:10402600FAD70001B707D7D78B908B92FE6BAFDD1F
:02403600120076
:104038000001B751550A03E18B808B9202D08B9017
:0E4048008B82500EFE6FA2DDACDE26DE120073
:104056000900F5CFE6FF0006FBE10106F9E11200D3
:10406600939A93989390939293949396819A819826
:10407600819681948192819023EC01F023EC01F0EA
:1040860023EC01F081828180818A2EEC01F0819AF5
:1040960023EC01F0818A2EEC01F0819A23EC01F0E9
:1040A600818A2EEC01F0819A23EC01F08190818ABD
:1040B6002EEC01F0819A23EC01F0818A2EEC01F0BE
:1040C600819A81928186818A2EEC01F0819A23EC75
:1040D60001F081968180818A2EEC01F0819A81908F
:1040E600818A2EEC01F0819A23EC01F0818A2EEC74
:1040F60001F0819A8180818A2EEC01F0819A23EC6D
:1041060001F08190818A2EEC01F0819A818681846A
:1041160081828180818A2EEC01F0819A23EC01F064
:0641260000017A81120085
:08412C00BE6ABD98BD9A1200A5
:10413400860E00019D6F3B0E9E6FFE0E9F6F000E5C
:10414400A06FFF0EA16FFF0EA26F000EA36F000EF3
:10415400A46FFF0EA96FFF0EAA6F000EAB6F000EC7
:10416400AC6FFF0EA56FFF0EA66F000EA76F000EBB
:10417400A86FAC8A900EAB6E948E949C9EAA03D0CA
:08418400AECF00F0FBD71200E2
:10418C00FF0E0001766FFF0E776FFF0E786FFF0E3C
:10419C00796FC26A651D006E0050C1160F0EC012F9
:0641AC00C08EC28012006B
:1041B200150EE16E000EE26E2A50E126D8B0E22A18
:1041C200E66AFF0E046E0A0E076E000E086E036AA0
:1041D200040E035C2FE2150EE96E000EEA6E035028
:1041E200E926D8B0EA2AEECF00F0005201E120D051
:1041F2002A50035C07E32A50035C016E026A000E38
:10420200025A06D003502A5C016E026A000E025A5C
:1042120001C005F002C006F00850025C02E107503E
:10422200015C06E205C007F006C008F003C004F016
:10423200032ACED70450FF0A0CE0150EE16E000EE1
:10424200E26E0450E126D8B0E22AE66A04C000F029
:0842520002D0FF0E006E120005
:10425A000001B0512A1801E192D0B0512A5C03E260
:10426A00550EB16F02D0440EB16FB1C0B4F0B1C0F7
:10427A0068F0B0C067F0010E666FFADD68DE040E02
:10428A000B6E0C0E0C6E330E0D6E0D2EFED70C2E11
:10429A00FCD70B2EFAD700000000B0512A5C06E2C8
:1042AA002A50B05DB26F000EB36F05D0B0512A5CD0
:1042BA00B26F000EB36FB2C0B5F0B4C0B7F0B7DEDC
:1042CA00FF0EFE6F62DC0001B66BB551B65D3EE2D1
:1042DA00B505016E026A000E025A000E021802E1CA
:1042EA000150B61910E1B551010A0DE10A0E0B6E23
:1042FA00220E0C6EA10E0D6E0D2EFED70C2EFCD7C3
:10430A000B2EFAD70DD0130E0B6E440E0C6E440E04
:10431A000D6E0D2EFED70C2EFCD70B2EFAD70000F1
:10432A00B505016E026A000E025A000E021802E179
:10433A000150B61901E14ADE0001B451550A02E101
:10434A002A2A01D02A0694DDB62BBFD78B908B92EE
:10435A00FE6B1BDC0001666B530E686F2AC067F0A8
:10436A0087DDF5DD070E0B6E170E0C6E6A0E0D6EED
:10437A000D2EFED70C2EFCD70B2EFAD700001200FA
:10438A0083A002D0010E156E83A202D0010E166E12
:10439A0083A402D0010E176E83A602D0010E186EF6
:0243AA001200FF
:1043AC00000E80B0010E296E010E0001B76F25DDE5
:1043BC00000E026E036E840E046E030E056E000E6C
:1043CC00066E000E076EF0DCFF0E046E030E056E1B
:1043DC00000E066E000E076E11EC0AF000C06BF0BA
:0643EC0001C06CF012009C
:1043F200295203E0010E016E01D0016A01B002D020
:10440200899401D0898400016A516C5D02E169518D
:104412006B5D05E26E5303E16D5301E103D0010EC2
:10442200026E01D0026A02B002D0899601D089865A
:02443200120076
:10443400ACEC23F00001AE6BAF6BBA80BA92630EA2
:10444400BB6E72DEFE6BCAEC1DF0ADDC020E0F011A
:10445400386F928092829294929689948996396B5D
:104464003A6B949094929494949C948E8B908B92A7
:104474003B6BFF0E956E88DE020E0F01386F928241
:10448400B886B06ACF0EAF6EAC8452DE020E0B6EED
:10449400040E0C6EBA0E0D6E0D2EFED70C2EFCD72C
:1044A4000B2EFAD70000DDDD010E0101376FEFECB2
:1044B40005F00C0E0101376FEFEC05F0010EF96FFA
:1044C400010EFA6F190EFB6F000EFC6F12DC020E68
:1044D400F96F010EFA6F2B0EFB6F000EFC6F09DCF7
:1044E400100E0B6E390E0C6E0D0E0D6E0D2EFED7CA
:1044F4000C2EFCD70B2EFAD700000000010E010190
:10450400376FEFEC05F03B0EF96F000EFA6F31DCFC
:104514004BDF6DDFB0DC48DF6ADF35DF48DE00C02B
:10452400ADF00050FF0A0DE02950000A0AE1000135
:104534006A516C5D02E169516B5D03E2ADC0B0F09C
:104544008ADE0001320EAE25016E000EAF21026E2E
:1045540001C0AEF002C0AFF0070E025C02E1D00E63
:10456400015C03E3AE6BAF6BF5DC85DC820E0C6E95
:10457400DD0E0D6E0D2EFED70C2EFCD700000000B4
:04458400CAD7FFD7BC
:1047580010EE15F0610E006E010E016E880EF66EF9
:0E476800450EF76E000EF86E2BEC20F01200DE
:04458800000000002F
:10458C0020415343454E5345555220344554200049
:01459C00001E
:01459D00001D
:10459E00202056302E34202D2045504845432000F3
:1045AE003C444154412C45543A302C4449523A3003
:1045BE002C50543A302C5052543A302C414C3A3004
:0A45CE002C5552473A303E0D0A000A
:0145D8000FD3
:0145D90000E1
:0145DA0000E0
:0145DB00538C
:0245DC00B50226
:0245DE000000DB
:0145E00000DA
:0145E10000D9
:0745E200286E756C6C2900C6
:1045E9000000007FCDCC4C7B0AD723786F1203756E
:1045F90017B75171ACC5276EBD37066B95BF5667A6
:1046090077CC2B645F700961FFE65B5D08E53C3C94
:044619006042221BBE
:10461D000000007F000020820000488500007A889D
:10462D0000401C8C0050438F002474928096189685
:10463D0020BC3E99286B6E9CF90215A0EC782DC11B
:04464D00CAF249E282
:10465100010000000800000040000000000200000E
:104661000010000000800000000004000000200095
:1046710000000001000000080000004000000000F0
:104681003C444154412C45543A25642C4449523A06
:1046910025642C50543A25642C5052543A25642CEC
:1046A100414C3A25642C5552473A25643E0D0A0087
:1046B100010000000A00000064000000E80300009F
:1046C10010270000A086010040420F00809698004C
:0846D10000E1F50500CA9A3B67
:1046D90001000000100000000001000000100000AF
:1046E900000001000000100000000001000000109F
:1046F90045543A25752D3E25752025732020202007
:0247090020008E
:10470B0045543A25752053544F502020202020200B
:02471B0020007C
:10471D00503A2533646B672049523A256320202097
:02472D0020006A
:10472F003031323334353637383961626364656618
:01473F000079
:1047400030313233343536373839414243444546C7
:014750000068
:03475100555000C0
:03475400444E00D0
:020000040030CA
:0D000100231F3CFFBF81FF0FC00FE00F4029
:00000001FF
