:10000000DFEF21F00000000000EF00F00000000032
:0A0010000000000000000000F3D71C
:08001C000AAE029E000E120064
:100024000B820BAE1CEF00F00368026801680068E5
:080034000A360232FF0E120031
:0E003C00026A016A006A086A036A000E120076
:10004A000B840BAE30EF00F0010E036E026A016AF8
:0A005A00006A0A360232FF0E12009F
:100064000CB074EF00F00CA21AEF01F00E6A000E4F
:1000740002648BEF00F0F00E0214D8A456EF00F0E7
:10008400023A01380F0B02260138F00B016E0038DA
:100094000F0B01260038F00B006E08380F0B0026FA
:1000A4000838F00B086E0E84D89002BE6FEF00F093
:1000B40008360036013602360E2A02BE6FEF00F013
:1000C40008360036013602360E2A02BE6FEF00F003
:1000D40008360036013602360E2A0E50036410EF3D
:1000E40001F0035E0BBC08AE15EF01F0D880800E62
:1000F40008640030000E002201220222D8A015EF6D
:1001040001F0023201320032034A1AEF01F015EF16
:1001140001F001C002F000C001F008C000F0086A5C
:10012400000E0E860264C2EF00F0F00E0214D8A492
:10013400AAEF00F0023A01380F0B02260138F00B47
:10014400016E00380F0B01260038F00B006E0E8490
:10015400D89002BE6FEF00F00036013602360E2A48
:1001640002BE6FEF00F00036013602360E2A02BEE0
:100174006FEF00F00036013602360E2A6FEF00F002
:1001840001C002F000C001F0006A000E0E960E8855
:100194000264EFEF00F0F00E0214D8A4DAEF00F0DE
:1001A400023A01380F0B02260138F00B016E0E845F
:1001B400D89002BE6FEF00F0013602360E2A02BE5E
:1001C4006FEF00F0013602360E2A02BE6FEF00F028
:1001D400013602360E2A6FEF00F001C002F0016A08
:1001E400000E0E8602641FEF01F0F00E0214D8A474
:1001F400FEEF00F0023A0E84D89002BE6FEF00F0DA
:1002040002360E2A02BE6FEF00F002360E2A02BE3C
:100214006FEF00F002360E2A6FEF00F0010E0C6E45
:1002240012DF22EF01F0020E0C6EF6DE22EF01F077
:10023400040E0C6EF5DE22EF01F0080E0C6EFCDEEF
:020244001200A6
:10024600086A080E0C6E003408360450085ED8B0F2
:0E02560002D00826D89000360C2EF5D71200E4
:10026400086A096A000E07620364B7EF01F00250DE
:1002740006180A6E075003267E0ED8A048EF01F038
:10028400035ED8B0BBEF01F04CEF01F0035ED8A0E1
:10029400BFEF01F0028E068E02C00EF001C00BF01B
:1002A40000C00DF000500402F4CF0CF00150050220
:1002B400F4CF00F0F3CF08F00402F3500C26F4500E
:1002C4000822000E00220D500502F3500C26F450B3
:1002D4000822000E002202500402F3500826F450B3
:1002E400002202500502016A000E0122F35000268A
:1002F400F45001220D500602F3500826F450002257
:10030400026A000E012202220B500602F35000265C
:10031400F4500122000E02220E500602F350012670
:10032400F450022202BE9FEF01F008360036013677
:1003340002360306D8B4BFEF01F0B2EF01F0D88063
:10034400800E08640030000E002201220222D8A090
:10035400B2EF01F0023201320032034ABBEF01F086
:100364000AAE029E000EC1EF01F0010E65DEC1EF80
:1003740001F0020E55DEC1EF01F0040E64DE12003E
:080384000B6A0B86FF0E12004C
:10038C00025006180E6E086A096A0B6A035007645D
:10039C00B9EF02F006500A6E068E028E03500B6EF9
:1003AC000750036E000E0B6409EF02F00B50075E52
:1003BC00D8B4AAEF02F0070E076478EF02F0075EDC
:1003CC0000C008F001C000F002C001F0026A074E44
:1003DC00AAEF02F007644DEF02F0075E00C008F0D0
:1003EC0001C000F0016A074EAAEF02F007642BEF80
:1003FC0002F0075E00C008F0006A074EAAEF02F098
:10040C00076412EF02F00AC002F005C001F004C04C
:10041C0000F0086AD3EF03F0030E07641DEF02F03F
:10042C00075E08380F0B086E074EAAEF02F0D89043
:10043C000832074EAAEF02F0D8900832074EAAEF06
:10044C0002F0D8900832AAEF02F0030E07643CEFDA
:10045C0002F0075E08380F0B086E0038F00B082608
:10046C0000380F0B006E074EAAEF02F0D890003246
:10047C000832074EAAEF02F0D89000320832074E2D
:10048C00AAEF02F0D89000320832AAEF02F0030E65
:10049C00076464EF02F0075E08380F0B086E003833
:1004AC00F00B082600380F0B006E0138F00B0026FD
:1004BC0001380F0B016E074EAAEF02F0D8900132F3
:1004CC0000320832074EAAEF02F0D8900132003207
:1004DC000832074EAAEF02F0D890013200320832EF
:1004EC00AAEF02F0030E076495EF02F0075E0838DE
:1004FC000F0B086E0038F00B082600380F0B006E3F
:10050C000138F00B002601380F0B016E0238F00B8E
:10051C00012602380F0B026E074EAAEF02F0D8909C
:10052C000232013200320832074EAAEF02F0D890A4
:10053C000232013200320832074EAAEF02F0D89094
:10054C000232013200320832096A000E0EAE9EEF02
:10055C0003F0081E001E011E021E082A00220122A2
:10056C0002229EEF03F00750D8A4BFEF02F0D3EFA6
:10057C0003F0096A02C00AF0028E068E0750035C73
:10058C00076ED8B491EF03F0070E07645FEF03F02A
:10059C00075E0450096E0550046E0650056E066A1F
:1005AC00074E91EF03F0070E076434EF03F0075E7C
:1005BC000450096E0550046E056A074E91EF03F066
:1005CC00070E076412EF03F0075E0450096E046A0D
:1005DC00074E91EF03F0070E0764F9EF02F00AC023
:1005EC0002F0D3EF03F0030E076404EF03F0075E91
:1005FC0009380F0B096E074E91EF03F0D8900932B2
:10060C00074E91EF03F0D8900932074E91EF03F0AB
:10061C00D890093291EF03F0030E076423EF03F037
:10062C00075E09380F0B096E0438F00B09260438E5
:10063C000F0B046E074E91EF03F0D8900432093281
:10064C00074E91EF03F0D89004320932074E91EF28
:10065C0003F0D8900432093291EF03F0030E0764D3
:10066C004BEF03F0075E09380F0B096E0438F00BE3
:10067C00092604380F0B046E0538F00B04260538D8
:10068C000F0B056E074E91EF03F0D8900532043234
:10069C000932074E91EF03F0D8900532043209323B
:1006AC00074E91EF03F0D89005320432093291EFE6
:1006BC0003F0030E07647CEF03F0075E09380F0BA1
:1006CC00096E0438F00B092604380F0B046E05383C
:1006DC00F00B042605380F0B056E0638F00B0526BB
:1006EC0006380F0B066E074E91EF03F0D8900632CA
:1006FC00053204320932074E91EF03F0D8900632DE
:10070C00053204320932074E91EF03F0D8900632CD
:10071C00053204320932086A000E0EAE9EEF03F069
:10072C00091E041E051E061E092A04220522062285
:10073C0009500826045000220550012206500222BE
:10074C000EBEB5EF03F0D8A0C4EF03F002320132B5
:10075C0000320832033EC4EF03F0CEEF03F0D8B002
:10076C00C9EF03F0000E081E001E011E021E082A0F
:10077C000022012202220A7EC9EF03F0010E0C6E48
:10078C006BDCD5EF03F0020E0C6E66DCD5EF03F0DC
:10079C00040E0C6E41DCD5EF03F0000E0C6E120053
:1007AC000B800BAEE2EF03F0026A0AAEFF0E026E94
:0C07BC00016E006E0A360232FF0E1200C1
:1007C8000D6A086A0050D8B4000C04180A6E0ABEF4
:1007D8000D1E0B6A04AE02D0041E042A00AE02D01D
:1007E800001E002A005004100A6E0ABE1FD00450D2
:1007F800085E003600340836045008260036060E17
:100808000C6E00340836045000B0085E00A00826BC
:1008180000360C2EF6D700A008260BB015D00DAE6A
:10082800000C001E002A081E082A000C04AE09D07D
:1008380000BE04D00050086E006AF1D7006A002A92
:10084800000C001E0B2AD3D7082A0450085CD8A431
:0E085800E6D7086A002A00AEE2D7FF0C1200B5
:100866000F0E0C6E470E0D6E0D2EFED70C2EFCD7FE
:060876000000000012006A
:0A087C00210E0D6E0D2EFED71200A6
:100886000134083609360450085E0550D8A0053CE8
:10089600095E003601360F0E0C6E01340836093635
:1008A600045000A006D0085E0550D8A0053C095E9D
:1008B60005D008260550D8B0053C09260036013675
:1008C6000C2EEBD700B006D0045008260550D8B041
:0808D600053C09260000120098
:0608DE0000000000120002
:0608E400067E52DD120049
:1008EA000B6A0A6A096A086A0E6A033408360450EF
:1008FA00085E0550D8A0053C095E0650D8A0063C03
:10090A000A5E0750D8A0073C0B5EE86AD8A0010E21
:10091A000E5E0336070E0C6E0334083609360A36A5
:10092A000B360E36045003A012D0085E0550D8A02C
:10093A00053C095E0650D8A0063C0A5E0750D8A0BE
:10094A00073C0B5EE86AD8A0010E0E5E11D008269D
:10095A000550D8B0053C09260650D8B0063C0A26F0
:10096A000750D8B0073C0B26E86AD8B0010E0E260D
:10097A0003360C2ED1D70234083609360A360B361E
:10098A000E36045003A012D0085E0550D8A0053CCC
:10099A00095E0650D8A0063C0A5E0750D8A0073C5C
:1009AA000B5EE86AD8A0010E0E5E11D0082605502B
:1009BA00D8B0053C09260650D8B0063C0A2607508E
:1009CA00D8B0073C0B26E86AD8B0010E0E260236CC
:1009DA00070E0C6E0234083609360A360B360E3606
:1009EA00045002A012D0085E0550D8A0053C095E4A
:1009FA000650D8A0063C0A5E0750D8A0073C0B5EFA
:100A0A00E86AD8A0010E0E5E11D008260550D8B0AB
:100A1A00053C09260650D8B0063C0A260750D8B02D
:100A2A00073C0B26E86AD8B0010E0E2602360C2EB9
:100A3A00D1D70134083609360A360B360E36045039
:100A4A0002A012D0085E0550D8A0053C095E0650E7
:100A5A00D8A0063C0A5E0750D8A0073C0B5EE86A9D
:100A6A00D8A0010E0E5E11D008260550D8B0053C5C
:100A7A0009260650D8B0063C0A260750D8B0073CCB
:100A8A000B26E86AD8B0010E0E260136070E0C6E48
:100A9A000134083609360A360B360E36045001A0E0
:100AAA0012D0085E0550D8A0053C095E0650D8A0B1
:100ABA00063C0A5E0750D8A0073C0B5EE86AD8A03D
:100ACA00010E0E5E11D008260550D8B0053C092645
:100ADA000650D8B0063C0A260750D8B0073C0B2669
:100AEA00E86AD8B0010E0E2601360C2ED1D7003492
:100AFA00083609360A360B360E36045001A012D0D3
:100B0A00085E0550D8A0053C095E0650D8A0063CF0
:100B1A000A5E0750D8A0073C0B5EE86AD8A0010E0F
:100B2A000E5E11D008260550D8B0053C092606509D
:100B3A00D8B0063C0A260750D8B0073C0B26E86A0C
:100B4A00D8B0010E0E260036070E0C6E0034083699
:100B5A0009360A360B360E36045000A012D0085E4B
:100B6A000550D8A0053C095E0650D8A0063C0A5E8E
:100B7A000750D8A0073C0B5EE86AD8A0010E0E5EAB
:100B8A0011D008260550D8B0053C09260650D8B021
:100B9A00063C0A260750D8B0073C0B26E86AD8B0AC
:100BAA00010E0E2600360C2ED1D700B00ED00450FE
:100BBA0008260550D8B0053C09260650D8B0063C90
:0C0BCA000A260750D8B0073C0B2612008A
:100BD6000001CE51390806E3300ECE5D03E3010E67
:080BE600006E01D0006A12004C
:100BEE006E0E0001CE5DD8A0CAD0640E046ECEC0CB
:100BFE0000F023EC01F0120E0024056E066A000EC2
:100C0E00062205C000F006C001F0000E06BEFF0E63
:100C1E00026E036E00360090013602360336003641
:100C2E000090013602360336B10E0024F66E450EE4
:100C3E000120F76E000E0220F86E0900F5CF00F0CD
:100C4E000900F5CF01F00900F5CF02F00900F5CF4C
:100C5E0003F0000E046E000E056E000E066E7E0E84
:100C6E00076E32EC01F000C0CFF001C0D0F002C030
:100C7E00D1F003C0D2F0640E046ECEC000F023ECAF
:100C8E0001F008C000F00A0E046E23EC01F0090E0C
:100C9E000024056E066A000E062205C000F006C08E
:100CAE0001F0000E06BEFF0E026E036E00360090BF
:100CBE000136023603360036009001360236033610
:100CCE00B10E0024F66E450E0120F76E000E0220C6
:100CDE00F86E0900F5CF00F00900F5CF01F009001C
:100CEE00F5CF02F00900F5CF03F0CFC004F0D0C06D
:100CFE0005F0D1C006F0D2C007F032EC01F000C012
:100D0E00CFF001C0D0F002C0D1F003C0D2F00A0E75
:100D1E00046ECEC000F023EC01F008C000F000C05D
:100D2E0001F0000E026E036E046E01360190023663
:100D3E000336043601360190023603360436B10E00
:100D4E000124F66E450E0220F76E000E0320F86E9B
:100D5E000900F5CF00F00900F5CF01F00900F5CF3D
:100D6E0002F00900F5CF03F0CFC004F0D0C005F0BB
:100D7E00D1C006F0D2C007F032EC01F0B1D0CE51A6
:100D8E000A08D8B07ED00A0E046ECEC000F023EC56
:100D9E0001F0090E0024056E066A000E062205C03B
:100DAE0000F006C001F0000E06BEFF0E026E036ECE
:100DBE0000360090013602360336003600900136BA
:100DCE0002360336B10E0024F66E450E0120F76E84
:100DDE00000E0220F86E0900F5CF00F00900F5CFE5
:100DEE0001F00900F5CF02F00900F5CF03F0000E77
:100DFE00046E000E056E000E066E7E0E076E32EC51
:100E0E0001F000C0CFF001C0D0F002C0D1F003C09D
:100E1E00D2F00A0E046ECEC000F023EC01F008C032
:100E2E0000F000C001F0000E026E036E046E01367B
:100E3E00019002360336043601360190023603362F
:100E4E000436B10E0124F66E450E0220F76E000E2A
:100E5E000320F86E0900F5CF00F00900F5CF01F080
:100E6E000900F5CF02F00900F5CF03F0CFC004F072
:100E7E00D0C005F0D1C006F0D2C007F032EC01F0C0
:100E8E002FD0CEC000F0000E016E026E036E003643
:100E9E0000900136023603360036009001360236D7
:100EAE000336B10E0024F66E450E0120F76E000ECD
:100EBE000220F86E0900F5CF00F00900F5CF01F021
:100ECE000900F5CF02F00900F5CF03F0000E046E15
:100EDE00000E056E000E066E7E0E076E32EC01F0F1
:020EEE001200F0
:100EF0000050086E0150006E0250016E0350026EE9
:100F0000036A0B6A0C6A9E0E036E0A6A020E0C6E6E
:060F100032EC00F01200BB
:100F16000B6A0C6A086A0350D8B40FEF08F002C0D7
:100F26000AF0028E9E0E035E03AEFFEF07F0036C1F
:100F3600080E035CD8A0CCEF07F0036E083600C09D
:100F460008F001C000F002C001F0026A080E035C5E
:100F5600D8A0CCEF07F0036E083600C008F001C039
:100F660000F0016A080E035CD8A0CCEF07F0036E10
:100F7600083600C008F0006A080E035CD8A0CCEF63
:100F860007F0036E0836086A0350D8A4D890D8EF45
:100F960007F00350D8B4D8EF07F0D89002320132E8
:100FA60000320832032ED0EF07F00BBC08A0E9EFA1
:100FB60007F0D8A0E9EF07F0082AD8B4002AD8B479
:100FC600012AD8B4022A02BE13EF08F00AAE0FEFC8
:100FD60008F0021E011E001E081E082AD8B4002AA8
:100FE600D8B4012AD8B4022A0FEF08F0026A016ABF
:100FF600006A086A0FEF08F00B800BAE1AEF08F0D4
:10100600026A0AAE1AEF08F0026E016E006E086EF2
:101016000A3602321AEF08F00C6A000E1BEF08F0CF
:10102600010E0C6E000ED6EC03F01BEF08F0FF0E5F
:101036000250036E0150026E0050016E0850006EA1
:02104600120096
:101048000001CEBF02D0819601D08186CEBD02D0EC
:10105800819401D08184CEBB02D0819201D081825B
:10106800CEB902D0819001D0818088B102D0818828
:1010780001D08198818A2FDC819ACEB702D08196DF
:1010880001D08186CEB502D0819401D08184CEB3BF
:1010980002D0819201D08182CEB102D0819001D05C
:1010A800818088B102D0818801D08198818A13DC3F
:1010B800819A88A103D033EC04F002D03EEC04F00E
:0210C800120014
:1010CA00800E0001CE19006E800E000A005CD8B0B6
:1010DA006DD1CE510008016E01C0CEF0800E01180C
:1010EA00006E800E6E0A005CD8A0C0D0640E046E3A
:1010FA00CEC000F0E4EC03F0120E0024056E000EE0
:10110A0000BEFF0E066E000E062205C000F006C0E5
:10111A0001F0000E06BEFF0E026E036E003600904E
:10112A00013602360336003600900136023603369F
:10113A00B10E0024F66E450E0120F76E000E022055
:10114A00F86E0900F5CFCFF00900F5CFD0F009000D
:10115A00F5CFD1F00900F5CFD2F0640E046ECEC0FF
:10116A0000F0E4EC03F008C000F00A0E046EE4ECB0
:10117A0003F0090E0024056E000E00BEFF0E066E77
:10118A00000E062205C000F006C001F0000E06BEE1
:10119A00FF0E026E036E00360090013602360336E9
:1011AA0000360090013602360336B10E0024F66E80
:1011BA00450E0120F76E000E0220F86E0900F5CFE9
:1011CA0000F00900F5CF01F00900F5CF02F009009F
:1011DA00F5CF03F0CFC004F0D0C005F0D1C006F0BF
:1011EA00D2C007F032EC01F000C0CFF001C0D0F05D
:1011FA0002C0D1F003C0D2F00A0E046ECEC000F0D5
:10120A00E4EC03F008C000F000C001F0000E00BEDC
:10121A00FF0E026E036E046E01360190023603362B
:10122A00043601360190023603360436B10E012423
:10123A00F66E450E0220F76E000E0320F86E0900C6
:10124A00F5CF00F00900F5CF01F00900F5CF02F063
:10125A000900F5CF03F0CFC004F0D0C005F0D1C02B
:10126A0006F0D2C007F032EC01F007D2800E0A0A6B
:10127A00006E800ECE19005C71E20A0E046ECEC0BA
:10128A0000F0E4EC03F0090E0024056E000E00BE27
:10129A00FF0E066E000E062205C000F006C001F021
:1012AA00000E06BEFF0E026E036E00360090013677
:1012BA000236033600360090013602360336B10E86
:1012CA000024F66E450E0120F76E000E0220F86E1D
:1012DA000900F5CFCFF00900F5CFD0F00900F5CF1E
:1012EA00D1F00900F5CFD2F00A0E046ECEC000F09C
:1012FA00E4EC03F008C000F000C001F0000E00BEEC
:10130A00FF0E026E036E046E01360190023603363A
:10131A00043601360190023603360436B10E012432
:10132A00F66E450E0220F76E000E0320F86E0900D5
:10133A00F5CF00F00900F5CF01F00900F5CF02F072
:10134A000900F5CF03F0CFC004F0D0C005F0D1C03A
:10135A0006F0D2C007F032EC01F08FD1CEC000F017
:10136A00000ECEBFFF0E016E026E036E00360090B5
:10137A00013602360336003600900136023603364D
:10138A00B10E0024F66E450E0120F76E000E022003
:10139A00F86E0900F5CF00F00900F5CF01F0090059
:1013AA00F5CF02F00900F5CF03F067D1800ECE1910
:1013BA00006E800E6E0A005CD8A0C0D0640E046E67
:1013CA00CEC000F0E4EC03F0120E0024056E000E0D
:1013DA0000BEFF0E066E000E062205C000F006C013
:1013EA0001F0000E06BEFF0E026E036E003600907C
:1013FA0001360236033600360090013602360336CD
:10140A007D0E0024F66E450E0120F76E000E0220B6
:10141A00F86E0900F5CFCFF00900F5CFD0F009003A
:10142A00F5CFD1F00900F5CFD2F0640E046ECEC02C
:10143A0000F0E4EC03F008C000F00A0E046EE4ECDD
:10144A0003F0090E0024056E000E00BEFF0E066EA4
:10145A00000E062205C000F006C001F0000E06BE0E
:10146A00FF0E026E036E0036009001360236033616
:10147A00003600900136023603367D0E0024F66EE1
:10148A00450E0120F76E000E0220F86E0900F5CF16
:10149A0000F00900F5CF01F00900F5CF02F00900CC
:1014AA00F5CF03F0CFC004F0D0C005F0D1C006F0EC
:1014BA00D2C007F032EC01F000C0CFF001C0D0F08A
:1014CA0002C0D1F003C0D2F00A0E046ECEC000F002
:1014DA00E4EC03F008C000F000C001F0000E00BE0A
:1014EA00FF0E026E036E046E013601900236033659
:1014FA000436013601900236033604367D0E012485
:10150A00F66E450E0220F76E000E0320F86E0900F3
:10151A00F5CF00F00900F5CF01F00900F5CF02F090
:10152A000900F5CF03F0CFC004F0D0C005F0D1C058
:10153A0006F0D2C007F032EC01F09FD0800E0A0A02
:10154A00006E800ECE19005C71E20A0E046ECEC0E7
:10155A0000F0E4EC03F0090E0024056E000E00BE54
:10156A00FF0E066E000E062205C000F006C001F04E
:10157A00000E06BEFF0E026E036E003600900136A4
:10158A0002360336003600900136023603367D0EE7
:10159A000024F66E450E0120F76E000E0220F86E4A
:1015AA000900F5CFCFF00900F5CFD0F00900F5CF4B
:1015BA00D1F00900F5CFD2F00A0E046ECEC000F0C9
:1015CA00E4EC03F008C000F000C001F0000E00BE19
:1015DA00FF0E026E036E046E013601900236033668
:1015EA000436013601900236033604367D0E012494
:1015FA00F66E450E0220F76E000E0320F86E090003
:10160A00F5CF00F00900F5CF01F00900F5CF02F09F
:10161A000900F5CF03F0CFC004F0D0C005F0D1C067
:10162A0006F0D2C007F032EC01F027D0CEC000F0AD
:10163A00000ECEBFFF0E016E026E036E00360090E2
:10164A00013602360336003600900136023603367A
:10165A007D0E0024F66E450E0120F76E000E022064
:10166A00F86E0900F5CF00F00900F5CF01F0090086
:0C167A00F5CF02F00900F5CF03F01200DC
:1016860003500718D8A457EF0BF002500618D8A439
:1016960057EF0BF001500518D8A457EF0BF0005088
:0E16A6000418D8B4D8841200D8941200120090
:1016B4000B6A0C6A0A6A086A0350D8B4E2EF0BF0AA
:1016C400028E9E0E035E03BE6DEF0BF0D8B46DEF79
:1016D4000BF0D2EF0BF0036C080E035CD8A09FEF65
:1016E4000BF0036E083600C008F001C000F002C021
:1016F40001F0026A080E035CD8A09FEF0BF0036EA2
:10170400083600C008F001C000F0016A080E035C4E
:10171400D8A09FEF0BF0036E083600C008F0006AF3
:10172400080E035CD8A09FEF0BF0036E0836086A1E
:101734000350D8A4D890ABEF0BF00350D8B4ABEF60
:101744000BF0D8900232013200320832032EA3EF9C
:101754000BF00BBC08A0BCEF0BF0D8A0BCEF0BF057
:10176400082AD8B4002AD8B4012AD8B4022A02BE5E
:10177400E6EF0BF00AAEE2EF0BF0021E011E001EB4
:10178400081E082AD8B4002AD8B4012AD8B4022AD8
:10179400E2EF0BF0026A016A006A086AE2EF0BF0FA
:1017A4000B800BAEECEF0BF0026A0AAEECEF0BF021
:1017B400026E016E006E086E0A360232ECEF0BF018
:1017C400000E0C6AEDEF0BF0010E0C6ED6EC03F07C
:1017D400EDEF0BF0FF0E0250036E0150026E00504D
:0817E400016E0850006E1200B6
:1017EC000450000A12E10550000A0FE10650000AED
:1017FC000CE10750000A09E1FF0E006EFF0E016EAE
:10180C007F0E026EFF0E036EA8D0086A096A07509D
:10181C00D8B4A1EF0CF00350D8B4A6EF0CF00250E2
:10182C0006180A6E028E068E0E6A02C008F001C0FF
:10183C000CF000C00DF004500D5E0550D8A0053C16
:10184C000C5E0650D8A0063C085E086A0C6A0D6A4D
:10185C00D8A038EF0CF0D8900232013200320832A6
:10186C00010E0E6E0750035ED8A045EF0CF07E0EF5
:10187C000E240326D8B0ABEF0CF04BEF0CF07E0E21
:10188C000E240326D8A0B0EF0CF0180E0B6E0D36FC
:10189C000C3608360036013602360E360450005E21
:1018AC000550D8A0053C015E0650D8A0063C025E4F
:1018BC0006340E120EA066EF0CF00D8071EF0CF0DA
:1018CC00045000260550D8B0053C01260650D8B06F
:1018DC00062802260D900B2E4DEF0CF097EF0CF016
:1018EC00D8900036013602360E360450005E055094
:1018FC00D8A0053C015E0650D8A0063C025E06341A
:10190C000E10010B0D26D8B00C2AD8B4082AD8A476
:10191C0097EF0CF008320C320D32032AD8B4ABEF2F
:10192C000CF00AAE089E0850026E0C50016E0D5061
:10193C00006EB3EF0CF0010EC2EC01F0B3EF0CF043
:10194C00020E1EEC00F0B3EF0CF0040E12EC00F0E3
:0C195C00B3EF0CF0080E25EC00F01200B8
:101968000450000A08E10550000A05E1FF0E006E68
:101978007F0E016E58D00D6A096A086A015000107E
:10198800D8B4000C015005180A6E0ABE0D1E0B6A69
:1019980005AE05D0041E051E042AD8B4052A01AEDA
:1019A80005D0001E011E002AD8B4012A01500510D6
:1019B8000A6E0ABE10D043EC04F00BB020D00DAE76
:1019C800000C001E011E002AD8B4012A081E091E98
:1019D800082AD8B4092A000C05AE0DD001BE07D0DC
:1019E8000150096E0050086E016A006AE8D7016A62
:1019F800006A002A000C011E001E0B2ADDD7082AE7
:101A0800D8B4092A0450085CD8A4D9D70550095C71
:101A1800D8A4D5D7096A086A002AD8B4012A01AE21
:081A2800CED70000FF0C1200F4
:101A30000A6A0350D8A40A800750D8A40A820A5020
:101A4000D8B47BEF0DF0030AD8B434EF0DF00AB030
:101A50002FEF0DF006AE79EF0DF077EF0DF002AE3F
:101A600077EF0DF079EF0DF00250800B0A6E029EB9
:101A70000650800B069E0A18D8B445EF0DF00A50A8
:101A8000D8B477EF0DF079EF0DF00750035CD8B4C0
:101A90004FEF0DF0D8A06BEF0DF071EF0DF0065089
:101AA000025CD8B459EF0DF0D8A06BEF0DF071EFD8
:101AB0000DF00550015CD8B463EF0DF0D8A06BEFCA
:101AC0000DF071EF0DF00450005CD8B47BEF0DF019
:101AD000D8B071EF0DF00A52D8B479EF0DF077EF6E
:101AE0000DF00A52D8B477EF0DF079EF0DF0D880F1
:0E1AF0001200D8901200D880D8841200120084
:101AFE000B6A0A6A096A00500402F4CF09F0F3CFA8
:101B0E0008F001500502F4CF0BF0F3CF0AF00050AD
:101B1E000502F3500926F4500A22E86A0B220150FE
:101B2E000402F3500926F4500A22E86A0B2208C078
:101B3E0000F009C001F00AC002F00BC003F0120061
:0C1B4E000E0E0D6E0D2EFED700001200D2
:101B5A000001C66BC76BBA6BBB6BA8C000F0A9C00B
:101B6A0001F0AAC002F0010EA827000EA923AA2399
:101B7A0000C0F6FF01C0F7FF02C0F8FF0900F5CF69
:101B8A0000F000C0B7F00052D8B4B7EF1DF0B7515B
:101B9A00250A0BE0A6C0E1FFA7C0E2FFB7C0E6FF37
:101BAA00A64BA72BC64BC72BD8D7B86BB96BBA6B4A
:101BBA00BB6B23D0BA87010EA827000EA923AA233C
:101BCA0059D0BA81010EA827000EA923AA2352D000
:101BDA00BA83010EA827000EA923AA234BD0BB87DC
:101BEA00010EA827000EA923AA2344D0BA85010E04
:101BFA00A827000EA923AA233DD0A8C0F6FFA9C092
:101C0A00F7FFAAC0F8FF0900F5CF01F001502D0A2D
:101C1A00D1E0A8C0F6FFA9C0F7FFAAC0F8FF0900E3
:101C2A00F5CF01F00150200ACCE0A8C0F6FFA9C008
:101C3A00F7FFAAC0F8FF0900F5CF01F001502B0AFF
:101C4A00C7E0A8C0F6FFA9C0F7FFAAC0F8FF0900BD
:101C5A00F5CF01F00150230AC2E0A8C0F6FFA9C0DF
:101C6A00F7FFAAC0F8FF0900F5CF01F00150300ACA
:101C7A00BDE001D09ED7BAA301D0BA91BAA701D0CC
:101C8A00BA95A8C0F6FFA9C0F7FFAAC0F8FF0900D5
:101C9A00F5CF00F0000E016E00C0CEF0EBEC05F0BF
:101CAA00005235E0B86BB96BB8C000F0B9C001F0AA
:101CBA000A0E046E000E056E1DDFA8C0F6FFA9C04D
:101CCA00F7FFAAC0F8FF0900F5CF02F0025000247E
:101CDA00B86F000E0120B96F300EB85F000EB95B05
:101CEA00010EA827000EA923AA23A8C0F6FFA9C09F
:101CFA00F7FFAAC0F8FF0900F5CF00F0000E016E49
:101D0A0000C0CEF0EBEC05F00052CEE133D0A8C013
:101D1A00F6FFA9C0F7FFAAC0F8FF0900F5CF01F046
:101D2A0001502A0A27E1ABC0E9FFACC0EAFFEECFB7
:101D3A0000F0EECF01F000C0E9FF01C0EAFFEECFEC
:101D4A00B8F0EECFB9F0ABC0E9FFACC0EAFF020EC3
:101D5A00EE24006E000EEE20016EABC0E1FFACC0B7
:101D6A00E2FF00C0E6FF01C0E6FF010EA827000E51
:101D7A00A923AA23A8C0F6FFA9C0F7FFAAC0F8FFA3
:101D8A000900F5CF01F001502E0A6FE1010EA827D4
:101D9A00000EA923AA23A8C0F6FFA9C0F7FFAAC06C
:101DAA00F8FF0900F5CF01F001502A0A28E1ABC07B
:101DBA00E9FFACC0EAFFEECF00F0EECF01F000C0C1
:101DCA00E9FF01C0EAFFEECFB5F0EECFB6F0ABC047
:101DDA00E9FFACC0EAFF020EEE24006E000EEE2010
:101DEA00016EABC0E1FFACC0E2FF00C0E6FF01C07C
:101DFA00E6FF010EA827000EA923AA2335D0B56B4A
:101E0A00B66BA8C0F6FFA9C0F7FFAAC0F8FF090081
:101E1A00F5CF00F0000E016E00C0CEF0EBEC05F03D
:101E2A00005222E0B5C000F0B6C001F00A0E046EFE
:101E3A00000E056E5FDEA8C0F6FFA9C0F7FFAAC0B4
:101E4A00F8FF0900F5CF02F002500024B56F000E2A
:101E5A000120B66F300EB55F000EB65B010EA827E3
:101E6A00000EA923AA23CDD703D0B56BB66BBB89C5
:101E7A00A8C000F0A9C001F0AAC002F0010EA8276C
:101E8A00000EA923AA2300C0F6FF01C0F7FF02C073
:101E9A00F8FF0900F5CFB7F0F9D0C6C000F0C7C007
:101EAA0001F0BBEF1DF0BA89E3D7BB852ED1BA8BFF
:101EBA00BB812BD1BB8329D1BA8D27D126D1BA8B2D
:101ECA00BA8F23D1ABC0E9FFACC0EAFFEECF00F076
:101EDA00EECF01F000C0E9FF01C0EAFFEECFC2F089
:101EEA00EECFC3F0ABC0E9FFACC0EAFF020EEE24AE
:101EFA00006E000EEE20016EABC0E1FFACC0E2FF47
:101F0A0000C0E6FF01C0E6FF000EC31902E1000EA1
:101F1A00C21904E15E0EC26F000EC36FC46BC56BBB
:101F2A00C451C225E96EC551C321EA6EEE520BE0D7
:101F3A00010EC425006E000EC521016E00C0C4F05A
:101F4A0001C0C5F0EDD7B551B6110AE0C551B65D6D
:101F5A0002E1C451B55D04E2B5C0C4F0B6C0C5F033
:101F6A00B951C55D02E1B851C45D05E2C451B85F1B
:101F7A00C551B95B02D0B86BB96BBAB716D0B8C045
:101F8A0000F0B9C001F0010EB85F000EB95B005055
:101F9A0001100BE0A6C0E1FFA7C0E2FF200EE66E2B
:101FAA00A64BA72BC64BC72BEAD7C4C002F0C5C0A5
:101FBA0003F0010EC45D006E000EC559016E00C02B
:101FCA00C4F001C0C5F00250031019E0C2C0E9FF15
:101FDA00C3C0EAFFA6C0E1FFA7C0E2FFEECFE6FF5B
:101FEA00A64BA72B010EC225006E000EC321016E5F
:101FFA0000C0C2F001C0C3F0C64BC72BD6D7BAA7E0
:10200A0016D0B8C000F0B9C001F0010EB85F000EDA
:10201A00B95B005001100BE0A6C0E1FFA7C0E2FFC8
:10202A00200EE66EA64BA72BC64BC72BEAD795D533
:10203A00ABC0E9FFACC0EAFFEECF00F0EECF01F093
:10204A0000C0E9FF01C0EAFFEECFB7F0ABC0E9FF7D
:10205A00ACC0EAFF020EEE24006E000EEE20016E06
:10206A00ABC0E1FFACC0E2FF00C0E6FF01C0E6FF83
:10207A00B70EC26F000EC36F010EC46F000EC56F9C
:10208A0062D7C00EBA13000EBB133FD0B751000A75
:10209A00D8B403D7B7516C0AD8B405D7B7514C0A8C
:1020AA00D8B401D7B751660AD8B4FFD6B751450A92
:1020BA00D8B4FDD6B751650AD8B4FAD6B751670A6B
:1020CA00D8B4F8D6B7516F0AD8B4F6D6B751640A5D
:1020DA00D8B4F4D6B751690AD8B4F0D6B751700A51
:1020EA00D8B4EDD6B751580AD8B4E9D6B751780A58
:1020FA00D8B4E6D6B751730AD8B4E4D6B751630A4E
:10210A0097E0B751750ABDE0B3D7000EBA15006E55
:10211A00BB51070B016E00500110D8B45EEF19F0E5
:10212A00BBA904D0060EB56F000EB66FABC0E9FFAF
:10213A00ACC0EAFFEECF00F0EECF01F000C0E9FF3D
:10214A0001C0EAFFEECFBCF0EECFBDF0EECFBEF09D
:10215A00EECFBFF0ABC0E9FFACC0EAFF040EEE243D
:10216A00006E000EEE20016EABC0E1FFACC0E2FFD4
:10217A0000C0E6FF01C0E6FF046A056A066A076A4C
:10218A00BCC000F0BDC001F0BEC002F0BFC003F089
:10219A004ADC010ED8B0000E006E005205E0BE7F88
:1021AA00030EBA13000EBB13C06BC16BBCC000F0A8
:1021BA00BDC001F0BEC002F0BFC003F0046A056AE8
:1021CA00066A076A43EC0BF0000ED8A4010E006EF3
:1021DA000052D8B489D0BFC000F0016A026A036A0B
:1021EA00FF0E0016000E01167E0E005E000E015A4A
:1021FA0000C0C0F001C0C1F0010E005E000E015A1D
:10220A0000C0C0F001C0C1F0030E046E000E056EDE
:10221A0071DC00C0C0F001C0C1F00A0E046E000EED
:10222A00056EB4EC0CF000C0C0F001C0C1F0800E25
:10223A000118026E800E025C02E1000E005C05E2EB
:10224A00010E0001C05F000EC15B0001C051000811
:10225A00CE6F65EC08F0BCC004F0BDC005F0BEC08E
:10226A0006F0BFC007F032EC01F000C0C2F001C0B6
:10227A00C3F002C0C4F003C0C5F0000E046E000E25
:10228A00056E000E066E7F0E076EC2C000F0C3C058
:10229A0001F0C4C002F0C5C003F018EC0DF0010E45
:1022AA00D8B0000E006E005205E0010EC05F000EAD
:1022BA00C15B1AD0000E046E000E056E200E066E6B
:1022CA00820E076EC2C000F0C3C001F0C4C002F0A3
:1022DA00C5C003F018EC0DF0000ED8B0010E006E68
:1022EA00005202E0C04BC12B800E006E800EC11955
:1022FA00005C02E1C051000803E3010EB76F02D08F
:10230A00C0C0B7F0BBB118D0BBA315D0800EC1199D
:10231A00006E7F0E005C02E1FC0EC05D0BE3800ED6
:10232A00C119006E800EB619005C02E1B551C05D9C
:10233A0001E201D001D0EFD3B551B61106E0BBA33B
:10234A0004D0010EB55F000EB65BB651000802E17B
:10235A00B551080803E2080EB76F02D0B5C0B7F04E
:10236A00BCC000F0BDC001F0BEC002F0BFC003F0A7
:10237A00046A056A066A076A43EC0BF0000ED8A4E1
:10238A00010E006E0052D8B44BD1C0C0CEF065EC3D
:10239A0008F000C004F001C005F002C006F003C056
:1023AA0007F0BCC000F0BDC001F0BEC002F0BFC063
:1023BA0003F0F6EC0BF000C0BCF001C0BDF002C0A7
:1023CA00BEF003C0BFF00001B7510008CE6F65EC44
:1023DA0008F000C004F001C005F002C006F003C016
:1023EA0007F0BCC000F0BDC001F0BEC002F0BFC023
:1023FA0003F0F6EC0BF000C0C8F001C0C9F002C04F
:10240A00CAF003C0CBF0C8C0BCF0C9C0BDF0CAC096
:10241A00BEF0CBC0BFF0C8C000F0C9C001F0CAC04E
:10242A0002F0CBC003F05AEC0BF078EC07F000C0D6
:10243A0004F001C005F002C006F003C007F0C8C0EE
:10244A0000F0C9C001F0CAC002F0CBC003F072ECC0
:10245A0004F0000E046E000E056E000E066E7E0E6F
:10246A00076E18EC0DF0000ED8B0010E006E005287
:10247A001AE0BCC000F0BDC001F0BEC002F0BFC08F
:10248A0003F0000E046E000E056E000E066E7E0E40
:10249A00076EC6EC01F000C0BCF001C0BDF002C07E
:1024AA00BEF003C0BFF0BCC000F0BDC001F0BEC0AA
:1024BA0002F0BFC003F05AEC0BF00001B751010F54
:1024CA00096E0A6A000E0A2209C004F00AC005F061
:1024DA00000E0ABEFF0E066E076E0436049005361D
:1024EA000636073604360490053606360736150EC4
:1024FA000424F66E460E0520F76E000E0620F86ECE
:10250A000900F5CF05F00900F5CF06F00900F5CF6F
:10251A0007F00900F5CF08F00850035C08E10750FE
:10252A00025C05E10650015C02E10550005C1EE315
:10253A000001BCC000F0BDC001F0BEC002F0BFC0C7
:10254A0003F0CD0E046ECC0E056E4C0E066E7B0E9D
:10255A00076E32EC01F000C0BCF001C0BDF002C051
:10256A00BEF003C0BFF0C04BC12B5AD0BCC000F0B4
:10257A00BDC001F0BEC002F0BFC003F05AEC0BF0C0
:10258A00B7C004F0000E056E066E076E043604909E
:10259A0005360636073604360490053606360736FB
:1025AA00150E0424F66E460E0520F76E000E062060
:1025BA00F86E0900F5CF05F00900F5CF06F009001D
:1025CA00F5CF07F00900F5CF08F00850035C08E1E1
:1025DA000750025C05E10650015C02E10550005C0F
:1025EA001FE20001BCC000F0BDC001F0BEC002F095
:1025FA00BFC003F0000E046E000E056E200E066EBC
:10260A00820E076E32EC01F000C0BCF001C0BDF0D2
:10261A0002C0BEF003C0BFF0010EC05F000EC15B76
:10262A000001BBA393D0BBB791D0800E000A006E05
:10263A00800EB619005C02E1B5510A0804E20A0EDE
:10264A00B56F000EB66FBCC000F0BDC001F0BEC0D1
:10265A0002F0BFC003F05AEC0BF000C0C2F001C098
:10266A00C3F002C0C4F003C0C5F0C251C311C41103
:10267A00C51142E00A0E046E000E056E066E076E64
:10268A00C2C000F0C3C001F0C4C002F0C5C003F06C
:10269A0075EC04F008C000F009C001F00AC002F0AD
:1026AA000BC003F0000E046E031808E10450021870
:1026BA0005E10450011802E10050000A1DE1010E73
:1026CA00B55F000EB65B0A0E046E000E056E066E4E
:1026DA00076EC2C000F0C3C001F0C4C002F0C5C09A
:1026EA0003F075EC04F000C0C2F001C0C3F002C0F0
:1026FA00C4F003C0C5F0B9D7800EB619006E800EBB
:10270A00005C02E1B751B55D21E2B551B75DCE6F0C
:10271A0065EC08F000C004F001C005F002C006F044
:10272A0003C007F0BCC000F0BDC001F0BEC002F09B
:10273A00BFC003F0F6EC0BF000C0BCF001C0BDF066
:10274A0002C0BEF003C0BFF0B5C0B7F0050E00016D
:10275A00B525006E000EB621016E0050B85F01501B
:10276A00B95BB551B61103E1BBB701D004D0010E74
:10277A00B85F000EB95B030EBA15006EBBC001F05C
:10278A00000E01160050011004E0010EB85F000EA1
:10279A00B95BBAA539D0BAA312D0BAA103D02D0E0B
:1027AA00AD6F02D02B0EAD6FA6C0E1FFA7C0E2FF4E
:1027BA00ADC0E6FFA64BA72BC64BC72B0CD0BAA1C0
:1027CA000AD0A6C0E1FFA7C0E2FF200EE66EA64B24
:1027DA00A72BC64BC72B800E006E800EB919005C62
:1027EA0002E1B85100080FE2A6C0E1FFA7C0E2FF6C
:1027FA00300EE66EA64BA72BC64BC72B010EB85F51
:10280A00000EB95BE8D73AD0BAB718D0800E006E7E
:10281A00800EB919005C02E1B85100080FE2A6C0A7
:10282A00E1FFA7C0E2FF200EE66EA64BA72BC64B20
:10283A00C72B010EB85F000EB95BE8D7BAA312D056
:10284A00BAA103D02D0EAE6F02D02B0EAE6FA6C06A
:10285A00E1FFA7C0E2FFAEC0E6FFA64BA72BC64B1F
:10286A00C72B0CD0BAA10AD0A6C0E1FFA7C0E2FFCD
:10287A00200EE66EA64BA72BC64BC72BBCC000F09A
:10288A00BDC001F0BEC002F0BFC003F05AEC0BF0AD
:10289A0000C0C2F001C0C3F002C0C4F003C0C5F05A
:1028AA00B7C000F0000E016E026E036E0036009093
:1028BA0001360236033600360090013602360336F8
:1028CA00150E0024F66E460E0120F76E000E022049
:1028DA00F86E0900F5CF04F00900F5CF05F00900FC
:1028EA00F5CF06F00900F5CF07F0C2C000F0C3C06B
:1028FA0001F0C4C002F0C5C003F075EC04F0300E5C
:10290A000026A6C0E1FFA7C0E2FF00C0E6FFA64B73
:10291A00A72BC64BC72BB551B61103E1BBB701D0E4
:10292A006FD0A6C0E1FFA7C0E2FF2E0EE66EA64B4F
:10293A00A72BC64BC72BB751B55F000EB65BB75373
:10294A004DE0B707B7C000F0000E016E026E036ECD
:10295A000036009001360236033600360090013602
:10296A0002360336150E0024F66E460E0120F76E67
:10297A00000E0220F86E0900F5CF04F00900F5CF29
:10298A0005F00900F5CF06F00900F5CF07F0C2C03F
:10299A0000F0C3C001F0C4C002F0C5C003F075EC7A
:1029AA0004F00A0E046E000E056E066E076E75ECD4
:1029BA0004F008C000F009C001F00AC002F00BC020
:1029CA0003F0300E0026A6C0E1FFA7C0E2FF00C058
:1029DA00E6FFA64BA72BC64BC72BB1D7B551B611ED
:1029EA000FE0A6C0E1FFA7C0E2FF300EE66EA64BDD
:1029FA00A72BC64BC72B010EB55F000EB65BEED7F1
:102A0A00BAAB0BD0A6C0E1FFA7C0E2FF450EE66E47
:102A1A00A64BA72BC64BC72B0AD0A6C0E1FFA7C05F
:102A2A00E2FF650EE66EA64BA72BC64BC72B800EA0
:102A3A00C119006E800E005C02E1000EC05D11E259
:102A4A00C0510008C06FC151000EC157A6C0E1FFB6
:102A5A00A7C0E2FF2D0EE66EA64BA72BC64BC72BCF
:102A6A000AD0A6C0E1FFA7C0E2FF2B0EE66EA64B76
:102A7A00A72BC64BC72B0A0E046E000E056EC0C0EC
:102A8A0000F0C1C001F0B4EC0CF0300E0026A6C074
:102A9A00E1FFA7C0E2FF00C0E6FF0001A64BA72B9B
:102AAA00C64BC72B0A0E046E000E056EC0C000F09E
:102ABA00C1C001F0B4EC0CF008C000F009C001F08C
:102ACA00300E0026A6C0E1FFA7C0E2FF00C0E6FF65
:102ADA000001A64BA72BC64BC72BBAA71AD0800E4C
:102AEA00006E800EB919005C02E1B851000811E2CB
:102AFA00A6C0E1FFA7C0E2FF200EE66EA64BA72BF9
:102B0A00C64BC72B010EB85F000EB95BB851B9119D
:102B1A00EFE1B2EF0DF0BBA3F3D0800EC119006E46
:102B2A00800E005C02E1000EC05D0AE2010EC05D8B
:102B3A00006E000EC159016E0050B55F0150B65BC0
:102B4A00BCC000F0BDC001F0BEC002F0BFC003F0BF
:102B5A005AEC0BF000C0C2F001C0C3F002C0C4F0CE
:102B6A0003C0C5F0010EB76FB7510A0A34E0B7C007
:102B7A0000F0000E016E026E036E00360090013600
:102B8A000236033600360090013602360336150E39
:102B9A000024F66E460E0120F76E000E0220F86E33
:102BAA000900F5CF01F00900F5CF02F00900F5CFD1
:102BBA0003F00900F5CF04F00450C55D08E10350A5
:102BCA00C45D05E10250C35D02E10150C25D01E24C
:102BDA0002D0B72BC9D7B751B55DCC6F000EB65925
:102BEA00CD6FCCC0B5F0CDC0B6F0C2C000F0C3C046
:102BFA0001F0C4C002F0C5C003F078EC07F000C0D1
:102C0A0004F001C005F002C006F003C007F0BCC022
:102C1A0000F0BDC001F0BEC002F0BFC003F072EC0C
:102C2A0004F000C0C8F001C0C9F002C0CAF003C075
:102C3A00CBF0CCC0CEF065EC08F0C8C004F0C9C037
:102C4A0005F0CAC006F0CBC007F032EC01F0000E66
:102C5A00046E000E056E000E066E7E0E076EC6EC42
:102C6A0001F05AEC0BF000C0C2F001C0C3F002C080
:102C7A00C4F003C0C5F0B551B61142E00A0E046EA5
:102C8A00000E056E066E076EC2C000F0C3C001F0EA
:102C9A00C4C002F0C5C003F075EC04F008C000F02F
:102CAA0009C001F00AC002F00BC003F0000E046E66
:102CBA00031808E10450021805E10450011802E162
:102CCA000050000A1DE10A0E046E000E056E066E23
:102CDA00076EC2C000F0C3C001F0C4C002F0C5C094
:102CEA0003F075EC04F000C0C2F001C0C3F002C0EA
:102CFA00C4F003C0C5F0010EB55F000EB65BBBD7CA
:102D0A00800E006E800EB619005C02E1B5510C0807
:102D1A0016E3B5C0CEF0F7EC05F0BCC004F0BDC0B8
:102D2A0005F0BEC006F0BFC007F0C6EC01F000C057
:102D3A00BCF001C0BDF002C0BEF003C0BFF0BCC011
:102D4A0000F0BDC001F0BEC002F0BFC003F0046ACB
:102D5A00056A066A076A43EC0BF0000ED8A4010E56
:102D6A00006E0052D8B477D0BCC000F0BDC001F0EC
:102D7A00BEC002F0BFC003F05AEC0BF0000E046EA6
:102D8A00031808E10450021805E10450011802E191
:102D9A000050000A60E1800E006E800EC119005CCE
:102DAA0002E1C051010857E2C0C0CEF065EC08F05C
:102DBA0000C004F001C005F002C006F003C007F02D
:102DCA00BCC000F0BDC001F0BEC002F0BFC003F03D
:102DDA00F6EC0BF05F0E046E700E056E090E066EB1
:102DEA00810E076E18EC0DF0010ED8B0000E006EC1
:102DFA00005206E0090E0001C05F000EC15B05D05B
:102E0A000001080EC05F000EC15BC0C0CEF065ECC9
:102E1A0008F000C004F001C005F002C006F003C0CB
:102E2A0007F0BCC000F0BDC001F0BEC002F0BFC0D8
:102E3A0003F0F6EC0BF05AEC0BF000C0C2F001C044
:102E4A00C3F002C0C4F003C0C5F00001BC6BBD6B87
:102E5A00BE6BBF6B38D0BCC000F0BDC001F0BEC0B5
:102E6A0002F0BFC003F05AEC0BF000C0C2F001C080
:102E7A00C3F002C0C4F003C0C5F0C2C000F0C3C0B2
:102E8A0001F0C4C002F0C5C003F078EC07F000C03E
:102E9A0004F001C005F002C006F003C007F0BCC090
:102EAA0000F0BDC001F0BEC002F0BFC003F072EC7A
:102EBA0004F000C0BCF001C0BDF002C0BEF003C007
:102ECA00BFF0C06BC16B010EB76FB7510A0A34E08D
:102EDA00B7C000F0000E016E026E036E003600905D
:102EEA0001360236033600360090013602360336C2
:102EFA00150E0024F66E460E0120F76E000E022013
:102F0A00F86E0900F5CF01F00900F5CF02F00900CB
:102F1A00F5CF03F00900F5CF04F00450C55D08E1D0
:102F2A000350C45D05E10250C35D02E10150C25D78
:102F3A0001E202D0B72BC9D7B751B525006E000EF2
:102F4A00B621016EC0510026C15101220050B85F5E
:102F5A000150B95BBBB704D0B551B61101E104D039
:102F6A00010EB85F000EB95B030EBA15006EBBC046
:102F7A0001F0000E01160050011004E0010EB85FC6
:102F8A00000EB95BBAA539D0BAA312D0BAA103D040
:102F9A002D0EAF6F02D02B0EAF6FA6C0E1FFA7C0F8
:102FAA00E2FFAFC0E6FFA64BA72BC64BC72B0CD040
:102FBA00BAA10AD0A6C0E1FFA7C0E2FF200EE66EC2
:102FCA00A64BA72BC64BC72B800E006E800EB919D5
:102FDA00005C02E1B85100080FE2A6C0E1FFA7C0F9
:102FEA00E2FF300EE66EA64BA72BC64BC72B010E8F
:102FFA00B85F000EB95BE8D73AD0BAB718D0800EDE
:10300A00006E800EB919005C02E1B85100080FE2A7
:10301A00A6C0E1FFA7C0E2FF200EE66EA64BA72BD3
:10302A00C64BC72B010EB85F000EB95BE8D7BAA32F
:10303A0012D0BAA103D02D0EB06F02D02B0EB06FF2
:10304A00A6C0E1FFA7C0E2FFB0C0E6FFA64BA72BD0
:10305A00C64BC72B0CD0BAA10AD0A6C0E1FFA7C0A5
:10306A00E2FF200EE66EA64BA72BC64BC72BB7C0B6
:10307A0000F0B70700524CE0B7C000F0000E016E36
:10308A00026E036E003600900136023603360036B1
:10309A000090013602360336150E0024F66E460EEF
:1030AA000120F76E000E0220F86E0900F5CF04F039
:1030BA000900F5CF05F00900F5CF06F00900F5CFB4
:1030CA0007F0C2C000F0C3C001F0C4C002F0C5C01E
:1030DA0003F075EC04F00A0E046E000E056E066E1F
:1030EA00076E75EC04F008C000F009C001F00AC0D0
:1030FA0002F00BC003F0300E0026A6C0E1FFA7C005
:10310A00E2FF00C0E6FFA64BA72BC64BC72BAFD7E3
:10311A00800E006E800EC119005C02E1C0510008E9
:10312A000FE2A6C0E1FFA7C0E2FF300EE66EA64B93
:10313A00A72BC64BC72B010EC05F000EC15BE8D799
:10314A00800E000A006E800EB619005C02E1B551CD
:10315A00080803E2080EB76F02D0B5C0B7F0B7513E
:10316A00B55F000EB65BB75303E1BBB701D00AD017
:10317A00A6C0E1FFA7C0E2FF2E0EE66EA64BA72B64
:10318A00C64BC72BB7C0CEF065EC08F0BCC004F044
:10319A00BDC005F0BEC006F0BFC007F032EC01F0BA
:1031AA008BEC07F000C0C2F001C0C3F002C0C4F04B
:1031BA0003C0C5F0B7534DE0B707B7C000F0000E23
:1031CA00016E026E036E0036009001360236033637
:1031DA0000360090013602360336150E0024F66ECC
:1031EA00460E0120F76E000E0220F86E0900F5CF98
:1031FA0004F00900F5CF05F00900F5CF06F0090043
:10320A00F5CF07F0C2C000F0C3C001F0C4C002F09D
:10321A00C5C003F075EC04F00A0E046E000E056ECC
:10322A00066E076E75EC04F008C000F009C001F0E4
:10323A000AC002F00BC003F0300E0026A6C0E1FF60
:10324A00A7C0E2FF00C0E6FFA64BA72BC64BC72BC1
:10325A00B1D7B551B6110FE0A6C0E1FFA7C0E2FF92
:10326A00300EE66EA64BA72BC64BC72B010EB55FD9
:10327A00000EB65BEED7BAA71AD0800E006E800E8B
:10328A00B919005C02E1B851000811E2A6C0E1FFD9
:10329A00A7C0E2FF200EE66EA64BA72BC64BC72B94
:1032AA00010EB85F000EB95BB851B911EFE1B2EF88
:1032BA000DF0C00EBA15016EBBC002F0000E021668
:1032CA00000E021802E1000E0118D8A480D0BAA993
:1032DA0027D0ABC0E9FFACC0EAFFEECF00F0EECFDB
:1032EA0001F000C0E9FF01C0EAFFEECFC2F0EECF65
:1032FA00C3F0EECFC4F0EECFC5F0ABC0E9FFACC06F
:10330A00EAFF040EEE24006E000EEE20016EABC042
:10331A00E1FFACC0E2FF00C0E6FF01C0E6FF2FD02C
:10332A00ABC0E9FFACC0EAFFEECF00F0EECF01F090
:10333A0000C0E9FF01C0EAFFEECF00F0EECF01F0D6
:10334A00000E01BEFF0E026E036E00C0C2F001C085
:10335A00C3F002C0C4F003C0C5F0ABC0E9FFACC003
:10336A00EAFF020EEE24006E000EEE20016EABC0E4
:10337A00E1FFACC0E2FF00C0E6FF01C0E6FF800E3D
:10338A00C519006E800E005C08E1000EC45D05E1FF
:10339A00000EC35D02E1000EC25D18E2030EBA130D
:1033AA00000EBB13006A016A026A036AC251005E18
:1033BA00C351015AC451025AC551035A00C0C2F03E
:1033CA0001C0C3F002C0C4F003C0C5F04ED0BAA910
:1033DA0027D0ABC0E9FFACC0EAFFEECF00F0EECFDA
:1033EA0001F000C0E9FF01C0EAFFEECFC2F0EECF64
:1033FA00C3F0EECFC4F0EECFC5F0ABC0E9FFACC06E
:10340A00EAFF040EEE24006E000EEE20016EABC041
:10341A00E1FFACC0E2FF00C0E6FF01C0E6FF25D035
:10342A00ABC0E9FFACC0EAFFEECF00F0EECF01F08F
:10343A0000C0E9FF01C0EAFFEECFC2F0EECFC3F051
:10344A00000EC46FC56FABC0E9FFACC0EAFF020E45
:10345A00EE24006E000EEE20016EABC0E1FFACC0A0
:10346A00E2FF00C0E6FF01C0E6FF000EB61902E166
:10347A00000EB5190FE1000E006EC51908E10050E3
:10348A00C41905E10050C31902E1C251000A02E160
:10349A00B54BB62BC00EBA15006E00C005F0AED003
:1034AA00010EB76FB7510A0A34E0B7C000F0000E38
:1034BA00016E026E036E0036009001360236033644
:1034CA0000360090013602360336150E0024F66ED9
:1034DA00460E0120F76E000E0220F86E0900F5CFA5
:1034EA0001F00900F5CF02F00900F5CF03F0090059
:1034FA00F5CF04F00450C55D08E10350C45D05E151
:10350A000250C35D02E10150C25D01E202D0B72B55
:10351A00C9D782D0010EB76FB751080A34E0B7C0D5
:10352A0000F0000E016E026E036E00360090013646
:10353A0002360336003600900136023603363D0E57
:10354A000024F66E460E0120F76E000E0220F86E79
:10355A000900F5CF01F00900F5CF02F00900F5CF17
:10356A0003F00900F5CF04F00450C55D08E10350EB
:10357A00C45D05E10250C35D02E10150C25D01E292
:10358A0002D0B72BC9D748D0010EB76FB7510C0A72
:10359A0034E0B7C000F0000E016E026E036E003612
:1035AA0000900136023603360036009001360236A4
:1035BA000336E50E0024F66E450E0120F76E000E66
:1035CA000220F86E0900F5CF01F00900F5CF02F0EC
:1035DA000900F5CF03F00900F5CF04F00450C55DEA
:1035EA0008E10350C45D05E10250C35D02E10150E8
:1035FA00C25D01E202D0B72BC9D70ED00550000A2E
:10360A00D8B44ED70550C00AD8B44AD70550800A54
:10361A0081E00550400AB8E0800E006E800EB619AF
:10362A00005C02E1B551B75D03E2B5C0B7F00DD059
:10363A00800EB619006E800E005C02E1B751B55DCE
:10364A0004E2B7C0B5F0000EB66FB851B9110EE07A
:10365A00030EBA15006EBBC001F0000E0116005031
:10366A00011004E0010EB85F000EB95B800EB619B6
:10367A00006E800EB919005C02E1B851B55D05E231
:10368A00B551B85FB651B95B02D0B86BB96BC40E0D
:10369A00BA15016EBB51080B026E0250080A02E10C
:1036AA00400E011808E1B851B91104E0010EB85FE3
:1036BA00000EB95B1CD0C00EBA15016EBB51080BC7
:1036CA00026E0250080A02E1800E011810E1800E13
:1036DA00006E800EB919005C02E1B851020805E2D9
:1036EA00020EB85F000EB95B02D0B86BB96BBAA50F
:1036FA005DD0BAA312D0BAA103D02D0EB16F02D0F9
:10370A002B0EB16FA6C0E1FFA7C0E2FFB1C0E6FF72
:10371A00A64BA72BC64BC72B34D0BAA10BD0A6C039
:10372A00E1FFA7C0E2FF200EE66EA64BA72BC64B11
:10373A00C72B27D0C00EBA15016EBB51080B026EFB
:10374A000250080A02E1800E01181BE1A6C0E1FF3F
:10375A00A7C0E2FF300EE66EA64BA72BC64BC72BBF
:10376A00BAAB03D0580EB26F02D0780EB26FA6C0B1
:10377A00E1FFA7C0E2FFB2C0E6FFA64BA72BC64BEC
:10378A00C72BB851B91111E0A6C0E1FFA7C0E2FFEB
:10379A00300EE66EA64BA72BC64BC72B010EB85FA1
:1037AA00000EB95BB851B911EFE174D0B851B91133
:1037BA0013E0BAB711D0A6C0E1FFA7C0E2FF200EFE
:1037CA00E66EA64BA72BC64BC72B010EB85F000EA1
:1037DA00B95BB851B911EFE1BAA312D0BAA103D0BB
:1037EA002D0EB36F02D02B0EB36FA6C0E1FFA7C098
:1037FA00E2FFB3C0E6FFA64BA72BC64BC72B0CD0E4
:10380A00BAA10AD0A6C0E1FFA7C0E2FF200EE66E69
:10381A00A64BA72BC64BC72BC00EBA15016EBB51C0
:10382A00080B026E0250080A02E1400E01180BE171
:10383A00A6C0E1FFA7C0E2FF300EE66EA64BA72B9B
:10384A00C64BC72B27D0C00EBA15016EBB51080B49
:10385A00026E0250080A02E1800E01181BE1A6C09E
:10386A00E1FFA7C0E2FF300EE66EA64BA72BC64BC0
:10387A00C72BBAAB03D0580EB46F02D0780EB46F10
:10388A00A6C0E1FFA7C0E2FFB4C0E6FFA64BA72B84
:10389A00C64BC72B800E006E800EB619005C02E183
:1038AA00B551B75D0BE2A6C0E1FFA7C0E2FF300E3B
:1038BA00E66EA64BA72BC64BC72BECD7B5C000F0BC
:1038CA00B6C001F0010EB55F000EB65B00500110E4
:1038DA00D8B42AD1C00EBA15006E00C0C8F00AD1F9
:1038EA00B5C000F0B6C001F0000EB6BFFF0E026E02
:1038FA00036E003600900136023603360036009019
:10390A00013602360336150E0024F66E460E0120E5
:10391A00F76E000E0220F86E0900F5CF04F00900D8
:10392A00F5CF05F00900F5CF06F00900F5CF07F04D
:10393A00C2C000F0C3C001F0C4C002F0C5C003F0A9
:10394A0075EC04F00A0E046E000E056E066E076E24
:10395A0075EC04F008C000F009C001F00AC002F0DA
:10396A000BC003F0300E0024B76FD3D0BAAB45D0EA
:10397A00B5C000F0B6C001F0000EB6BFFF0E026E71
:10398A00036E003600900136023603360036009088
:10399A000136023603363D0E0024F66E460E01202D
:1039AA00F76E000E0220F86E0900F5CF04F0090048
:1039BA00F5CF05F00900F5CF06F00900F5CF07F0BD
:1039CA00C2C000F0C3C001F0C4C002F0C5C003F019
:1039DA0075EC04F00F0E0016000E011602160316FF
:1039EA00710E0024F66E460E0120F76E000E0220BC
:1039FA00F86E0900F5CFB7F044D0B5C000F0B6C0F4
:103A0A0001F0000EB6BFFF0E026E036E0036009084
:103A1A000136023603360036009001360236033686
:103A2A003D0E0024F66E460E0120F76E000E0220AF
:103A3A00F86E0900F5CF04F00900F5CF05F009008A
:103A4A00F5CF06F00900F5CF07F0C2C000F0C3C0F9
:103A5A0001F0C4C002F0C5C003F075EC04F00F0E0B
:103A6A000016000E011602160316820E0024F66EC8
:103A7A00460E0120F76E000E0220F86E0900F5CFFF
:103A8A00B7F047D0B5C000F0B6C001F0000EB6BF1F
:103A9A00FF0E026E036E00360090013602360336C0
:103AAA0000360090013602360336E50E0024F66E23
:103ABA00450E0120F76E000E0220F86E0900F5CFC0
:103ACA0004F00900F5CF05F00900F5CF06F009006A
:103ADA00F5CF07F0C2C000F0C3C001F0C4C002F0C5
:103AEA00C5C003F075EC04F0070E0014B76F300E72
:103AFA00B7270FD0C851000AD8B4F2D6C851C00AA5
:103B0A00D8B4EED6C851800AD8B430D7C851400AC2
:103B1A00B9E0A6C0E1FFA7C0E2FFB7C0E6FFA64B27
:103B2A00A72BC64BC72BCAD6BAA71AD0800E006ECF
:103B3A00800EB919005C02E1B851000811E2A6C072
:103B4A00E1FFA7C0E2FF200EE66EA64BA72BC64BED
:103B5A00C72B010EB85F000EB95BB851B911EFE17E
:0E3B6A00B2EF0DF0C6C000F0C7C001F01200AF
:103B780000018891A6C0CEF024EC08F088811200DC
:103B8800220E0C6E086A096A0A6A0B6A0C06D8B417
:103B98001FD0D8900B320A3209320832033202326F
:103BA80001320032D8A0F2D70C06D8B409D004509C
:103BB80008260550092206500A2207500B22EAD788
:103BC800045008260550092206500A2207500B22E5
:023BD8001200D9
:103BDA009D0E0001A46F000EA56F98C0A6F099C0B3
:103BEA00A7F09AC0A8F09BC0A9F09CC0AAF0A40EA6
:103BFA00AB6F000EAC6FADEC0DF000C0A2F001C0CF
:103C0A00A3F000509825E16E01509921E26EE66A10
:0A3C1A00A2C000F0A3C001F01200E8
:103C240010D0800E0001986F1AD0C00E986F17D074
:103C3400940E986F14D0D40E986F11D0800E986F94
:103C44000ED000019851010AECE09851020AEDE00F
:103C54009851030AEDE09851040AEDE0EFD7990575
:103C6400006E9851002600C098F000C0CEF024ECFD
:103C740008F088919C6B9C519A25E96E000E9B215B
:103C8400EA6EEE520BE09C519A25E96E000E9B21E0
:103C9400EA6EEECFA6F06EDF9C2BEDD78881120082
:103CA400C26A0001651D006E0050C1160F0EC012DD
:103CB400C08E98C000F0003600900036009000508E
:103CC400C212C280A7EC0DF0C282C2A201D0FDD7FD
:103CD400C4CF01F0006A00C099F001C09AF0C3504B
:103CE4000012000E011200C099F001C09AF0C290B7
:103CF400000E0014026E0150800B036E000E0318B8
:103D040002E1000E021802E0996B9A6B99C000F070
:063D14009AC001F012004C
:103D1A005D522FE0450E0001776F540E786F3A0E10
:103D2A00796F5750300F7A6F2D0E7B6F3E0E7C6F76
:103D3A005550300F7D6F200E7E6F440E7F6F490EF7
:103D4A00806F520E816F3A0E826F5650550A07E104
:103D5A00550E836F500E846F200E856F06D0440E69
:103D6A00836F570E846F4E0E856F200E866F876B9A
:103D7A0023D00001450E776F540E786F3A0E796F93
:103D8A005750300F7A6F200E7B6F200E7C6F200EFB
:103D9A007D6F200E7E6F440E7F6F490E806F520E2C
:103DAA00816F3A0E826F2D0E836F2D0E846F2D0E4A
:103DBA00856F200E866F876B010E986F010E996FC3
:103DCA00770E9A6F000E9B6F28DF660E986F000EB3
:103DDA00996F5D0E9A6F460E9B6F000E9C6F53C0D3
:103DEA009DF054C09EF0585203E0310E956F02D0F8
:103DFA00300E956F95C09FF089A403D0560E966F2A
:103E0A0002D02D0E966F96C0A0F089A603D0410E5F
:103E1A00976F02D02D0E976F97C0A1F0D9DE020ED0
:103E2A00986F010E996F660E9A6F000E9B6FF5DE02
:023E3A00120074
:103E3C00000E80B0010E586E010E0001986F2CDF41
:103E4C00000E026E036E840E046E030E056E000EE1
:103E5C00066E000E076E92DEFF0E046E030E056EEC
:103E6C00000E066E000E076E75EC04F000C053F0E9
:063E7C0001C054F0120029
:103E82005D5206E15850000A03E1010E016E01D0B5
:103E9200016A01B002D0899401D08984020E545C77
:103EA20002E1B50E535C03E3010E026E01D0026A19
:0C3EB20002B002D0899601D0898612006F
:103EBE0010D0800E0001956F1AD0C00E956F17D0DE
:103ECE00940E956F14D0D40E956F11D0800E956F01
:103EDE000ED000019551010AECE09551020AEDE079
:103EEE009551030AEDE09551040AEDE0EFD79605E2
:103EFE00006E9551002600C095F0888100C0CEF06E
:103F0E0024EC08F0889197C0CEF024EC08F088815C
:023F1E0012008F
:103F2000939A93989390939293949396819A81986D
:103F3000819681948192819033EC04F033EC04F00B
:103F400033EC04F081828180818A6FEC04F0819AE5
:103F500033EC04F0818A6FEC04F0819A33EC04F0C6
:103F6000818A6FEC04F0819A33EC04F08190818AAD
:103F70006FEC04F0819A33EC04F0818A6FEC04F06A
:103F8000819A81928186818A6FEC04F0819A33EC68
:103F900004F081968180818A6FEC04F0819A81908F
:103FA000818A6FEC04F0819A33EC04F0818A6FEC23
:103FB00004F0819A8180818A6FEC04F0819A33EC5D
:103FC00004F08190818A6FEC04F0819A818681846B
:103FD00081828180818A6FEC04F0819A33EC04F055
:063FE000000188811200BF
:103FE600FF0E0001896FFF0E8A6FFF0E8B6FFF0EAB
:103FF6008C6FC26A651D006E0050C1160F0EC0128E
:06400600C08EC280120012
:10400C000900F5CFE6FF0006FBE10106F9E112001D
:10401C0000018E51571801E1E3D08E51575C03E239
:10402C00550E8F6F02D0440E8F6F8FC092F08FC0E1
:10403C0056F08EC055F0010E5D6E89948E51575C12
:10404C0006E257508E5D906F000E916F05D08E5129
:10405C00575C906F000E916F90C093F058DE040E79
:10406C000B6E0C0E0C6E330E0D6E0D2EFED70C2E31
:10407C00FCD70B2EFAD70000000094948B84946B21
:10408C009305016E026A000E025A800E006E800EBD
:10409C000218005C02E10150945D6CE21A0E0B6E8A
:1040AC005E0E0C6E6E0E0D6E0D2EFED70C2EFCD70A
:1040BC000B2EFAD700009251550A02E1572A01D073
:1040CC005706590EE96E000EEA6E5750E926D8B025
:1040DC00EA2AEE5245E0590EE16E000EE26E5750A0
:1040EC00E126D8B0E22AE66A94948B94050E0B6E06
:1040FC000F0E0C6EF10E0D6E0D2EFED70C2EFCD786
:10410C000B2EFAD75D6A530E566E57C055F090DEE3
:10411C00B2DEFDDD070E0B6E170E0C6E6A0E0D6E09
:10412C000D2EFED70C2EFCD70B2EFAD7000092C00A
:10413C0056F08EC055F0010E5D6E8994E8DD040ECC
:10414C000B6E0C0E0C6E330E0D6E0D2EFED70C2E50
:10415C00FCD70B2EFAD70000000094948B8408D067
:10416C00010E956F040E966F5750300F976FA1DEAE
:10417C00942B86D71A0E0B6E5E0E0C6E6E0E0D6E99
:10418C000D2EFED70C2EFCD70B2EFAD700009494D4
:10419C008B94050E0B6E0F0E0C6EF10E0D6E0D2E1C
:1041AC00FED70C2EFCD70B2EFAD79251550A02E1F2
:1041BC00572A01D057065D6A530E566E57C055F0FC
:1041CC0037DE59DEA4DD070E0B6E170E0C6E6A0E71
:1041DC000D6E0D2EFED70C2EFCD70B2EFAD7000031
:0241EC001200BF
:1041EE00590EE16E000EE26E5750E126D8B0E22A6B
:1041FE00E66A5650550A3BE15750010F046E0450C3
:10420E00030818E3590EE96E000EEA6E0450E92613
:10421E00D8B0EA2AEE520CE0590EE16E000EE26EB4
:10422E000450E126D8B0E22AE66A04C000F0AED00F
:10423E00042AE5D7046A5750045C18E2590EE96E59
:10424E00000EEA6E0450E926D8B0EA2AEE520CE0CF
:10425E00590EE16E000EE26E0450E126D8B0E22A4D
:10426E00E66A04C000F092D0042AE5D78DD05650ED
:10427E00440A42E157C004F0045000081EE2040450
:10428E00006E016A000E015A590E0024E96E000EEE
:10429E000120EA6EEE520FE00404006E016A000E79
:1042AE00015A590E0024E16E000E0120E26EE66AFC
:1042BE000404006E6BD00406DFD75750010F046E56
:1042CE000450030818E3590EE96E000EEA6E04500E
:1042DE00E926D8B0EA2AEE520CE0590EE16E000E35
:1042EE00E26E0450E126D8B0E22AE66A04C000F07D
:1042FE004DD0042AE5D748D0FF0E056E0A0E086E83
:10430E00000E096E046A045003082FE3590EE96E7D
:10431E00000EEA6E0450E926D8B0EA2AEECF00F07D
:10432E00005201E120D05750045C07E35750045C63
:10433E00026E036A000E035A06D00450575C026EDA
:10434E00036A000E035A02C006F003C007F00950BC
:10435E00035C02E10850025C06E206C008F007C0EA
:10436E0009F004C005F0042ACED70550FF0A0CE070
:10437E00590EE16E000EE26E0550E126D8B0E22A2B
:0E438E00E66A05C000F002D0FF0E006E1200BD
:10439C0083A002D0010E596E83A202D0010E5A6E78
:1043AC0083A402D0010E5B6E83A602D0010E5C6E5C
:0243BC001200ED
:1043BE004AEC23F0BD6A94948B94020E0F01386F71
:1043CE00396B3A6B3B6B9280928292949296949454
:1043DE0094969488949C948E9580958295849586D7
:1043EE009588938C938E896A8B6AF6DD020E0F0187
:1043FE00386F92808EDD010ECE6F24EC08F00C0E1D
:10440E00CE6F24EC08F0010E986F010E996F150E09
:10441E009A6F000E9B6F12EC1EF0020E986F010E3B
:10442E00996F430E9A6F000E9B6F12EC1EF0100EDA
:10443E000B6E390E0C6E0D0E0D6E0D2EFED70C2E54
:10444E00FCD70B2EFAD700000000010ECE6F24EC25
:10445E0008F0EDDC0FDD5ADCEADC0CDD98DFC0DEA7
:10446E0000C08DF00050FF0A4DE0020E545C02E1D8
:10447E00B50E535C2FE3898694948B94010E000144
:10448E00CE6F24EC08F0010E986F010E996F340E6A
:10449E009A6F000E9B6F12EC1EF0020E986F010EBB
:1044AE00996F250E9A6F000E9B6F12EC1EF0150E73
:1044BE000B6E4B0E0C6EBE0E0D6E0D2EFED70C2E11
:1044CE00FCD70B2EFAD70000010ECE6F24EC08F0AD
:1044DE001DDC18D08DC08EF09ADDA9DC81DE00C007
:1044EE008DF00050FF0A01E10BD0020E545C02E188
:1044FE00B50E535C01E304D08DC08EF088DDEDD790
:10450E00530E566E03DC820E0C6EDD0E0D6E0D2EEE
:0E451E00FED70C2EFCD7000000009ED7FFD762
:1046940010EE15F0510E006E010E016E2C0EF66E2A
:0E46A400450EF76E000EF86E06EC20F01200C8
:10452C0020415343454E53455552203445542000A9
:0F453C00204D41583A20363330206B6720200045
:0F454B002020535552434841524745212020001C
:10455A00202050726574202D2045543A30202000C6
:02456A0000004F
:01456C00004E
:01456D0053FA
:01456E00004C
:01456F00004B
:044570000000000047
:014574000046
:07457500286E756C6C290033
:01457C000F2F
:10457D000000007F000020820000488500007A883E
:10458D0000401C8C0050438F002474928096189626
:10459D0020BC3E99286B6E9CF90215A0EC782DC1BC
:0445AD00CAF249E223
:1045B1000000007FCDCC4C7B0AD723786F120375A6
:1045C10017B75171ACC5276EBD37066B95BF5667DE
:1045D10077CC2B645F700961FFE65B5D08E53C3CCD
:0445E1006042221BF7
:1045E500010000000800000040000000000200007B
:1045F5000010000000800000000004000000200002
:10460500000000010000000800000040000000005C
:10461500010000000A00000064000000E80300003B
:1046250010270000A086010040420F0080969800E8
:0846350000E1F50500CA9A3B03
:10463D00010000001000000000010000001000004B
:10464D00000001000000100000000001000000103B
:10465D00503A2533646B672049523A256320256310
:04466D0025632000A1
:104671003031323334353637383941424344454697
:014681000038
:1046820030313233343536373839616263646566C6
:014692000027
:020000040030CA
:0D000100231F3CFFBF81FF0FC00FE00F4029
:00000001FF
