:10000000EDEF22F00000000000EF00F00000000023
:0A0010000000000000000000F3D71C
:10001C000B820BAE18EF00F00368026801680068F1
:08002C000A360232FF0E120039
:0E003400026A016A006A086A036A000E12007E
:080042000AAE029E000E12003E
:10004A000B840BAE30EF00F0010E036E026A016AF8
:0A005A00006A0A360232FF0E12009F
:100064000CB074EF00F00CA21AEF01F00E6A000E4F
:1000740002648BEF00F0F00E0214D8A456EF00F0E7
:10008400023A01380F0B02260138F00B016E0038DA
:100094000F0B01260038F00B006E08380F0B0026FA
:1000A4000838F00B086E0E84D89002BE6FEF00F093
:1000B40008360036013602360E2A02BE6FEF00F013
:1000C40008360036013602360E2A02BE6FEF00F003
:1000D40008360036013602360E2A0E50036410EF3D
:1000E40001F0035E0BBC08AE15EF01F0D880800E62
:1000F40008640030000E002201220222D8A015EF6D
:1001040001F0023201320032034A1AEF01F015EF16
:1001140001F001C002F000C001F008C000F0086A5C
:10012400000E0E860264C2EF00F0F00E0214D8A492
:10013400AAEF00F0023A01380F0B02260138F00B47
:10014400016E00380F0B01260038F00B006E0E8490
:10015400D89002BE6FEF00F00036013602360E2A48
:1001640002BE6FEF00F00036013602360E2A02BEE0
:100174006FEF00F00036013602360E2A6FEF00F002
:1001840001C002F000C001F0006A000E0E960E8855
:100194000264EFEF00F0F00E0214D8A4DAEF00F0DE
:1001A400023A01380F0B02260138F00B016E0E845F
:1001B400D89002BE6FEF00F0013602360E2A02BE5E
:1001C4006FEF00F0013602360E2A02BE6FEF00F028
:1001D400013602360E2A6FEF00F001C002F0016A08
:1001E400000E0E8602641FEF01F0F00E0214D8A474
:1001F400FEEF00F0023A0E84D89002BE6FEF00F0DA
:1002040002360E2A02BE6FEF00F002360E2A02BE3C
:100214006FEF00F002360E2A6FEF00F0010E0C6E45
:1002240012DF22EF01F0020E0C6E09DF22EF01F063
:10023400040E0C6EF1DE22EF01F0080E0C6EF8DEF7
:020244001200A6
:06024600000000001200A0
:10024C00086A096A000E07620364ABEF01F0025002
:10025C0006180A6E075003267E0ED8A03CEF01F05C
:10026C00035ED8B0AFEF01F040EF01F0035ED8A011
:10027C00B3EF01F0028E068E02C00EF001C00BF03F
:10028C0000C00DF000500402F4CF0CF00150050238
:10029C00F4CF00F0F3CF08F00402F3500C26F45026
:1002AC000822000E00220D500502F3500C26F450CB
:1002BC000822000E002202500402F3500826F450CB
:1002CC00002202500502016A000E0122F3500026A2
:1002DC00F45001220D500602F3500826F45000226F
:1002EC00026A000E012202220B500602F350002675
:1002FC00F4500122000E02220E500602F350012689
:10030C00F450022202BE93EF01F00836003601369B
:10031C0002360306D8B4B3EF01F0A6EF01F0D88093
:10032C00800E08640030000E002201220222D8A0A8
:10033C00A6EF01F0023201320032034AAFEF01F0B6
:10034C000AAE029E000EB5EF01F0010E6DDEB5EFA8
:10035C0001F0020E5DDEB5EF01F0040E70DE12004E
:0A036C00210E0D6E0D2EFED71200BB
:100376000F0E0C6E470E0D6E0D2EFED70C2EFCD7F3
:060386000000000012005F
:10038C000B800BAED2EF01F0026A0AAEFF0E026ECA
:0C039C00016E006E0A360232FF0E1200E5
:1003A800025006180E6E086A096A0B6A0350076441
:1003B800C7EF02F006500A6E068E028E03500B6ECF
:1003C8000750036E000E0B6417EF02F00B50075E28
:1003D800D8B4B8EF02F0070E076486EF02F0075EA4
:1003E80000C008F001C000F002C001F0026A074E28
:1003F800B8EF02F007645BEF02F0075E00C008F098
:1004080001C000F0016A074EB8EF02F0076439EF47
:1004180002F0075E00C008F0006A074EB8EF02F06D
:10042800076420EF02F00AC002F005C001F004C022
:1004380000F0086AE1EF03F0030E07642BEF02F007
:10044800075E08380F0B086E074EB8EF02F0D89019
:100458000832074EB8EF02F0D8900832074EB8EFCE
:1004680002F0D8900832B8EF02F0030E07644AEFA2
:1004780002F0075E08380F0B086E0038F00B0826EC
:1004880000380F0B006E074EB8EF02F0D89000321C
:100498000832074EB8EF02F0D89000320832074E03
:1004A800B8EF02F0D89000320832B8EF02F0030E2D
:1004B800076472EF02F0075E08380F0B086E003809
:1004C800F00B082600380F0B006E0138F00B0026E1
:1004D80001380F0B016E074EB8EF02F0D8900132C9
:1004E80000320832074EB8EF02F0D89001320032DD
:1004F8000832074EB8EF02F0D890013200320832C5
:10050800B8EF02F0030E0764A3EF02F0075E0838A5
:100518000F0B086E0038F00B082600380F0B006E22
:100528000138F00B002601380F0B016E0238F00B72
:10053800012602380F0B026E074EB8EF02F0D89072
:100548000232013200320832074EB8EF02F0D8907A
:100558000232013200320832074EB8EF02F0D8906A
:100568000232013200320832096A000E0EAEACEFD8
:1005780003F0081E001E011E021E082A0022012286
:100588000222ACEF03F00750D8A4CDEF02F0E1EF60
:1005980003F0096A02C00AF0028E068E0750035C57
:1005A800076ED8B49FEF03F0070E07646DEF03F0F2
:1005B800075E0450096E0550046E0650056E066A03
:1005C800074E9FEF03F0070E076442EF03F0075E44
:1005D8000450096E0550046E056A074E9FEF03F03C
:1005E800070E076420EF03F0075E0450096E046AE3
:1005F800074E9FEF03F0070E076407EF03F00AC0EA
:1006080002F0E1EF03F0030E076412EF03F0075E58
:1006180009380F0B096E074E9FEF03F0D890093287
:10062800074E9FEF03F0D8900932074E9FEF03F073
:10063800D89009329FEF03F0030E076431EF03F0FF
:10064800075E09380F0B096E0438F00B09260438C9
:100658000F0B046E074E9FEF03F0D8900432093257
:10066800074E9FEF03F0D89004320932074E9FEFF0
:1006780003F0D890043209329FEF03F0030E0764A9
:1006880059EF03F0075E09380F0B096E0438F00BB9
:10069800092604380F0B046E0538F00B04260538BC
:1006A8000F0B056E074E9FEF03F0D890053204320A
:1006B8000932074E9FEF03F0D89005320432093211
:1006C800074E9FEF03F0D8900532043209329FEFAE
:1006D80003F0030E07648AEF03F0075E09380F0B77
:1006E800096E0438F00B092604380F0B046E053820
:1006F800F00B042605380F0B056E0638F00B05269F
:1007080006380F0B066E074E9FEF03F0D89006329F
:10071800053204320932074E9FEF03F0D8900632B3
:10072800053204320932074E9FEF03F0D8900632A3
:10073800053204320932086A000E0EAEACEF03F03F
:10074800091E041E051E061E092A04220522062269
:1007580009500826045000220550012206500222A2
:100768000EBEC3EF03F0D8A0D2EF03F0023201327D
:1007780000320832033ED2EF03F0DCEF03F0D8B0CA
:10078800D7EF03F0000E081E001E011E021E082AE5
:100798000022012202220A7ED7EF03F0010E0C6E1E
:1007A8005DDCE3EF03F0020E0C6E58DCE3EF03F0C0
:1007B800040E0C6E2FDCE3EF03F0000E0C6E12003B
:0807C8000B6A0B86FF0E120004
:1007D000086A080E0C6E003408360450085ED8B063
:0E07E00002D00826D89000360C2EF5D7120055
:1007EE000134083609360450085E0550D8A0053C81
:1007FE00095E003601360F0E0C6E013408360936CE
:10080E00045000A006D0085E0550D8A0053C095E35
:10081E0005D008260550D8B0053C0926003601360D
:10082E000C2EEBD700B006D0045008260550D8B0D9
:08083E00053C09260000120030
:100846000D6A086A0050D8B4000C04180A6E0ABE75
:100856000D1E0B6A04AE02D0041E042A00AE02D09E
:10086600001E002A005004100A6E0ABE1FD0045053
:10087600085E003600340836045008260036060E98
:100886000C6E00340836045000B0085E00A008263E
:1008960000360C2EF6D700A008260BB015D00DAEEC
:1008A600000C001E002A081E082A000C04AE09D0FF
:1008B60000BE04D00050086E006AF1D7006A002A14
:1008C600000C001E0B2AD3D7082A0450085CD8A4B3
:0E08D600E6D7086A002A00AEE2D7FF0C120037
:1008E4000A6A0350D8A40A800750D8A40A820A507E
:1008F400D8B4D5EF04F0030AD8B48EEF04F00AB0EC
:1009040089EF04F006AED3EF04F0D1EF04F002AEA9
:10091400D1EF04F0D3EF04F00250800B0A6E029E74
:100924000650800B069E0A18D8B49FEF04F00A50B4
:10093400D8B4D1EF04F0D3EF04F00750035CD8B47B
:10094400A9EF04F0D8A0C5EF04F0CBEF04F00650F3
:10095400025CD8B4B3EF04F0D8A0C5EF04F0CBEF39
:1009640004F00550015CD8B4BDEF04F0D8A0C5EF85
:1009740004F0CBEF04F00450005CD8B4D5EF04F0DD
:10098400D8B0CBEF04F00A52D8B4D3EF04F0D1EFCF
:1009940004F00A52D8B4D1EF04F0D3EF04F0D880B5
:0E09A4001200D8901200D880D88412001200E1
:1009B2000050086E0150006E0250016E0350026E2C
:1009C200036A0B6A0C6A9E0E036E0A6A020E0C6EB2
:0609D20032EC00F01200FF
:1009D8000001F1BF02D0819601D08186F1BD02D01D
:1009E800819401D08184F1BB02D0819201D08182AF
:1009F800F1B902D0819001D08180AAB102D081885A
:100A080001D08198818A1BDC819AF1B702D0819646
:100A180001D08186F1B502D0819401D08184F1B3EF
:100A280002D0819201D08182F1B102D0819001D0AF
:100A38008180AAB102D0818801D08198818A23EC73
:100A480001F0819AAAA102D092DC01D08BDC1200BD
:100A5800800E0001F119006E800E000A005CD8B00B
:100A680067D1F1510008016E01C0F1F0800E011844
:100A7800006E800E6E0A005CD8A0BCD0640E046EB6
:100A8800F1C000F0DCDE120E0024056E000E00BE80
:100A9800FF0E066E000E062205C000F006C001F02B
:100AA800000E06BEFF0E026E036E00360090013681
:100AB80002360336003600900136023603367D0EC4
:100AC8000024F66E480E0120F76E000E0220F86E24
:100AD8000900F5CFF2F00900F5CFF3F00900F5CFE2
:100AE800F4F00900F5CFF5F0640E046EF1C000F0E3
:100AF800A6DE08C000F00A0E046EA1DE090E00246E
:100B0800056E000E00BEFF0E066E000E062205C022
:100B180000F006C001F0000E06BEFF0E026E036E66
:100B28000036009001360236033600360090013652
:100B3800023603367D0E0024F66E480E0120F76E4D
:100B4800000E0220F86E0900F5CF00F00900F5CF7D
:100B580001F00900F5CF02F00900F5CF03F0F2C06B
:100B680004F0F3C005F0F4C006F0F5C007F026EC79
:100B780001F000C0F2F001C0F3F002C0F4F003C0CD
:100B8800F5F00A0E046EF1C000F059DE08C000F05E
:100B980000C001F0000E00BEFF0E026E036E046E70
:100BA80001360190023603360436013601900236CA
:100BB800033604367D0E0124F66E480E0220F76EC9
:100BC800000E0320F86E0900F5CF00F00900F5CFFC
:100BD80001F00900F5CF02F00900F5CF03F0F2C0EB
:100BE80004F0F3C005F0F4C006F0F5C007F026ECF9
:100BF80001F0FFD1800E0A0A006E800EF119005C28
:100C08006FE20A0E046EF1C000F019DE090E00242E
:100C1800056E000E00BEFF0E066E000E062205C011
:100C280000F006C001F0000E06BEFF0E026E036E55
:100C38000036009001360236033600360090013641
:100C4800023603367D0E0024F66E480E0120F76E3C
:100C5800000E0220F86E0900F5CFF2F00900F5CF7A
:100C6800F3F00900F5CFF4F00900F5CFF5F00A0E1E
:100C7800046EF1C000F0E3DD08C000F000C001F030
:100C8800000E00BEFF0E026E036E046E0136019068
:100C9800023603360436013601900236033604362E
:100CA8007D0E0124F66E480E0220F76E000E03201A
:100CB800F86E0900F5CF00F00900F5CF01F0090042
:100CC800F5CF02F00900F5CF03F0F2C004F0F3C04D
:100CD80005F0F4C006F0F5C007F026EC01F089D164
:100CE800F1C000F0000EF1BFFF0E016E026E036E40
:100CF8000036009001360236033600360090013681
:100D0800023603367D0E0024F66E480E0120F76E7B
:100D1800000E0220F86E0900F5CF00F00900F5CFAB
:100D280001F00900F5CF02F00900F5CF03F061D119
:100D3800800EF119006E800E6E0A005CD8A0BCD03F
:100D4800640E046EF1C000F07ADD120E0024056E08
:100D5800000E00BEFF0E066E000E062205C000F053
:100D680006C001F0000E06BEFF0E026E036E0036CE
:100D780000900136023603360036009001360236FE
:100D88000336490E0024F66E480E0120F76E000E59
:100D98000220F86E0900F5CFF2F00900F5CFF3F064
:100DA8000900F5CFF4F00900F5CFF5F0640E046EF4
:100DB800F1C000F044DD08C000F00A0E046E3FDD0B
:100DC800090E0024056E000E00BEFF0E066E000E12
:100DD800062205C000F006C001F0000E06BEFF0E98
:100DE800026E036E00360090013602360336003676
:100DF8000090013602360336490E0024F66E480E7E
:100E08000120F76E000E0220F86E0900F5CF00F001
:100E18000900F5CF01F00900F5CF02F00900F5CF80
:100E280003F0F2C004F0F3C005F0F4C006F0F5C01A
:100E380007F026EC01F000C0F2F001C0F3F002C0A8
:100E4800F4F003C0F5F00A0E046EF1C000F0F7DC10
:100E580008C000F000C001F0000E00BEFF0E026ED8
:100E6800036E046E013601900236033604360136ED
:100E78000190023603360436490E0124F66E480EF8
:100E88000220F76E000E0320F86E0900F5CF00F07F
:100E98000900F5CF01F00900F5CF02F00900F5CF00
:100EA80003F0F2C004F0F3C005F0F4C006F0F5C09A
:100EB80007F026EC01F09DD0800E0A0A006E800E25
:100EC800F119005C6FE20A0E046EF1C000F0B7DCA5
:100ED800090E0024056E000E00BEFF0E066E000E01
:100EE800062205C000F006C001F0000E06BEFF0E87
:100EF800026E036E00360090013602360336003665
:100F08000090013602360336490E0024F66E480E6C
:100F18000120F76E000E0220F86E0900F5CFF2F0FE
:100F28000900F5CFF3F00900F5CFF4F00900F5CF8B
:100F3800F5F00A0E046EF1C000F081DC08C000F084
:100F480000C001F0000E00BEFF0E026E036E046EBC
:100F58000136019002360336043601360190023616
:100F680003360436490E0124F66E480E0220F76E49
:100F7800000E0320F86E0900F5CF00F00900F5CF48
:100F880001F00900F5CF02F00900F5CF03F0F2C037
:100F980004F0F3C005F0F4C006F0F5C007F026EC45
:100FA80001F027D0F1C000F0000EF1BFFF0E016E76
:100FB800026E036E003600900136023603360036A4
:100FC8000090013602360336490E0024F66E480EAC
:100FD8000120F76E000E0220F86E0900F5CF00F030
:100FE8000900F5CF01F00900F5CF02F00900F5CFAF
:040FF80003F01200F0
:100FFC000001F151390806E3300EF15D03E3010EF7
:08100C00006E01D0006A120021
:101014000B6A0A6A096A00500402F4CF09F0F3CF9C
:1010240008F001500502F4CF0BF0F3CF0AF00050A2
:101034000502F3500926F4500A22E86A0B220150F3
:101044000402F3500926F4500A22E86A0B2208C06D
:1010540000F009C001F00AC002F00BC003F0120056
:101064000450000A12E10550000A0FE10650000A7C
:101074000CE10750000A09E1FF0E006EFF0E016E3D
:101084007F0E026EFF0E036EA8D0086A096A07502D
:10109400D8B4DDEF08F00350D8B4E2EF08F0025002
:1010A40006180A6E028E068E0E6A02C008F001C08F
:1010B4000CF000C00DF004500D5E0550D8A0053CA6
:1010C4000C5E0650D8A0063C085E086A0C6A0D6ADD
:1010D400D8A074EF08F0D8900232013200320832FE
:1010E400010E0E6E0750035ED8A081EF08F07E0E4D
:1010F4000E240326D8B0E7EF08F087EF08F07E0E41
:101104000E240326D8A0ECEF08F0180E0B6E0D3653
:101114000C3608360036013602360E360450005EB0
:101124000550D8A0053C015E0650D8A0063C025EDE
:1011340006340E120EA0A2EF08F00D80ADEF08F0F9
:10114400045000260550D8B0053C01260650D8B0FE
:10115400062802260D900B2E89EF08F0D3EF08F035
:10116400D8900036013602360E360450005E055023
:10117400D8A0053C015E0650D8A0063C025E0634A9
:101184000E10010B0D26D8B00C2AD8B4082AD8A406
:10119400D3EF08F008320C320D32032AD8B4E7EF4B
:1011A40008F00AAE089E0850026E0C50016E0D50F5
:1011B400006EEFEF08F0010EE4EC03F0EFEF08F03F
:1011C400020E1AEC00F0EFEF08F0040E0EEC00F043
:0C11D400EFEF08F0080E25EC00F0120010
:1011E0000B6A0C6A0A6A086A0350D8B478EF09F0EF
:1011F000028E9E0E035E03BE03EF09F0D8B403EF28
:1012000009F068EF09F0036C080E035CD8A035EF15
:1012100009F0036E083600C008F001C000F002C0FB
:1012200001F0026A080E035CD8A035EF09F0036EE6
:10123000083600C008F001C000F0016A080E035C27
:10124000D8A035EF09F0036E083600C008F0006A38
:10125000080E035CD8A035EF09F0036E0836086A63
:101260000350D8A4D89041EF09F00350D8B441EF0F
:1012700009F0D8900232013200320832032E39EFE1
:1012800009F00BBC08A052EF09F0D8A052EF09F00A
:10129000082AD8B4002AD8B4012AD8B4022A02BE37
:1012A0007CEF09F00AAE78EF09F0021E011E001E65
:1012B000081E082AD8B4002AD8B4012AD8B4022AB1
:1012C00078EF09F0026A016A006A086A78EF09F0AB
:1012D0000B800BAE82EF09F0026A0AAE82EF09F0D2
:1012E000026E016E006E086E0A36023282EF09F05D
:1012F000000E0C6A83EF09F0010E0C6EC6EC01F0D3
:1013000083EF09F0FF0E0250036E0150026E005091
:08131000016E0850006E12008E
:1013180003500718D8A4A0EF09F002500618D8A463
:10132800A0EF09F001500518D8A4A0EF09F000506B
:0E1338000418D8B4D8841200D8941200120001
:101346000B6A0C6A086A0350D8B427EF0AF002C089
:101356000AF0028E9E0E035E03AE17EF0AF0036CD0
:10136600080E035CD8A0E4EF09F0036E083600C04F
:1013760008F001C000F002C001F0026A080E035C2A
:10138600D8A0E4EF09F0036E083600C008F001C0EB
:1013960000F0016A080E035CD8A0E4EF09F0036EC2
:1013A600083600C008F0006A080E035CD8A0E4EF17
:1013B60009F0036E0836086A0350D8A4D890F0EFF7
:1013C60009F00350D8B4F0EF09F0D8900232013298
:1013D60000320832032EE8EF09F00BBC08A001EF3B
:1013E6000AF0D8A001EF0AF0082AD8B4002AD8B427
:1013F600012AD8B4022A02BE2BEF0AF00AAE27EF62
:101406000AF0021E011E001E081E082AD8B4002A71
:10141600D8B4012AD8B4022A27EF0AF0026A016A70
:10142600006A086A27EF0AF00B800BAE32EF0AF06B
:10143600026A0AAE32EF0AF0026E016E006E086EA4
:101446000A36023232EF0AF00C6A000E33EF0AF067
:10145600010E0C6E000EC6EC01F033EF0AF0FF0E23
:101466000250036E0150026E0050016E0850006E6D
:02147600120062
:101478006E0E0001F15DD8A0CAD0640E046EF1C0F2
:1014880000F0E8EC03F0120E0024056E066A000E68
:10149800062205C000F006C001F0000E06BEFF0ED1
:1014A800026E036E003600900136023603360036AF
:1014B80000900136023603367D0E0024F66E480E83
:1014C8000120F76E000E0220F86E0900F5CF00F03B
:1014D8000900F5CF01F00900F5CF02F00900F5CFBA
:1014E80003F0000E046E000E056E000E066E7E0EF2
:1014F800076E26EC01F000C0F2F001C0F3F002C064
:10150800F4F003C0F5F0640E046EF1C000F0E8ECEE
:1015180003F008C000F00A0E046EE8EC03F0090EB0
:101528000024056E066A000E062205C000F006C0FB
:1015380001F0000E06BEFF0E026E036E003600902C
:10154800013602360336003600900136023603367D
:101558007D0E0024F66E480E0120F76E000E022064
:10156800F86E0900F5CF00F00900F5CF01F0090089
:10157800F5CF02F00900F5CF03F0F2C004F0F3C094
:1015880005F0F4C006F0F5C007F026EC01F000C045
:10159800F2F001C0F3F002C0F4F003C0F5F00A0E57
:1015A800046EF1C000F0E8EC03F008C000F000C0E1
:1015B80001F0000E026E036E046E013601900236D1
:1015C80003360436013601900236033604367D0EA2
:1015D8000124F66E480E0220F76E000E0320F86E06
:1015E8000900F5CF00F00900F5CF01F00900F5CFAB
:1015F80002F00900F5CF03F0F2C004F0F3C005F0E3
:10160800F4C006F0F5C007F026EC01F0B1D0F151B6
:101618000A08D8B07ED00A0E046EF1C000F0E8ECDB
:1016280003F0090E0024056E066A000E062205C0A6
:1016380000F006C001F0000E06BEFF0E026E036E3B
:101648000036009001360236033600360090013627
:10165800023603367D0E0024F66E480E0120F76E22
:10166800000E0220F86E0900F5CF00F00900F5CF52
:1016780001F00900F5CF02F00900F5CF03F0000EE4
:10168800046E000E056E000E066E7E0E076E26ECCA
:1016980001F000C0F2F001C0F3F002C0F4F003C0A2
:1016A800F5F00A0E046EF1C000F0E8EC03F008C093
:1016B80000F000C001F0000E026E036E046E0136E9
:1016C800019002360336043601360190023603369D
:1016D80004367D0E0124F66E480E0220F76E000EC9
:1016E8000320F86E0900F5CF00F00900F5CF01F0EE
:1016F8000900F5CF02F00900F5CF03F0F2C004F0BD
:10170800F3C005F0F4C006F0F5C007F026EC01F0D0
:101718002FD0F1C000F0000E016E026E036E00368D
:101728000090013602360336003600900136023644
:1017380003367D0E0024F66E480E0120F76E000E6B
:101748000220F86E0900F5CF00F00900F5CF01F08E
:101758000900F5CF02F00900F5CF03F0000E046E82
:10176800000E056E000E066E7E0E076E26EC01F06A
:0217780012005D
:10177A000B6A0A6A096A086A0E6A03340836045050
:10178A00085E0550D8A0053C095E0650D8A0063C64
:10179A000A5E0750D8A0073C0B5EE86AD8A0010E83
:1017AA000E5E0336070E0C6E0334083609360A3607
:1017BA000B360E36045003A012D0085E0550D8A08E
:1017CA00053C095E0650D8A0063C0A5E0750D8A020
:1017DA00073C0B5EE86AD8A0010E0E5E11D00826FF
:1017EA000550D8B0053C09260650D8B0063C0A2652
:1017FA000750D8B0073C0B26E86AD8B0010E0E266F
:10180A0003360C2ED1D70234083609360A360B367F
:10181A000E36045003A012D0085E0550D8A0053C2D
:10182A00095E0650D8A0063C0A5E0750D8A0073CBD
:10183A000B5EE86AD8A0010E0E5E11D0082605508C
:10184A00D8B0053C09260650D8B0063C0A260750EF
:10185A00D8B0073C0B26E86AD8B0010E0E2602362D
:10186A00070E0C6E0234083609360A360B360E3667
:10187A00045002A012D0085E0550D8A0053C095EAB
:10188A000650D8A0063C0A5E0750D8A0073C0B5E5B
:10189A00E86AD8A0010E0E5E11D008260550D8B00D
:1018AA00053C09260650D8B0063C0A260750D8B08F
:1018BA00073C0B26E86AD8B0010E0E2602360C2E1B
:1018CA00D1D70134083609360A360B360E3604509B
:1018DA0002A012D0085E0550D8A0053C095E065049
:1018EA00D8A0063C0A5E0750D8A0073C0B5EE86AFF
:1018FA00D8A0010E0E5E11D008260550D8B0053CBE
:10190A0009260650D8B0063C0A260750D8B0073C2C
:10191A000B26E86AD8B0010E0E260136070E0C6EA9
:10192A000134083609360A360B360E36045001A041
:10193A0012D0085E0550D8A0053C095E0650D8A012
:10194A00063C0A5E0750D8A0073C0B5EE86AD8A09E
:10195A00010E0E5E11D008260550D8B0053C0926A6
:10196A000650D8B0063C0A260750D8B0073C0B26CA
:10197A00E86AD8B0010E0E2601360C2ED1D70034F3
:10198A00083609360A360B360E36045001A012D034
:10199A00085E0550D8A0053C095E0650D8A0063C52
:1019AA000A5E0750D8A0073C0B5EE86AD8A0010E71
:1019BA000E5E11D008260550D8B0053C09260650FF
:1019CA00D8B0063C0A260750D8B0073C0B26E86A6E
:1019DA00D8B0010E0E260036070E0C6E00340836FB
:1019EA0009360A360B360E36045000A012D0085EAD
:1019FA000550D8A0053C095E0650D8A0063C0A5EF0
:101A0A000750D8A0073C0B5EE86AD8A0010E0E5E0C
:101A1A0011D008260550D8B0053C09260650D8B082
:101A2A00063C0A260750D8B0073C0B26E86AD8B00D
:101A3A00010E0E2600360C2ED1D700B00ED004505F
:101A4A0008260550D8B0053C09260650D8B0063CF1
:0C1A5A000A260750D8B0073C0B261200EB
:101A66000450000A08E10550000A05E1FF0E006E69
:101A76007F0E016E58D00D6A096A086A015000107F
:101A8600D8B4000C015005180A6E0ABE0D1E0B6A6A
:101A960005AE05D0041E051E042AD8B4052A01AEDB
:101AA60005D0001E011E002AD8B4012A01500510D7
:101AB6000A6E0ABE10D0F7EC03F00BB020D00DAEC4
:101AC600000C001E011E002AD8B4012A081E091E99
:101AD600082AD8B4092A000C05AE0DD001BE07D0DD
:101AE6000150096E0050086E016A006AE8D7016A63
:101AF600006A002A000C011E001E0B2ADDD7082AE8
:101B0600D8B4092A0450085CD8A4D9D70550095C72
:101B1600D8A4D5D7096A086A002AD8B4012A01AE22
:081B2600CED70000FF0C1200F5
:081B2E00067ED4EC01F0120068
:101B36000001AA91C9C0F1F0ECEC04F0AA811200F0
:101B46000001E96BEA6BDD6BDE6BCBC000F0CCC04D
:101B560001F0CDC002F0010ECB27000ECC23CD2321
:101B660000C0F6FF01C0F7FF02C0F8FF0900F5CF7D
:101B760000F000C0DAF00052D8B4B0EF1DF0DA5130
:101B8600250A0BE0C9C0E1FFCAC0E2FFDAC0E6FFE2
:101B9600C94BCA2BE94BEA2BD8D7DB6BDC6BDD6B69
:101BA600DE6B23D0DD87010ECB27000ECC23CD23A1
:101BB60059D0DD81010ECB27000ECC23CD2352D088
:101BC600DD83010ECB27000ECC23CD234BD0DE8741
:101BD600010ECB27000ECC23CD2344D0DD85010E8C
:101BE600CB27000ECC23CD233DD0CBC0F6FFCCC0F7
:101BF600F7FFCDC0F8FF0900F5CF01F001502D0A1F
:101C0600D1E0CBC0F6FFCCC0F7FFCDC0F8FF09008E
:101C1600F5CF01F00150200ACCE0CBC0F6FFCCC0D6
:101C2600F7FFCDC0F8FF0900F5CF01F001502B0AF0
:101C3600C7E0CBC0F6FFCCC0F7FFCDC0F8FF090068
:101C4600F5CF01F00150230AC2E0CBC0F6FFCCC0AD
:101C5600F7FFCDC0F8FF0900F5CF01F00150300ABB
:101C6600BDE001D09ED7DDA301D0DD91DDA701D077
:101C7600DD95CBC0F6FFCCC0F7FFCDC0F8FF09005D
:101C8600F5CF00F0000E016E00C0F1F0FEEC07F09B
:101C9600005236E0DB6BDC6BDBC000F0DCC001F031
:101CA6000A0E046E000E056E0AEC08F0CBC0F6FFB5
:101CB600CCC0F7FFCDC0F8FF0900F5CF02F0025007
:101CC6000024DB6F000E0120DC6F300EDB5F000EA0
:101CD600DC5B010ECB27000ECC23CD23CBC0F6FF59
:101CE600CCC0F7FFCDC0F8FF0900F5CF00F0000E1D
:101CF600016E00C0F1F0FEEC07F00052CDE133D0EA
:101D0600CBC0F6FFCCC0F7FFCDC0F8FF0900F5CF7A
:101D160001F001502A0A27E1CEC0E9FFCFC0EAFF51
:101D2600EECF00F0EECF01F000C0E9FF01C0EAFF00
:101D3600EECFDBF0EECFDCF0CEC0E9FFCFC0EAFF9E
:101D4600020EEE24006E000EEE20016ECEC0E1FF04
:101D5600CFC0E2FF00C0E6FF01C0E6FF010ECB27C1
:101D6600000ECC23CD23CBC0F6FFCCC0F7FFCDC0F1
:101D7600F8FF0900F5CF01F001502E0A70E1010EBF
:101D8600CB27000ECC23CD23CBC0F6FFCCC0F7FF6C
:101D9600CDC0F8FF0900F5CF01F001502A0A28E16D
:101DA600CEC0E9FFCFC0EAFFEECF00F0EECF01F0E4
:101DB60000C0E9FF01C0EAFFEECFD8F0EECFD9F0C0
:101DC600CEC0E9FFCFC0EAFF020EEE24006E000E81
:101DD600EE20016ECEC0E1FFCFC0E2FF00C0E6FFFD
:101DE60001C0E6FF010ECB27000ECC23CD2336D053
:101DF600D86BD96BCBC0F6FFCCC0F7FFCDC0F8FFD0
:101E06000900F5CF00F0000E016E00C0F1F0FEEC07
:101E160007F0005223E0D8C000F0D9C001F00A0E46
:101E2600046E000E056E0AEC08F0CBC0F6FFCCC0BF
:101E3600F7FFCDC0F8FF0900F5CF02F002500024ED
:101E4600D86F000E0120D96F300ED85F000ED95B17
:101E5600010ECB27000ECC23CD23CCD703D0D86BD5
:101E6600D96BDE89CBC000F0CCC001F0CDC002F04A
:101E7600010ECB27000ECC23CD2300C0F6FF01C0F8
:101E8600F7FF02C0F8FF0900F5CFDAF0F9D0E9C094
:101E960000F0EAC001F0B4EF1DF0DD89E3D7DE857E
:101EA6002ED1DD8BDE812BD1DE8329D1DD8D27D1AD
:101EB60026D1DD8BDD8F23D1CEC0E9FFCFC0EAFF6F
:101EC600EECF00F0EECF01F000C0E9FF01C0EAFF5F
:101ED600EECFE5F0EECFE6F0CEC0E9FFCFC0EAFFE9
:101EE600020EEE24006E000EEE20016ECEC0E1FF63
:101EF600CFC0E2FF00C0E6FF01C0E6FF000EE61914
:101F060002E1000EE51904E1700EE56F000EE66FC2
:101F1600E76BE86BE751E525E96EE851E621EA6EE5
:101F2600EE520BE0010EE725006E000EE821016E71
:101F360000C0E7F001C0E8F0EDD7D851D9110AE0AA
:101F4600E851D95D02E1E751D85D04E2D8C0E7F077
:101F5600D9C0E8F0DC51E85D02E1DB51E75D05E25E
:101F6600E751DB5FE851DC5B02D0DB6BDC6BDDB796
:101F760016D0DBC000F0DCC001F0010EDB5F000E06
:101F8600DC5B005001100BE0C9C0E1FFCAC0E2FFF4
:101F9600200EE66EC94BCA2BE94BEA2BEAD7E7C0FF
:101FA60002F0E8C003F0010EE75D006E000EE8598E
:101FB600016E00C0E7F001C0E8F00250031019E01E
:101FC600E5C0E9FFE6C0EAFFC9C0E1FFCAC0E2FF1B
:101FD600EECFE6FFC94BCA2B010EE525006E000EBB
:101FE600E621016E00C0E5F001C0E6F0E94BEA2B00
:101FF600D6D7DDA716D0DBC000F0DCC001F0010E9D
:10200600DB5F000EDC5B005001100BE0C9C0E1FF96
:10201600CAC0E2FF200EE66EC94BCA2BE94BEA2B7B
:10202600EAD793D5CEC0E9FFCFC0EAFFEECF00F0E6
:10203600EECF01F000C0E9FF01C0EAFFEECFDAF013
:10204600CEC0E9FFCFC0EAFF020EEE24006E000EFE
:10205600EE20016ECEC0E1FFCFC0E2FF00C0E6FF7A
:1020660001C0E6FFDA0EE56F000EE66F010EE76FC0
:10207600000EE86F62D7C00EDD13000EDE133FD0F0
:10208600DA51000AD8B403D7DA516C0AD8B405D7A6
:10209600DA514C0AD8B401D7DA51660AD8B4FFD659
:1020A600DA51450AD8B4FDD6DA51650AD8B4FAD65B
:1020B600DA51670AD8B4F8D6DA516F0AD8B4F6D628
:1020C600DA51640AD8B4F4D6DA51690AD8B4F0D62B
:1020D600DA51700AD8B4EDD6DA51580AD8B4E9D62E
:1020E600DA51780AD8B4E6D6DA51730AD8B4E4D607
:1020F600DA51630A97E0DA51750ABDE0B3D7000EEC
:10210600DD15006EDE51070B016E00500110D8B4CC
:1021160057EF19F0DEA904D0060ED86F000ED96F5E
:10212600CEC0E9FFCFC0EAFFEECF00F0EECF01F060
:1021360000C0E9FF01C0EAFFEECFDFF0EECFE0F02E
:10214600EECFE1F0EECFE2F0CEC0E9FFCFC0EAFF7E
:10215600040EEE24006E000EEE20016ECEC0E1FFEE
:10216600CFC0E2FF00C0E6FF01C0E6FF046A056AD1
:10217600066A076ADFC000F0E0C001F0E1C002F0C5
:10218600E2C003F072EC04F0010ED8B0000E006E4F
:10219600005205E0E17F030EDD13000EDE13E36B54
:1021A600E46BDFC000F0E0C001F0E1C002F0E2C085
:1021B60003F0046A056A066A076A8CEC09F0000EE9
:1021C600D8A4010E006E0052D8B489D0E2C000F047
:1021D600016A026A036AFF0E0016000E01167E0EE1
:1021E600005E000E015A00C0E3F001C0E4F0010EEB
:1021F600005E000E015A00C0E3F001C0E4F0030ED9
:10220600046E000E056E0AEC08F000C0E3F001C093
:10221600E4F00A0E046E000E056E22DC00C0E3F048
:1022260001C0E4F0800E0118026E800E025C02E12D
:10223600000E005C05E2010E0001E35F000EE45BA8
:102246000001E3510008F16F2CEC05F0DFC004F04B
:10225600E0C005F0E1C006F0E2C007F026EC01F0B0
:1022660000C0E5F001C0E6F002C0E7F003C0E8F008
:10227600000E046E000E056E000E066E7F0E076ED3
:10228600E5C000F0E6C001F0E7C002F0E8C003F0E8
:1022960072EC04F0010ED8B0000E006E005205E09C
:1022A600010EE35F000EE45B1AD0000E046E000E12
:1022B600056E200E066E820E076EE5C000F0E6C0C3
:1022C60001F0E7C002F0E8C003F072EC04F0000E83
:1022D600D8B0010E006E005202E0E34BE42B800EF4
:1022E600006E800EE419005C02E1E351000803E38E
:1022F600010EDA6F02D0E3C0DAF0DEB118D0DEA349
:1023060015D0800EE419006E7F0E005C02E1FC0E13
:10231600E35D0BE3800EE419006E800ED919005CB4
:1023260002E1D851E35D01E201D001D0EFD3D851EB
:10233600D91106E0DEA304D0010ED85F000ED95BEA
:10234600D951000802E1D851080803E2080EDA6FF5
:1023560002D0D8C0DAF0DFC000F0E0C001F0E1C082
:1023660002F0E2C003F0046A056A066A076A8CECAA
:1023760009F0000ED8A4010E006E0052D8B44BD15D
:10238600E3C0F1F02CEC05F000C004F001C005F04C
:1023960002C006F003C007F0DFC000F0E0C001F0A5
:1023A600E1C002F0E2C003F032EC08F000C0DFF05A
:1023B60001C0E0F002C0E1F003C0E2F00001DA5132
:1023C6000008F16F2CEC05F000C004F001C005F028
:1023D60002C006F003C007F0DFC000F0E0C001F065
:1023E600E1C002F0E2C003F032EC08F000C0EBF00E
:1023F60001C0ECF002C0EDF003C0EEF0EBC0DFF080
:10240600ECC0E0F0EDC0E1F0EEC0E2F0EBC000F0B1
:10241600ECC001F0EDC002F0EEC003F0F0EC08F005
:10242600D9EC04F000C004F001C005F002C006F0CB
:1024360003C007F0EBC000F0ECC001F0EDC002F005
:10244600EEC003F097EC0DF0000E046E000E056E64
:10245600000E066E7E0E076E72EC04F0000ED8B00B
:10246600010E006E00521AE0DFC000F0E0C001F07D
:10247600E1C002F0E2C003F0000E046E000E056E2D
:10248600000E066E7E0E076ED4EC01F000C0DFF083
:1024960001C0E0F002C0E1F003C0E2F0DFC000F0EE
:1024A600E0C001F0E1C002F0E2C003F0F0EC08F099
:1024B6000001DA51010F096E0A6A000E0A2209C0EC
:1024C60004F00AC005F0000E0ABEFF0E066E076E87
:1024D600043604900536063607360436049005366B
:1024E60006360736E10E0424F66E480E0520F76E12
:1024F600000E0620F86E0900F5CF05F00900F5CFAD
:1025060006F00900F5CF07F00900F5CF08F00850EE
:10251600035C08E10750025C05E10650015C02E13C
:102526000550005C1EE30001DFC000F0E0C001F0D2
:10253600E1C002F0E2C003F0CD0E046ECC0E056ED3
:102546004C0E066E7B0E076E26EC01F000C0DFF027
:1025560001C0E0F002C0E1F003C0E2F0E34BE42B7F
:102566005AD0DFC000F0E0C001F0E1C002F0E2C0E6
:1025760003F0F0EC08F0DAC004F0000E056E066E0B
:10258600076E043604900536063607360436049080
:10259600053606360736E10E0424F66E480E05208B
:1025A600F76E000E0620F86E0900F5CF05F009005B
:1025B600F5CF06F00900F5CF07F00900F5CF08F0D2
:1025C6000850035C08E10750025C05E10650015C17
:1025D60002E10550005C1FE20001DFC000F0E0C030
:1025E60001F0E1C002F0E2C003F0000E046E000E3E
:1025F600056E200E066E820E076E26EC01F000C0F8
:10260600DFF001C0E0F002C0E1F003C0E2F0010E2D
:10261600E35F000EE45B0001DEA393D0DEB791D04A
:10262600800E000A006E800ED919005C02E1D851B6
:102636000A0804E20A0ED86F000ED96FDFC000F058
:10264600E0C001F0E1C002F0E2C003F0F0EC08F0F7
:1026560000C0E5F001C0E6F002C0E7F003C0E8F014
:10266600E551E611E711E81142E00A0E046E000E8C
:10267600056E066E076EE5C000F0E6C001F0E7C025
:1026860002F0E8C003F0BDEC0BF008C000F009C092
:1026960001F00AC002F00BC003F0000E046E03182E
:1026A60008E10450021805E10450011802E1005047
:1026B600000A1DE1010ED85F000ED95B0A0E046EFA
:1026C600000E056E066E076EE5C000F0E6C001F06E
:1026D600E7C002F0E8C003F0BDEC0BF000C0E5F087
:1026E60001C0E6F002C0E7F003C0E8F0B9D7800EFB
:1026F600D919006E800E005C02E1DA51D85D21E244
:10270600D851DA5DF16F2CEC05F000C004F001C081
:1027160005F002C006F003C007F0DFC000F0E0C01D
:1027260001F0E1C002F0E2C003F032EC08F000C0B4
:10273600DFF001C0E0F002C0E1F003C0E2F0D8C073
:10274600DAF0050E0001D825006E000ED921016EC3
:102756000050DB5F0150DC5BD851D91103E1DEB7D5
:1027660001D004D0010EDB5F000EDC5B030EDD152D
:10277600006EDEC001F0000E01160050011004E0EC
:10278600010EDB5F000EDC5BDDA539D0DDA312D0C8
:10279600DDA103D02D0ED06F02D02B0ED06FC9C095
:1027A600E1FFCAC0E2FFD0C0E6FFC94BCA2BE94B26
:1027B600EA2B0CD0DDA10AD0C9C0E1FFCAC0E2FFF6
:1027C600200EE66EC94BCA2BE94BEA2B800E006E33
:1027D600800EDC19005C02E1DB5100080FE2C9C083
:1027E600E1FFCAC0E2FF300EE66EC94BCA2BE94BC9
:1027F600EA2B010EDB5F000EDC5BE8D73AD0DDB7D3
:1028060018D0800E006E800EDC19005C02E1DB51F0
:1028160000080FE2C9C0E1FFCAC0E2FF200EE66E63
:10282600C94BCA2BE94BEA2B010EDB5F000EDC5BC2
:10283600E8D7DDA312D0DDA103D02D0ED16F02D0D3
:102846002B0ED16FC9C0E1FFCAC0E2FFD1C0E6FFBF
:10285600C94BCA2BE94BEA2B0CD0DDA10AD0C9C063
:10286600E1FFCAC0E2FF200EE66EC94BCA2BE94B58
:10287600EA2BDFC000F0E0C001F0E1C002F0E2C0E8
:1028860003F0F0EC08F000C0E5F001C0E6F002C08D
:10289600E7F003C0E8F0DAC000F0000E016E026E49
:1028A600036E00360090013602360336003600907D
:1028B600013602360336E10E0024F66E480E01207C
:1028C600F76E000E0220F86E0900F5CF04F009003D
:1028D600F5CF05F00900F5CF06F00900F5CF07F0B2
:1028E600E5C000F0E6C001F0E7C002F0E8C003F082
:1028F600BDEC0BF0300E0026C9C0E1FFCAC0E2FFF6
:1029060000C0E6FFC94BCA2BE94BEA2BD851D911B7
:1029160003E1DEB701D06FD0C9C0E1FFCAC0E2FF54
:102926002E0EE66EC94BCA2BE94BEA2BDA51D85F5D
:10293600000ED95BDA534DE0DA07DAC000F0000E7C
:10294600016E026E036E00360090013602360336C3
:1029560000360090013602360336E10E0024F66E8C
:10296600480E0120F76E000E0220F86E0900F5CF22
:1029760004F00900F5CF05F00900F5CF06F00900CF
:10298600F5CF07F0E5C000F0E6C001F0E7C002F0C1
:10299600E8C003F0BDEC0BF00A0E046E000E056EE7
:1029A600066E076EBDEC0BF008C000F009C001F022
:1029B6000AC002F00BC003F0300E0026C9C0E1FFCA
:1029C600CAC0E2FF00C0E6FFC94BCA2BE94BEA2B9F
:1029D600B1D7D851D9110FE0C9C0E1FFCAC0E2FF93
:1029E600300EE66EC94BCA2BE94BEA2B010ED85FB7
:1029F600000ED95BEED7DDAB0BD0C9C0E1FFCAC074
:102A0600E2FF450EE66EC94BCA2BE94BEA2B0AD00C
:102A1600C9C0E1FFCAC0E2FF650EE66EC94BCA2B0C
:102A2600E94BEA2B800EE419006E800E005C02E191
:102A3600000EE35D11E2E3510008E36FE451000E7E
:102A4600E457C9C0E1FFCAC0E2FF2D0EE66EC94BCE
:102A5600CA2BE94BEA2B0AD0C9C0E1FFCAC0E2FF84
:102A66002B0EE66EC94BCA2BE94BEA2B0A0E046EF7
:102A7600000E056EE3C000F0E4C001F033EC0DF08B
:102A8600300E0026C9C0E1FFCAC0E2FF00C0E6FF63
:102A96000001C94BCA2BE94BEA2B0A0E046E000E45
:102AA600056EE3C000F0E4C001F033EC0DF008C0A1
:102AB60000F009C001F0300E0026C9C0E1FFCAC00F
:102AC600E2FF00C0E6FF0001C94BCA2BE94BEA2B27
:102AD600DDA71AD0800E006E800EDC19005C02E1C4
:102AE600DB51000811E2C9C0E1FFCAC0E2FF200EB7
:102AF600E66EC94BCA2BE94BEA2B010EDB5F000ED3
:102B0600DC5BDB51DC11EFE1A8EF0DF0DEA3F3D0C7
:102B1600800EE419006E800E005C02E1000EE35D9B
:102B26000AE2010EE35D006E000EE459016E0050EC
:102B3600D85F0150D95BDFC000F0E0C001F0E1C012
:102B460002F0E2C003F0F0EC08F000C0E5F001C0CE
:102B5600E6F002C0E7F003C0E8F0010EDA6FDA51E2
:102B66000A0A34E0DAC000F0000E016E026E036E4F
:102B760000360090013602360336003600900136E4
:102B860002360336E10E0024F66E480E0120F76E7B
:102B9600000E0220F86E0900F5CF01F00900F5CF0E
:102BA60002F00900F5CF03F00900F5CF04F0045058
:102BB600E85D08E10350E75D05E10250E65D02E1EC
:102BC6000150E55D01E202D0DA2BC9D7DA51D85DB2
:102BD600EF6F000ED959F06FEFC0D8F0F0C0D9F002
:102BE600E5C000F0E6C001F0E7C002F0E8C003F07F
:102BF600D9EC04F000C004F001C005F002C006F0F4
:102C060003C007F0DFC000F0E0C001F0E1C002F051
:102C1600E2C003F097EC0DF000C0EBF001C0ECF061
:102C260002C0EDF003C0EEF0EFC0F1F02CEC05F0C1
:102C3600EBC004F0ECC005F0EDC006F0EEC007F006
:102C460026EC01F0000E046E000E056E000E066EF8
:102C56007E0E076ED4EC01F0F0EC08F000C0E5F053
:102C660001C0E6F002C0E7F003C0E8F0D851D91180
:102C760042E00A0E046E000E056E066E076EE5C093
:102C860000F0E6C001F0E7C002F0E8C003F0BDECDA
:102C96000BF008C000F009C001F00AC002F00BC03A
:102CA60003F0000E046E031808E10450021805E153
:102CB6000450011802E10050000A1DE10A0E046EDC
:102CC600000E056E066E076EE5C000F0E6C001F068
:102CD600E7C002F0E8C003F0BDEC0BF000C0E5F081
:102CE60001C0E6F002C0E7F003C0E8F0010ED85FCD
:102CF600000ED95BBBD7800E006E800ED919005C22
:102D060002E1D8510C0816E3D8C0F1F03CEC0AF009
:102D1600DFC004F0E0C005F0E1C006F0E2C007F055
:102D2600D4EC01F000C0DFF001C0E0F002C0E1F039
:102D360003C0E2F0DFC000F0E0C001F0E1C002F045
:102D4600E2C003F0046A056A066A076A8CEC09F0B9
:102D5600000ED8A4010E006E0052D8B477D0DFC0A2
:102D660000F0E0C001F0E1C002F0E2C003F0F0ECD8
:102D760008F0000E046E031808E10450021805E17D
:102D86000450011802E10050000A60E1800E006E56
:102D9600800EE419005C02E1E351010857E2E3C04A
:102DA600F1F02CEC05F000C004F001C005F002C003
:102DB60006F003C007F0DFC000F0E0C001F0E1C09C
:102DC60002F0E2C003F032EC08F05F0E046E700E03
:102DD600056E090E066E810E076E72EC04F0010E8A
:102DE600D8B0000E006E005206E0090E0001E35F47
:102DF600000EE45B05D00001080EE35F000EE45B05
:102E0600E3C0F1F02CEC05F000C004F001C005F0C1
:102E160002C006F003C007F0DFC000F0E0C001F01A
:102E2600E1C002F0E2C003F032EC08F0F0EC08F08A
:102E360000C0E5F001C0E6F002C0E7F003C0E8F02C
:102E46000001DF6BE06BE16BE26B38D0DFC000F0B6
:102E5600E0C001F0E1C002F0E2C003F0F0EC08F0DF
:102E660000C0E5F001C0E6F002C0E7F003C0E8F0FC
:102E7600E5C000F0E6C001F0E7C002F0E8C003F0EC
:102E8600D9EC04F000C004F001C005F002C006F061
:102E960003C007F0DFC000F0E0C001F0E1C002F0BF
:102EA600E2C003F097EC0DF000C0DFF001C0E0F0E7
:102EB60002C0E1F003C0E2F0E36BE46B010EDA6FEF
:102EC600DA510A0A34E0DAC000F0000E016E026E32
:102ED600036E003600900136023603360036009047
:102EE600013602360336E10E0024F66E480E012046
:102EF600F76E000E0220F86E0900F5CF01F009000A
:102F0600F5CF02F00900F5CF03F00900F5CF04F084
:102F16000450E85D08E10350E75D05E10250E65D17
:102F260002E10150E55D01E202D0DA2BC9D7DA51A0
:102F3600D825006E000ED921016EE3510026E4511A
:102F460001220050DB5F0150DC5BDEB704D0D851B4
:102F5600D91101E104D0010EDB5F000EDC5B030E2C
:102F6600DD15006EDEC001F0000E011600500110E6
:102F760004E0010EDB5F000EDC5BDDA539D0DDA3CE
:102F860012D0DDA103D02D0ED26F02D02B0ED26F40
:102F9600C9C0E1FFCAC0E2FFD2C0E6FFC94BCA2BD7
:102FA600E94BEA2B0CD0DDA10AD0C9C0E1FFCAC0AB
:102FB600E2FF200EE66EC94BCA2BE94BEA2B800EC8
:102FC600006E800EDC19005C02E1DB5100080FE2A6
:102FD600C9C0E1FFCAC0E2FF300EE66EC94BCA2B7C
:102FE600E94BEA2B010EDB5F000EDC5BE8D73AD03B
:102FF600DDB718D0800E006E800EDC19005C02E191
:10300600DB5100080FE2C9C0E1FFCAC0E2FF200E93
:10301600E66EC94BCA2BE94BEA2B010EDB5F000EAD
:10302600DC5BE8D7DDA312D0DDA103D02D0ED36F74
:1030360002D02B0ED36FC9C0E1FFCAC0E2FFD3C0D6
:10304600E6FFC94BCA2BE94BEA2B0CD0DDA10AD00F
:10305600C9C0E1FFCAC0E2FF200EE66EC94BCA2B0B
:10306600E94BEA2BDAC000F0DA0700524CE0DAC08E
:1030760000F0000E016E026E036E003600900136FF
:103086000236033600360090013602360336E10E6C
:103096000024F66E480E0120F76E000E0220F86E30
:1030A6000900F5CF04F00900F5CF05F00900F5CFCA
:1030B60006F00900F5CF07F0E5C000F0E6C001F024
:1030C600E7C002F0E8C003F0BDEC0BF00A0E046E98
:1030D600000E056E066E076EBDEC0BF008C000F024
:1030E60009C001F00AC002F00BC003F0300E002642
:1030F600C9C0E1FFCAC0E2FF00C0E6FFC94BCA2B48
:10310600E94BEA2BAFD7800E006E800EE419005C07
:1031160002E1E35100080FE2C9C0E1FFCAC0E2FFC5
:10312600300EE66EC94BCA2BE94BEA2B010EE35F64
:10313600000EE45BE8D7800E000A006E800ED919F7
:10314600005C02E1D851080803E2080EDA6F02D0EB
:10315600D8C0DAF0DA51D85F000ED95BDA5303E152
:10316600DEB701D00AD0C9C0E1FFCAC0E2FF2E0E09
:10317600E66EC94BCA2BE94BEA2BDAC0F1F02CEC10
:1031860005F0DFC004F0E0C005F0E1C006F0E2C0E3
:1031960007F026EC01F0A3EC09F000C0E5F001C051
:1031A600E6F002C0E7F003C0E8F0DA534DE0DA07D4
:1031B600DAC000F0000E016E026E036E003600905B
:1031C60001360236033600360090013602360336E3
:1031D600E10E0024F66E480E0120F76E000E022066
:1031E600F86E0900F5CF04F00900F5CF05F00900E7
:1031F600F5CF06F00900F5CF07F0E5C000F0E6C010
:1032060001F0E7C002F0E8C003F0BDEC0BF00A0ED7
:10321600046E000E056E066E076EBDEC0BF008C060
:1032260000F009C001F00AC002F00BC003F0300E36
:103236000026C9C0E1FFCAC0E2FF00C0E6FFC94BD5
:10324600CA2BE94BEA2BB1D7D851D9110FE0C9C027
:10325600E1FFCAC0E2FF300EE66EC94BCA2BE94B4E
:10326600EA2B010ED85F000ED95BEED7DDA71AD088
:10327600800E006E800EDC19005C02E1DB51000856
:1032860011E2C9C0E1FFCAC0E2FF200EE66EC94BDB
:10329600CA2BE94BEA2B010EDB5F000EDC5BDB5130
:1032A600DC11EFE1A8EF0DF0C00EDD15016EDEC0FA
:1032B60002F0000E0216000E021802E1000E0118BE
:1032C600D8A480D0DDA927D0CEC0E9FFCFC0EAFFC1
:1032D600EECF00F0EECF01F000C0E9FF01C0EAFF3B
:1032E600EECFE5F0EECFE6F0EECFE7F0EECFE8F08A
:1032F600CEC0E9FFCFC0EAFF040EEE24006E000E3A
:10330600EE20016ECEC0E1FFCFC0E2FF00C0E6FFB7
:1033160001C0E6FF2FD0CEC0E9FFCFC0EAFFEECF57
:1033260000F0EECF01F000C0E9FF01C0EAFFEECFEA
:1033360000F0EECF01F0000E01BEFF0E026E036E2E
:1033460000C0E5F001C0E6F002C0E7F003C0E8F017
:10335600CEC0E9FFCFC0EAFF020EEE24006E000EDB
:10336600EE20016ECEC0E1FFCFC0E2FF00C0E6FF57
:1033760001C0E6FF800EE819006E800E005C08E1D1
:10338600000EE75D05E1000EE65D02E1000EE55D7B
:1033960018E2030EDD13000EDE13006A016A026AEC
:1033A600036AE551005EE651015AE751025AE851B7
:1033B600035A00C0E5F001C0E6F002C0E7F003C022
:1033C600E8F04ED0DDA927D0CEC0E9FFCFC0EAFF96
:1033D600EECF00F0EECF01F000C0E9FF01C0EAFF3A
:1033E600EECFE5F0EECFE6F0EECFE7F0EECFE8F089
:1033F600CEC0E9FFCFC0EAFF040EEE24006E000E39
:10340600EE20016ECEC0E1FFCFC0E2FF00C0E6FFB6
:1034160001C0E6FF25D0CEC0E9FFCFC0EAFFEECF60
:1034260000F0EECF01F000C0E9FF01C0EAFFEECFE9
:10343600E5F0EECFE6F0000EE76FE86FCEC0E9FFED
:10344600CFC0EAFF020EEE24006E000EEE20016EE3
:10345600CEC0E1FFCFC0E2FF00C0E6FF01C0E6FF3D
:10346600000ED91902E1000ED8190FE1000E006E08
:10347600E81908E10050E71905E10050E61902E1F4
:10348600E551000A02E1D84BD92BC00EDD15006EBE
:1034960000C005F0AED0010EDA6FDA510A0A34E048
:1034A600DAC000F0000E016E026E036E0036009068
:1034B60001360236033600360090013602360336F0
:1034C600E10E0024F66E480E0120F76E000E022073
:1034D600F86E0900F5CF01F00900F5CF02F00900FA
:1034E600F5CF03F00900F5CF04F00450E85D08E1DC
:1034F6000350E75D05E10250E65D02E10150E55D3E
:1035060001E202D0DA2BC9D782D0010EDA6FDA5186
:10351600080A34E0DAC000F0000E016E026E036E97
:10352600003600900136023603360036009001362A
:1035360002360336090E0024F66E490E0120F76E98
:10354600000E0220F86E0900F5CF01F00900F5CF54
:1035560002F00900F5CF03F00900F5CF04F004509E
:10356600E85D08E10350E75D05E10250E65D02E132
:103576000150E55D01E202D0DA2BC9D748D0010E31
:10358600DA6FDA510C0A34E0DAC000F0000E016E90
:10359600026E036E003600900136023603360036A0
:1035A6000090013602360336B10E0024F66E480E40
:1035B6000120F76E000E0220F86E0900F5CF01F02B
:1035C6000900F5CF02F00900F5CF03F00900F5CFA9
:1035D60004F00450E85D08E10350E75D05E10250A0
:1035E600E65D02E10150E55D01E202D0DA2BC9D7C2
:1035F6000ED00550000AD8B44ED70550C00AD8B42C
:103606004AD70550800A81E00550400AB8E0800E8E
:10361600006E800ED919005C02E1D851DA5D03E232
:10362600D8C0DAF00DD0800ED919006E800E005C7D
:1036360002E1DA51D85D04E2DAC0D8F0000ED96FA3
:10364600DB51DC110EE0030EDD15006EDEC001F06D
:10365600000E01160050011004E0010EDB5F000EA3
:10366600DC5B800ED919006E800EDC19005C02E16D
:10367600DB51D85D05E2D851DB5FD951DC5B02D066
:10368600DB6BDC6BC40EDD15016EDE51080B026EC2
:103696000250080A02E1400E011808E1DB51DC1174
:1036A60004E0010EDB5F000EDC5B1CD0C00EDD15F6
:1036B600016EDE51080B026E0250080A02E1800E0E
:1036C600011810E1800E006E800EDC19005C02E12C
:1036D600DB51020805E2020EDB5F000EDC5B02D066
:1036E600DB6BDC6BDDA55DD0DDA312D0DDA103D0E5
:1036F6002D0ED46F02D02B0ED46FC9C0E1FFCAC005
:10370600E2FFD4C0E6FFC94BCA2BE94BEA2B34D003
:10371600DDA10BD0C9C0E1FFCAC0E2FF200EE66EF4
:10372600C94BCA2BE94BEA2B27D0C00EDD15016E1B
:10373600DE51080B026E0250080A02E1800E0118E3
:103746001BE1C9C0E1FFCAC0E2FF300EE66EC94BFD
:10375600CA2BE94BEA2BDDAB03D0580ED56F02D04E
:10376600780ED56FC9C0E1FFCAC0E2FFD5C0E6FF3B
:10377600C94BCA2BE94BEA2BDB51DC1111E0C9C05E
:10378600E1FFCAC0E2FF300EE66EC94BCA2BE94B19
:10379600EA2B010EDB5F000EDC5BDB51DC11EFE197
:1037A60074D0DB51DC1113E0DDB711D0C9C0E1FFE5
:1037B600CAC0E2FF200EE66EC94BCA2BE94BEA2BC4
:1037C600010EDB5F000EDC5BDB51DC11EFE1DDA3FC
:1037D60012D0DDA103D02D0ED66F02D02B0ED66FE0
:1037E600C9C0E1FFCAC0E2FFD6C0E6FFC94BCA2B7B
:1037F600E94BEA2B0CD0DDA10AD0C9C0E1FFCAC053
:10380600E2FF200EE66EC94BCA2BE94BEA2BC00E2F
:10381600DD15016EDE51080B026E0250080A02E148
:10382600400E01180BE1C9C0E1FFCAC0E2FF300E2D
:10383600E66EC94BCA2BE94BEA2B27D0C00EDD1525
:10384600016EDE51080B026E0250080A02E1800E7C
:1038560001181BE1C9C0E1FFCAC0E2FF300EE66EE7
:10386600C94BCA2BE94BEA2BDDAB03D0580ED76FF9
:1038760002D0780ED76FC9C0E1FFCAC0E2FFD7C039
:10388600E6FFC94BCA2BE94BEA2B800E006E800E71
:10389600D919005C02E1D851DA5D0BE2C9C0E1FF3B
:1038A600CAC0E2FF300EE66EC94BCA2BE94BEA2BC3
:1038B600ECD7D8C000F0D9C001F0010ED85F000ED9
:1038C600D95B00500110D8B42AD1C00EDD15006EA8
:1038D60000C0EBF00AD1D8C000F0D9C001F0000E4C
:1038E600D9BFFF0E026E036E003600900136023617
:1038F600033600360090013602360336E10E002408
:10390600F66E480E0120F76E000E0220F86E0900D2
:10391600F5CF04F00900F5CF05F00900F5CF06F064
:103926000900F5CF07F0E5C000F0E6C001F0E7C0FA
:1039360002F0E8C003F0BDEC0BF00A0E046E000EB8
:10394600056E066E076EBDEC0BF008C000F009C0F0
:1039560001F00AC002F00BC003F0300E0024DA6F4B
:10396600D3D0DDAB45D0D8C000F0D9C001F0000EF1
:10397600D9BFFF0E026E036E003600900136023686
:10398600033600360090013602360336090E00244F
:10399600F66E490E0120F76E000E0220F86E090041
:1039A600F5CF04F00900F5CF05F00900F5CF06F0D4
:1039B6000900F5CF07F0E5C000F0E6C001F0E7C06A
:1039C60002F0E8C003F0BDEC0BF00F0E0016000E7F
:1039D6000116021603164E0E0024F66E490E01203D
:1039E600F76E000E0220F86E0900F5CFDAF044D02B
:1039F600D8C000F0D9C001F0000ED9BFFF0E026E8C
:103A0600036E00360090013602360336003600900B
:103A1600013602360336090E0024F66E490E0120E1
:103A2600F76E000E0220F86E0900F5CF04F00900CB
:103A3600F5CF05F00900F5CF06F00900F5CF07F040
:103A4600E5C000F0E6C001F0E7C002F0E8C003F010
:103A5600BDEC0BF00F0E0016000E01160216031633
:103A66003D0E0024F66E490E0120F76E000E022070
:103A7600F86E0900F5CFDAF047D0D8C000F0D9C00B
:103A860001F0000ED9BFFF0E026E036E00360090E5
:103A9600013602360336003600900136023603360A
:103AA600B10E0024F66E480E0120F76E000E0220BD
:103AB600F86E0900F5CF04F00900F5CF05F009000E
:103AC600F5CF06F00900F5CF07F0E5C000F0E6C037
:103AD60001F0E7C002F0E8C003F0BDEC0BF0070E02
:103AE6000014DA6F300EDA270FD0EB51000AD8B483
:103AF600F2D6EB51C00AD8B4EED6EB51800AD8B450
:103B060030D7EB51400AB9E0C9C0E1FFCAC0E2FFB5
:103B1600DAC0E6FFC94BCA2BE94BEA2BCAD6DDA7AA
:103B26001AD0800E006E800EDC19005C02E1DB51BB
:103B3600000811E2C9C0E1FFCAC0E2FF200EE66E2E
:103B4600C94BCA2BE94BEA2B010EDB5F000EDC5B8F
:103B5600DB51DC11EFE1A8EF0DF0E9C000F0EAC09F
:043B660001F0120058
:103B6A00BB50010F006E016A000E0122C9C004F0A9
:103B7A00000E056E0AEC08F0060E026E00C004F094
:103B8A0001C005F0025005E005320432059EFF0F20
:103B9A00FAD7040E016E04C000F0015004E00036AA
:103BAA000090FF0FFBD7300E0014036E04C000F024
:103BBA0005C001F001320032019E01320032019E3D
:0E3BCA0000C0BEFF0F0EBD160350BD1212004C
:103BD800086A096A100E0C6E01340836093604505A
:103BE800085E0550D8A0053C095ED8B007D004503F
:103BF80008260550D8B0053C0926D890003601366D
:063C08000C2EEAD71200A9
:0C3C0E000E0E0D6E0D2EFED700001200F1
:103C1A0010D0800E0001BB6F1AD0C00EBB6F17D038
:103C2A00940EBB6F14D0D40EBB6F11D0800EBB6F35
:103C3A000ED00001BB51010AECE0BB51020AEDE0D3
:103C4A00BB51030AEDE0BB51040AEDE0EFD7BC0516
:103C5A00006EBB51002600C0BBF0AA8100C0F1F083
:103C6A00ECEC04F0AA91BDC0F1F0ECEC04F0AA81EE
:023C7A00120036
:103C7C000001BB6BBB51060825E3AF0E006E000EB6
:103C8C00016EBBC004F0000E056E0AEC08F0060EC7
:103C9C00046E000E056E9ADF500E0026000E0122F7
:103CAC0000C0C9F05CDF020E0B6E860E0C6E990E16
:103CBC000D6E0D2EFED70C2EFCD70B2EFAD7000155
:063CCC00BB2BD8D712004B
:103CD200C26A0001871D006E0050C1160F0EC0128D
:103CE200C08EBBC000F0003600900036009000503D
:103CF200C212C2808BDFC282C2A201D0FDD7C4CF62
:103D020001F0006A00C0BCF001C0BDF0C350001257
:103D1200000E011200C0BCF001C0BDF0C290000E46
:103D22000014026E0150800B036E000E031802E1B4
:103D3200000E021802E0BC6BBD6BBCC000F0BDC03F
:043D420001F012007A
:103D4600C00E0001C76F000EC86FBBC0C9F0BCC073
:103D5600CAF0BDC0CBF0BEC0CCF0BFC0CDF0C70E20
:103D6600CE6F000ECF6FA3EC0DF000C0C5F001C002
:103D7600C6F00050BB25E16E0150BC21E26EE66A3A
:0A3D8600C5C000F0C6C001F0120035
:103D9000220E0C6E086A096A0A6A0B6A0C06D8B40D
:103DA0001FD0D8900B320A32093208320332023265
:103DB00001320032D8A0F2D70C06D8B409D0045092
:103DC00008260550092206500A2207500B22EAD77E
:103DD000045008260550092206500A2207500B22DB
:023DE0001200CF
:103DE20010D0800E0001BB6F1AD0C00EBB6F17D06F
:103DF200940EBB6F14D0D40EBB6F11D0800EBB6F6C
:103E02000ED00001BB51010AECE0BB51020AEDE009
:103E1200BB51030AEDE0BB51040AEDE0EFD7BC054C
:103E2200006EBB51002600C0BBF000C0F1F0ECEC0C
:103E320004F0AA91BF6BBF51BD25E96E000EBE21F1
:103E4200EA6EEE520CE0BF51BD25E96E000EBE21B6
:103E5200EA6EEECFC9F09BEC0DF0BF2BECD7AA8136
:023E620012004C
:0A3E64009494BA840C0EBD121200F3
:103E6E002950010A03E1010E016E01D0016A01B071
:103E7E0002D0899401D08984020E00016E5D02E1A8
:103E8E00B50E6D5D03E3010E026E01D0026A02B043
:0A3E9E0002D0899601D08986120037
:103EA80000016B5340E0450E886F540E896F3A0E3F
:103EB8008A6F6A51000A07E1520E8B6F440E8C6FAD
:103EC800430E8D6F07D06A51300F8B6F200E8C6FA9
:103ED800200E8D6F2D0E8E6F3E0E8F6F6C51000A67
:103EE80007E1520E906F440E916F430E926F07D008
:103EF8006C51300F906F200E916F200E926F440E10
:103F0800936F3A0E946F6F51550A05E1550E956FF0
:103F1800500E966F04D0440E956F4E0E966F200E7D
:103F2800976F986B2CD0450E886F540E896F3A0E98
:103F38008A6F6A51000A07E1520E8B6F440E8C6F2C
:103F4800430E8D6F07D06A51300F8B6F200E8C6F28
:103F5800200E8D6F200E8E6F200E8F6F200E906FAB
:103F6800200E916F530E926F540E936F4F0E946FF5
:103F7800500E956F200E966F200E976F986B010E5E
:103F8800BB6F010EBC6F880EBD6F000EBE6F25DFC4
:103F9800990EBB6F000EBC6F290EBD6F490EBE6F28
:103FA800000EBF6F6DC0C0F06EC0C1F0295203E0B3
:103FB800310EB86F02D0300EB86FB8C0C2F089A405
:103FC80003D0560EB96F02D02D0EB96FB9C0C3F029
:103FD80089A603D0410EBA6F02D02D0EBA6FBAC0AF
:103FE800C4F0ADDE020EBB6F010EBC6F990EBD6F43
:083FF800000EBE6FF2DE1200A4
:104000000001B851000A18E1010EBB6FB9C0BCF045
:10401000520EBD6F02DE010EBB6FB951010FBC6FB6
:10402000440EBD6FFADD010EBB6F020EB925BC6FE9
:10403000430EBD6FF2DD18D0010EBB6FB9C0BCF0EE
:10404000B851300FBD6FE9DD010EBB6FB951010FE3
:10405000BC6F200EBD6FE1DD010EBB6F020EB925F6
:0A406000BC6F200EBD6FD9DD120009
:10406A000001B851550A03E18B808B9202D08B90E4
:0E407A008B82500EC96F74DDF0DEFBDD12008C
:10408800000E80B0010E296E010E0001BB6F1DDE0F
:10409800000E026E036E840E046E030E056E000E93
:1040A800066E000E076E70DEFF0E046E030E056EC0
:1040B800000E066E000E076EBDEC0BF000C06DF032
:0640C80001C06EF01200C1
:1040CE00060E0001B86FB851000826E2B805006E62
:1040DE00016A000E015AAF0E046E000E056E0AEC58
:1040EE0008F0060E046E000E056E6FDD500E0026F3
:1040FE00000E012200C0C9F031DD020E0B6E860EDD
:10410E000C6E990E0D6E0D2EFED70C2EFCD70B2EAF
:10411E00FAD70001B807D7D78B908B92C96B1EDDEB
:02412E0012007D
:10413000FF0E0001AB6FFF0EAC6FFF0EAD6FFF0EF9
:10414000AE6FC26A871D006E0050C1160F0EC012FE
:06415000C08EC2801200C7
:08415600BE6ABD98BD9A12007B
:10415E000900F5CFE6FF0006FBE10106F9E11200CA
:10416E00939A93989390939293949396819A81981D
:10417E008196819481928190BBEC01F0BBEC01F0B1
:10418E00BBEC01F081828180818A23EC01F0819A5F
:10419E00BBEC01F0818A23EC01F0819ABBEC01F0BB
:1041AE00818A23EC01F0819ABBEC01F08190818A27
:1041BE0023EC01F0819ABBEC01F0818A23EC01F033
:1041CE00819A81928186818A23EC01F0819ABBECDF
:1041DE0001F081968180818A23EC01F0819A819091
:1041EE00818A23EC01F0819ABBEC01F0818A23ECE9
:1041FE0001F0819A8180818A23EC01F0819ABBECD7
:10420E0001F08190818A23EC01F0819A818681846C
:10421E0081828180818A23EC01F0819ABBEC01F0CE
:06422E000001AA8112004C
:104234000001B0516A1901E1E4D0B0516A5D03E2B2
:10424400550EB16F02D0440EB16FB1C0B4F0B1C01D
:104254006FF0B0C06CF0010E6B6F8994B0516A5D61
:1042640006E26A51B05DB26F000EB36F05D0B05173
:104274006A5DB26F000EB36FB2C0B5F013DE040E08
:104284000B6E0C0E0C6E330E0D6E0D2EFED70C2E17
:10429400FCD70B2EFAD700000000B4C0B8F0E3DE60
:1042A400B66BB551B65DD8B097D0B505006E016A4E
:1042B400000E015A000E011802E10050B619010E59
:1042C400D8A4000EB76FFF0EC96F4DDC0001B753C1
:1042D4005CE1130E0B6E440E0C6E440E0D6E0D2E2F
:1042E400FED70C2EFCD70B2EFAD70000B451550A7A
:1042F40002E16A2B01D06A07250EE96E000EEA6E10
:104304006A51E926D8B0EA2AEE5239E0250EE16E68
:10431400000EE26E6A51E126D8B0E22AE66AD5DEE2
:1043240000016B6B530E6F6F6AC06CF0ABDE9DDDEA
:10433400B9DD070E0B6E170E0C6E6A0E0D6E0D2E88
:10434400FED70C2EFCD70B2EFAD70000B4C06FF0AA
:10435400B0C06CF0010E6B6FA5DD040E0B6E0C0E7D
:104364000C6E330E0D6E0D2EFED70C2EFCD70B2EBD
:10437400FAD700000000B4C0B8F075DE05D06AC0FA
:10438400B8F0040EB96F3ADE25D0B551010A0DE13B
:104394000A0E0B6E220E0C6EA10E0D6E0D2EFED7A4
:1043A4000C2EFCD70B2EFAD70DD0130E0B6E440E29
:1043B4000C6E440E0D6E0D2EFED70C2EFCD70B2E5C
:1043C400FAD7000082DE0001B451550A02E16A2BDB
:1043D40001D06A07B62B65D76B6B530E6F6F6AC03B
:1043E4006CF050DE42DD5EDD070E0B6E170E0C6EB8
:1043F4006A0E0D6E0D2EFED70C2EFCD70B2EFAD79F
:0444040000001200A2
:10440800250EE16E000EE26E00016A51E126D8B079
:10441800E22AE66A6F51550A3BE16A51010F046EC0
:10442800040E045C18E2250EE96E000EEA6E0450D4
:10443800E926D8B0EA2AEE520CE0250EE16E000E0D
:10444800E26E0450E126D8B0E22AE66A04C000F021
:10445800AED0042AE5D7046A6A51045C18E2250E36
:10446800E96E000EEA6E0450E926D8B0EA2AEE5248
:104478000CE0250EE16E000EE26E0450E126D8B085
:10448800E22AE66A04C000F092D0042AE5D78DD06B
:104498006F51440A42E16AC004F0045000081EE269
:1044A8000404006E016A000E015A250E0024E96E0C
:1044B800000E0120EA6EEE520FE00404006E016A5D
:1044C800000E015A250E0024E16E000E0120E26E56
:1044D800E66A0404006E6BD00406DFD76A51010F48
:1044E800046E040E045C18E2250EE96E000EEA6EF6
:1044F8000450E926D8B0EA2AEE520CE0250EE16E07
:10450800000EE26E0450E126D8B0E22AE66A04C042
:1045180000F04DD0042AE5D748D0FF0E056E0A0EEC
:10452800086E000E096E046A040E045C2FE2250E64
:10453800E96E000EEA6E0450E926D8B0EA2AEECFFA
:1045480000F0005201E120D06A51045C07E36A518F
:10455800045C026E036A000E035A06D004506A5DBA
:10456800026E036A000E035A02C006F003C007F089
:104578000950035C02E10850025C06E206C008F03C
:1045880007C009F004C005F0042ACED70550FF0A79
:104598000CE0250EE16E000EE26E0550E126D8B063
:1045A800E22AE66A05C000F002D0FF0E006E120093
:1045B80083A002D0010E256E83A202D0010E266EC2
:1045C80083A402D0010E276E83A602D0010E286EA6
:0245D8001200CF
:1045DA00B0EC24F0BA80BA92630EBB6EB7DD00016C
:1045EA00C96BB5EC1DF039DC9490949294948B903D
:1045FA008B928B94020E0F01386F396B3A6B3B6BBF
:10460A00928092829294929694969488949C948E94
:10461A0095809582958495869588938C938E896AE0
:10462A008B6A81DD020E0F01386F92829BDD010ECB
:10463A00F16FECEC04F00C0EF16FECEC04F0010EEF
:10464A00BB6F010EBC6F150EBD6F000EBE6FF1EC95
:10465A001EF0020EBB6F010EBC6F2A0EBD6F000E5C
:10466A00BE6FF1EC1EF0100E0B6E390E0C6E0D0EB5
:10467A000D6E0D2EFED70C2EFCD70B2EFAD700008E
:10468A000000010EF16FECEC04F0F9DC37EC1FF0DE
:10469A0006DCF5DC37EC1FF08ADFB1DE00C0AFF0D4
:1046AA000050FF0AD8B484D02950010A2CE1010E27
:1046BA00F16FECEC04F0010EBB6F010EBC6F5A0EE9
:1046CA00BD6F000EBE6FF1EC1EF0020EBB6F010E45
:1046DA00BC6F4A0EBD6F000EBE6FF1EC1EF0150ED8
:1046EA000B6E4B0E0C6EBE0E0D6E0D2EFED70C2EE3
:1046FA00FCD70B2EFAD70000010EF16FECEC04F098
:10470A0054EC1FF055D0020E6E5D02E1B50E6D5DE0
:10471A0033E389868B908B92C96BB5EC1DF0010E41
:10472A000001F16FECEC04F0010EBB6F010EBC6FDF
:10473A003A0EBD6F000EBE6FF1EC1EF0020EBB6F9B
:10474A00010EBC6F770EBD6F000EBE6FF1EC1EF04E
:10475A00150E0B6E4B0E0C6EBE0E0D6E0D2EFED789
:10476A000C2EFCD70B2EFAD70000010EF16FECECE1
:10477A0004F054EC1FF01CD0AFC0B0F056DD7FDC63
:10478A003EDE00C0AFF00050FF0A01E10FD0295011
:10479A00010A07E0020E6E5D02E1B50E6D5D01E2EF
:1047AA0001D004D0AFC0B0F040DDE9D7530E6F6F2F
:1047BA0054EC1FF0820E0C6EDD0E0D6E0D2EFED720
:0C47CA000C2EFCD70000000064D7FFD7C5
:1049600010EE15F0730E006E010E016ED60EF66E8F
:0E497000470EF76E000EF86EAFEC20F012004E
:1047D60020415343454E53455552203445542000FD
:0447E60000000000CF
:0147EA0000CE
:1047EB00202050726574202D20524443202020003D
:1047FB002020535552434841524745212020200049
:10480B00566575696C6C657A206665726D657200AC
:10481B00504F525445204F55564552544521200078
:01482B00008C
:01482C00008B
:01482D00008A
:02482E00000088
:014830005334
:07483100286E756C6C290074
:1048380020204D41583A20363330206B6720200025
:014848000F60
:104849000000007F000020820000488500007A886F
:1048590000401C8C0050438F002474928096189657
:1048690020BC3E99286B6E9CF90215A0EC782DC1ED
:04487900CAF249E254
:10487D000000007FCDCC4C7B0AD723786F120375D7
:10488D0017B75171ACC5276EBD37066B95BF56670F
:10489D0077CC2B645F700961FFE65B5D08E53C3CFE
:0448AD006042221B28
:1048B10001000000080000004000000000020000AC
:1048C1000010000000800000000004000000200033
:1048D100000000010000000800000040000000008E
:1048E100010000000A00000064000000E80300006D
:1048F10010270000A086010040420F00809698001A
:0849010000E1F50500CA9A3B34
:10490900010000001000000000010000001000007C
:10491900000001000000100000000001000000106C
:10492900503A2533646B672049523A256320256341
:0449390025632000D2
:10493D003031323334353637383961626364656608
:01494D000069
:10494E0030313233343536373839414243444546B7
:01495E000058
:020000040030CA
:0D000100231F3CFFBF81FF0FC00FE00F4029
:00000001FF
