:1000000012EF20F00000000000EF00F00000000000
:0A0010000000000000000000F3D71C
:08001C000AAE029E000E120064
:100024000B840BAE1DEF00F0010E036E026A016A31
:0A003400006A0A360232FF0E1200C5
:0E003E00026A016A006A086A036A000E120074
:10004C000B820BAE30EF00F00368026801680068A9
:08005C000A360232FF0E120009
:100064000CB074EF00F00CA21AEF01F00E6A000E4F
:1000740002648BEF00F0F00E0214D8A456EF00F0E7
:10008400023A01380F0B02260138F00B016E0038DA
:100094000F0B01260038F00B006E08380F0B0026FA
:1000A4000838F00B086E0E84D89002BE6FEF00F093
:1000B40008360036013602360E2A02BE6FEF00F013
:1000C40008360036013602360E2A02BE6FEF00F003
:1000D40008360036013602360E2A0E50036410EF3D
:1000E40001F0035E0BBC08AE15EF01F0D880800E62
:1000F40008640030000E002201220222D8A015EF6D
:1001040001F0023201320032034A1AEF01F015EF16
:1001140001F001C002F000C001F008C000F0086A5C
:10012400000E0E860264C2EF00F0F00E0214D8A492
:10013400AAEF00F0023A01380F0B02260138F00B47
:10014400016E00380F0B01260038F00B006E0E8490
:10015400D89002BE6FEF00F00036013602360E2A48
:1001640002BE6FEF00F00036013602360E2A02BEE0
:100174006FEF00F00036013602360E2A6FEF00F002
:1001840001C002F000C001F0006A000E0E960E8855
:100194000264EFEF00F0F00E0214D8A4DAEF00F0DE
:1001A400023A01380F0B02260138F00B016E0E845F
:1001B400D89002BE6FEF00F0013602360E2A02BE5E
:1001C4006FEF00F0013602360E2A02BE6FEF00F028
:1001D400013602360E2A6FEF00F001C002F0016A08
:1001E400000E0E8602641FEF01F0F00E0214D8A474
:1001F400FEEF00F0023A0E84D89002BE6FEF00F0DA
:1002040002360E2A02BE6FEF00F002360E2A02BE3C
:100214006FEF00F002360E2A6FEF00F0010E0C6E45
:10022400FFDE22EF01F0020E0C6EF6DE22EF01F08B
:10023400040E0C6E09DF22EF01F0080E0C6EFDDED9
:020244001200A6
:10024600025006180E6E086A096A0B6A03500764A4
:1002560016EF02F006500A6E068E028E03500B6EE3
:100266000750036E000E0B6466EF01F00B50075E3D
:10027600D8B407EF02F0070E0764D5EF01F0075E6A
:1002860000C008F001C000F002C001F0026A074E8B
:1002960007EF02F00764AAEF01F0075E00C008F05E
:1002A60001C000F0016A074E07EF02F0076488EF0D
:1002B60001F0075E00C008F0006A074E07EF02F083
:1002C60007646FEF01F00AC002F005C001F004C038
:1002D60000F0086A30EF03F0030E07647AEF01F0CE
:1002E600075E08380F0B086E074E07EF02F0D8902E
:1002F6000832074E07EF02F0D8900832074E07EF94
:1003060002F0D890083207EF02F0030E076499EF67
:1003160001F0075E08380F0B086E0038F00B082650
:1003260000380F0B006E074E07EF02F0D890003230
:100336000832074E07EF02F0D89000320832074E17
:1003460007EF02F0D8900032083207EF02F0030EF2
:100356000764C1EF01F0075E08380F0B086E00381E
:10036600F00B082600380F0B006E0138F00B002644
:1003760001380F0B016E074E07EF02F0D8900132DD
:1003860000320832074E07EF02F0D89001320032F1
:100396000832074E07EF02F0D890013200320832D9
:1003A60007EF02F0030E0764F2EF01F0075E08386C
:1003B6000F0B086E0038F00B082600380F0B006E86
:1003C6000138F00B002601380F0B016E0238F00BD6
:1003D600012602380F0B026E074E07EF02F0D89087
:1003E6000232013200320832074E07EF02F0D8908F
:1003F6000232013200320832074E07EF02F0D8907F
:100406000232013200320832096A000E0EAEFBEFEC
:1004160002F0081E001E011E021E082A00220122EA
:100426000222FBEF02F00750D8A41CEF02F030EFD7
:1004360003F0096A02C00AF0028E068E0750035CBA
:10044600076ED8B4EEEF02F0070E0764BCEF02F0B9
:10045600075E0450096E0550046E0650056E066A66
:10046600074EEEEF02F0070E076491EF02F0075E0B
:100476000450096E0550046E056A074EEEEF02F051
:10048600070E07646FEF02F0075E0450096E046AF8
:10049600074EEEEF02F0070E076456EF02F00AC0B1
:1004A60002F030EF03F0030E076461EF02F0075E1F
:1004B60009380F0B096E074EEEEF02F0D89009329D
:1004C600074EEEEF02F0D8900932074EEEEF02F03B
:1004D600D8900932EEEF02F0030E076480EF02F0C7
:1004E600075E09380F0B096E0438F00B092604382D
:1004F6000F0B046E074EEEEF02F0D890043209326D
:10050600074EEEEF02F0D89004320932074EEEEFB6
:1005160002F0D89004320932EEEF02F0030E0764BF
:10052600A8EF02F0075E09380F0B096E0438F00BCE
:10053600092604380F0B046E0538F00B042605381F
:100546000F0B056E074EEEEF02F0D890053204321F
:100556000932074EEEEF02F0D89005320432093226
:10056600074EEEEF02F0D890053204320932EEEF74
:1005760002F0030E0764D9EF02F0075E09380F0B8D
:10058600096E0438F00B092604380F0B046E053883
:10059600F00B042605380F0B056E0638F00B052602
:1005A60006380F0B066E074EEEEF02F0D8900632B5
:1005B600053204320932074EEEEF02F0D8900632C9
:1005C600053204320932074EEEEF02F0D8900632B9
:1005D600053204320932086A000E0EAEFBEF02F055
:1005E600091E041E051E061E092A042205220622CD
:1005F6000950082604500022055001220650022206
:100606000EBE12EF03F0D8A021EF03F00232013242
:1006160000320832033E21EF03F02BEF03F0D8B08F
:1006260026EF03F0000E081E001E011E021E082AF9
:100636000022012202220A7E26EF03F0010E0C6E32
:100646000EDD32EF03F0020E0C6E09DD32EF03F021
:10065600040E0C6EF8DC32EF03F0000E0C6E120086
:100666000D6A086A0050D8B4000C04180A6E0ABE57
:100676000D1E0B6A04AE02D0041E042A00AE02D080
:10068600001E002A005004100A6E0ABE1FD0045035
:10069600085E003600340836045008260036060E7A
:1006A6000C6E00340836045000B0085E00A0082620
:1006B60000360C2EF6D700A008260BB015D00DAECE
:1006C600000C001E002A081E082A000C04AE09D0E1
:1006D60000BE04D00050086E006AF1D7006A002AF6
:1006E600000C001E0B2AD3D7082A0450085CD8A495
:0E06F600E6D7086A002A00AEE2D7FF0C120019
:100704000134083609360450085E0550D8A0053C6B
:10071400095E003601360F0E0C6E013408360936B8
:10072400045000A006D0085E0550D8A0053C095E20
:1007340005D008260550D8B0053C092600360136F8
:100744000C2EEBD700B006D0045008260550D8B0C4
:08075400053C0926000012001B
:10075C00086A096A000E0762036433EF04F0025062
:10076C0006180A6E075003267E0ED8A0C4EF03F0BD
:10077C00035ED8B038EF04F0C8EF03F0035ED8A0E6
:10078C003DEF04F0028E068E02C00EF001C00BF09D
:10079C0000C00DF000500402F4CF0CF00150050223
:1007AC00F4CF00F0F3CF08F00402F3500C26F45011
:1007BC000822000E00220D500502F3500C26F450B6
:1007CC000822000E002202500402F3500826F450B6
:1007DC00002202500502016A000E0122F35000268D
:1007EC00F45001220D500602F3500826F45000225A
:1007FC00026A000E012202220B500602F350002660
:10080C00F4500122000E02220E500602F350012673
:10081C00F450022202BE1BEF04F0083600360136FB
:10082C0002360306D8B43DEF04F02EEF04F0D88066
:10083C00800E08640030000E002201220222D8A093
:10084C002EEF04F0023201320032034A38EF04F08A
:10085C000AAE029E000E40EF04F0010E1FEC00F0F9
:10086C0040EF04F0020E26EC00F040EF04F0040E12
:06087C0012EC00F0120076
:100882000B800BAE4DEF04F0026A0AAEFF0E026E51
:0C089200016E006E0A360232FF0E1200EA
:08089E000B6A0B86FF0E12002D
:1008A600086A080E0C6E003408360450085ED8B08C
:0E08B60002D00826D89000360C2EF5D712007E
:0A08C400210E0D6E0D2EFED712005E
:0608CE0000000000120012
:1008D4000F0E0C6E470E0D6E0D2EFED70C2EFCD790
:0608E400000000001200FC
:1008EA000050086E0150006E0250016E0350026EF5
:1008FA00036A0B6A0C6A9E0E036E0A6A020E0C6E7B
:06090A0032EC00F01200C7
:100910000001ACBF02D0819601D08186ACBD02D06F
:10092000819401D08184ACBB02D0819201D08182BC
:10093000ACB902D0819001D081805DB002D08188B5
:1009400001D08198818AC3DF819AACB702D08196A9
:1009500001D08186ACB502D0819401D08184ACB342
:1009600002D0819201D08182ACB102D0819001D0BD
:1009700081805DB002D0818801D08198818AA7DF13
:0E098000819A5DA002D0A6DF01D09CDF12009C
:10098E000B6A0C6A0A6A086A0350D8B44FEF05F076
:10099E00028E9E0E035E03BEDAEF04F0D8B4DAEFD9
:1009AE0004F03FEF05F0036C080E035CD8A00CEFCB
:1009BE0005F0036E083600C008F001C000F002C05A
:1009CE0001F0026A080E035CD8A00CEF05F0036E6E
:1009DE00083600C008F001C000F0016A080E035C82
:1009EE00D8A00CEF05F0036E083600C008F0006AC0
:1009FE00080E035CD8A00CEF05F0036E0836086AEB
:100A0E000350D8A4D89018EF05F00350D8B418EFBF
:100A1E0005F0D8900232013200320832032E10EF68
:100A2E0005F00BBC08A029EF05F0D8A029EF05F0C2
:100A3E00082AD8B4002AD8B4012AD8B4022A02BE91
:100A4E0053EF05F00AAE4FEF05F0021E011E001E19
:100A5E00081E082AD8B4002AD8B4012AD8B4022A0B
:100A6E004FEF05F0026A016A006A086A4FEF05F05F
:100A7E000B800BAE58EF05F0026A0AAE58EF05F088
:100A8E00026E016E006E086E0A36023258EF05F0E5
:100A9E00000E0C6A59EF05F0010E0C6EEBDE59EFED
:100AAE0005F0FF0E0250036E0150026E0050016EF3
:060ABE000850006E12005A
:100AC4006E0E0001AC5DD8A0C3D0640E046EACC041
:100AD40000F0E7DE120E0024056E066A000E062200
:100AE40005C000F006C001F0000E06BEFF0E026E47
:100AF400036E00360090013602360336003600904D
:100B0400013602360336090E0024F66E410E01202A
:100B1400F76E000E0220F86E0900F5CF00F0090010
:100B2400F5CF01F00900F5CF02F00900F5CF03F08D
:100B3400000E046E000E056E000E066E7E0E076E2D
:100B44000BDE00C0ADF001C0AEF002C0AFF003C0D8
:100B5400B0F0640E046EACC000F0A3DE08C000F078
:100B64000A0E046E9EDE090E0024056E066A000E4F
:100B7400062205C000F006C001F0000E06BEFF0EFE
:100B8400026E036E003600900136023603360036DC
:100B94000090013602360336090E0024F66E410E2B
:100BA4000120F76E000E0220F86E0900F5CF00F068
:100BB4000900F5CF01F00900F5CF02F00900F5CFE7
:100BC40003F0ADC004F0AEC005F0AFC006F0B0C095
:100BD40007F0C2DD00C0ADF001C0AEF002C0AFF05E
:100BE40003C0B0F00A0E046EACC000F05ADE08C0B8
:100BF40000F000C001F0000E026E036E046E0136B8
:100C0400019002360336043601360190023603366B
:100C14000436090E0124F66E410E0220F76E000E12
:100C24000320F86E0900F5CF00F00900F5CF01F0BC
:100C34000900F5CF02F00900F5CF03F0ADC004F0D0
:100C4400AEC005F0AFC006F0B0C007F085DDACD093
:100C5400AC510A08D8B07AD00A0E046EACC000F0C9
:100C640020DE090E0024056E066A000E062205C069
:100C740000F006C001F0000E06BEFF0E026E036E09
:100C840000360090013602360336003600900136F5
:100C940002360336090E0024F66E410E0120F76E6B
:100CA400000E0220F86E0900F5CF00F00900F5CF20
:100CB40001F00900F5CF02F00900F5CF03F0000EB2
:100CC400046E000E056E000E066E7E0E076E44DD89
:100CD40000C0ADF001C0AEF002C0AFF003C0B0F090
:100CE4000A0E046EACC000F0DCDD08C000F000C0E9
:100CF40001F0000E026E036E046E0136019002369E
:100D04000336043601360190023603360436090EE2
:100D14000124F66E410E0220F76E000E0320F86ED9
:100D24000900F5CF00F00900F5CF01F00900F5CF77
:100D340002F00900F5CF03F0ADC004F0AEC005F039
:100D4400AFC006F0B0C007F007DD2ED0ACC000F095
:100D5400000E016E026E036E0036009001360236FC
:100D6400033600360090013602360336090E00249D
:100D7400F66E410E0120F76E000E0220F86E090097
:100D8400F5CF00F00900F5CF01F00900F5CF02F02E
:100D94000900F5CF03F0000E046E000E056E000E80
:0A0DA400066E7E0E076ED8DC12000A
:100DAE000B6A0A6A096A086A0E6A03340836045026
:100DBE00085E0550D8A0053C095E0650D8A0063C3A
:100DCE000A5E0750D8A0073C0B5EE86AD8A0010E59
:100DDE000E5E0336070E0C6E0334083609360A36DD
:100DEE000B360E36045003A012D0085E0550D8A064
:100DFE00053C095E0650D8A0063C0A5E0750D8A0F6
:100E0E00073C0B5EE86AD8A0010E0E5E11D00826D4
:100E1E000550D8B0053C09260650D8B0063C0A2627
:100E2E000750D8B0073C0B26E86AD8B0010E0E2644
:100E3E0003360C2ED1D70234083609360A360B3655
:100E4E000E36045003A012D0085E0550D8A0053C03
:100E5E00095E0650D8A0063C0A5E0750D8A0073C93
:100E6E000B5EE86AD8A0010E0E5E11D00826055062
:100E7E00D8B0053C09260650D8B0063C0A260750C5
:100E8E00D8B0073C0B26E86AD8B0010E0E26023603
:100E9E00070E0C6E0234083609360A360B360E363D
:100EAE00045002A012D0085E0550D8A0053C095E81
:100EBE000650D8A0063C0A5E0750D8A0073C0B5E31
:100ECE00E86AD8A0010E0E5E11D008260550D8B0E3
:100EDE00053C09260650D8B0063C0A260750D8B065
:100EEE00073C0B26E86AD8B0010E0E2602360C2EF1
:100EFE00D1D70134083609360A360B360E36045071
:100F0E0002A012D0085E0550D8A0053C095E06501E
:100F1E00D8A0063C0A5E0750D8A0073C0B5EE86AD4
:100F2E00D8A0010E0E5E11D008260550D8B0053C93
:100F3E0009260650D8B0063C0A260750D8B0073C02
:100F4E000B26E86AD8B0010E0E260136070E0C6E7F
:100F5E000134083609360A360B360E36045001A017
:100F6E0012D0085E0550D8A0053C095E0650D8A0E8
:100F7E00063C0A5E0750D8A0073C0B5EE86AD8A074
:100F8E00010E0E5E11D008260550D8B0053C09267C
:100F9E000650D8B0063C0A260750D8B0073C0B26A0
:100FAE00E86AD8B0010E0E2601360C2ED1D70034C9
:100FBE00083609360A360B360E36045001A012D00A
:100FCE00085E0550D8A0053C095E0650D8A0063C28
:100FDE000A5E0750D8A0073C0B5EE86AD8A0010E47
:100FEE000E5E11D008260550D8B0053C09260650D5
:100FFE00D8B0063C0A260750D8B0073C0B26E86A44
:10100E00D8B0010E0E260036070E0C6E00340836D0
:10101E0009360A360B360E36045000A012D0085E82
:10102E000550D8A0053C095E0650D8A0063C0A5EC5
:10103E000750D8A0073C0B5EE86AD8A0010E0E5EE2
:10104E0011D008260550D8B0053C09260650D8B058
:10105E00063C0A260750D8B0073C0B26E86AD8B0E3
:10106E00010E0E2600360C2ED1D700B00ED0045035
:10107E0008260550D8B0053C09260650D8B0063CC7
:0C108E000A260750D8B0073C0B261200C1
:08109A00067E23EC01F01200B8
:1010A2000B6A0C6A086A0350D8B4D5EF08F002C084
:1010B2000AF0028E9E0E035E03AEC5EF08F0036CCB
:1010C200080E035CD8A092EF08F0036E083600C049
:1010D20008F001C000F002C001F0026A080E035CD1
:1010E200D8A092EF08F0036E083600C008F001C0E5
:1010F20000F0016A080E035CD8A092EF08F0036EBC
:10110200083600C008F0006A080E035CD8A092EF0F
:1011120008F0036E0836086A0350D8A4D8909EEFF0
:1011220008F00350D8B49EEF08F0D8900232013292
:1011320000320832032E96EF08F00BBC08A0AFEF86
:1011420008F0D8A0AFEF08F0082AD8B4002AD8B423
:10115200012AD8B4022A02BED9EF08F00AAED5EFAE
:1011620008F0021E011E001E081E082AD8B4002A1A
:10117200D8B4012AD8B4022AD5EF08F0026A016A6B
:10118200006A086AD5EF08F00B800BAEE0EF08F0BA
:10119200026A0AAEE0EF08F0026E016E006E086E9F
:1011A2000A360232E0EF08F00C6A000EE1EF08F0B6
:1011B200010E0C6E000E41EC04F0E1EF08F0FF0EA0
:1011C2000250036E0150026E0050016E0850006E14
:0211D200120009
:1011D4000B6A0A6A096A00500402F4CF09F0F3CFDB
:1011E40008F001500502F4CF0BF0F3CF0AF00050E1
:1011F4000502F3500926F4500A22E86A0B22015032
:101204000402F3500926F4500A22E86A0B2208C0AB
:1012140000F009C001F00AC002F00BC003F0120094
:101224000450000A12E10550000A0FE10650000ABA
:101234000CE10750000A09E1FF0E006EFF0E016E7B
:101244007F0E026EFF0E036EA8D0086A096A07506B
:10125400D8B4BDEF09F00350D8B4C2EF09F002507E
:1012640006180A6E028E068E0E6A02C008F001C0CD
:101274000CF000C00DF004500D5E0550D8A0053CE4
:101284000C5E0650D8A0063C085E086A0C6A0D6A1B
:10129400D8A054EF09F0D89002320132003208325B
:1012A400010E0E6E0750035ED8A061EF09F07E0EAA
:1012B4000E240326D8B0C7EF09F067EF09F07E0EBD
:1012C4000E240326D8A0CCEF09F0180E0B6E0D36B1
:1012D4000C3608360036013602360E360450005EEF
:1012E4000550D8A0053C015E0650D8A0063C025E1D
:1012F40006340E120EA082EF09F00D808DEF09F076
:10130400045000260550D8B0053C01260650D8B03C
:10131400062802260D900B2E69EF09F0B3EF09F0B1
:10132400D8900036013602360E360450005E055061
:10133400D8A0053C015E0650D8A0063C025E0634E7
:101344000E10010B0D26D8B00C2AD8B4082AD8A444
:10135400B3EF09F008320C320D32032AD8B4C7EFC8
:1013640009F00AAE089E0850026E0C50016E0D5032
:10137400006ECFEF09F0010E4FEC04F0CFEF09F04F
:10138400020E1FEC00F0CFEF09F0040E26EC00F083
:0C139400CFEF09F0080E12EC00F0120080
:1013A0000A6A0350D8A40A800750D8A40A820A50B7
:1013B000D8B433EF0AF0030AD8B4ECEF09F00AB05E
:1013C000E7EF09F006AE31EF0AF02FEF0AF002AEB8
:1013D0002FEF0AF031EF0AF00250800B0A6E029EE6
:1013E0000650800B069E0A18D8B4FDEF09F00A508B
:1013F000D8B42FEF0AF031EF0AF00750035CD8B4ED
:1014000007EF0AF0D8A023EF0AF029EF0AF0065000
:10141000025CD8B411EF0AF0D8A023EF0AF029EF4C
:101420000AF00550015CD8B41BEF0AF0D8A023EFF6
:101430000AF029EF0AF00450005CD8B433EF0AF048
:10144000D8B029EF0AF00A52D8B431EF0AF02FEFE2
:101450000AF00A52D8B42FEF0AF031EF0AF0D88020
:0E1460001200D8901200D880D884120012001A
:10146E0003500718D8A44BEF0AF002500618D8A460
:10147E004BEF0AF001500518D8A44BEF0AF00050BC
:0E148E000418D8B4D8841200D89412001200AA
:10149C000450000A08E10550000A05E1FF0E006E39
:1014AC007F0E016E58D00D6A096A086A015000104F
:1014BC00D8B4000C015005180A6E0ABE0D1E0B6A3A
:1014CC0005AE05D0041E051E042AD8B4052A01AEAB
:1014DC0005D0001E011E002AD8B4012A01500510A7
:1014EC000A6E0ABE10D082EC03F00BB020D00DAE09
:1014FC00000C001E011E002AD8B4012A081E091E69
:10150C00082AD8B4092A000C05AE0DD001BE07D0AC
:10151C000150096E0050086E016A006AE8D7016A32
:10152C00006A002A000C011E001E0B2ADDD7082AB7
:10153C00D8B4092A0450085CD8A4D9D70550095C42
:10154C00D8A4D5D7096A086A002AD8B4012A01AEF2
:08155C00CED70000FF0C1200C5
:10156400800E0001AC19006E800E000A005CD8B039
:101574006DD1AC510008016E01C0ACF0800E0118B1
:10158400006E800E6E0A005CD8A0C0D0640E046E9B
:10159400ACC000F033EC03F0120E0024056E000E14
:1015A40000BEFF0E066E000E062205C000F006C047
:1015B40001F0000E06BEFF0E026E036E00360090B0
:1015C4000136023603360036009001360236033601
:1015D400090E0024F66E410E0120F76E000E022063
:1015E400F86E0900F5CFADF00900F5CFAEF00900B3
:1015F400F5CFAFF00900F5CFB0F0640E046EACC0C7
:1016040000F033EC03F008C000F00A0E046E33EC73
:1016140003F0090E0024056E000E00BEFF0E066ED8
:10162400000E062205C000F006C001F0000E06BE42
:10163400FF0E026E036E003600900136023603364A
:1016440000360090013602360336090E0024F66E89
:10165400410E0120F76E000E0220F86E0900F5CF4E
:1016640000F00900F5CF01F00900F5CF02F0090000
:10167400F5CF03F0ADC004F0AEC005F0AFC006F086
:10168400B0C007F0AEEC03F000C0ADF001C0AEF0A6
:1016940002C0AFF003C0B0F00A0E046EACC000F09C
:1016A40033EC03F008C000F000C001F0000E00BEEF
:1016B400FF0E026E036E046E01360190023603368D
:1016C400043601360190023603360436090E01242D
:1016D400F66E410E0220F76E000E0320F86E09002C
:1016E400F5CF00F00900F5CF01F00900F5CF02F0C5
:1016F4000900F5CF03F0ADC004F0AEC005F0AFC0F3
:1017040006F0B0C007F0AEEC03F007D2800E0A0A70
:10171400006E800EAC19005C71E20A0E046EACC05F
:1017240000F033EC03F0090E0024056E000E00BE39
:10173400FF0E066E000E062205C000F006C001F082
:10174400000E06BEFF0E026E036E003600900136D8
:101754000236033600360090013602360336090E8F
:101764000024F66E410E0120F76E000E0220F86E82
:101774000900F5CFADF00900F5CFAEF00900F5CFC3
:10178400AFF00900F5CFB0F00A0E046EACC000F063
:1017940033EC03F008C000F000C001F0000E00BEFE
:1017A400FF0E026E036E046E01360190023603369C
:1017B400043601360190023603360436090E01243C
:1017C400F66E410E0220F76E000E0320F86E09003B
:1017D400F5CF00F00900F5CF01F00900F5CF02F0D4
:1017E4000900F5CF03F0ADC004F0AEC005F0AFC002
:1017F40006F0B0C007F0AEEC03F08FD1ACC000F03F
:10180400000EACBFFF0E016E026E036E0036009038
:1018140001360236033600360090013602360336AE
:10182400090E0024F66E410E0120F76E000E022010
:10183400F86E0900F5CF00F00900F5CF01F00900BA
:10184400F5CF02F00900F5CF03F067D1800EAC1993
:10185400006E800E6E0A005CD8A0C0D0640E046EC8
:10186400ACC000F033EC03F0120E0024056E000E41
:1018740000BEFF0E066E000E062205C000F006C074
:1018840001F0000E06BEFF0E026E036E00360090DD
:10189400013602360336003600900136023603362E
:1018A4003D0E0024F66E410E0120F76E000E02205C
:1018B400F86E0900F5CFADF00900F5CFAEF00900E0
:1018C400F5CFAFF00900F5CFB0F0640E046EACC0F4
:1018D40000F033EC03F008C000F00A0E046E33ECA1
:1018E40003F0090E0024056E000E00BEFF0E066E06
:1018F400000E062205C000F006C001F0000E06BE70
:10190400FF0E026E036E0036009001360236033677
:10191400003600900136023603363D0E0024F66E82
:10192400410E0120F76E000E0220F86E0900F5CF7B
:1019340000F00900F5CF01F00900F5CF02F009002D
:10194400F5CF03F0ADC004F0AEC005F0AFC006F0B3
:10195400B0C007F0AEEC03F000C0ADF001C0AEF0D3
:1019640002C0AFF003C0B0F00A0E046EACC000F0C9
:1019740033EC03F008C000F000C001F0000E00BE1C
:10198400FF0E026E036E046E0136019002360336BA
:101994000436013601900236033604363D0E012426
:1019A400F66E410E0220F76E000E0320F86E090059
:1019B400F5CF00F00900F5CF01F00900F5CF02F0F2
:1019C4000900F5CF03F0ADC004F0AEC005F0AFC020
:1019D40006F0B0C007F0AEEC03F09FD0800E0A0A08
:1019E400006E800EAC19005C71E20A0E046EACC08D
:1019F40000F033EC03F0090E0024056E000E00BE67
:101A0400FF0E066E000E062205C000F006C001F0AF
:101A1400000E06BEFF0E026E036E00360090013605
:101A240002360336003600900136023603363D0E88
:101A34000024F66E410E0120F76E000E0220F86EAF
:101A44000900F5CFADF00900F5CFAEF00900F5CFF0
:101A5400AFF00900F5CFB0F00A0E046EACC000F090
:101A640033EC03F008C000F000C001F0000E00BE2B
:101A7400FF0E026E036E046E0136019002360336C9
:101A84000436013601900236033604363D0E012435
:101A9400F66E410E0220F76E000E0320F86E090068
:101AA400F5CF00F00900F5CF01F00900F5CF02F001
:101AB4000900F5CF03F0ADC004F0AEC005F0AFC02F
:101AC40006F0B0C007F0AEEC03F027D0ACC000F0D5
:101AD400000EACBFFF0E016E026E036E0036009066
:101AE40001360236033600360090013602360336DC
:101AF4003D0E0024F66E410E0120F76E000E02200A
:101B0400F86E0900F5CF00F00900F5CF01F00900E7
:0C1B1400F5CF02F00900F5CF03F012003D
:101B20000001AC51390806E3300EAC5D03E3010E51
:081B3000006E01D0006A1200F2
:101B3800020E0C6E490E0D6E0D2EFED70C2EFCD724
:061B480000000000120085
:0C1B4E000E0E0D6E0D2EFED700001200D2
:101B5A000001A46BA56B986B996B86C000F087C0D7
:101B6A0001F088C002F0010E8627000E8723882321
:101B7A0000C0F6FF01C0F7FF02C0F8FF0900F5CF69
:101B8A0000F000C095F00052D8B4B8EF1DF095519E
:101B9A00250A0BE084C0E1FF85C0E2FF95C0E6FF9D
:101BAA00844B852BA44BA52BD8D7966B976B986B38
:101BBA00996B23D09887010E8627000E87238823E6
:101BCA0059D09881010E8627000E8723882352D088
:101BDA009883010E8627000E872388234BD0998786
:101BEA00010E8627000E8723882344D09885010E8C
:101BFA008627000E872388233DD086C0F6FF87C03C
:101C0A00F7FF88C0F8FF0900F5CF01F001502D0A4F
:101C1A00D1E086C0F6FF87C0F7FF88C0F8FF090049
:101C2A00F5CF01F00150200ACCE086C0F6FF87C04C
:101C3A00F7FF88C0F8FF0900F5CF01F001502B0A21
:101C4A00C7E086C0F6FF87C0F7FF88C0F8FF090023
:101C5A00F5CF01F00150230AC2E086C0F6FF87C023
:101C6A00F7FF88C0F8FF0900F5CF01F00150300AEC
:101C7A00BDE001D09ED798A301D0989198A701D032
:101C8A00989586C0F6FF87C0F7FF88C0F8FF09005D
:101C9A00F5CF00F0000E016E00C0ACF03CDF005240
:101CAA0035E0966B976B96C000F097C001F00A0E6C
:101CBA00046E000E056EEAEC08F086C0F6FF87C0D7
:101CCA00F7FF88C0F8FF0900F5CF02F002500024A0
:101CDA00966F000E0120976F300E965F000E975B8D
:101CEA00010E8627000E8723882386C0F6FF87C049
:101CFA00F7FF88C0F8FF0900F5CF00F0000E016E6B
:101D0A0000C0ACF008DF0052CEE133D086C0F6FF47
:101D1A0087C0F7FF88C0F8FF0900F5CF01F001502E
:101D2A002A0A27E189C0E9FF8AC0EAFFEECF00F05C
:101D3A00EECF01F000C0E9FF01C0EAFFEECF96F056
:101D4A00EECF97F089C0E9FF8AC0EAFF020EEE24BF
:101D5A00006E000EEE20016E89C0E1FF8AC0E2FF2C
:101D6A0000C0E6FF01C0E6FF010E8627000E8723AA
:101D7A00882386C0F6FF87C0F7FF88C0F8FF0900EE
:101D8A00F5CF01F001502E0A6FE1010E8627000EF1
:101D9A008723882386C0F6FF87C0F7FF88C0F8FF2D
:101DAA000900F5CF01F001502A0A28E189C0E9FFAC
:101DBA008AC0EAFFEECF00F0EECF01F000C0E9FFE3
:101DCA0001C0EAFFEECF93F0EECF94F089C0E9FFAD
:101DDA008AC0EAFF020EEE24006E000EEE20016EAB
:101DEA0089C0E1FF8AC0E2FF00C0E6FF01C0E6FF4A
:101DFA00010E8627000E8723882335D0936B946BB8
:101E0A0086C0F6FF87C0F7FF88C0F8FF0900F5CF44
:101E1A0000F0000E016E00C0ACF07DDE005223E03F
:101E2A0093C000F094C001F00A0E046E000E056E15
:101E3A00EAEC08F086C0F6FF87C0F7FF88C0F8FF13
:101E4A000900F5CF02F002500024936F000E012022
:101E5A00946F300E935F000E945B010E8627000E7E
:101E6A0087238823CDD703D0936B946B998986C037
:101E7A0000F087C001F088C002F0010E8627000E2C
:101E8A008723882300C0F6FF01C0F7FF02C0F8FFCE
:101E9A000900F5CF95F0F9D0A4C000F0A5C001F073
:101EAA00BCEF1DF09889E3D799852ED1988B99813B
:101EBA002BD1998329D1988D27D126D1988B988FA8
:101ECA0023D189C0E9FF8AC0EAFFEECF00F0EECF46
:101EDA0001F000C0E9FF01C0EAFFEECFA0F0EECFAB
:101EEA00A1F089C0E9FF8AC0EAFF020EEE24006E63
:101EFA00000EEE20016E89C0E1FF8AC0E2FF00C039
:101F0A00E6FF01C0E6FF000EA11902E1000EA019CA
:101F1A0004E1420EA06F000EA16FA26BA36BA25147
:101F2A00A025E96EA351A121EA6EEE520BE0010E43
:101F3A00A225006E000EA321016E00C0A2F001C00E
:101F4A00A3F0EDD7935194110AE0A351945D02E1F5
:101F5A00A251935D04E293C0A2F094C0A3F09751FA
:101F6A00A35D02E19651A25D05E2A251965FA351DB
:101F7A00975B02D0966B976B98B716D096C000F015
:101F8A0097C001F0010E965F000E975B005001109A
:101F9A000BE084C0E1FF85C0E2FF200EE66E844BB1
:101FAA00852BA44BA52BEAD7A2C002F0A3C003F04D
:101FBA00010EA25D006E000EA359016E00C0A2F0D0
:101FCA0001C0A3F00250031019E0A0C0E9FFA1C0AC
:101FDA00EAFF84C0E1FF85C0E2FFEECFE6FF844B53
:101FEA00852B010EA025006E000EA121016E00C0F6
:101FFA00A0F001C0A1F0A44BA52BD6D798A716D064
:10200A0096C000F097C001F0010E965F000E975B34
:10201A00005001100BE084C0E1FF85C0E2FF200EF2
:10202A00E66E844B852BA44BA52BEAD796D589C09F
:10203A00E9FF8AC0EAFFEECF00F0EECF01F000C060
:10204A00E9FF01C0EAFFEECF95F089C0E9FF8AC037
:10205A00EAFF020EEE24006E000EEE20016E89C029
:10206A00E1FF8AC0E2FF00C0E6FF01C0E6FF950E6D
:10207A00A06F000EA16F010EA26F000EA36F62D7B0
:10208A00C00E9813000E99133FD09551000AD8B488
:10209A0003D795516C0AD8B405D795514C0AD8B4D0
:1020AA0001D79551660AD8B4FFD69551450AD8B4D6
:1020BA00FDD69551650AD8B4FAD69551670AD8B4AF
:1020CA00F8D695516F0AD8B4F6D69551640AD8B4A1
:1020DA00F4D69551690AD8B4F0D69551700AD8B495
:1020EA00EDD69551580AD8B4E9D69551780AD8B49C
:1020FA00E6D69551730AD8B4E4D69551630A97E0A7
:10210A009551750ABDE0B3D7000E9815006E995126
:10211A00070B016E00500110D8B45FEF19F099A9AE
:10212A0004D0060E936F000E946F89C0E9FF8AC02F
:10213A00EAFFEECF00F0EECF01F000C0E9FF01C0E8
:10214A00EAFFEECF9AF0EECF9BF0EECF9CF0EECF07
:10215A009DF089C0E9FF8AC0EAFF040EEE24006EF2
:10216A00000EEE20016E89C0E1FF8AC0E2FF00C0C6
:10217A00E6FF01C0E6FF046A056A066A076A9AC0B2
:10218A0000F09BC001F09CC002F09DC003F0D0ECAF
:10219A0009F0010ED8B0000E006E005205E09C7FD7
:1021AA00030E9813000E99139E6B9F6B9AC000F052
:1021BA009BC001F09CC002F09DC003F0046A056A4E
:1021CA00066A076A37EC0AF0000ED8A4010E006E00
:1021DA000052D8B48AD09DC000F0016A026A036A2C
:1021EA00FF0E0016000E01167E0E005E000E015A4A
:1021FA0000C09EF001C09FF0010E005E000E015A61
:10220A0000C09EF001C09FF0030E046E000E056E22
:10221A00EAEC08F000C09EF001C09FF00A0E046EBE
:10222A00000E056E4EEC0AF000C09EF001C09FF051
:10223A00800E0118026E800E025C02E1000E005C44
:10224A0005E2010E00019E5F000E9F5B00019E5198
:10225A000008AC6FB2EC0AF09AC004F09BC005F01B
:10226A009CC006F09DC007F0AEEC03F000C0A0F0E1
:10227A0001C0A1F002C0A2F003C0A3F0000E046ED8
:10228A00000E056E000E066E7F0E076EA0C000F0EF
:10229A00A1C001F0A2C002F0A3C003F0D0EC09F083
:1022AA00010ED8B0000E006E005205E0010E9E5FCE
:1022BA00000E9F5B1AD0000E046E000E056E200EF3
:1022CA00066E820E076EA0C000F0A1C001F0A2C087
:1022DA0002F0A3C003F0D0EC09F0000ED8B0010E52
:1022EA00006E005202E09E4B9F2B800E006E800E05
:1022FA009F19005C02E19E51000803E3010E956FED
:10230A0002D09EC095F099B118D099A315D0800E2D
:10231A009F19006E7F0E005C02E1FC0E9E5D0BE3CE
:10232A00800E9F19006E800E9419005C02E1935191
:10233A009E5D01E201D001D0EFD39351941106E0E2
:10234A0099A304D0010E935F000E945B9451000888
:10235A0002E19351080803E2080E956F02D093C078
:10236A0095F09AC000F09BC001F09CC002F09DC09D
:10237A0003F0046A056A066A076A37EC0AF0000E77
:10238A00D8A4010E006E0052D8B44BD19EC0ACF056
:10239A00B2EC0AF000C004F001C005F002C006F079
:1023AA0003C007F09AC000F09BC001F09CC002F085
:1023BA009DC003F012EC09F000C09AF001C09BF036
:1023CA0002C09CF003C09DF0000195510008AC6F5B
:1023DA00B2EC0AF000C004F001C005F002C006F039
:1023EA0003C007F09AC000F09BC001F09CC002F045
:1023FA009DC003F012EC09F000C0A6F001C0A7F0DE
:10240A0002C0A8F003C0A9F0A6C09AF0A7C09BF02A
:10241A00A8C09CF0A9C09DF0A6C000F0A7C001F01A
:10242A00A8C002F0A9C003F0C7EC04F075EC04F0F0
:10243A0000C004F001C005F002C006F003C007F0B6
:10244A00A6C000F0A7C001F0A8C002F0A9C003F01E
:10245A004DEC08F0000E046E000E056E000E066EBE
:10246A007E0E076ED0EC09F0000ED8B0010E006E99
:10247A0000521AE09AC000F09BC001F09CC002F022
:10248A009DC003F0000E046E000E056E000E066E6F
:10249A007E0E076E23EC01F000C09AF001C09BF09B
:1024AA0002C09CF003C09DF09AC000F09BC001F0EE
:1024BA009CC002F09DC003F0C7EC04F000019551E6
:1024CA00010F096E0A6A000E0A2209C004F00AC046
:1024DA0005F0000E0ABEFF0E066E076E0436049063
:1024EA0005360636073604360490053606360736AC
:1024FA00A10E0424F66E410E0520F76E000E06208A
:10250A00F86E0900F5CF05F00900F5CF06F00900CD
:10251A00F5CF07F00900F5CF08F00850035C08E191
:10252A000750025C05E10650015C02E10550005CBF
:10253A001EE300019AC000F09BC001F09CC002F0AB
:10254A009DC003F0CD0E046ECC0E056E4C0E066EC9
:10255A007B0E076EAEEC03F000C09AF001C09BF050
:10256A0002C09CF003C09DF09E4B9F2B5AD09AC08C
:10257A0000F09BC001F09CC002F09DC003F0C7ECC4
:10258A0004F095C004F0000E056E066E076E043660
:10259A0004900536063607360436049005360636A4
:1025AA000736A10E0424F66E410E0520F76E000EC2
:1025BA000620F86E0900F5CF05F00900F5CF06F000
:1025CA000900F5CF07F00900F5CF08F00850035CC1
:1025DA0008E10750025C05E10650015C02E1055082
:1025EA00005C1FE200019AC000F09BC001F09CC091
:1025FA0002F09DC003F0000E046E000E056E200E60
:10260A00066E820E076EAEEC03F000C09AF001C0AF
:10261A009BF002C09CF003C09DF0010E9E5F000E6D
:10262A009F5B000199A393D099B791D0800E000ABD
:10263A00006E800E9419005C02E193510A0804E2CC
:10264A000A0E936F000E946F9AC000F09BC001F0BF
:10265A009CC002F09DC003F0C7EC04F000C0A0F0DB
:10266A0001C0A1F002C0A2F003C0A3F0A051A111C1
:10267A00A211A31142E00A0E046E000E056E066E48
:10268A00076EA0C000F0A1C001F0A2C002F0A3C072
:10269A0003F0D7EC06F008C000F009C001F00AC048
:1026AA0002F00BC003F0000E046E031808E1045098
:1026BA00021805E10450011802E10050000A1DE168
:1026CA00010E935F000E945B0A0E046E000E056EF7
:1026DA00066E076EA0C000F0A1C001F0A2C002F011
:1026EA00A3C003F0D7EC06F000C0A0F001C0A1F02F
:1026FA0002C0A2F003C0A3F0B9D7800E9419006EED
:10270A00800E005C02E19551935D21E29351955D43
:10271A00AC6FB2EC0AF000C004F001C005F002C0D0
:10272A0006F003C007F09AC000F09BC001F09CC0FD
:10273A0002F09DC003F012EC09F000C09AF001C04B
:10274A009BF002C09CF003C09DF093C095F0050E6B
:10275A0000019325006E000E9421016E0050965FD1
:10276A000150975B9351941103E199B701D004D0BA
:10277A00010E965F000E975B030E9815006E99C0C6
:10278A0001F0000E01160050011004E0010E965FE0
:10279A00000E975B98A539D098A312D098A103D0C0
:1027AA002D0E8B6F02D02B0E8B6F84C0E1FF85C07C
:1027BA00E2FF8BC0E6FF844B852BA44BA52B0CD0E4
:1027CA0098A10AD084C0E1FF85C0E2FF200EE66E20
:1027DA00844B852BA44BA52B800E006E800E971977
:1027EA00005C02E1965100080FE284C0E1FF85C057
:1027FA00E2FF300EE66E844B852BA44BA52B010E0F
:10280A00965F000E975BE8D73AD098B718D0800E3B
:10281A00006E800E9719005C02E1965100080FE2E3
:10282A0084C0E1FF85C0E2FF200EE66E844B852B53
:10283A00A44BA52B010E965F000E975BE8D798A3D1
:10284A0012D098A103D02D0E8C6F02D02B0E8C6F54
:10285A0084C0E1FF85C0E2FF8CC0E6FF844B852B74
:10286A00A44BA52B0CD098A10AD084C0E1FF85C047
:10287A00E2FF200EE66E844B852BA44BA52B9AC053
:10288A0000F09BC001F09CC002F09DC003F0C7ECB1
:10289A0004F000C0A0F001C0A1F002C0A2F003C081
:1028AA00A3F095C000F0000E016E026E036E0036B2
:1028BA0000900136023603360036009001360236A1
:1028CA000336A10E0024F66E410E0120F76E000EAB
:1028DA000220F86E0900F5CF04F00900F5CF05F0E3
:1028EA000900F5CF06F00900F5CF07F0A0C000F007
:1028FA00A1C001F0A2C002F0A3C003F0D7EC06F019
:10290A00300E002684C0E1FF85C0E2FF00C0E6FF6A
:10291A00844B852BA44BA52B9351941103E199B7B2
:10292A0001D06FD084C0E1FF85C0E2FF2E0EE66EB3
:10293A00844B852BA44BA52B9551935F000E945B7A
:10294A0095534DE0950795C000F0000E016E026E9A
:10295A00036E0036009001360236033600360090C8
:10296A00013602360336A10E0024F66E410E01200E
:10297A00F76E000E0220F86E0900F5CF04F0090088
:10298A00F5CF05F00900F5CF06F00900F5CF07F0FD
:10299A00A0C000F0A1C001F0A2C002F0A3C003F0E1
:1029AA00D7EC06F00A0E046E000E056E066E076E70
:1029BA00D7EC06F008C000F009C001F00AC002F026
:1029CA000BC003F0300E002684C0E1FF85C0E2FF91
:1029DA0000C0E6FF844B852BA44BA52BB1D793519E
:1029EA0094110FE084C0E1FF85C0E2FF300EE66E6D
:1029FA00844B852BA44BA52B010E935F000E945B91
:102A0A00EED798AB0BD084C0E1FF85C0E2FF450E3C
:102A1A00E66E844B852BA44BA52B0AD084C0E1FF1C
:102A2A0085C0E2FF650EE66E844B852BA44BA52B71
:102A3A00800E9F19006E800E005C02E1000E9E5D02
:102A4A0011E29E5100089E6F9F51000E9F5784C04D
:102A5A00E1FF85C0E2FF2D0EE66E844B852BA44B69
:102A6A00A52B0AD084C0E1FF85C0E2FF2B0EE66EDB
:102A7A00844B852BA44BA52B0A0E046E000E056E03
:102A8A009EC000F09FC001F04EEC0AF0300E002606
:102A9A0084C0E1FF85C0E2FF00C0E6FF0001844B6D
:102AAA00852BA44BA52B0A0E046E000E056E9EC044
:102ABA0000F09FC001F04EEC0AF008C000F009C017
:102ACA0001F0300E002684C0E1FF85C0E2FF00C09D
:102ADA00E6FF0001844B852BA44BA52B98A71AD09F
:102AEA00800E006E800E9719005C02E19651000874
:102AFA0011E284C0E1FF85C0E2FF200EE66E844B3E
:102B0A00852BA44BA52B010E965F000E975B965161
:102B1A009711EFE1B2EF0DF099A3F3D0800E9F1950
:102B2A00006E800E005C02E1000E9E5D0AE2010E5C
:102B3A009E5D006E000E9F59016E0050935F01501A
:102B4A00945B9AC000F09BC001F09CC002F09DC04B
:102B5A0003F0C7EC04F000C0A0F001C0A1F002C06D
:102B6A00A2F003C0A3F0010E956F95510A0A34E052
:102B7A0095C000F0000E016E026E036E00360090E2
:102B8A000136023603360036009001360236033625
:102B9A00A10E0024F66E410E0120F76E000E0220EF
:102BAA00F86E0900F5CF01F00900F5CF02F009002F
:102BBA00F5CF03F00900F5CF04F00450A35D08E156
:102BCA000350A25D05E10250A15D02E10150A05D42
:102BDA0001E202D0952BC9D79551935DAA6F000ED9
:102BEA009459AB6FAAC093F0ABC094F0A0C000F0A8
:102BFA00A1C001F0A2C002F0A3C003F075EC04F07A
:102C0A0000C004F001C005F002C006F003C007F0DE
:102C1A009AC000F09BC001F09CC002F09DC003F076
:102C2A004DEC08F000C0A6F001C0A7F002C0A8F061
:102C3A0003C0A9F0AAC0ACF0B2EC0AF0A6C004F036
:102C4A00A7C005F0A8C006F0A9C007F0AEEC03F0D3
:102C5A00000E046E000E056E000E066E7E0E076EE6
:102C6A0023EC01F0C7EC04F000C0A0F001C0A1F011
:102C7A0002C0A2F003C0A3F09351941142E00A0EDD
:102C8A00046E000E056E066E076EA0C000F0A1C0AD
:102C9A0001F0A2C002F0A3C003F0D7EC06F008C00E
:102CAA0000F009C001F00AC002F00BC003F0000EE8
:102CBA00046E031808E10450021805E104500118D3
:102CCA0002E10050000A1DE10A0E046E000E056EB4
:102CDA00066E076EA0C000F0A1C001F0A2C002F00B
:102CEA00A3C003F0D7EC06F000C0A0F001C0A1F029
:102CFA0002C0A2F003C0A3F0010E935F000E945B22
:102D0A00BBD7800E006E800E9419005C02E19351CD
:102D1A000C0816E393C0ACF062EC05F09AC004F01C
:102D2A009BC005F09CC006F09DC007F023EC01F0A3
:102D3A0000C09AF001C09BF002C09CF003C09DF055
:102D4A009AC000F09BC001F09CC002F09DC003F045
:102D5A00046A056A066A076A37EC0AF0000ED8A404
:102D6A00010E006E0052D8B477D09AC000F09BC012
:102D7A0001F09CC002F09DC003F0C7EC04F0000E05
:102D8A00046E031808E10450021805E10450011802
:102D9A0002E10050000A60E1800E006E800E9F1969
:102DAA00005C02E19E51010857E29EC0ACF0B2EC11
:102DBA000AF000C004F001C005F002C006F003C02A
:102DCA0007F09AC000F09BC001F09CC002F09DC0C1
:102DDA0003F012EC09F05F0E046E700E056E090E18
:102DEA00066E810E076ED0EC09F0010ED8B0000E07
:102DFA00006E005206E0090E00019E5F000E9F5B06
:102E0A0005D00001080E9E5F000E9F5B9EC0ACF0CD
:102E1A00B2EC0AF000C004F001C005F002C006F0EE
:102E2A0003C007F09AC000F09BC001F09CC002F0FA
:102E3A009DC003F012EC09F0C7EC04F000C0A0F04A
:102E4A0001C0A1F002C0A2F003C0A3F000019A6B76
:102E5A009B6B9C6B9D6B38D09AC000F09BC001F0B5
:102E6A009CC002F09DC003F0C7EC04F000C0A0F0C3
:102E7A0001C0A1F002C0A2F003C0A3F0A0C000F0FC
:102E8A00A1C001F0A2C002F0A3C003F075EC04F0E7
:102E9A0000C004F001C005F002C006F003C007F04C
:102EAA009AC000F09BC001F09CC002F09DC003F0E4
:102EBA004DEC08F000C09AF001C09BF002C09CF0F3
:102ECA0003C09DF09E6B9F6B010E956F95510A0A88
:102EDA0034E095C000F0000E016E026E036E0036FB
:102EEA00009001360236033600360090013602366B
:102EFA000336A10E0024F66E410E0120F76E000E75
:102F0A000220F86E0900F5CF01F00900F5CF02F0B2
:102F1A000900F5CF03F00900F5CF04F00450A35DD2
:102F2A0008E10350A25D05E10250A15D02E10150F2
:102F3A00A05D01E202D0952BC9D795519325006E69
:102F4A00000E9421016E9E5100269F5101220050CD
:102F5A00965F0150975B99B704D09351941101E1A0
:102F6A0004D0010E965F000E975B030E9815006E53
:102F7A0099C001F0000E01160050011004E0010E84
:102F8A00965F000E975B98A539D098A312D098A1A6
:102F9A0003D02D0E8D6F02D02B0E8D6F84C0E1FFF2
:102FAA0085C0E2FF8DC0E6FF844B852BA44BA52B81
:102FBA000CD098A10AD084C0E1FF85C0E2FF200EA0
:102FCA00E66E844B852BA44BA52B800E006E800EDB
:102FDA009719005C02E1965100080FE284C0E1FFF4
:102FEA0085C0E2FF300EE66E844B852BA44BA52BE1
:102FFA00010E965F000E975BE8D73AD098B718D0C3
:10300A00800E006E800E9719005C02E1965100084E
:10301A000FE284C0E1FF85C0E2FF200EE66E844B1A
:10302A00852BA44BA52B010E965F000E975BE8D764
:10303A0098A312D098A103D02D0E8E6F02D02B0E1A
:10304A008E6F84C0E1FF85C0E2FF8EC0E6FF844B2D
:10305A00852BA44BA52B0CD098A10AD084C0E1FFE4
:10306A0085C0E2FF200EE66E844B852BA44BA52B70
:10307A0095C000F0950700524CE095C000F0000E94
:10308A00016E026E036E0036009001360236033678
:10309A0000360090013602360336A10E0024F66E81
:1030AA00410E0120F76E000E0220F86E0900F5CFDE
:1030BA0004F00900F5CF05F00900F5CF06F0090084
:1030CA00F5CF07F0A0C000F0A1C001F0A2C002F045
:1030DA00A3C003F0D7EC06F00A0E046E000E056ECC
:1030EA00066E076ED7EC06F008C000F009C001F0C2
:1030FA000AC002F00BC003F0300E002684C0E1FFC4
:10310A0085C0E2FF00C0E6FF844B852BA44BA52BAC
:10311A00AFD7800E006E800E9F19005C02E19E51AF
:10312A0000080FE284C0E1FF85C0E2FF300EE66EC0
:10313A00844B852BA44BA52B010E9E5F000E9F5B33
:10314A00E8D7800E000A006E800E9419005C02E136
:10315A009351080803E2080E956F02D093C095F0C8
:10316A009551935F000E945B955303E199B701D093
:10317A000AD084C0E1FF85C0E2FF2E0EE66E844BC2
:10318A00852BA44BA52B95C0ACF0B2EC0AF09AC0E3
:10319A0004F09BC005F09CC006F09DC007F0AEECA1
:1031AA0003F051EC08F000C0A0F001C0A1F002C089
:1031BA00A2F003C0A3F095534DE0950795C000F027
:1031CA00000E016E026E036E003600900136023662
:1031DA00033600360090013602360336A10E00246B
:1031EA00F66E410E0120F76E000E0220F86E0900FD
:1031FA00F5CF04F00900F5CF05F00900F5CF06F088
:10320A000900F5CF07F0A0C000F0A1C001F0A2C0EC
:10321A0002F0A3C003F0D7EC06F00A0E046E000E0B
:10322A00056E066E076ED7EC06F008C000F009C0FE
:10323A0001F00AC002F00BC003F0300E002684C071
:10324A00E1FF85C0E2FF00C0E6FF844B852BA44B5B
:10325A00A52BB1D7935194110FE084C0E1FF85C02B
:10326A00E2FF300EE66E844B852BA44BA52B010E94
:10327A00935F000E945BEED798A71AD0800E006E6B
:10328A00800E9719005C02E19651000811E284C091
:10329A00E1FF85C0E2FF200EE66E844B852BA44B2E
:1032AA00A52B010E965F000E975B96519711EFE1E1
:1032BA00B2EF0DF0C00E9815016E99C002F0000E23
:1032CA000216000E021802E1000E0118D8A480D0DE
:1032DA0098A927D089C0E9FF8AC0EAFFEECF00F09B
:1032EA00EECF01F000C0E9FF01C0EAFFEECFA0F087
:1032FA00EECFA1F0EECFA2F0EECFA3F089C0E9FFA6
:10330A008AC0EAFF040EEE24006E000EEE20016E63
:10331A0089C0E1FF8AC0E2FF00C0E6FF01C0E6FF04
:10332A002FD089C0E9FF8AC0EAFFEECF00F0EECFC6
:10333A0001F000C0E9FF01C0EAFFEECF00F0EECFD6
:10334A0001F0000E01BEFF0E026E036E00C0A0F077
:10335A0001C0A1F002C0A2F003C0A3F089C0E9FF36
:10336A008AC0EAFF020EEE24006E000EEE20016E05
:10337A0089C0E1FF8AC0E2FF00C0E6FF01C0E6FFA4
:10338A00800EA319006E800E005C08E1000EA25D9B
:10339A0005E1000EA15D02E1000EA05D18E2030E38
:1033AA009813000E9913006A016A026A036AA0510F
:1033BA00005EA151015AA251025AA351035A00C0F8
:1033CA00A0F001C0A1F002C0A2F003C0A3F04ED049
:1033DA0098A927D089C0E9FF8AC0EAFFEECF00F09A
:1033EA00EECF01F000C0E9FF01C0EAFFEECFA0F086
:1033FA00EECFA1F0EECFA2F0EECFA3F089C0E9FFA5
:10340A008AC0EAFF040EEE24006E000EEE20016E62
:10341A0089C0E1FF8AC0E2FF00C0E6FF01C0E6FF03
:10342A0025D089C0E9FF8AC0EAFFEECF00F0EECFCF
:10343A0001F000C0E9FF01C0EAFFEECFA0F0EECF35
:10344A00A1F0000EA26FA36F89C0E9FF8AC0EAFF4C
:10345A00020EEE24006E000EEE20016E89C0E1FF1E
:10346A008AC0E2FF00C0E6FF01C0E6FF000E941921
:10347A0002E1000E93190FE1000E006EA31908E194
:10348A000050A21905E10050A11902E1A051000A59
:10349A0002E1934B942BC00E9815006E00C005F004
:1034AA00AED0010E956F95510A0A34E095C000F02E
:1034BA00000E016E026E036E00360090013602366F
:1034CA00033600360090013602360336A10E002478
:1034DA00F66E410E0120F76E000E0220F86E09000A
:1034EA00F5CF01F00900F5CF02F00900F5CF03F09E
:1034FA000900F5CF04F00450A35D08E10350A25D72
:10350A0005E10250A15D02E10150A05D01E202D095
:10351A00952BC9D782D0010E956F9551080A34E0D0
:10352A0095C000F0000E016E026E036E0036009028
:10353A00013602360336003600900136023603366B
:10354A00C90E0024F66E410E0120F76E000E02200D
:10355A00F86E0900F5CF01F00900F5CF02F0090075
:10356A00F5CF03F00900F5CF04F00450A35D08E19C
:10357A000350A25D05E10250A15D02E10150A05D88
:10358A0001E202D0952BC9D748D0010E956F95510B
:10359A000C0A34E095C000F0000E016E026E036E54
:1035AA0000360090013602360336003600900136A6
:1035BA0002360336710E0024F66E410E0120F76EB4
:1035CA00000E0220F86E0900F5CF01F00900F5CFD0
:1035DA0002F00900F5CF03F00900F5CF04F004501A
:1035EA00A35D08E10350A25D05E10250A15D02E17D
:1035FA000150A05D01E202D0952BC9D70ED005502B
:10360A00000AD8B44ED70550C00AD8B44AD70550D4
:10361A00800A81E00550400AB8E0800E006E800EF4
:10362A009419005C02E19351955D03E293C095F011
:10363A000DD0800E9419006E800E005C02E1955147
:10364A00935D04E295C093F0000E946F9651971122
:10365A000EE0030E9815006E99C001F0000E0116D7
:10366A000050011004E0010E965F000E975B800E79
:10367A009419006E800E9719005C02E19651935DD1
:10368A0005E29351965F9451975B02D0966B976BC4
:10369A00C40E9815016E9951080B026E0250080A61
:1036AA0002E1400E011808E19651971104E0010E5B
:1036BA00965F000E975B1CD0C00E9815016E99514B
:1036CA00080B026E0250080A02E1800E011810E18E
:1036DA00800E006E800E9719005C02E19651020876
:1036EA0005E2020E965F000E975B02D0966B976B0F
:1036FA0098A55DD098A312D098A103D02D0E8F6FF4
:10370A0002D02B0E8F6F84C0E1FF85C0E2FF8FC00D
:10371A00E6FF844B852BA44BA52B34D098A10BD064
:10372A0084C0E1FF85C0E2FF200EE66E844B852B44
:10373A00A44BA52B27D0C00E9815016E9951080BE2
:10374A00026E0250080A02E1800E01181BE184C0D1
:10375A00E1FF85C0E2FF300EE66E844B852BA44B59
:10376A00A52B98AB03D0580E906F02D0780E906FAD
:10377A0084C0E1FF85C0E2FF90C0E6FF844B852B41
:10378A00A44BA52B9651971111E084C0E1FF85C087
:10379A00E2FF300EE66E844B852BA44BA52B010E5F
:1037AA00965F000E975B96519711EFE174D0965190
:1037BA00971113E098B711D084C0E1FF85C0E2FFEA
:1037CA00200EE66E844B852BA44BA52B010E965F2B
:1037DA00000E975B96519711EFE198A312D098A12A
:1037EA0003D02D0E916F02D02B0E916F84C0E1FF92
:1037FA0085C0E2FF91C0E6FF844B852BA44BA52B25
:10380A000CD098A10AD084C0E1FF85C0E2FF200E47
:10381A00E66E844B852BA44BA52BC00E9815016E22
:10382A009951080B026E0250080A02E1400E011873
:10383A000BE184C0E1FF85C0E2FF300EE66E844BE7
:10384A00852BA44BA52B27D0C00E9815016E995134
:10385A00080B026E0250080A02E1800E01181BE1F1
:10386A0084C0E1FF85C0E2FF300EE66E844B852BF3
:10387A00A44BA52B98AB03D0580E926F02D0780EAA
:10388A00926F84C0E1FF85C0E2FF92C0E6FF844BDD
:10389A00852BA44BA52B800E006E800E9419005C1C
:1038AA0002E19351955D0BE284C0E1FF85C0E2FF1E
:1038BA00300EE66E844B852BA44BA52BECD793C018
:1038CA0000F094C001F0010E935F000E945B00506B
:1038DA000110D8B42AD1C00E9815006E00C0A6F007
:1038EA000AD193C000F094C001F0000E94BFFF0EFD
:1038FA00026E036E00360090013602360336003639
:10390A000090013602360336A10E0024F66E410EEF
:10391A000120F76E000E0220F86E0900F5CF04F0C0
:10392A000900F5CF05F00900F5CF06F00900F5CF3B
:10393A0007F0A0C000F0A1C001F0A2C002F0A3C02D
:10394A0003F0D7EC06F00A0E046E000E056E066E42
:10395A00076ED7EC06F008C000F009C001F00AC0F3
:10396A0002F00BC003F0300E0024956FD3D098AB51
:10397A0045D093C000F094C001F0000E94BFFF0E32
:10398A00026E036E003600900136023603360036A8
:10399A000090013602360336C90E0024F66E410E37
:1039AA000120F76E000E0220F86E0900F5CF04F030
:1039BA000900F5CF05F00900F5CF06F00900F5CFAB
:1039CA0007F0A0C000F0A1C001F0A2C002F0A3C09D
:1039DA0003F0D7EC06F00F0E0016000E01160216C1
:1039EA0003160C0E0024F66E420E0120F76E000E2E
:1039FA000220F86E0900F5CF95F044D093C000F08C
:103A0A0094C001F0000E94BFFF0E026E036E0036E2
:103A1A00009001360236033600360090013602362F
:103A2A000336C90E0024F66E410E0120F76E000E11
:103A3A000220F86E0900F5CF04F00900F5CF05F071
:103A4A000900F5CF06F00900F5CF07F0A0C000F095
:103A5A00A1C001F0A2C002F0A3C003F0D7EC06F0A7
:103A6A000F0E0016000E0116021603161D0E002474
:103A7A00F66E420E0120F76E000E0220F86E090063
:103A8A00F5CF95F047D093C000F094C001F0000E36
:103A9A0094BFFF0E026E036E0036009001360236A6
:103AAA00033600360090013602360336710E0024C2
:103ABA00F66E410E0120F76E000E0220F86E090024
:103ACA00F5CF04F00900F5CF05F00900F5CF06F0AF
:103ADA000900F5CF07F0A0C000F0A1C001F0A2C014
:103AEA0002F0A3C003F0D7EC06F0070E0014956F9E
:103AFA00300E95270FD0A651000AD8B4F2D6A65197
:103B0A00C00AD8B4EED6A651800AD8B430D7A65186
:103B1A00400AB9E084C0E1FF85C0E2FF95C0E6FF34
:103B2A00844B852BA44BA52BCAD698A71AD0800EF6
:103B3A00006E800E9719005C02E19651000811E2AE
:103B4A0084C0E1FF85C0E2FF200EE66E844B852B20
:103B5A00A44BA52B010E965F000E975B9651971109
:103B6A00EFE1B2EF0DF0A4C000F0A5C001F0120021
:0E3B7A005D9084C0ACF088EC04F05D80120019
:103B8800C26A411C006E0050C1160F0EC012C08ED2
:103B980078C000F000360090003600900050C21245
:103BA800C280A7EC0DF0C282C2A201D0FDD7C4CF5B
:103BB80001F0006A00C079F001C07AF0C350001229
:103BC800000E011200C079F001C07AF0C290000E18
:103BD8000014026E0150800B036E000E031802E100
:103BE800000E021803E00001796B7A6B79C000F0CF
:063BF8007AC001F012008A
:103BFE00220E0C6E086A096A0A6A0B6A0C06D8B4A1
:103C0E001FD0D8900B320A320932083203320232F8
:103C1E0001320032D8A0F2D70C06D8B409D0045025
:103C2E0008260550092206500A2207500B22EAD711
:103C3E00045008260550092206500A2207500B226E
:023C4E00120062
:103C500000017E6B7AC001F0010E006E015004E09D
:103C600000360090FF0FFBD700C07DF078C0E9FF61
:103C700079C0EAFF0050EE14016E0152010ED8A483
:103C8000000E006E7C51001A1AE07B51000806E21B
:103C90009CEC0DF09CEC0DF07B07F7D778C0E9FFAA
:103CA00079C0EAFF7D51EE14016E0152010ED8A4D5
:103CB000000E006E7C51001A02E0FF0E7E6F7EC087
:043CC00000F01200FE
:103CC4007D0E0001826F000E836F78C084F079C08E
:103CD40085F07AC086F07BC087F07CC088F0820EC5
:103CE400896F000E8A6FADEC0DF000C080F001C04A
:103CF40081F000507825E16E01507921E26EE66A88
:0A3D040080C000F081C001F0120041
:103D0E0010D0800E0001786F1AD0C00E786F17D0C9
:103D1E00940E786F14D0D40E786F11D0800E786F09
:103D2E000ED000017851010AECE07851020AEDE064
:103D3E007851030AEDE07851040AEDE0EFD77905EA
:103D4E00006E7851002600C078F000C0ACF088EC10
:103D5E0004F05D907C6B7C517A25E96E000E7B2120
:103D6E00EA6EEE520BE07C517A25E96E000E7B2155
:103D7E00EA6EEECF84F0FADE7C2BEDD75D8012007A
:103D8E00939A93989390939293949396819A819801
:103D9E0081968194819281906AEC04F06AEC04F031
:103DAE006AEC04F081828180818A67EC04F0819A4A
:103DBE006AEC04F0818A67EC04F0819A6AEC04F0F4
:103DCE00818A67EC04F0819A6AEC04F08190818A12
:103DDE0067EC04F0819A6AEC04F0818A67EC04F0D7
:103DEE00819A81928186818A67EC04F0819A6AECCD
:103DFE0004F081968180818A67EC04F0819A81902B
:103E0E00818A67EC04F0819A6AEC04F0818A67EC8F
:103E1E0004F0819A8180818A67EC04F0819A6AECC1
:103E2E0004F08190818A67EC04F0819A8186818406
:103E3E0081828180818A67EC04F0819A6AEC04F0B9
:043E4E005D80120081
:103E52000900F5CFE6FF0006FBE10106F9E11200D9
:103E6200FF0E00016F6FFF0E706FFF0E716FFF0E7E
:103E7200726FC26A411C006E0050C1160F0EC01252
:063E8200C08EC280120098
:103E88003F50405C06E21D0E0001746F000E756F16
:103E98000ED040503F5C06E20001190E746F000E10
:103EA800756F05D00001150E746F000E756F5E0EEC
:103EB800786F000E796FFB0E7A6F410E7B6F000EE4
:103EC8007C6F3FC07DF074C07EF075C07FF0F6DE79
:103ED800010E786F010E796F5E0E7A6F000E7B6FA0
:103EE80012DF4C0E786F000E796FE90E7A6F410E73
:103EF8007B6F000E7C6F49C07DF04AC07EF04B524C
:103F080003E0310E736F02D0300E736F73C07FF011
:103F1800D5DE020E786F010E796F4C0E7A6F000EA7
:063F28007B6FF1DE1200C8
:103F2E003FC040F0830E0001786F0F0E796F7A6BF1
:103F3E00320E7B6F010E7C6F84DE005203E0010EA9
:103F4E003F6E2ED0830E786F0F0E796F010E7A6F43
:103F5E00320E7B6F010E7C6F74DE005203E0020E98
:103F6E003F6E1ED0830E786F0F0E796F020E7A6F32
:103F7E00320E7B6F010E7C6F64DE005203E0030E87
:103F8E003F6E0ED0830E786F0F0E796F030E7A6F21
:103F9E00320E7B6F010E7C6F54DE0052D8A43F6A46
:023FAE001200FF
:103FB0000001786BE9DD00C074F001C075F0010EFE
:103FC0000001786FE1DD00C076F001C077F00001FC
:103FD0007551020802E17451000803E2010E736F8B
:103FE00001D0736B73C04BF076C000F077C001F066
:103FF000000E026E036E2C0E046E010E056E000E96
:10400000066E000E076EFBDDFF0E046E030E056EDE
:10401000000E066E076ED7EC06F000C049F001C036
:044020004AF0120050
:1040240017EC21F0030E0F01386F396B3A6B3B6BC1
:104034009280928292949296949494969488949C6A
:10404400948E95809582958495868994899607DFC8
:104054009CDE010EAC6F88EC04F00C0EAC6F88ECA7
:1040640004F0010E786F010E796F300E7A6F000E36
:104074007B6F4BDE020E786F010E796F210E7A6F23
:10408400000E7B6F42DE100E0B6E390E0C6E0D0EA1
:104094000D6E0D2EFED70C2EFCD70B2EFAD700007A
:1040A4000000010EAC6F88EC04F080DF3EDFEADE36
:1040B400020E0B6E040E0C6EBA0E0D6E0D2EFED794
:0E40C4000C2EFCD70B2EFAD70000EFD7FFD73B
:10422E0010EE15F0370E006E010E016ED20EF66E08
:0E423E00400EF76E000EF86E29EC1FF0120015
:0440D2002D2D2D0063
:0440D60044574E00FD
:0440DA00555020001D
:0F40DE00496E697469616C69736174696F6E0012
:0F40ED002020415343454E53455552202020007B
:0140FC0000C3
:0140FD0000C2
:0140FE000FB2
:0740FF00286E756C6C2900AE
:024106000000B7
:0141080000B6
:104109000000007FCDCC4C7B0AD723786F12037552
:1041190017B75171ACC5276EBD37066B95BF56678A
:1041290077CC2B645F700961FFE65B5D08E53C3C79
:044139006042221BA3
:10413D000000007F000020820000488500007A8882
:10414D0000401C8C0050438F00247492809618966A
:10415D0020BC3E99286B6E9CF90215A0EC782DC100
:04416D00CAF249E267
:1041710001000000080000004000000000020000F3
:10418100001000000080000000000400000020007A
:1041910000000001000000080000004000000000D5
:1041A100010000000A00000064000000E8030000B4
:1041B10010270000A086010040420F008096980061
:0841C10000E1F50500CA9A3B7C
:1041C90001000000100000000001000000100000C4
:1041D90000000100000010000000000100000010B4
:1041E900506F6964733A2533756B672049523A25D4
:0241F900630061
:1041FB0045543A257520204449523A2573202020F6
:01420B0000B2
:10420C003031323334353637383941424344454600
:01421C0000A1
:10421D00303132333435363738396162636465662F
:01422D000090
:020000040030CA
:0D000100231F3CFFBF81FF0FC00FE00F4029
:00000001FF
